{
  "_format": "hh-sol-artifact-1",
  "contractName": "SimpleBookKeeper",
  "sourceName": "contracts/BookKeepers/SimpleBookKeeper.sol",
  "abi": [
    {
      "inputs": [],
      "stateMutability": "nonpayable",
      "type": "constructor"
    },
    {
      "inputs": [
        {
          "internalType": "address",
          "name": "thrower",
          "type": "address"
        }
      ],
      "name": "AlreadyInitialised",
      "type": "error"
    },
    {
      "inputs": [
        {
          "internalType": "uint256",
          "name": "currentNAV",
          "type": "uint256"
        },
        {
          "internalType": "uint256",
          "name": "expectedNAV",
          "type": "uint256"
        }
      ],
      "name": "InconsistentNAV",
      "type": "error"
    },
    {
      "inputs": [
        {
          "internalType": "address",
          "name": "thrower",
          "type": "address"
        },
        {
          "internalType": "address",
          "name": "caller",
          "type": "address"
        },
        {
          "internalType": "address",
          "name": "nominatedOwner",
          "type": "address"
        }
      ],
      "name": "OnlyNominatedOwner",
      "type": "error"
    },
    {
      "inputs": [
        {
          "internalType": "address",
          "name": "thrower",
          "type": "address"
        },
        {
          "internalType": "address",
          "name": "caller",
          "type": "address"
        },
        {
          "internalType": "address",
          "name": "owner",
          "type": "address"
        }
      ],
      "name": "OnlyOwner",
      "type": "error"
    },
    {
      "inputs": [
        {
          "internalType": "address",
          "name": "repository",
          "type": "address"
        },
        {
          "internalType": "address",
          "name": "caller",
          "type": "address"
        }
      ],
      "name": "OnlyRepositoryController",
      "type": "error"
    },
    {
      "inputs": [],
      "name": "OnlyRepositoryOrController",
      "type": "error"
    },
    {
      "inputs": [],
      "name": "ValueOutsideRepositoryNotSettled",
      "type": "error"
    },
    {
      "inputs": [],
      "name": "repositoryCannotBeZeroAddress",
      "type": "error"
    },
    {
      "anonymous": false,
      "inputs": [
        {
          "indexed": false,
          "internalType": "uint256",
          "name": "value",
          "type": "uint256"
        },
        {
          "indexed": false,
          "internalType": "uint256",
          "name": "timestamp",
          "type": "uint256"
        },
        {
          "indexed": true,
          "internalType": "address",
          "name": "owner",
          "type": "address"
        }
      ],
      "name": "AUMUpdated",
      "type": "event"
    },
    {
      "anonymous": false,
      "inputs": [
        {
          "indexed": false,
          "internalType": "uint256",
          "name": "value",
          "type": "uint256"
        },
        {
          "indexed": false,
          "internalType": "uint256",
          "name": "timestamp",
          "type": "uint256"
        },
        {
          "indexed": true,
          "internalType": "address",
          "name": "owner",
          "type": "address"
        }
      ],
      "name": "NAVUpdated",
      "type": "event"
    },
    {
      "anonymous": false,
      "inputs": [
        {
          "indexed": false,
          "internalType": "address",
          "name": "oldOwner",
          "type": "address"
        },
        {
          "indexed": false,
          "internalType": "address",
          "name": "newOwner",
          "type": "address"
        }
      ],
      "name": "OwnerChanged",
      "type": "event"
    },
    {
      "anonymous": false,
      "inputs": [
        {
          "indexed": false,
          "internalType": "address",
          "name": "newOwner",
          "type": "address"
        }
      ],
      "name": "OwnerNominated",
      "type": "event"
    },
    {
      "anonymous": false,
      "inputs": [
        {
          "indexed": false,
          "internalType": "uint256",
          "name": "value",
          "type": "uint256"
        },
        {
          "indexed": false,
          "internalType": "uint256",
          "name": "timestamp",
          "type": "uint256"
        },
        {
          "indexed": true,
          "internalType": "address",
          "name": "owner",
          "type": "address"
        }
      ],
      "name": "valueOutsideRepositoryUpdated",
      "type": "event"
    },
    {
      "inputs": [
        {
          "internalType": "uint256",
          "name": "expectedNAV",
          "type": "uint256"
        }
      ],
      "name": "_checkExpectedNAV",
      "outputs": [],
      "stateMutability": "view",
      "type": "function"
    },
    {
      "inputs": [],
      "name": "acceptOwnership",
      "outputs": [],
      "stateMutability": "nonpayable",
      "type": "function"
    },
    {
      "inputs": [],
      "name": "acceptableMarginOfError",
      "outputs": [
        {
          "internalType": "uint256",
          "name": "",
          "type": "uint256"
        }
      ],
      "stateMutability": "view",
      "type": "function"
    },
    {
      "inputs": [],
      "name": "accountNFT",
      "outputs": [
        {
          "internalType": "address",
          "name": "",
          "type": "address"
        }
      ],
      "stateMutability": "view",
      "type": "function"
    },
    {
      "inputs": [],
      "name": "accountTokenId",
      "outputs": [
        {
          "internalType": "uint256",
          "name": "",
          "type": "uint256"
        }
      ],
      "stateMutability": "view",
      "type": "function"
    },
    {
      "inputs": [
        {
          "internalType": "uint256",
          "name": "expectedNAV",
          "type": "uint256"
        }
      ],
      "name": "checkExpectedNAV",
      "outputs": [],
      "stateMutability": "view",
      "type": "function"
    },
    {
      "inputs": [],
      "name": "getAUM",
      "outputs": [
        {
          "internalType": "uint256",
          "name": "",
          "type": "uint256"
        }
      ],
      "stateMutability": "view",
      "type": "function"
    },
    {
      "inputs": [],
      "name": "getLastKnownAUM",
      "outputs": [
        {
          "internalType": "uint256",
          "name": "",
          "type": "uint256"
        },
        {
          "internalType": "uint256",
          "name": "",
          "type": "uint256"
        }
      ],
      "stateMutability": "view",
      "type": "function"
    },
    {
      "inputs": [],
      "name": "getLastKnownNAV",
      "outputs": [
        {
          "internalType": "uint256",
          "name": "",
          "type": "uint256"
        },
        {
          "internalType": "uint256",
          "name": "",
          "type": "uint256"
        }
      ],
      "stateMutability": "view",
      "type": "function"
    },
    {
      "inputs": [],
      "name": "getNAV",
      "outputs": [
        {
          "internalType": "uint256",
          "name": "",
          "type": "uint256"
        }
      ],
      "stateMutability": "view",
      "type": "function"
    },
    {
      "inputs": [
        {
          "internalType": "address",
          "name": "_repository",
          "type": "address"
        }
      ],
      "name": "init",
      "outputs": [],
      "stateMutability": "nonpayable",
      "type": "function"
    },
    {
      "inputs": [],
      "name": "isCapReached",
      "outputs": [
        {
          "internalType": "bool",
          "name": "",
          "type": "bool"
        }
      ],
      "stateMutability": "view",
      "type": "function"
    },
    {
      "inputs": [],
      "name": "lastKnownAUM",
      "outputs": [
        {
          "internalType": "uint256",
          "name": "",
          "type": "uint256"
        }
      ],
      "stateMutability": "view",
      "type": "function"
    },
    {
      "inputs": [],
      "name": "lastKnownNAV18",
      "outputs": [
        {
          "internalType": "uint256",
          "name": "",
          "type": "uint256"
        }
      ],
      "stateMutability": "view",
      "type": "function"
    },
    {
      "inputs": [],
      "name": "lastKnownTimestamp",
      "outputs": [
        {
          "internalType": "uint256",
          "name": "",
          "type": "uint256"
        }
      ],
      "stateMutability": "view",
      "type": "function"
    },
    {
      "inputs": [
        {
          "internalType": "bool",
          "name": "_valueOutsideRepositorySettled",
          "type": "bool"
        }
      ],
      "name": "markValueOutsideRepositorySettled",
      "outputs": [],
      "stateMutability": "nonpayable",
      "type": "function"
    },
    {
      "inputs": [
        {
          "internalType": "address",
          "name": "_owner",
          "type": "address"
        }
      ],
      "name": "nominateNewOwner",
      "outputs": [],
      "stateMutability": "nonpayable",
      "type": "function"
    },
    {
      "inputs": [],
      "name": "nominatedOwner",
      "outputs": [
        {
          "internalType": "address",
          "name": "",
          "type": "address"
        }
      ],
      "stateMutability": "view",
      "type": "function"
    },
    {
      "inputs": [],
      "name": "owner",
      "outputs": [
        {
          "internalType": "address",
          "name": "",
          "type": "address"
        }
      ],
      "stateMutability": "view",
      "type": "function"
    },
    {
      "inputs": [],
      "name": "repository",
      "outputs": [
        {
          "internalType": "contract Repository",
          "name": "",
          "type": "address"
        }
      ],
      "stateMutability": "view",
      "type": "function"
    },
    {
      "inputs": [
        {
          "internalType": "uint256",
          "name": "_marginOfError",
          "type": "uint256"
        }
      ],
      "name": "setAcceptableMarginOfError",
      "outputs": [],
      "stateMutability": "nonpayable",
      "type": "function"
    }
  ],
  "bytecode": "0x6080806040523461009457600080546001600160a01b03191633908117825590825260208201527fb532073b38c83145e3e5135377a08bf9aab55bc0fd7c1179cd4fb995d2a5159c90604090a175ff0000000000000000000000000000000000000000ff1960325416603255670de0b6b3a76400006033556000603455426035556000603855604051610b8a908161009a8239f35b600080fdfe6040608081526004908136101561001557600080fd5b600091823560e01c9081630126c6061461057f5781631627540c1461051157816319ab453c146104815781631b2d61ad1461029257816353a47bb71461045857816356d4cb471461043957816359e607fa1461041a5781636dc7b0a1146103f657816379ba50971461035e5781638da5cb5b146103365781639b4a117a14610317578163a887eda3146102f8578163adfcf2ce146102dd578163bc7b975a146102b2578163bd606e4314610292578163c55d2a5d14610273578163d7e25c361461024c578163dae4bb7c14610223578163ddd64e5714610204578163df96868f14610139575063e9176c601461010a57600080fd5b34610135578160031936011261013557603254905160089190911c6001600160a01b03168152602090f35b5080fd5b9190503461020057602036600319011261020057603254815163b429afeb60e01b8152338482015260089190911c6001600160a01b03169190602081602481865afa9081156101f65785916101b8575b50156101985750503560385580f35b51630feae1a160e31b81529182916101b49133919084016105d4565b0390fd5b90506020813d82116101ee575b816101d26020938361059c565b810103126101ea575180151581036101ea5738610189565b8480fd5b3d91506101c5565b82513d87823e3d90fd5b8280fd5b5050346101355781600319360112610135576020906033549051908152f35b50503461013557816003193601126101355760365490516001600160a01b039091168152602090f35b50503461013557816003193601126101355760209060ff60325460a81c1690519015158152f35b5050346101355781600319360112610135576020906038549051908152f35b839034610135576020366003190112610135576102af9035610737565b80f35b8284346102da57806003193601126102da57506102cd61082a565b8151908152426020820152f35b80fd5b8284346102da57806003193601126102da57506102cd6105ee565b5050346101355781600319360112610135576020906035549051908152f35b8390346101355760203660031901126101355735801515036102da5780f35b505034610135578160031936011261013557905490516001600160a01b039091168152602090f35b905034610200578260031936011261020057600154906001600160a01b0380831691338390036103d75750817fb532073b38c83145e3e5135377a08bf9aab55bc0fd7c1179cd4fb995d2a5159c916103be875496519283928816836105d4565b0390a16001600160a01b03199283161783551660015580f35b84516312d9f3db60e31b8152928392506101b491339030908501610aa7565b50503461013557816003193601126101355760209061041361082a565b9051908152f35b5050346101355781600319360112610135576020906037549051908152f35b5050346101355781600319360112610135576020906034549051908152f35b50503461013557816003193601126101355760015490516001600160a01b039091168152602090f35b8383346101355760203660031901126101355782356001600160a01b0381169182820361050d576104b0610aca565b6032549260ff84166104f757156104e857506001600160a81b031990911660089190911b610100600160a81b03161760011760325580f35b5163afca4fa760e01b81528490fd5b815163161b906f60e01b81523081880152602490fd5b8380fd5b90503461020057602036600319011261020057356001600160a01b0381169190829003610200577f906a1c6bd7e3091ea86693dd029a831c19049ce77f1dce2ce0bab1cacbabce2291602091610565610aca565b600180546001600160a01b0319168317905551908152a180f35b5050346101355781600319360112610135576020906104136105ee565b90601f8019910116810190811067ffffffffffffffff8211176105be57604052565b634e487b7160e01b600052604160045260246000fd5b6001600160a01b0391821681529116602082015260400190565b6105f661082a565b60325460405163173a986d60e31b81526001600160a01b03916020919082908290600490829060081c87165afa80156106e55782916000916106f1575b506004604051809581936318160ddd60e01b8352165afa9081156106e5576000916106b9575b50905081158080156106b1575b6106a257670de0b6b3a764000080840293840414171561068c5761068991610b00565b90565b634e487b7160e01b600052601160045260246000fd5b505050670de0b6b3a764000090565b508115610666565b82813d83116106de575b6106cd818361059c565b810103126102da5750518038610659565b503d6106c3565b6040513d6000823e3d90fd5b909181813d8311610723575b610707818361059c565b8101031261013557519083821682036102da5750819038610633565b503d6106fd565b9190820391821161068c57565b6000906107426105ee565b91818311156107a45750610756818361072a565b670de0b6b3a76400009081810291818304149015171561068c578261077a91610b00565b60385410610786575050565b6044925060405191636337977360e01b835260048301526024820152fd5b6107ae838361072a565b90670de0b6b3a7640000918281029281840414901517156107d95750826107d491610b00565b61077a565b634e487b7160e01b81526011600452602490fd5b9081602091031261080c57516001600160a01b038116810361080c5790565b600080fd5b9081602091031261080c575160ff8116810361080c5790565b6032546040805163333107c960e21b8082526001600160a01b0393909160209160081c85169060049083818381865afa908115610a7f5793809392918895600091610a8a575b5060248851809a81936370a0823160e01b83528787840152165afa968715610a7f57600097610a50575b5085519685885283888381865afa9788156109cd57600098610a31575b50865190848284818963313ce56760e01b9d8e8352165afa918215610a0757906108ea9291600092610a12575b50610b20565b968651956358f67c0b60e01b875284878481875afa968715610a07576000976109d8575b5084908389518096819382525afa9283156109cd57908493929160009361099e575b50875195869384928352165afa93841561099457509161068994939161095f93600093610965575b5050610b20565b9061072a565b610985929350803d1061098d575b61097d818361059c565b810190610811565b903880610958565b503d610973565b513d6000823e3d90fd5b6109bf919350843d86116109c6575b6109b7818361059c565b8101906107ed565b9138610930565b503d6109ad565b87513d6000823e3d90fd5b90968582813d8311610a00575b6109ef818361059c565b810103126102da575051958461090e565b503d6109e5565b88513d6000823e3d90fd5b610a2a919250863d881161098d5761097d818361059c565b90386108e4565b610a49919850843d86116109c6576109b7818361059c565b96386108b7565b90968382813d8311610a78575b610a67818361059c565b810103126102da575051953861089a565b503d610a5d565b86513d6000823e3d90fd5b610aa19150823d84116109c6576109b7818361059c565b38610870565b6001600160a01b0391821681529181166020830152909116604082015260600190565b6000546001600160a01b031633819003610ae15750565b60405163035785f360e31b81529081906101b490333060048501610aa7565b8115610b0a570490565b634e487b7160e01b600052601260045260246000fd5b90670de0b6b3a76400009182810292818404149015171561068c5760ff1690604d821161068c5761068991600a0a90610b0056fea2646970667358221220a793c1d1c3e32f9ef41486e5a9ddc022a9dbe4490fbbafbdf7215989c2dcd65d64736f6c63430008140033",
  "linkReferences": {},
  "deployedLinkReferences": {}
}