{
  "_format": "hh-sol-artifact-1",
  "contractName": "Strands250",
  "sourceName": "contracts/nft/Strands250.sol",
  "abi": [
    {
      "inputs": [
        {
          "internalType": "string",
          "name": "_name",
          "type": "string"
        },
        {
          "internalType": "string",
          "name": "_symbol",
          "type": "string"
        },
        {
          "internalType": "uint8",
          "name": "_cap",
          "type": "uint8"
        },
        {
          "internalType": "string",
          "name": "_baseURI",
          "type": "string"
        }
      ],
      "stateMutability": "nonpayable",
      "type": "constructor"
    },
    {
      "inputs": [],
      "name": "ControllerAlreadySet",
      "type": "error"
    },
    {
      "inputs": [
        {
          "internalType": "uint256",
          "name": "mintLimit",
          "type": "uint256"
        }
      ],
      "name": "MintLimitReached",
      "type": "error"
    },
    {
      "inputs": [
        {
          "internalType": "address",
          "name": "thrower",
          "type": "address"
        },
        {
          "internalType": "address",
          "name": "caller",
          "type": "address"
        }
      ],
      "name": "OnlyController",
      "type": "error"
    },
    {
      "inputs": [
        {
          "internalType": "address",
          "name": "thrower",
          "type": "address"
        },
        {
          "internalType": "address",
          "name": "caller",
          "type": "address"
        },
        {
          "internalType": "address",
          "name": "nominatedOwner",
          "type": "address"
        }
      ],
      "name": "OnlyNominatedOwner",
      "type": "error"
    },
    {
      "inputs": [
        {
          "internalType": "address",
          "name": "thrower",
          "type": "address"
        },
        {
          "internalType": "address",
          "name": "caller",
          "type": "address"
        },
        {
          "internalType": "address",
          "name": "owner",
          "type": "address"
        }
      ],
      "name": "OnlyOwner",
      "type": "error"
    },
    {
      "inputs": [
        {
          "internalType": "address",
          "name": "operator",
          "type": "address"
        }
      ],
      "name": "OperatorNotAllowed",
      "type": "error"
    },
    {
      "anonymous": false,
      "inputs": [
        {
          "indexed": true,
          "internalType": "address",
          "name": "owner",
          "type": "address"
        },
        {
          "indexed": true,
          "internalType": "address",
          "name": "spender",
          "type": "address"
        },
        {
          "indexed": true,
          "internalType": "uint256",
          "name": "id",
          "type": "uint256"
        }
      ],
      "name": "Approval",
      "type": "event"
    },
    {
      "anonymous": false,
      "inputs": [
        {
          "indexed": true,
          "internalType": "address",
          "name": "owner",
          "type": "address"
        },
        {
          "indexed": true,
          "internalType": "address",
          "name": "operator",
          "type": "address"
        },
        {
          "indexed": false,
          "internalType": "bool",
          "name": "approved",
          "type": "bool"
        }
      ],
      "name": "ApprovalForAll",
      "type": "event"
    },
    {
      "anonymous": false,
      "inputs": [
        {
          "indexed": false,
          "internalType": "address",
          "name": "controller",
          "type": "address"
        },
        {
          "indexed": false,
          "internalType": "bool",
          "name": "isController",
          "type": "bool"
        }
      ],
      "name": "ControllerSet",
      "type": "event"
    },
    {
      "anonymous": false,
      "inputs": [
        {
          "indexed": false,
          "internalType": "address",
          "name": "oldOwner",
          "type": "address"
        },
        {
          "indexed": false,
          "internalType": "address",
          "name": "newOwner",
          "type": "address"
        }
      ],
      "name": "OwnerChanged",
      "type": "event"
    },
    {
      "anonymous": false,
      "inputs": [
        {
          "indexed": false,
          "internalType": "address",
          "name": "newOwner",
          "type": "address"
        }
      ],
      "name": "OwnerNominated",
      "type": "event"
    },
    {
      "anonymous": false,
      "inputs": [
        {
          "indexed": true,
          "internalType": "address",
          "name": "from",
          "type": "address"
        },
        {
          "indexed": true,
          "internalType": "address",
          "name": "to",
          "type": "address"
        },
        {
          "indexed": true,
          "internalType": "uint256",
          "name": "id",
          "type": "uint256"
        }
      ],
      "name": "Transfer",
      "type": "event"
    },
    {
      "inputs": [],
      "name": "OPERATOR_FILTER_REGISTRY",
      "outputs": [
        {
          "internalType": "contract IOperatorFilterRegistry",
          "name": "",
          "type": "address"
        }
      ],
      "stateMutability": "view",
      "type": "function"
    },
    {
      "inputs": [],
      "name": "acceptOwnership",
      "outputs": [],
      "stateMutability": "nonpayable",
      "type": "function"
    },
    {
      "inputs": [
        {
          "internalType": "uint8",
          "name": "num",
          "type": "uint8"
        }
      ],
      "name": "adminSelfBatchMint",
      "outputs": [],
      "stateMutability": "nonpayable",
      "type": "function"
    },
    {
      "inputs": [
        {
          "internalType": "address",
          "name": "operator",
          "type": "address"
        },
        {
          "internalType": "uint256",
          "name": "tokenId",
          "type": "uint256"
        }
      ],
      "name": "approve",
      "outputs": [],
      "stateMutability": "nonpayable",
      "type": "function"
    },
    {
      "inputs": [
        {
          "internalType": "address",
          "name": "owner",
          "type": "address"
        }
      ],
      "name": "balanceOf",
      "outputs": [
        {
          "internalType": "uint256",
          "name": "",
          "type": "uint256"
        }
      ],
      "stateMutability": "view",
      "type": "function"
    },
    {
      "inputs": [],
      "name": "cap",
      "outputs": [
        {
          "internalType": "uint256",
          "name": "",
          "type": "uint256"
        }
      ],
      "stateMutability": "view",
      "type": "function"
    },
    {
      "inputs": [
        {
          "internalType": "uint256",
          "name": "",
          "type": "uint256"
        }
      ],
      "name": "controllers",
      "outputs": [
        {
          "internalType": "address",
          "name": "",
          "type": "address"
        }
      ],
      "stateMutability": "view",
      "type": "function"
    },
    {
      "inputs": [],
      "name": "feeAmount",
      "outputs": [
        {
          "internalType": "uint256",
          "name": "",
          "type": "uint256"
        }
      ],
      "stateMutability": "view",
      "type": "function"
    },
    {
      "inputs": [],
      "name": "feeRecipient",
      "outputs": [
        {
          "internalType": "address",
          "name": "",
          "type": "address"
        }
      ],
      "stateMutability": "view",
      "type": "function"
    },
    {
      "inputs": [],
      "name": "feeToken",
      "outputs": [
        {
          "internalType": "address",
          "name": "",
          "type": "address"
        }
      ],
      "stateMutability": "view",
      "type": "function"
    },
    {
      "inputs": [
        {
          "internalType": "uint256",
          "name": "",
          "type": "uint256"
        }
      ],
      "name": "getApproved",
      "outputs": [
        {
          "internalType": "address",
          "name": "",
          "type": "address"
        }
      ],
      "stateMutability": "view",
      "type": "function"
    },
    {
      "inputs": [
        {
          "internalType": "address",
          "name": "",
          "type": "address"
        },
        {
          "internalType": "address",
          "name": "",
          "type": "address"
        }
      ],
      "name": "isApprovedForAll",
      "outputs": [
        {
          "internalType": "bool",
          "name": "",
          "type": "bool"
        }
      ],
      "stateMutability": "view",
      "type": "function"
    },
    {
      "inputs": [
        {
          "internalType": "address",
          "name": "_controller",
          "type": "address"
        }
      ],
      "name": "isController",
      "outputs": [
        {
          "internalType": "bool",
          "name": "",
          "type": "bool"
        }
      ],
      "stateMutability": "view",
      "type": "function"
    },
    {
      "inputs": [],
      "name": "mintCounter",
      "outputs": [
        {
          "internalType": "uint256",
          "name": "",
          "type": "uint256"
        }
      ],
      "stateMutability": "view",
      "type": "function"
    },
    {
      "inputs": [],
      "name": "name",
      "outputs": [
        {
          "internalType": "string",
          "name": "",
          "type": "string"
        }
      ],
      "stateMutability": "view",
      "type": "function"
    },
    {
      "inputs": [
        {
          "internalType": "address",
          "name": "_owner",
          "type": "address"
        }
      ],
      "name": "nominateNewOwner",
      "outputs": [],
      "stateMutability": "nonpayable",
      "type": "function"
    },
    {
      "inputs": [],
      "name": "nominatedOwner",
      "outputs": [
        {
          "internalType": "address",
          "name": "",
          "type": "address"
        }
      ],
      "stateMutability": "view",
      "type": "function"
    },
    {
      "inputs": [],
      "name": "owner",
      "outputs": [
        {
          "internalType": "address",
          "name": "",
          "type": "address"
        }
      ],
      "stateMutability": "view",
      "type": "function"
    },
    {
      "inputs": [
        {
          "internalType": "uint256",
          "name": "id",
          "type": "uint256"
        }
      ],
      "name": "ownerOf",
      "outputs": [
        {
          "internalType": "address",
          "name": "owner",
          "type": "address"
        }
      ],
      "stateMutability": "view",
      "type": "function"
    },
    {
      "inputs": [
        {
          "internalType": "address",
          "name": "from",
          "type": "address"
        },
        {
          "internalType": "address",
          "name": "to",
          "type": "address"
        },
        {
          "internalType": "uint256",
          "name": "id",
          "type": "uint256"
        }
      ],
      "name": "safeTransferFrom",
      "outputs": [],
      "stateMutability": "nonpayable",
      "type": "function"
    },
    {
      "inputs": [
        {
          "internalType": "address",
          "name": "from",
          "type": "address"
        },
        {
          "internalType": "address",
          "name": "to",
          "type": "address"
        },
        {
          "internalType": "uint256",
          "name": "id",
          "type": "uint256"
        },
        {
          "internalType": "bytes",
          "name": "data",
          "type": "bytes"
        }
      ],
      "name": "safeTransferFrom",
      "outputs": [],
      "stateMutability": "nonpayable",
      "type": "function"
    },
    {
      "inputs": [
        {
          "internalType": "address",
          "name": "operator",
          "type": "address"
        },
        {
          "internalType": "bool",
          "name": "approved",
          "type": "bool"
        }
      ],
      "name": "setApprovalForAll",
      "outputs": [],
      "stateMutability": "nonpayable",
      "type": "function"
    },
    {
      "inputs": [
        {
          "internalType": "string",
          "name": "_URI",
          "type": "string"
        }
      ],
      "name": "setBaseURI",
      "outputs": [],
      "stateMutability": "nonpayable",
      "type": "function"
    },
    {
      "inputs": [
        {
          "internalType": "uint256",
          "name": "_newAmount",
          "type": "uint256"
        }
      ],
      "name": "setFeeAmount",
      "outputs": [],
      "stateMutability": "nonpayable",
      "type": "function"
    },
    {
      "inputs": [
        {
          "internalType": "address",
          "name": "_newRecipient",
          "type": "address"
        }
      ],
      "name": "setFeeRecipient",
      "outputs": [],
      "stateMutability": "nonpayable",
      "type": "function"
    },
    {
      "inputs": [
        {
          "internalType": "address",
          "name": "_newToken",
          "type": "address"
        }
      ],
      "name": "setFeeToken",
      "outputs": [],
      "stateMutability": "nonpayable",
      "type": "function"
    },
    {
      "inputs": [
        {
          "internalType": "bool",
          "name": "i",
          "type": "bool"
        }
      ],
      "name": "setIndividualize",
      "outputs": [],
      "stateMutability": "nonpayable",
      "type": "function"
    },
    {
      "inputs": [
        {
          "internalType": "address",
          "name": "_controller",
          "type": "address"
        },
        {
          "internalType": "bool",
          "name": "isController_",
          "type": "bool"
        }
      ],
      "name": "setIsController",
      "outputs": [],
      "stateMutability": "nonpayable",
      "type": "function"
    },
    {
      "inputs": [
        {
          "internalType": "uint256",
          "name": "tokenId",
          "type": "uint256"
        },
        {
          "internalType": "string",
          "name": "_tokenURI",
          "type": "string"
        }
      ],
      "name": "setTokenURI",
      "outputs": [],
      "stateMutability": "nonpayable",
      "type": "function"
    },
    {
      "inputs": [
        {
          "internalType": "bytes4",
          "name": "interfaceId",
          "type": "bytes4"
        }
      ],
      "name": "supportsInterface",
      "outputs": [
        {
          "internalType": "bool",
          "name": "",
          "type": "bool"
        }
      ],
      "stateMutability": "view",
      "type": "function"
    },
    {
      "inputs": [],
      "name": "symbol",
      "outputs": [
        {
          "internalType": "string",
          "name": "",
          "type": "string"
        }
      ],
      "stateMutability": "view",
      "type": "function"
    },
    {
      "inputs": [
        {
          "internalType": "uint256",
          "name": "tokenId",
          "type": "uint256"
        }
      ],
      "name": "tokenURI",
      "outputs": [
        {
          "internalType": "string",
          "name": "",
          "type": "string"
        }
      ],
      "stateMutability": "view",
      "type": "function"
    },
    {
      "inputs": [
        {
          "internalType": "address",
          "name": "from",
          "type": "address"
        },
        {
          "internalType": "address",
          "name": "to",
          "type": "address"
        },
        {
          "internalType": "uint256",
          "name": "id",
          "type": "uint256"
        }
      ],
      "name": "transferFrom",
      "outputs": [],
      "stateMutability": "nonpayable",
      "type": "function"
    }
  ],
  "bytecode": "0x60806040526000603d553480156200001657600080fd5b50604051620023f3380380620023f383398101604081905262000039916200033d565b3380733cc6cdda760b79bafa08df41ecfa224f810dceb660018787600062000062838262000478565b50600162000071828262000478565b5050506daaeb6d7670e522a718067333cd4e3b15620001b95780156200010757604051633e9f1edf60e11b81523060048201526001600160a01b03831660248201526daaeb6d7670e522a718067333cd4e90637d3e3dbe906044015b600060405180830381600087803b158015620000e857600080fd5b505af1158015620000fd573d6000803e3d6000fd5b50505050620001b9565b6001600160a01b03821615620001585760405163a0af290360e01b81523060048201526001600160a01b03831660248201526daaeb6d7670e522a718067333cd4e9063a0af290390604401620000cd565b604051632210724360e11b81523060048201526daaeb6d7670e522a718067333cd4e90634420e48690602401600060405180830381600087803b1580156200019f57600080fd5b505af1158015620001b4573d6000803e3d6000fd5b505050505b5050600680546001600160a01b03199081166001600160a01b038581169182179093556038805460018101825560009182527f38395c5dceade9603479b177b68959049485df8aa97b39f3533039af5f456199018054909316938516939093179091556040805192835260208301919091527fb532073b38c83145e3e5135377a08bf9aab55bc0fd7c1179cd4fb995d2a5159c910160405180910390a1505060ff8216603955603c6200026d828262000478565b505050505062000544565b634e487b7160e01b600052604160045260246000fd5b600082601f830112620002a057600080fd5b81516001600160401b0380821115620002bd57620002bd62000278565b604051601f8301601f19908116603f01168101908282118183101715620002e857620002e862000278565b816040528381526020925086838588010111156200030557600080fd5b600091505b838210156200032957858201830151818301840152908201906200030a565b600093810190920192909252949350505050565b600080600080608085870312156200035457600080fd5b84516001600160401b03808211156200036c57600080fd5b6200037a888389016200028e565b955060208701519150808211156200039157600080fd5b6200039f888389016200028e565b94506040870151915060ff82168214620003b857600080fd5b606087015191935080821115620003ce57600080fd5b50620003dd878288016200028e565b91505092959194509250565b600181811c90821680620003fe57607f821691505b6020821081036200041f57634e487b7160e01b600052602260045260246000fd5b50919050565b601f8211156200047357600081815260208120601f850160051c810160208610156200044e5750805b601f850160051c820191505b818110156200046f578281556001016200045a565b5050505b505050565b81516001600160401b0381111562000494576200049462000278565b620004ac81620004a58454620003e9565b8462000425565b602080601f831160018114620004e45760008415620004cb5750858301515b600019600386901b1c1916600185901b1785556200046f565b600085815260208120601f198616915b828110156200051557888601518255948401946001909101908401620004f4565b5085821015620005345787850151600019600388901b60f8161c191681555b5050505050600190811b01905550565b611e9f80620005546000396000f3fe608060405234801561001057600080fd5b506004361061020b5760003560e01c8063647846a51161012a578063abbd69d0116100bd578063c87b56dd1161008c578063e74b981b11610071578063e74b981b1461046d578063e94b0dd214610480578063e985e9c51461049357600080fd5b8063c87b56dd14610447578063db8ce5441461045a57600080fd5b8063abbd69d0146103fb578063b429afeb1461040e578063b88d4fde14610421578063c646273e1461043457600080fd5b806379ba5097116100f957806379ba5097146103c55780638da5cb5b146103cd57806395d89b41146103e0578063a22cb465146103e857600080fd5b8063647846a51461038357806369e15404146103965780636b3926801461039f57806370a08231146103b257600080fd5b8063355274ea116101a257806346aa52ce1161017157806346aa52ce1461034157806353a47bb71461034a57806355f804b31461035d5780636352211e1461037057600080fd5b8063355274ea146102ef57806341f434341461030657806342842e0e1461031b578063469048401461032e57600080fd5b806315cce224116101de57806315cce224146102a3578063162094c4146102b65780631627540c146102c957806323b872dd146102dc57600080fd5b806301ffc9a71461021057806306fdde0314610238578063081812fc1461024d578063095ea7b31461028e575b600080fd5b61022361021e3660046117ef565b6104c1565b60405190151581526020015b60405180910390f35b6102406104d2565b60405161022f9190611813565b61027661025b366004611861565b6004602052600090815260409020546001600160a01b031681565b6040516001600160a01b03909116815260200161022f565b6102a161029c366004611891565b610560565b005b6102a16102b13660046118bb565b610579565b6102a16102c4366004611979565b6105d4565b6102a16102d73660046118bb565b61068e565b6102a16102ea3660046119c0565b6106ea565b6102f860395481565b60405190815260200161022f565b6102766daaeb6d7670e522a718067333cd4e81565b6102a16103293660046119c0565b6109af565b603f54610276906001600160a01b031681565b6102f8603a5481565b600754610276906001600160a01b031681565b6102a161036b3660046119fc565b6109d4565b61027661037e366004611861565b610a13565b603e54610276906001600160a01b031681565b6102f8603d5481565b6102a16103ad366004611861565b610a7d565b6102f86103c03660046118bb565b610ab6565b6102a1610b2a565b600654610276906001600160a01b031681565b610240610bfb565b6102a16103f6366004611a47565b610c08565b6102a1610409366004611a7e565b610c1c565b61022361041c3660046118bb565b610cdb565b6102a161042f366004611aa1565b610cef565b6102a1610442366004611a47565b610d1e565b610240610455366004611861565b610ec0565b6102a1610468366004611b3c565b610f73565b6102a161047b3660046118bb565b610fba565b61027661048e366004611861565b611010565b6102236104a1366004611b59565b600560209081526000928352604080842090915290825290205460ff1681565b60006104cc8261103a565b92915050565b600080546104df90611b8c565b80601f016020809104026020016040519081016040528092919081815260200182805461050b90611b8c565b80156105585780601f1061052d57610100808354040283529160200191610558565b820191906000526020600020905b81548152906001019060200180831161053b57829003601f168201915b505050505081565b8161056a816110d3565b61057483836111c1565b505050565b6000610584336112b2565b509050806105b1576040516205d51f60e61b81523060048201523360248201526044015b60405180910390fd5b50603e80546001600160a01b0319166001600160a01b0392909216919091179055565b60006105df336112b2565b50905080610607576040516205d51f60e61b81523060048201523360248201526044016105a8565b603a5415806106185750603a548311155b6106705760405162461bcd60e51b815260206004820152602360248201527f63616e2774207365742055524920666f72206e6f6e6578697374656e7420746f60448201526235b2b760e91b60648201526084016105a8565b60008381526040602081905290206106888382611c0c565b50505050565b610696611318565b600780546001600160a01b0319166001600160a01b0383169081179091556040519081527f906a1c6bd7e3091ea86693dd029a831c19049ce77f1dce2ce0bab1cacbabce229060200160405180910390a150565b826001600160a01b038116331461070457610704336110d3565b6000828152600260205260409020546001600160a01b0385811691161461076d5760405162461bcd60e51b815260206004820152600a60248201527f57524f4e475f46524f4d0000000000000000000000000000000000000000000060448201526064016105a8565b6001600160a01b0383166107c35760405162461bcd60e51b815260206004820152601160248201527f494e56414c49445f524543495049454e5400000000000000000000000000000060448201526064016105a8565b6107cc33610cdb565b61091f57336001600160a01b038516148061080a57506001600160a01b038416600090815260056020908152604080832033845290915290205460ff165b8061082b57506000828152600460205260409020546001600160a01b031633145b6108775760405162461bcd60e51b815260206004820152600e60248201527f4e4f545f415554484f52495a454400000000000000000000000000000000000060448201526064016105a8565b603d541561091f57603e54603f54603d546040517f23b872dd0000000000000000000000000000000000000000000000000000000081526001600160a01b038881166004830152928316602482015260448101919091529116906323b872dd906064016020604051808303816000875af11580156108f9573d6000803e3d6000fd5b505050506040513d601f19601f8201168201806040525081019061091d9190611ccc565b505b6001600160a01b0380851660008181526003602090815260408083208054600019019055938716808352848320805460010190558683526002825284832080546001600160a01b03199081168317909155600490925284832080549092169091559251859392917fddf252ad1be2c89b69c2b068fc378daa952ba7f163c4a11628f55a4df523b3ef91a450505050565b826001600160a01b03811633146109c9576109c9336110d3565b610688848484611379565b60006109df336112b2565b50905080610a07576040516205d51f60e61b81523060048201523360248201526044016105a8565b603c6105748382611c0c565b6000818152600260205260409020546001600160a01b031680610a785760405162461bcd60e51b815260206004820152600a60248201527f4e4f545f4d494e5445440000000000000000000000000000000000000000000060448201526064016105a8565b919050565b6000610a88336112b2565b50905080610ab0576040516205d51f60e61b81523060048201523360248201526044016105a8565b50603d55565b60006001600160a01b038216610b0e5760405162461bcd60e51b815260206004820152600c60248201527f5a45524f5f41444452455353000000000000000000000000000000000000000060448201526064016105a8565b506001600160a01b031660009081526003602052604090205490565b6007546001600160a01b03163314610b89576007546040517f96cf9ed80000000000000000000000000000000000000000000000000000000081523060048201523360248201526001600160a01b0390911660448201526064016105a8565b600654600754604080516001600160a01b0393841681529290911660208301527fb532073b38c83145e3e5135377a08bf9aab55bc0fd7c1179cd4fb995d2a5159c910160405180910390a160078054600680546001600160a01b03199081166001600160a01b03841617909155169055565b600180546104df90611b8c565b81610c12816110d3565b610574838361146c565b6000610c27336112b2565b50905080610c4f576040516205d51f60e61b81523060048201523360248201526044016105a8565b60005b8260ff168160ff16101561057457603954603a5410610ca357603a546040517fb3293ea00000000000000000000000000000000000000000000000000000000081526004016105a891815260200190565b6001603a6000828254610cb69190611cff565b92505081905550610cc933603a546114d8565b80610cd381611d12565b915050610c52565b600080610ce7836112b2565b509392505050565b846001600160a01b0381163314610d0957610d09336110d3565b610d1686868686866115cb565b505050505050565b610d26611318565b600080610d32846112b2565b9150915082151582151503610d73576040517fca231c2300000000000000000000000000000000000000000000000000000000815260040160405180910390fd5b8215610dc957603880546001810182556000919091527f38395c5dceade9603479b177b68959049485df8aa97b39f3533039af5f4561990180546001600160a01b0319166001600160a01b038616179055610e77565b60388054610dd990600190611d31565b81548110610de957610de9611d44565b600091825260209091200154603880546001600160a01b039092169183908110610e1557610e15611d44565b9060005260206000200160006101000a8154816001600160a01b0302191690836001600160a01b031602179055506038805480610e5457610e54611d5a565b600082815260209020810160001990810180546001600160a01b03191690550190555b604080516001600160a01b038616815284151560208201527f9c1e55b2ea976b1ce106746d9325847e838c89adca542764df43b80cadb59b04910160405180910390a150505050565b6060603a5460001480610ed55750603a548211155b610f2d5760405162461bcd60e51b815260206004820152602360248201527f63616e2774206765742055524920666f72206e6f6e6578697374656e7420746f60448201526235b2b760e91b60648201526084016105a8565b603b5460ff16610f3c57600191505b6000828152604060208181528183209151610f5c92603c92909101611de3565b60408051601f198184030181529190529392505050565b6000610f7e336112b2565b50905080610fa6576040516205d51f60e61b81523060048201523360248201526044016105a8565b50603b805460ff1916911515919091179055565b6000610fc5336112b2565b50905080610fed576040516205d51f60e61b81523060048201523360248201526044016105a8565b50603f80546001600160a01b0319166001600160a01b0392909216919091179055565b6038818154811061102057600080fd5b6000918252602090912001546001600160a01b0316905081565b60007f01ffc9a7000000000000000000000000000000000000000000000000000000006001600160e01b03198316148061109d57507f80ac58cd000000000000000000000000000000000000000000000000000000006001600160e01b03198316145b806104cc5750506001600160e01b0319167f5b5e139f000000000000000000000000000000000000000000000000000000001490565b6daaeb6d7670e522a718067333cd4e3b156111be576040517fc61711340000000000000000000000000000000000000000000000000000000081523060048201526001600160a01b03821660248201526daaeb6d7670e522a718067333cd4e9063c617113490604401602060405180830381865afa158015611159573d6000803e3d6000fd5b505050506040513d601f19601f8201168201806040525081019061117d9190611ccc565b6111be576040517fede71dcc0000000000000000000000000000000000000000000000000000000081526001600160a01b03821660048201526024016105a8565b50565b6000818152600260205260409020546001600160a01b03163381148061120a57506001600160a01b038116600090815260056020908152604080832033845290915290205460ff165b6112565760405162461bcd60e51b815260206004820152600e60248201527f4e4f545f415554484f52495a454400000000000000000000000000000000000060448201526064016105a8565b60008281526004602052604080822080546001600160a01b0319166001600160a01b0387811691821790925591518593918516917f8c5be1e5ebec7d5bd14f71427d1e84f3dd0314c0f7b2291e5b200ac8c7c3b92591a4505050565b60008060005b60385481101561130c57836001600160a01b0316603882815481106112df576112df611d44565b6000918252602090912001546001600160a01b03160361130457600194909350915050565b6001016112b8565b50600093849350915050565b6006546001600160a01b03163314611377576006546040517f1abc2f980000000000000000000000000000000000000000000000000000000081523060048201523360248201526001600160a01b0390911660448201526064016105a8565b565b6113848383836106ea565b6001600160a01b0382163b158061142d5750604051630a85bd0160e11b8082523360048301526001600160a01b03858116602484015260448301849052608060648401526000608484015290919084169063150b7a029060a4016020604051808303816000875af11580156113fd573d6000803e3d6000fd5b505050506040513d601f19601f820116820180604052508101906114219190611df8565b6001600160e01b031916145b6105745760405162461bcd60e51b815260206004820152601060248201526f155394d0519157d49150d2541251539560821b60448201526064016105a8565b3360008181526005602090815260408083206001600160a01b03871680855290835292819020805460ff191686151590811790915590519081529192917f17307eab39ab6107e8899845ad3d59bd9653f200f220920489ca2b5937696c31910160405180910390a35050565b6114e282826116b3565b6001600160a01b0382163b15806115885750604051630a85bd0160e11b80825233600483015260006024830181905260448301849052608060648401526084830152906001600160a01b0384169063150b7a029060a4016020604051808303816000875af1158015611558573d6000803e3d6000fd5b505050506040513d601f19601f8201168201806040525081019061157c9190611df8565b6001600160e01b031916145b6115c75760405162461bcd60e51b815260206004820152601060248201526f155394d0519157d49150d2541251539560821b60448201526064016105a8565b5050565b6115d68585856106ea565b6001600160a01b0384163b158061166d5750604051630a85bd0160e11b808252906001600160a01b0386169063150b7a029061161e9033908a90899089908990600401611e15565b6020604051808303816000875af115801561163d573d6000803e3d6000fd5b505050506040513d601f19601f820116820180604052508101906116619190611df8565b6001600160e01b031916145b6116ac5760405162461bcd60e51b815260206004820152601060248201526f155394d0519157d49150d2541251539560821b60448201526064016105a8565b5050505050565b6001600160a01b0382166117095760405162461bcd60e51b815260206004820152601160248201527f494e56414c49445f524543495049454e5400000000000000000000000000000060448201526064016105a8565b6000818152600260205260409020546001600160a01b03161561176e5760405162461bcd60e51b815260206004820152600e60248201527f414c52454144595f4d494e54454400000000000000000000000000000000000060448201526064016105a8565b6001600160a01b038216600081815260036020908152604080832080546001019055848352600290915280822080546001600160a01b0319168417905551839291907fddf252ad1be2c89b69c2b068fc378daa952ba7f163c4a11628f55a4df523b3ef908290a45050565b6001600160e01b0319811681146111be57600080fd5b60006020828403121561180157600080fd5b813561180c816117d9565b9392505050565b600060208083528351808285015260005b8181101561184057858101830151858201604001528201611824565b506000604082860101526040601f19601f8301168501019250505092915050565b60006020828403121561187357600080fd5b5035919050565b80356001600160a01b0381168114610a7857600080fd5b600080604083850312156118a457600080fd5b6118ad8361187a565b946020939093013593505050565b6000602082840312156118cd57600080fd5b61180c8261187a565b634e487b7160e01b600052604160045260246000fd5b600082601f8301126118fd57600080fd5b813567ffffffffffffffff80821115611918576119186118d6565b604051601f8301601f19908116603f01168101908282118183101715611940576119406118d6565b8160405283815286602085880101111561195957600080fd5b836020870160208301376000602085830101528094505050505092915050565b6000806040838503121561198c57600080fd5b82359150602083013567ffffffffffffffff8111156119aa57600080fd5b6119b6858286016118ec565b9150509250929050565b6000806000606084860312156119d557600080fd5b6119de8461187a565b92506119ec6020850161187a565b9150604084013590509250925092565b600060208284031215611a0e57600080fd5b813567ffffffffffffffff811115611a2557600080fd5b611a31848285016118ec565b949350505050565b80151581146111be57600080fd5b60008060408385031215611a5a57600080fd5b611a638361187a565b91506020830135611a7381611a39565b809150509250929050565b600060208284031215611a9057600080fd5b813560ff8116811461180c57600080fd5b600080600080600060808688031215611ab957600080fd5b611ac28661187a565b9450611ad06020870161187a565b935060408601359250606086013567ffffffffffffffff80821115611af457600080fd5b818801915088601f830112611b0857600080fd5b813581811115611b1757600080fd5b896020828501011115611b2957600080fd5b9699959850939650602001949392505050565b600060208284031215611b4e57600080fd5b813561180c81611a39565b60008060408385031215611b6c57600080fd5b611b758361187a565b9150611b836020840161187a565b90509250929050565b600181811c90821680611ba057607f821691505b602082108103611bc057634e487b7160e01b600052602260045260246000fd5b50919050565b601f82111561057457600081815260208120601f850160051c81016020861015611bed5750805b601f850160051c820191505b81811015610d1657828155600101611bf9565b815167ffffffffffffffff811115611c2657611c266118d6565b611c3a81611c348454611b8c565b84611bc6565b602080601f831160018114611c6f5760008415611c575750858301515b600019600386901b1c1916600185901b178555610d16565b600085815260208120601f198616915b82811015611c9e57888601518255948401946001909101908401611c7f565b5085821015611cbc5787850151600019600388901b60f8161c191681555b5050505050600190811b01905550565b600060208284031215611cde57600080fd5b815161180c81611a39565b634e487b7160e01b600052601160045260246000fd5b808201808211156104cc576104cc611ce9565b600060ff821660ff8103611d2857611d28611ce9565b60010192915050565b818103818111156104cc576104cc611ce9565b634e487b7160e01b600052603260045260246000fd5b634e487b7160e01b600052603160045260246000fd5b60008154611d7d81611b8c565b60018281168015611d955760018114611daa57611dd9565b60ff1984168752821515830287019450611dd9565b8560005260208060002060005b85811015611dd05781548a820152908401908201611db7565b50505082870194505b5050505092915050565b6000611a31611df28386611d70565b84611d70565b600060208284031215611e0a57600080fd5b815161180c816117d9565b60006001600160a01b03808816835280871660208401525084604083015260806060830152826080830152828460a0840137600060a0848401015260a0601f19601f8501168301019050969550505050505056fea2646970667358221220f3c8dcbd552cc1ee3ad83abea0cf0b9c029f0899dce8e19fb88b8c0ce93dac5764736f6c63430008140033",
  "linkReferences": {},
  "deployedLinkReferences": {}
}