{
  "_format": "hh-sol-artifact-1",
  "contractName": "DepositAccount",
  "sourceName": "contracts/nft/DepositAccount.sol",
  "abi": [
    {
      "inputs": [
        {
          "internalType": "string",
          "name": "_name",
          "type": "string"
        },
        {
          "internalType": "string",
          "name": "_symbol",
          "type": "string"
        },
        {
          "internalType": "string",
          "name": "_tURI",
          "type": "string"
        }
      ],
      "stateMutability": "nonpayable",
      "type": "constructor"
    },
    {
      "inputs": [],
      "name": "ControllerAlreadySet",
      "type": "error"
    },
    {
      "inputs": [
        {
          "internalType": "address",
          "name": "thrower",
          "type": "address"
        },
        {
          "internalType": "address",
          "name": "caller",
          "type": "address"
        }
      ],
      "name": "OnlyController",
      "type": "error"
    },
    {
      "inputs": [
        {
          "internalType": "address",
          "name": "thrower",
          "type": "address"
        },
        {
          "internalType": "address",
          "name": "caller",
          "type": "address"
        },
        {
          "internalType": "address",
          "name": "nominatedOwner",
          "type": "address"
        }
      ],
      "name": "OnlyNominatedOwner",
      "type": "error"
    },
    {
      "inputs": [
        {
          "internalType": "address",
          "name": "thrower",
          "type": "address"
        },
        {
          "internalType": "address",
          "name": "caller",
          "type": "address"
        },
        {
          "internalType": "address",
          "name": "owner",
          "type": "address"
        }
      ],
      "name": "OnlyOwner",
      "type": "error"
    },
    {
      "anonymous": false,
      "inputs": [
        {
          "indexed": true,
          "internalType": "address",
          "name": "owner",
          "type": "address"
        },
        {
          "indexed": true,
          "internalType": "address",
          "name": "spender",
          "type": "address"
        },
        {
          "indexed": true,
          "internalType": "uint256",
          "name": "id",
          "type": "uint256"
        }
      ],
      "name": "Approval",
      "type": "event"
    },
    {
      "anonymous": false,
      "inputs": [
        {
          "indexed": true,
          "internalType": "address",
          "name": "owner",
          "type": "address"
        },
        {
          "indexed": true,
          "internalType": "address",
          "name": "operator",
          "type": "address"
        },
        {
          "indexed": false,
          "internalType": "bool",
          "name": "approved",
          "type": "bool"
        }
      ],
      "name": "ApprovalForAll",
      "type": "event"
    },
    {
      "anonymous": false,
      "inputs": [
        {
          "indexed": false,
          "internalType": "address",
          "name": "controller",
          "type": "address"
        },
        {
          "indexed": false,
          "internalType": "bool",
          "name": "isController",
          "type": "bool"
        }
      ],
      "name": "ControllerSet",
      "type": "event"
    },
    {
      "anonymous": false,
      "inputs": [
        {
          "indexed": false,
          "internalType": "address",
          "name": "oldOwner",
          "type": "address"
        },
        {
          "indexed": false,
          "internalType": "address",
          "name": "newOwner",
          "type": "address"
        }
      ],
      "name": "OwnerChanged",
      "type": "event"
    },
    {
      "anonymous": false,
      "inputs": [
        {
          "indexed": false,
          "internalType": "address",
          "name": "newOwner",
          "type": "address"
        }
      ],
      "name": "OwnerNominated",
      "type": "event"
    },
    {
      "anonymous": false,
      "inputs": [
        {
          "indexed": true,
          "internalType": "address",
          "name": "from",
          "type": "address"
        },
        {
          "indexed": true,
          "internalType": "address",
          "name": "to",
          "type": "address"
        },
        {
          "indexed": true,
          "internalType": "uint256",
          "name": "id",
          "type": "uint256"
        }
      ],
      "name": "Transfer",
      "type": "event"
    },
    {
      "inputs": [],
      "name": "acceptOwnership",
      "outputs": [],
      "stateMutability": "nonpayable",
      "type": "function"
    },
    {
      "inputs": [
        {
          "internalType": "address",
          "name": "spender",
          "type": "address"
        },
        {
          "internalType": "uint256",
          "name": "id",
          "type": "uint256"
        }
      ],
      "name": "approve",
      "outputs": [],
      "stateMutability": "nonpayable",
      "type": "function"
    },
    {
      "inputs": [
        {
          "internalType": "address",
          "name": "owner",
          "type": "address"
        }
      ],
      "name": "balanceOf",
      "outputs": [
        {
          "internalType": "uint256",
          "name": "",
          "type": "uint256"
        }
      ],
      "stateMutability": "view",
      "type": "function"
    },
    {
      "inputs": [
        {
          "internalType": "uint256",
          "name": "",
          "type": "uint256"
        }
      ],
      "name": "controllers",
      "outputs": [
        {
          "internalType": "address",
          "name": "",
          "type": "address"
        }
      ],
      "stateMutability": "view",
      "type": "function"
    },
    {
      "inputs": [
        {
          "internalType": "uint256",
          "name": "",
          "type": "uint256"
        }
      ],
      "name": "getApproved",
      "outputs": [
        {
          "internalType": "address",
          "name": "",
          "type": "address"
        }
      ],
      "stateMutability": "view",
      "type": "function"
    },
    {
      "inputs": [
        {
          "internalType": "string",
          "name": "bank_",
          "type": "string"
        },
        {
          "internalType": "string",
          "name": "accountNumber_",
          "type": "string"
        }
      ],
      "name": "getBalance",
      "outputs": [
        {
          "internalType": "uint256",
          "name": "",
          "type": "uint256"
        }
      ],
      "stateMutability": "view",
      "type": "function"
    },
    {
      "inputs": [
        {
          "internalType": "address",
          "name": "target",
          "type": "address"
        }
      ],
      "name": "getOwnerAccount",
      "outputs": [
        {
          "internalType": "uint256[]",
          "name": "",
          "type": "uint256[]"
        }
      ],
      "stateMutability": "view",
      "type": "function"
    },
    {
      "inputs": [
        {
          "internalType": "address",
          "name": "target",
          "type": "address"
        }
      ],
      "name": "getOwnerAccountDetails",
      "outputs": [
        {
          "components": [
            {
              "internalType": "string",
              "name": "bank",
              "type": "string"
            },
            {
              "internalType": "string",
              "name": "accountNumber",
              "type": "string"
            },
            {
              "internalType": "uint256",
              "name": "balance",
              "type": "uint256"
            },
            {
              "internalType": "uint256",
              "name": "statementTimestamp",
              "type": "uint256"
            }
          ],
          "internalType": "struct DepositAccount.AccountDetails[]",
          "name": "",
          "type": "tuple[]"
        }
      ],
      "stateMutability": "view",
      "type": "function"
    },
    {
      "inputs": [
        {
          "internalType": "string",
          "name": "bank_",
          "type": "string"
        },
        {
          "internalType": "string",
          "name": "accountNumber_",
          "type": "string"
        }
      ],
      "name": "getTokenId",
      "outputs": [
        {
          "internalType": "uint256",
          "name": "",
          "type": "uint256"
        }
      ],
      "stateMutability": "view",
      "type": "function"
    },
    {
      "inputs": [],
      "name": "getTotalBalance",
      "outputs": [
        {
          "internalType": "uint256",
          "name": "totalBalance",
          "type": "uint256"
        }
      ],
      "stateMutability": "view",
      "type": "function"
    },
    {
      "inputs": [
        {
          "internalType": "address",
          "name": "",
          "type": "address"
        },
        {
          "internalType": "address",
          "name": "",
          "type": "address"
        }
      ],
      "name": "isApprovedForAll",
      "outputs": [
        {
          "internalType": "bool",
          "name": "",
          "type": "bool"
        }
      ],
      "stateMutability": "view",
      "type": "function"
    },
    {
      "inputs": [
        {
          "internalType": "address",
          "name": "_controller",
          "type": "address"
        }
      ],
      "name": "isController",
      "outputs": [
        {
          "internalType": "bool",
          "name": "",
          "type": "bool"
        }
      ],
      "stateMutability": "view",
      "type": "function"
    },
    {
      "inputs": [
        {
          "internalType": "address",
          "name": "to",
          "type": "address"
        },
        {
          "internalType": "string",
          "name": "bank_",
          "type": "string"
        },
        {
          "internalType": "string",
          "name": "accountNumber_",
          "type": "string"
        },
        {
          "internalType": "uint256",
          "name": "balance_",
          "type": "uint256"
        },
        {
          "internalType": "uint256",
          "name": "timestamp",
          "type": "uint256"
        }
      ],
      "name": "mint",
      "outputs": [],
      "stateMutability": "nonpayable",
      "type": "function"
    },
    {
      "inputs": [],
      "name": "mintCounter",
      "outputs": [
        {
          "internalType": "uint256",
          "name": "",
          "type": "uint256"
        }
      ],
      "stateMutability": "view",
      "type": "function"
    },
    {
      "inputs": [],
      "name": "name",
      "outputs": [
        {
          "internalType": "string",
          "name": "",
          "type": "string"
        }
      ],
      "stateMutability": "view",
      "type": "function"
    },
    {
      "inputs": [
        {
          "internalType": "address",
          "name": "_owner",
          "type": "address"
        }
      ],
      "name": "nominateNewOwner",
      "outputs": [],
      "stateMutability": "nonpayable",
      "type": "function"
    },
    {
      "inputs": [],
      "name": "nominatedOwner",
      "outputs": [
        {
          "internalType": "address",
          "name": "",
          "type": "address"
        }
      ],
      "stateMutability": "view",
      "type": "function"
    },
    {
      "inputs": [],
      "name": "owner",
      "outputs": [
        {
          "internalType": "address",
          "name": "",
          "type": "address"
        }
      ],
      "stateMutability": "view",
      "type": "function"
    },
    {
      "inputs": [
        {
          "internalType": "uint256",
          "name": "id",
          "type": "uint256"
        }
      ],
      "name": "ownerOf",
      "outputs": [
        {
          "internalType": "address",
          "name": "owner",
          "type": "address"
        }
      ],
      "stateMutability": "view",
      "type": "function"
    },
    {
      "inputs": [
        {
          "internalType": "address",
          "name": "from",
          "type": "address"
        },
        {
          "internalType": "address",
          "name": "to",
          "type": "address"
        },
        {
          "internalType": "uint256",
          "name": "id",
          "type": "uint256"
        }
      ],
      "name": "safeTransferFrom",
      "outputs": [],
      "stateMutability": "nonpayable",
      "type": "function"
    },
    {
      "inputs": [
        {
          "internalType": "address",
          "name": "from",
          "type": "address"
        },
        {
          "internalType": "address",
          "name": "to",
          "type": "address"
        },
        {
          "internalType": "uint256",
          "name": "id",
          "type": "uint256"
        },
        {
          "internalType": "bytes",
          "name": "data",
          "type": "bytes"
        }
      ],
      "name": "safeTransferFrom",
      "outputs": [],
      "stateMutability": "nonpayable",
      "type": "function"
    },
    {
      "inputs": [
        {
          "internalType": "address",
          "name": "operator",
          "type": "address"
        },
        {
          "internalType": "bool",
          "name": "approved",
          "type": "bool"
        }
      ],
      "name": "setApprovalForAll",
      "outputs": [],
      "stateMutability": "nonpayable",
      "type": "function"
    },
    {
      "inputs": [
        {
          "internalType": "string",
          "name": "bank_",
          "type": "string"
        },
        {
          "internalType": "string",
          "name": "accountNumber_",
          "type": "string"
        },
        {
          "internalType": "uint256",
          "name": "_value",
          "type": "uint256"
        },
        {
          "internalType": "uint256",
          "name": "timestamp",
          "type": "uint256"
        }
      ],
      "name": "setBalance",
      "outputs": [],
      "stateMutability": "nonpayable",
      "type": "function"
    },
    {
      "inputs": [
        {
          "internalType": "address",
          "name": "_controller",
          "type": "address"
        },
        {
          "internalType": "bool",
          "name": "isController_",
          "type": "bool"
        }
      ],
      "name": "setIsController",
      "outputs": [],
      "stateMutability": "nonpayable",
      "type": "function"
    },
    {
      "inputs": [
        {
          "internalType": "uint256",
          "name": "tokenId",
          "type": "uint256"
        },
        {
          "internalType": "string",
          "name": "_tURI",
          "type": "string"
        }
      ],
      "name": "setTokenURI",
      "outputs": [],
      "stateMutability": "nonpayable",
      "type": "function"
    },
    {
      "inputs": [
        {
          "internalType": "bytes4",
          "name": "interfaceId",
          "type": "bytes4"
        }
      ],
      "name": "supportsInterface",
      "outputs": [
        {
          "internalType": "bool",
          "name": "",
          "type": "bool"
        }
      ],
      "stateMutability": "view",
      "type": "function"
    },
    {
      "inputs": [],
      "name": "symbol",
      "outputs": [
        {
          "internalType": "string",
          "name": "",
          "type": "string"
        }
      ],
      "stateMutability": "view",
      "type": "function"
    },
    {
      "inputs": [
        {
          "internalType": "uint256",
          "name": "tokenId",
          "type": "uint256"
        }
      ],
      "name": "tokenURI",
      "outputs": [
        {
          "internalType": "string",
          "name": "",
          "type": "string"
        }
      ],
      "stateMutability": "view",
      "type": "function"
    },
    {
      "inputs": [
        {
          "internalType": "address",
          "name": "from",
          "type": "address"
        },
        {
          "internalType": "address",
          "name": "to",
          "type": "address"
        },
        {
          "internalType": "uint256",
          "name": "id",
          "type": "uint256"
        }
      ],
      "name": "transferFrom",
      "outputs": [],
      "stateMutability": "nonpayable",
      "type": "function"
    }
  ],
  "bytecode": "0x60806040523480156200001157600080fd5b5060405162002608380380620026088339810160408190526200003491620001d3565b338084846000620000468382620002f3565b506001620000558282620002f3565b5050600680546001600160a01b03199081166001600160a01b038681169182179093556038805460018101825560009182527f38395c5dceade9603479b177b68959049485df8aa97b39f3533039af5f456199018054909316938616939093179091556040805192835260208301919091527fb532073b38c83145e3e5135377a08bf9aab55bc0fd7c1179cd4fb995d2a5159c92500160405180910390a150603a9050620001048282620002f3565b50505050620003bf565b634e487b7160e01b600052604160045260246000fd5b600082601f8301126200013657600080fd5b81516001600160401b03808211156200015357620001536200010e565b604051601f8301601f19908116603f011681019082821181831017156200017e576200017e6200010e565b816040528381526020925086838588010111156200019b57600080fd5b600091505b83821015620001bf5785820183015181830184015290820190620001a0565b600093810190920192909252949350505050565b600080600060608486031215620001e957600080fd5b83516001600160401b03808211156200020157600080fd5b6200020f8783880162000124565b945060208601519150808211156200022657600080fd5b620002348783880162000124565b935060408601519150808211156200024b57600080fd5b506200025a8682870162000124565b9150509250925092565b600181811c908216806200027957607f821691505b6020821081036200029a57634e487b7160e01b600052602260045260246000fd5b50919050565b601f821115620002ee57600081815260208120601f850160051c81016020861015620002c95750805b601f850160051c820191505b81811015620002ea57828155600101620002d5565b5050505b505050565b81516001600160401b038111156200030f576200030f6200010e565b620003278162000320845462000264565b84620002a0565b602080601f8311600181146200035f5760008415620003465750858301515b600019600386901b1c1916600185901b178555620002ea565b600085815260208120601f198616915b8281101562000390578886015182559484019460019091019084016200036f565b5085821015620003af5787850151600019600388901b60f8161c191681555b5050505050600190811b01905550565b61223980620003cf6000396000f3fe608060405234801561001057600080fd5b50600436106101cf5760003560e01c80636352211e11610104578063a22cb465116100a2578063c87b56dd11610071578063c87b56dd146103f3578063e22023ae14610406578063e94b0dd214610419578063e985e9c51461042c57600080fd5b8063a22cb465146103a7578063b429afeb146103ba578063b88d4fde146103cd578063c646273e146103e057600080fd5b806379ba5097116100de57806379ba5097146103645780638da5cb5b1461036c578063951958d81461037f57806395d89b411461039f57600080fd5b80636352211e1461032b5780636ac3d07b1461033e57806370a082311461035157600080fd5b80631627540c1161017157806342842e0e1161014b57806342842e0e146102e957806346aa52ce146102fc57806353a47bb7146103055780635b7099161461031857600080fd5b80631627540c146102b057806323b872dd146102c357806329867dac146102d657600080fd5b8063095ea7b3116101ad578063095ea7b31461025257806310bbf3e21461026757806312b5834914610287578063162094c41461029d57600080fd5b806301ffc9a7146101d457806306fdde03146101fc578063081812fc14610211575b600080fd5b6101e76101e2366004611a3b565b61045a565b60405190151581526020015b60405180910390f35b6102046104f7565b6040516101f39190611aaf565b61023a61021f366004611ac2565b6004602052600090815260409020546001600160a01b031681565b6040516001600160a01b0390911681526020016101f3565b610265610260366004611af2565b610585565b005b61027a610275366004611b1c565b61067b565b6040516101f39190611b37565b61028f6106e7565b6040519081526020016101f3565b6102656102ab366004611c1e565b610727565b6102656102be366004611b1c565b6107d5565b6102656102d1366004611c65565b610831565b6102656102e4366004611ca1565b6109d7565b6102656102f7366004611c65565b610b57565b61028f60395481565b60075461023a906001600160a01b031681565b610265610326366004611d27565b610c4f565b61023a610339366004611ac2565b610d42565b61028f61034c366004611d9b565b610dac565b61028f61035f366004611b1c565b610dd3565b610265610e47565b60065461023a906001600160a01b031681565b61039261038d366004611b1c565b610f18565b6040516101f39190611df5565b610204611178565b6102656103b5366004611e90565b611185565b6101e76103c8366004611b1c565b6111f1565b6102656103db366004611ecc565b6111fd565b6102656103ee366004611e90565b6112e5565b610204610401366004611ac2565b611487565b61028f610414366004611d9b565b61157c565b61023a610427366004611ac2565b6115bf565b6101e761043a366004611f67565b600560209081526000928352604080842090915290825290205460ff1681565b60007f01ffc9a7000000000000000000000000000000000000000000000000000000006001600160e01b0319831614806104bd57507f80ac58cd000000000000000000000000000000000000000000000000000000006001600160e01b03198316145b806104f157507f5b5e139f000000000000000000000000000000000000000000000000000000006001600160e01b03198316145b92915050565b6000805461050490611f9a565b80601f016020809104026020016040519081016040528092919081815260200182805461053090611f9a565b801561057d5780601f106105525761010080835404028352916020019161057d565b820191906000526020600020905b81548152906001019060200180831161056057829003601f168201915b505050505081565b6000818152600260205260409020546001600160a01b0316338114806105ce57506001600160a01b038116600090815260056020908152604080832033845290915290205460ff165b61061f5760405162461bcd60e51b815260206004820152600e60248201527f4e4f545f415554484f52495a454400000000000000000000000000000000000060448201526064015b60405180910390fd5b60008281526004602052604080822080546001600160a01b0319166001600160a01b0387811691821790925591518593918516917f8c5be1e5ebec7d5bd14f71427d1e84f3dd0314c0f7b2291e5b200ac8c7c3b92591a4505050565b6001600160a01b0381166000908152603c60209081526040918290208054835181840281018401909452808452606093928301828280156106db57602002820191906000526020600020905b8154815260200190600101908083116106c7575b50505050509050919050565b600060015b6039548111610723576000818152603b60205260409020600201546107119083611fea565b915061071c81611ffd565b90506106ec565b5090565b6000610732336115e9565b5090508061075a576040516205d51f60e61b8152306004820152336024820152604401610616565b603954158061076b57506039548311155b6107c35760405162461bcd60e51b815260206004820152602360248201527f63616e2774207365742055524920666f72206e6f6e6578697374656e7420746f60448201526235b2b760e91b6064820152608401610616565b603a6107cf8382612064565b50505050565b6107dd61164f565b600780546001600160a01b0319166001600160a01b0383169081179091556040519081527f906a1c6bd7e3091ea86693dd029a831c19049ce77f1dce2ce0bab1cacbabce229060200160405180910390a150565b600061083c336115e9565b50905080610864576040516205d51f60e61b8152306004820152336024820152604401610616565b6000828152600260205260409020546001600160a01b038581169116146108cd5760405162461bcd60e51b815260206004820152600a60248201527f57524f4e475f46524f4d000000000000000000000000000000000000000000006044820152606401610616565b6001600160a01b0383166109235760405162461bcd60e51b815260206004820152601160248201527f494e56414c49445f524543495049454e540000000000000000000000000000006044820152606401610616565b6001600160a01b038085166000908152600360209081526040808320805460001901905592861680835283832080546001019055858352600290915291902080546001600160a01b031916909117905561097e8484846116b0565b60008281526004602052604080822080546001600160a01b03191690555183916001600160a01b0386811692908816917fddf252ad1be2c89b69c2b068fc378daa952ba7f163c4a11628f55a4df523b3ef91a450505050565b60006109e2336115e9565b50905080610a0a576040516205d51f60e61b8152306004820152336024820152604401610616565b60008585604051602001610a1f929190612124565b60408051601f1981840301815291815281516020928301206000818152603d90935291205490915015610a945760405162461bcd60e51b815260206004820152601260248201527f4e465420616c72656164792065786973747300000000000000000000000000006044820152606401610616565b600160396000828254610aa79190611fea565b90915550506039546000908152603b60205260409020610ac78782612064565b506039546000908152603b60205260409020600101610ae68682612064565b50603980546000908152603b60209081526040808320600201889055835483528083206003018790558354858452603d83528184208190556001600160a01b038c168452603c8352908320805460018101825590845291909220015554610b4e908890611809565b50505050505050565b610b62838383610831565b6001600160a01b0382163b1580610c0b5750604051630a85bd0160e11b8082523360048301526001600160a01b03858116602484015260448301849052608060648401526000608484015290919084169063150b7a029060a4016020604051808303816000875af1158015610bdb573d6000803e3d6000fd5b505050506040513d601f19601f82011682018060405250810190610bff9190612153565b6001600160e01b031916145b610c4a5760405162461bcd60e51b815260206004820152601060248201526f155394d0519157d49150d2541251539560821b6044820152606401610616565b505050565b6000610c5a336115e9565b50905080610c82576040516205d51f60e61b8152306004820152336024820152604401610616565b6000610c8e868661157c565b6039546000908152603b60205260409020600301549091508311610d1a5760405162461bcd60e51b815260206004820152602160248201527f74696d657374616d70206e6f74206e65776572207468616e206578697374696e60448201527f67000000000000000000000000000000000000000000000000000000000000006064820152608401610616565b6000908152603b60205260408082206002019490945560395481529290922060030155505050565b6000818152600260205260409020546001600160a01b031680610da75760405162461bcd60e51b815260206004820152600a60248201527f4e4f545f4d494e544544000000000000000000000000000000000000000000006044820152606401610616565b919050565b600080610db9848461157c565b6000908152603b6020526040902060020154949350505050565b60006001600160a01b038216610e2b5760405162461bcd60e51b815260206004820152600c60248201527f5a45524f5f4144445245535300000000000000000000000000000000000000006044820152606401610616565b506001600160a01b031660009081526003602052604090205490565b6007546001600160a01b03163314610ea6576007546040517f96cf9ed80000000000000000000000000000000000000000000000000000000081523060048201523360248201526001600160a01b039091166044820152606401610616565b600654600754604080516001600160a01b0393841681529290911660208301527fb532073b38c83145e3e5135377a08bf9aab55bc0fd7c1179cd4fb995d2a5159c910160405180910390a160078054600680546001600160a01b03199081166001600160a01b03841617909155169055565b6001600160a01b0381166000908152603c60205260408120546060918167ffffffffffffffff811115610f4d57610f4d611b7b565b604051908082528060200260200182016040528015610fa957816020015b610f966040518060800160405280606081526020016060815260200160008152602001600081525090565b815260200190600190039081610f6b5790505b50905060005b82811015611170576001600160a01b0385166000908152603c602052604081208054603b92919084908110610fe657610fe6612170565b9060005260206000200154815260200190815260200160002060405180608001604052908160008201805461101a90611f9a565b80601f016020809104026020016040519081016040528092919081815260200182805461104690611f9a565b80156110935780601f1061106857610100808354040283529160200191611093565b820191906000526020600020905b81548152906001019060200180831161107657829003601f168201915b505050505081526020016001820180546110ac90611f9a565b80601f01602080910402602001604051908101604052809291908181526020018280546110d890611f9a565b80156111255780601f106110fa57610100808354040283529160200191611125565b820191906000526020600020905b81548152906001019060200180831161110857829003601f168201915b505050505081526020016002820154815260200160038201548152505082828151811061115457611154612170565b60200260200101819052508061116990611ffd565b9050610faf565b509392505050565b6001805461050490611f9a565b3360008181526005602090815260408083206001600160a01b03871680855290835292819020805460ff191686151590811790915590519081529192917f17307eab39ab6107e8899845ad3d59bd9653f200f220920489ca2b5937696c31910160405180910390a35050565b600080611170836115e9565b611208858585610831565b6001600160a01b0384163b158061129f5750604051630a85bd0160e11b808252906001600160a01b0386169063150b7a02906112509033908a90899089908990600401612186565b6020604051808303816000875af115801561126f573d6000803e3d6000fd5b505050506040513d601f19601f820116820180604052508101906112939190612153565b6001600160e01b031916145b6112de5760405162461bcd60e51b815260206004820152601060248201526f155394d0519157d49150d2541251539560821b6044820152606401610616565b5050505050565b6112ed61164f565b6000806112f9846115e9565b915091508215158215150361133a576040517fca231c2300000000000000000000000000000000000000000000000000000000815260040160405180910390fd5b821561139057603880546001810182556000919091527f38395c5dceade9603479b177b68959049485df8aa97b39f3533039af5f4561990180546001600160a01b0319166001600160a01b03861617905561143e565b603880546113a0906001906121da565b815481106113b0576113b0612170565b600091825260209091200154603880546001600160a01b0390921691839081106113dc576113dc612170565b9060005260206000200160006101000a8154816001600160a01b0302191690836001600160a01b03160217905550603880548061141b5761141b6121ed565b600082815260209020810160001990810180546001600160a01b03191690550190555b604080516001600160a01b038616815284151560208201527f9c1e55b2ea976b1ce106746d9325847e838c89adca542764df43b80cadb59b04910160405180910390a150505050565b60606039546000148061149c57506039548211155b6114f45760405162461bcd60e51b815260206004820152602360248201527f63616e2774206765742055524920666f72206e6f6e6578697374656e7420746f60448201526235b2b760e91b6064820152608401610616565b603a805461150190611f9a565b80601f016020809104026020016040519081016040528092919081815260200182805461152d90611f9a565b80156106db5780601f1061154f576101008083540402835291602001916106db565b820191906000526020600020905b81548152906001019060200180831161155d5750939695505050505050565b6000808383604051602001611592929190612124565b60408051808303601f1901815291815281516020928301206000908152603d909252902054949350505050565b603881815481106115cf57600080fd5b6000918252602090912001546001600160a01b0316905081565b60008060005b60385481101561164357836001600160a01b03166038828154811061161657611616612170565b6000918252602090912001546001600160a01b03160361163b57600194909350915050565b6001016115ef565b50600093849350915050565b6006546001600160a01b031633146116ae576006546040517f1abc2f980000000000000000000000000000000000000000000000000000000081523060048201523360248201526001600160a01b039091166044820152606401610616565b565b6001600160a01b0383166000908152603c6020526040812054905b818110156117da576001600160a01b0385166000908152603c602052604090208054829081106116fd576116fd612170565b906000526020600020015483036117d2576001600160a01b0385166000908152603c602052604090206117316001846121da565b8154811061174157611741612170565b9060005260206000200154603c6000876001600160a01b03166001600160a01b03168152602001908152602001600020828154811061178257611782612170565b60009182526020808320909101929092556001600160a01b0387168152603c909152604090208054806117b7576117b76121ed565b600190038181906000526020600020016000905590556117da565b6001016116cb565b50506001600160a01b039091166000908152603c60209081526040822080546001810182559083529120015550565b61181382826118fc565b6001600160a01b0382163b15806118b95750604051630a85bd0160e11b80825233600483015260006024830181905260448301849052608060648401526084830152906001600160a01b0384169063150b7a029060a4016020604051808303816000875af1158015611889573d6000803e3d6000fd5b505050506040513d601f19601f820116820180604052508101906118ad9190612153565b6001600160e01b031916145b6118f85760405162461bcd60e51b815260206004820152601060248201526f155394d0519157d49150d2541251539560821b6044820152606401610616565b5050565b6001600160a01b0382166119525760405162461bcd60e51b815260206004820152601160248201527f494e56414c49445f524543495049454e540000000000000000000000000000006044820152606401610616565b6000818152600260205260409020546001600160a01b0316156119b75760405162461bcd60e51b815260206004820152600e60248201527f414c52454144595f4d494e5445440000000000000000000000000000000000006044820152606401610616565b6001600160a01b038216600081815260036020908152604080832080546001019055848352600290915280822080546001600160a01b0319168417905551839291907fddf252ad1be2c89b69c2b068fc378daa952ba7f163c4a11628f55a4df523b3ef908290a45050565b6001600160e01b031981168114611a3857600080fd5b50565b600060208284031215611a4d57600080fd5b8135611a5881611a22565b9392505050565b60005b83811015611a7a578181015183820152602001611a62565b50506000910152565b60008151808452611a9b816020860160208601611a5f565b601f01601f19169290920160200192915050565b602081526000611a586020830184611a83565b600060208284031215611ad457600080fd5b5035919050565b80356001600160a01b0381168114610da757600080fd5b60008060408385031215611b0557600080fd5b611b0e83611adb565b946020939093013593505050565b600060208284031215611b2e57600080fd5b611a5882611adb565b6020808252825182820181905260009190848201906040850190845b81811015611b6f57835183529284019291840191600101611b53565b50909695505050505050565b634e487b7160e01b600052604160045260246000fd5b600082601f830112611ba257600080fd5b813567ffffffffffffffff80821115611bbd57611bbd611b7b565b604051601f8301601f19908116603f01168101908282118183101715611be557611be5611b7b565b81604052838152866020858801011115611bfe57600080fd5b836020870160208301376000602085830101528094505050505092915050565b60008060408385031215611c3157600080fd5b82359150602083013567ffffffffffffffff811115611c4f57600080fd5b611c5b85828601611b91565b9150509250929050565b600080600060608486031215611c7a57600080fd5b611c8384611adb565b9250611c9160208501611adb565b9150604084013590509250925092565b600080600080600060a08688031215611cb957600080fd5b611cc286611adb565b9450602086013567ffffffffffffffff80821115611cdf57600080fd5b611ceb89838a01611b91565b95506040880135915080821115611d0157600080fd5b50611d0e88828901611b91565b9598949750949560608101359550608001359392505050565b60008060008060808587031215611d3d57600080fd5b843567ffffffffffffffff80821115611d5557600080fd5b611d6188838901611b91565b95506020870135915080821115611d7757600080fd5b50611d8487828801611b91565b949794965050505060408301359260600135919050565b60008060408385031215611dae57600080fd5b823567ffffffffffffffff80821115611dc657600080fd5b611dd286838701611b91565b93506020850135915080821115611de857600080fd5b50611c5b85828601611b91565b60006020808301818452808551808352604092508286019150828160051b87010184880160005b83811015611e8257603f19898403018552815160808151818652611e4282870182611a83565b915050888201518582038a870152611e5a8282611a83565b838a0151878b0152606093840151939096019290925250509386019390860190600101611e1c565b509098975050505050505050565b60008060408385031215611ea357600080fd5b611eac83611adb565b915060208301358015158114611ec157600080fd5b809150509250929050565b600080600080600060808688031215611ee457600080fd5b611eed86611adb565b9450611efb60208701611adb565b935060408601359250606086013567ffffffffffffffff80821115611f1f57600080fd5b818801915088601f830112611f3357600080fd5b813581811115611f4257600080fd5b896020828501011115611f5457600080fd5b9699959850939650602001949392505050565b60008060408385031215611f7a57600080fd5b611f8383611adb565b9150611f9160208401611adb565b90509250929050565b600181811c90821680611fae57607f821691505b602082108103611fce57634e487b7160e01b600052602260045260246000fd5b50919050565b634e487b7160e01b600052601160045260246000fd5b808201808211156104f1576104f1611fd4565b60006001820161200f5761200f611fd4565b5060010190565b601f821115610c4a57600081815260208120601f850160051c8101602086101561203d5750805b601f850160051c820191505b8181101561205c57828155600101612049565b505050505050565b815167ffffffffffffffff81111561207e5761207e611b7b565b6120928161208c8454611f9a565b84612016565b602080601f8311600181146120c757600084156120af5750858301515b600019600386901b1c1916600185901b17855561205c565b600085815260208120601f198616915b828110156120f6578886015182559484019460019091019084016120d7565b50858210156121145787850151600019600388901b60f8161c191681555b5050505050600190811b01905550565b60008351612136818460208801611a5f565b83519083019061214a818360208801611a5f565b01949350505050565b60006020828403121561216557600080fd5b8151611a5881611a22565b634e487b7160e01b600052603260045260246000fd5b60006001600160a01b03808816835280871660208401525084604083015260806060830152826080830152828460a0840137600060a0848401015260a0601f19601f85011683010190509695505050505050565b818103818111156104f1576104f1611fd4565b634e487b7160e01b600052603160045260246000fdfea26469706673582212201fbc07c3bca2f1319e879525da641e2610d0dd2b441391b376ac9a7d793263ee64736f6c63430008140033",
  "linkReferences": {},
  "deployedLinkReferences": {}
}