{
  "_format": "hh-sol-artifact-1",
  "contractName": "WhitelistGateKeeper",
  "sourceName": "contracts/GateKeepers/WhitelistGateKeeper.sol",
  "abi": [
    {
      "inputs": [],
      "stateMutability": "nonpayable",
      "type": "constructor"
    },
    {
      "inputs": [],
      "name": "ControllerAlreadySet",
      "type": "error"
    },
    {
      "inputs": [
        {
          "internalType": "address",
          "name": "thrower",
          "type": "address"
        },
        {
          "internalType": "address",
          "name": "caller",
          "type": "address"
        }
      ],
      "name": "OnlyController",
      "type": "error"
    },
    {
      "inputs": [
        {
          "internalType": "address",
          "name": "thrower",
          "type": "address"
        },
        {
          "internalType": "address",
          "name": "caller",
          "type": "address"
        },
        {
          "internalType": "address",
          "name": "nominatedOwner",
          "type": "address"
        }
      ],
      "name": "OnlyNominatedOwner",
      "type": "error"
    },
    {
      "inputs": [
        {
          "internalType": "address",
          "name": "thrower",
          "type": "address"
        },
        {
          "internalType": "address",
          "name": "caller",
          "type": "address"
        },
        {
          "internalType": "address",
          "name": "owner",
          "type": "address"
        }
      ],
      "name": "OnlyOwner",
      "type": "error"
    },
    {
      "anonymous": false,
      "inputs": [
        {
          "indexed": false,
          "internalType": "address",
          "name": "controller",
          "type": "address"
        },
        {
          "indexed": false,
          "internalType": "bool",
          "name": "isController",
          "type": "bool"
        }
      ],
      "name": "ControllerSet",
      "type": "event"
    },
    {
      "anonymous": false,
      "inputs": [
        {
          "indexed": false,
          "internalType": "bool",
          "name": "flag",
          "type": "bool"
        }
      ],
      "name": "DepositWhitelistEnabled",
      "type": "event"
    },
    {
      "anonymous": false,
      "inputs": [
        {
          "indexed": false,
          "internalType": "address",
          "name": "oldOwner",
          "type": "address"
        },
        {
          "indexed": false,
          "internalType": "address",
          "name": "newOwner",
          "type": "address"
        }
      ],
      "name": "OwnerChanged",
      "type": "event"
    },
    {
      "anonymous": false,
      "inputs": [
        {
          "indexed": false,
          "internalType": "address",
          "name": "newOwner",
          "type": "address"
        }
      ],
      "name": "OwnerNominated",
      "type": "event"
    },
    {
      "inputs": [],
      "name": "acceptOwnership",
      "outputs": [],
      "stateMutability": "nonpayable",
      "type": "function"
    },
    {
      "inputs": [
        {
          "internalType": "address[]",
          "name": "users",
          "type": "address[]"
        }
      ],
      "name": "addToTransferBlacklist",
      "outputs": [],
      "stateMutability": "nonpayable",
      "type": "function"
    },
    {
      "inputs": [
        {
          "internalType": "address",
          "name": "user",
          "type": "address"
        }
      ],
      "name": "canDeposit",
      "outputs": [
        {
          "internalType": "bool",
          "name": "",
          "type": "bool"
        }
      ],
      "stateMutability": "view",
      "type": "function"
    },
    {
      "inputs": [
        {
          "internalType": "address",
          "name": "user",
          "type": "address"
        }
      ],
      "name": "canTransferRepositoryToken",
      "outputs": [
        {
          "internalType": "bool",
          "name": "",
          "type": "bool"
        }
      ],
      "stateMutability": "view",
      "type": "function"
    },
    {
      "inputs": [
        {
          "internalType": "uint256",
          "name": "",
          "type": "uint256"
        }
      ],
      "name": "controllers",
      "outputs": [
        {
          "internalType": "address",
          "name": "",
          "type": "address"
        }
      ],
      "stateMutability": "view",
      "type": "function"
    },
    {
      "inputs": [],
      "name": "depositWhitelistEnabled",
      "outputs": [
        {
          "internalType": "bool",
          "name": "",
          "type": "bool"
        }
      ],
      "stateMutability": "view",
      "type": "function"
    },
    {
      "inputs": [
        {
          "internalType": "address",
          "name": "_controller",
          "type": "address"
        }
      ],
      "name": "isController",
      "outputs": [
        {
          "internalType": "bool",
          "name": "",
          "type": "bool"
        }
      ],
      "stateMutability": "view",
      "type": "function"
    },
    {
      "inputs": [
        {
          "internalType": "address",
          "name": "_owner",
          "type": "address"
        }
      ],
      "name": "nominateNewOwner",
      "outputs": [],
      "stateMutability": "nonpayable",
      "type": "function"
    },
    {
      "inputs": [],
      "name": "nominatedOwner",
      "outputs": [
        {
          "internalType": "address",
          "name": "",
          "type": "address"
        }
      ],
      "stateMutability": "view",
      "type": "function"
    },
    {
      "inputs": [],
      "name": "owner",
      "outputs": [
        {
          "internalType": "address",
          "name": "",
          "type": "address"
        }
      ],
      "stateMutability": "view",
      "type": "function"
    },
    {
      "inputs": [
        {
          "internalType": "address[]",
          "name": "users",
          "type": "address[]"
        }
      ],
      "name": "removeFromTransferBlacklist",
      "outputs": [],
      "stateMutability": "nonpayable",
      "type": "function"
    },
    {
      "inputs": [
        {
          "internalType": "bool",
          "name": "depositWhitelistEnabled_",
          "type": "bool"
        }
      ],
      "name": "setDepositWhitelistEnabled",
      "outputs": [],
      "stateMutability": "nonpayable",
      "type": "function"
    },
    {
      "inputs": [
        {
          "internalType": "address",
          "name": "_controller",
          "type": "address"
        },
        {
          "internalType": "bool",
          "name": "isController_",
          "type": "bool"
        }
      ],
      "name": "setIsController",
      "outputs": [],
      "stateMutability": "nonpayable",
      "type": "function"
    },
    {
      "inputs": [
        {
          "internalType": "address[]",
          "name": "users",
          "type": "address[]"
        }
      ],
      "name": "setUserCanDeposit",
      "outputs": [],
      "stateMutability": "nonpayable",
      "type": "function"
    },
    {
      "inputs": [
        {
          "internalType": "address[]",
          "name": "users",
          "type": "address[]"
        }
      ],
      "name": "unsetUserCanDeposit",
      "outputs": [],
      "stateMutability": "nonpayable",
      "type": "function"
    }
  ],
  "bytecode": "0x608080604052346100d557600080546001600160a01b031990811633178255603254680100000000000000008110156100c15760018101806032558110156100ad57603283527f11df491316f14931039edfd4f8964c9a443b862f02d4c7611d18c2bc4e6ff6970180543392168217905590825260208201527fb532073b38c83145e3e5135377a08bf9aab55bc0fd7c1179cd4fb995d2a5159c90604090a160405161094b90816100db8239f35b634e487b7160e01b83526032600452602483fd5b634e487b7160e01b83526041600452602483fd5b600080fdfe60406080815260048036101561001457600080fd5b600091823560e01c80631627540c1461065c57806323fd0b55146105fd57806346f5dfd6146105d95780634bf0d331146105aa57806353a47bb71461058157806379ba5097146104e957806384df5ef71461048a57806385805a821461044d5780638da5cb5b146104255780639721e25f146103c3578063b429afeb14610393578063c646273e14610205578063e8e8a9161461019f578063e94b0dd21461015b5763eb2f8f77146100c557600080fd5b3461015757602036600319011261015757813591821515809303610153576100ec3361086b565b501561013257507f5eb8ad08f8a5dd7d672bf1edb080c6f5f513e269bd3755bad35da9351c8af70a9160209160ff8019603454169216809217603455519015158152a180f35b90516205d51f60e61b815290819061014f903390309084016107cc565b0390fd5b8380fd5b8280fd5b50903461015757602036600319011261015757359160325483101561019c575061018660209261079b565b905491519160018060a01b039160031b1c168152f35b80fd5b5034610157576101ae366106e6565b916101b83361086b565b50156101325750825b8251811015610201576101fc906001600160a01b036101e0828661080b565b511685526035602052828520805460ff191660011790556107e6565b6101c1565b8380f35b5082903461038f578060031936011261038f576102206106cb565b6024358015159081810361038b5781906102386108df565b6102418461086b565b929015151461037b57156102c85750603254600160401b8110156102b5577f9c1e55b2ea976b1ce106746d9325847e838c89adca542764df43b80cadb59b049495508261029782600161029d940160325561079b565b9061084d565b82516001600160a01b0390921682526020820152a180f35b634e487b7160e01b855260418652602485fd5b60325460001990818101908111610368576102f16102e86103089261079b565b9190549461079b565b909160018060a01b0395869160031b1c169161084d565b6032548015610355577f9c1e55b2ea976b1ce106746d9325847e838c89adca542764df43b80cadb59b0496975001906103408261079b565b909182549160031b1b1916905560325561029d565b634e487b7160e01b875260318852602487fd5b634e487b7160e01b875260118852602487fd5b845163ca231c2360e01b81528790fd5b8480fd5b5080fd5b83823461038f57602036600319011261038f576020906103b96103b46106cb565b61086b565b5090519015158152f35b5034610157576103d2366106e6565b916103dc3361086b565b50156101325750825b825181101561020157610420906001600160a01b03610404828661080b565b511685526033602052828520805460ff191660011790556107e6565b6103e5565b83823461038f578160031936011261038f57905490516001600160a01b039091168152602090f35b83823461038f57602036600319011261038f5760209160ff9082906001600160a01b036104786106cb565b16815260338552205416159051908152f35b503461015757610499366106e6565b916104a33361086b565b50156101325750825b8251811015610201576104e4906001600160a01b036104cb828661080b565b511685526035602052828520805460ff191690556107e6565b6104ac565b509034610157578260031936011261015757600154906001600160a01b0380831691338390036105625750817fb532073b38c83145e3e5135377a08bf9aab55bc0fd7c1179cd4fb995d2a5159c91610549875496519283928816836107cc565b0390a16001600160a01b03199283161783551660015580f35b84516312d9f3db60e31b81529283925061014f913390309085016108bc565b83823461038f578160031936011261038f5760015490516001600160a01b039091168152602090f35b83823461038f57602036600319011261038f576020906105d06105cb6106cb565b61081f565b90519015158152f35b83823461038f578160031936011261038f5760209060ff6034541690519015158152f35b50346101575761060c366106e6565b916106163361086b565b50156101325750825b825181101561020157610657906001600160a01b0361063e828661080b565b511685526033602052828520805460ff191690556107e6565b61061f565b83823461038f57602036600319011261038f5760207f906a1c6bd7e3091ea86693dd029a831c19049ce77f1dce2ce0bab1cacbabce229161069b6106cb565b6106a36108df565b600180546001600160a01b0319166001600160a01b039290921691821790559051908152a180f35b600435906001600160a01b03821682036106e157565b600080fd5b6020806003198301126106e15767ffffffffffffffff916004358381116106e157816023820112156106e157806004013590848211610785578160051b9160405195601f19603f850116870190878210908211176107855760405285526024848601928201019283116106e157602401905b828210610766575050505090565b81356001600160a01b03811681036106e1578152908301908301610758565b634e487b7160e01b600052604160045260246000fd5b6032548110156107b657603260005260206000200190600090565b634e487b7160e01b600052603260045260246000fd5b6001600160a01b0391821681529116602082015260400190565b60001981146107f55760010190565b634e487b7160e01b600052601160045260246000fd5b80518210156107b65760209160051b010190565b60ff6034541661082f5750600190565b6001600160a01b031660009081526035602052604090205460ff1690565b919082549060031b9160018060a01b03809116831b921b1916179055565b603254919060005b8381106108865750509050600090600090565b61088f8161079b565b905460039190911b1c6001600160a01b03908116908316146108b357600101610873565b92505060019190565b6001600160a01b0391821681529181166020830152909116604082015260600190565b6000546001600160a01b0316338190036108f65750565b60405163035785f360e31b815290819061014f903330600485016108bc56fea26469706673582212205ea3847c6e1a37ee56d59b4f82b6439ef75456496b361a32dec818a152a4389264736f6c63430008140033",
  "linkReferences": {},
  "deployedLinkReferences": {}
}