{
  "_format": "hh-sol-artifact-1",
  "contractName": "StrandsAccount",
  "sourceName": "contracts/nft/StrandsAccount.sol",
  "abi": [
    {
      "inputs": [
        {
          "internalType": "string",
          "name": "_name",
          "type": "string"
        },
        {
          "internalType": "string",
          "name": "_symbol",
          "type": "string"
        },
        {
          "internalType": "string",
          "name": "_tURI",
          "type": "string"
        }
      ],
      "stateMutability": "nonpayable",
      "type": "constructor"
    },
    {
      "inputs": [],
      "name": "ControllerAlreadySet",
      "type": "error"
    },
    {
      "inputs": [
        {
          "internalType": "address",
          "name": "thrower",
          "type": "address"
        },
        {
          "internalType": "address",
          "name": "caller",
          "type": "address"
        }
      ],
      "name": "OnlyController",
      "type": "error"
    },
    {
      "inputs": [
        {
          "internalType": "address",
          "name": "thrower",
          "type": "address"
        },
        {
          "internalType": "address",
          "name": "caller",
          "type": "address"
        },
        {
          "internalType": "address",
          "name": "nominatedOwner",
          "type": "address"
        }
      ],
      "name": "OnlyNominatedOwner",
      "type": "error"
    },
    {
      "inputs": [
        {
          "internalType": "address",
          "name": "thrower",
          "type": "address"
        },
        {
          "internalType": "address",
          "name": "caller",
          "type": "address"
        },
        {
          "internalType": "address",
          "name": "owner",
          "type": "address"
        }
      ],
      "name": "OnlyOwner",
      "type": "error"
    },
    {
      "anonymous": false,
      "inputs": [
        {
          "indexed": true,
          "internalType": "address",
          "name": "owner",
          "type": "address"
        },
        {
          "indexed": true,
          "internalType": "address",
          "name": "spender",
          "type": "address"
        },
        {
          "indexed": true,
          "internalType": "uint256",
          "name": "id",
          "type": "uint256"
        }
      ],
      "name": "Approval",
      "type": "event"
    },
    {
      "anonymous": false,
      "inputs": [
        {
          "indexed": true,
          "internalType": "address",
          "name": "owner",
          "type": "address"
        },
        {
          "indexed": true,
          "internalType": "address",
          "name": "operator",
          "type": "address"
        },
        {
          "indexed": false,
          "internalType": "bool",
          "name": "approved",
          "type": "bool"
        }
      ],
      "name": "ApprovalForAll",
      "type": "event"
    },
    {
      "anonymous": false,
      "inputs": [
        {
          "indexed": false,
          "internalType": "address",
          "name": "controller",
          "type": "address"
        },
        {
          "indexed": false,
          "internalType": "bool",
          "name": "isController",
          "type": "bool"
        }
      ],
      "name": "ControllerSet",
      "type": "event"
    },
    {
      "anonymous": false,
      "inputs": [
        {
          "indexed": false,
          "internalType": "address",
          "name": "oldOwner",
          "type": "address"
        },
        {
          "indexed": false,
          "internalType": "address",
          "name": "newOwner",
          "type": "address"
        }
      ],
      "name": "OwnerChanged",
      "type": "event"
    },
    {
      "anonymous": false,
      "inputs": [
        {
          "indexed": false,
          "internalType": "address",
          "name": "newOwner",
          "type": "address"
        }
      ],
      "name": "OwnerNominated",
      "type": "event"
    },
    {
      "anonymous": false,
      "inputs": [
        {
          "indexed": true,
          "internalType": "address",
          "name": "from",
          "type": "address"
        },
        {
          "indexed": true,
          "internalType": "address",
          "name": "to",
          "type": "address"
        },
        {
          "indexed": true,
          "internalType": "uint256",
          "name": "id",
          "type": "uint256"
        }
      ],
      "name": "Transfer",
      "type": "event"
    },
    {
      "inputs": [],
      "name": "acceptOwnership",
      "outputs": [],
      "stateMutability": "nonpayable",
      "type": "function"
    },
    {
      "inputs": [
        {
          "internalType": "address",
          "name": "spender",
          "type": "address"
        },
        {
          "internalType": "uint256",
          "name": "id",
          "type": "uint256"
        }
      ],
      "name": "approve",
      "outputs": [],
      "stateMutability": "nonpayable",
      "type": "function"
    },
    {
      "inputs": [
        {
          "internalType": "address",
          "name": "owner",
          "type": "address"
        }
      ],
      "name": "balanceOf",
      "outputs": [
        {
          "internalType": "uint256",
          "name": "",
          "type": "uint256"
        }
      ],
      "stateMutability": "view",
      "type": "function"
    },
    {
      "inputs": [
        {
          "internalType": "uint256",
          "name": "",
          "type": "uint256"
        }
      ],
      "name": "controllers",
      "outputs": [
        {
          "internalType": "address",
          "name": "",
          "type": "address"
        }
      ],
      "stateMutability": "view",
      "type": "function"
    },
    {
      "inputs": [
        {
          "internalType": "string",
          "name": "clearingFirm_",
          "type": "string"
        },
        {
          "internalType": "string",
          "name": "accountNumber_",
          "type": "string"
        }
      ],
      "name": "deleteAccount",
      "outputs": [],
      "stateMutability": "nonpayable",
      "type": "function"
    },
    {
      "inputs": [
        {
          "internalType": "uint256",
          "name": "accountTokenId_",
          "type": "uint256"
        }
      ],
      "name": "getAccountDetails",
      "outputs": [
        {
          "components": [
            {
              "internalType": "string",
              "name": "clearingFirm",
              "type": "string"
            },
            {
              "internalType": "string",
              "name": "accountNumber",
              "type": "string"
            },
            {
              "internalType": "uint256",
              "name": "accountValue",
              "type": "uint256"
            },
            {
              "internalType": "uint256",
              "name": "initialMargin",
              "type": "uint256"
            },
            {
              "internalType": "uint256",
              "name": "maintenanceMargin",
              "type": "uint256"
            },
            {
              "internalType": "uint256",
              "name": "excessEquity",
              "type": "uint256"
            },
            {
              "internalType": "uint256",
              "name": "statementTimestamp",
              "type": "uint256"
            },
            {
              "internalType": "address[]",
              "name": "approvedTraders",
              "type": "address[]"
            }
          ],
          "internalType": "struct IStrandsAccount.AccountDetails",
          "name": "",
          "type": "tuple"
        }
      ],
      "stateMutability": "view",
      "type": "function"
    },
    {
      "inputs": [
        {
          "internalType": "uint256",
          "name": "",
          "type": "uint256"
        }
      ],
      "name": "getApproved",
      "outputs": [
        {
          "internalType": "address",
          "name": "",
          "type": "address"
        }
      ],
      "stateMutability": "view",
      "type": "function"
    },
    {
      "inputs": [
        {
          "internalType": "string",
          "name": "clearingFirm_",
          "type": "string"
        },
        {
          "internalType": "string",
          "name": "accountNumber_",
          "type": "string"
        }
      ],
      "name": "getOwner",
      "outputs": [
        {
          "internalType": "address",
          "name": "",
          "type": "address"
        }
      ],
      "stateMutability": "view",
      "type": "function"
    },
    {
      "inputs": [
        {
          "internalType": "address",
          "name": "target",
          "type": "address"
        }
      ],
      "name": "getOwnerAccounts",
      "outputs": [
        {
          "components": [
            {
              "internalType": "string",
              "name": "clearingFirm",
              "type": "string"
            },
            {
              "internalType": "string",
              "name": "accountNumber",
              "type": "string"
            },
            {
              "internalType": "uint256",
              "name": "accountValue",
              "type": "uint256"
            },
            {
              "internalType": "uint256",
              "name": "initialMargin",
              "type": "uint256"
            },
            {
              "internalType": "uint256",
              "name": "maintenanceMargin",
              "type": "uint256"
            },
            {
              "internalType": "uint256",
              "name": "excessEquity",
              "type": "uint256"
            },
            {
              "internalType": "uint256",
              "name": "statementTimestamp",
              "type": "uint256"
            },
            {
              "internalType": "address[]",
              "name": "approvedTraders",
              "type": "address[]"
            }
          ],
          "internalType": "struct IStrandsAccount.AccountDetails[]",
          "name": "",
          "type": "tuple[]"
        }
      ],
      "stateMutability": "view",
      "type": "function"
    },
    {
      "inputs": [
        {
          "internalType": "uint256",
          "name": "tokenId_",
          "type": "uint256"
        },
        {
          "internalType": "bool",
          "name": "includeExpiredPosition_",
          "type": "bool"
        }
      ],
      "name": "getPositionsByAccountId",
      "outputs": [
        {
          "components": [
            {
              "internalType": "string",
              "name": "symbol",
              "type": "string"
            },
            {
              "internalType": "string",
              "name": "exchange",
              "type": "string"
            },
            {
              "internalType": "string",
              "name": "clearingFirm",
              "type": "string"
            },
            {
              "internalType": "string",
              "name": "accountNumber",
              "type": "string"
            },
            {
              "components": [
                {
                  "internalType": "string",
                  "name": "tag50",
                  "type": "string"
                },
                {
                  "internalType": "string",
                  "name": "tradeId",
                  "type": "string"
                },
                {
                  "internalType": "bool",
                  "name": "isLong",
                  "type": "bool"
                },
                {
                  "internalType": "uint256",
                  "name": "quantity",
                  "type": "uint256"
                },
                {
                  "internalType": "uint256",
                  "name": "purchasePrice",
                  "type": "uint256"
                },
                {
                  "internalType": "uint256",
                  "name": "executionTime",
                  "type": "uint256"
                }
              ],
              "internalType": "struct IStrandsPosition.TradeDetails[]",
              "name": "trades",
              "type": "tuple[]"
            },
            {
              "internalType": "uint256",
              "name": "lastTradingDate",
              "type": "uint256"
            },
            {
              "internalType": "bool",
              "name": "expired",
              "type": "bool"
            },
            {
              "components": [
                {
                  "internalType": "string",
                  "name": "source",
                  "type": "string"
                },
                {
                  "internalType": "string",
                  "name": "altSymbol",
                  "type": "string"
                }
              ],
              "internalType": "struct IStrandsPosition.AltSymbolInfo[]",
              "name": "altSymbolInfos",
              "type": "tuple[]"
            },
            {
              "internalType": "uint256",
              "name": "tokenId",
              "type": "uint256"
            }
          ],
          "internalType": "struct IStrandsPosition.PositionDetails[]",
          "name": "positionDetails",
          "type": "tuple[]"
        }
      ],
      "stateMutability": "view",
      "type": "function"
    },
    {
      "inputs": [
        {
          "internalType": "string",
          "name": "clearingFirm_",
          "type": "string"
        },
        {
          "internalType": "string",
          "name": "accountNumber_",
          "type": "string"
        }
      ],
      "name": "getTokenId",
      "outputs": [
        {
          "internalType": "uint256",
          "name": "",
          "type": "uint256"
        }
      ],
      "stateMutability": "view",
      "type": "function"
    },
    {
      "inputs": [
        {
          "internalType": "address",
          "name": "",
          "type": "address"
        },
        {
          "internalType": "address",
          "name": "",
          "type": "address"
        }
      ],
      "name": "isApprovedForAll",
      "outputs": [
        {
          "internalType": "bool",
          "name": "",
          "type": "bool"
        }
      ],
      "stateMutability": "view",
      "type": "function"
    },
    {
      "inputs": [
        {
          "internalType": "address",
          "name": "_controller",
          "type": "address"
        }
      ],
      "name": "isController",
      "outputs": [
        {
          "internalType": "bool",
          "name": "",
          "type": "bool"
        }
      ],
      "stateMutability": "view",
      "type": "function"
    },
    {
      "inputs": [
        {
          "internalType": "address",
          "name": "to",
          "type": "address"
        },
        {
          "internalType": "string",
          "name": "clearingFirm_",
          "type": "string"
        },
        {
          "internalType": "string",
          "name": "accountNumber_",
          "type": "string"
        },
        {
          "internalType": "uint256",
          "name": "accountValue_",
          "type": "uint256"
        },
        {
          "internalType": "uint256",
          "name": "initialMargin_",
          "type": "uint256"
        },
        {
          "internalType": "uint256",
          "name": "maintenanceMargin_",
          "type": "uint256"
        },
        {
          "internalType": "uint256",
          "name": "excessEquity_",
          "type": "uint256"
        },
        {
          "internalType": "uint256",
          "name": "timestamp",
          "type": "uint256"
        }
      ],
      "name": "mint",
      "outputs": [],
      "stateMutability": "nonpayable",
      "type": "function"
    },
    {
      "inputs": [],
      "name": "mintCounter",
      "outputs": [
        {
          "internalType": "uint256",
          "name": "",
          "type": "uint256"
        }
      ],
      "stateMutability": "view",
      "type": "function"
    },
    {
      "inputs": [],
      "name": "name",
      "outputs": [
        {
          "internalType": "string",
          "name": "",
          "type": "string"
        }
      ],
      "stateMutability": "view",
      "type": "function"
    },
    {
      "inputs": [
        {
          "internalType": "address",
          "name": "_owner",
          "type": "address"
        }
      ],
      "name": "nominateNewOwner",
      "outputs": [],
      "stateMutability": "nonpayable",
      "type": "function"
    },
    {
      "inputs": [],
      "name": "nominatedOwner",
      "outputs": [
        {
          "internalType": "address",
          "name": "",
          "type": "address"
        }
      ],
      "stateMutability": "view",
      "type": "function"
    },
    {
      "inputs": [],
      "name": "owner",
      "outputs": [
        {
          "internalType": "address",
          "name": "",
          "type": "address"
        }
      ],
      "stateMutability": "view",
      "type": "function"
    },
    {
      "inputs": [
        {
          "internalType": "uint256",
          "name": "id",
          "type": "uint256"
        }
      ],
      "name": "ownerOf",
      "outputs": [
        {
          "internalType": "address",
          "name": "owner",
          "type": "address"
        }
      ],
      "stateMutability": "view",
      "type": "function"
    },
    {
      "inputs": [],
      "name": "positionNFT",
      "outputs": [
        {
          "internalType": "address",
          "name": "",
          "type": "address"
        }
      ],
      "stateMutability": "view",
      "type": "function"
    },
    {
      "inputs": [
        {
          "internalType": "uint256",
          "name": "tokenId_",
          "type": "uint256"
        },
        {
          "internalType": "address",
          "name": "trader_",
          "type": "address"
        }
      ],
      "name": "removeApprovedTrader",
      "outputs": [],
      "stateMutability": "nonpayable",
      "type": "function"
    },
    {
      "inputs": [
        {
          "internalType": "address",
          "name": "from",
          "type": "address"
        },
        {
          "internalType": "address",
          "name": "to",
          "type": "address"
        },
        {
          "internalType": "uint256",
          "name": "id",
          "type": "uint256"
        }
      ],
      "name": "safeTransferFrom",
      "outputs": [],
      "stateMutability": "nonpayable",
      "type": "function"
    },
    {
      "inputs": [
        {
          "internalType": "address",
          "name": "from",
          "type": "address"
        },
        {
          "internalType": "address",
          "name": "to",
          "type": "address"
        },
        {
          "internalType": "uint256",
          "name": "id",
          "type": "uint256"
        },
        {
          "internalType": "bytes",
          "name": "data",
          "type": "bytes"
        }
      ],
      "name": "safeTransferFrom",
      "outputs": [],
      "stateMutability": "nonpayable",
      "type": "function"
    },
    {
      "inputs": [
        {
          "internalType": "address",
          "name": "operator",
          "type": "address"
        },
        {
          "internalType": "bool",
          "name": "approved",
          "type": "bool"
        }
      ],
      "name": "setApprovalForAll",
      "outputs": [],
      "stateMutability": "nonpayable",
      "type": "function"
    },
    {
      "inputs": [
        {
          "internalType": "uint256",
          "name": "tokenId_",
          "type": "uint256"
        },
        {
          "internalType": "address[]",
          "name": "traders_",
          "type": "address[]"
        }
      ],
      "name": "setApprovedTraders",
      "outputs": [],
      "stateMutability": "nonpayable",
      "type": "function"
    },
    {
      "inputs": [
        {
          "internalType": "address",
          "name": "_controller",
          "type": "address"
        },
        {
          "internalType": "bool",
          "name": "isController_",
          "type": "bool"
        }
      ],
      "name": "setIsController",
      "outputs": [],
      "stateMutability": "nonpayable",
      "type": "function"
    },
    {
      "inputs": [
        {
          "internalType": "address",
          "name": "positionNFT_",
          "type": "address"
        }
      ],
      "name": "setPositionNFT",
      "outputs": [],
      "stateMutability": "nonpayable",
      "type": "function"
    },
    {
      "inputs": [
        {
          "internalType": "uint256",
          "name": "tokenId",
          "type": "uint256"
        },
        {
          "internalType": "string",
          "name": "_tURI",
          "type": "string"
        }
      ],
      "name": "setTokenURI",
      "outputs": [],
      "stateMutability": "nonpayable",
      "type": "function"
    },
    {
      "inputs": [
        {
          "internalType": "bytes4",
          "name": "interfaceId",
          "type": "bytes4"
        }
      ],
      "name": "supportsInterface",
      "outputs": [
        {
          "internalType": "bool",
          "name": "",
          "type": "bool"
        }
      ],
      "stateMutability": "view",
      "type": "function"
    },
    {
      "inputs": [],
      "name": "symbol",
      "outputs": [
        {
          "internalType": "string",
          "name": "",
          "type": "string"
        }
      ],
      "stateMutability": "view",
      "type": "function"
    },
    {
      "inputs": [
        {
          "internalType": "uint256",
          "name": "tokenId",
          "type": "uint256"
        }
      ],
      "name": "tokenURI",
      "outputs": [
        {
          "internalType": "string",
          "name": "",
          "type": "string"
        }
      ],
      "stateMutability": "view",
      "type": "function"
    },
    {
      "inputs": [
        {
          "internalType": "string",
          "name": "clearingFirm_",
          "type": "string"
        },
        {
          "internalType": "string",
          "name": "accountNumber_",
          "type": "string"
        },
        {
          "internalType": "address",
          "name": "to_",
          "type": "address"
        }
      ],
      "name": "transferAccount",
      "outputs": [],
      "stateMutability": "nonpayable",
      "type": "function"
    },
    {
      "inputs": [
        {
          "internalType": "address",
          "name": "from",
          "type": "address"
        },
        {
          "internalType": "address",
          "name": "to",
          "type": "address"
        },
        {
          "internalType": "uint256",
          "name": "id",
          "type": "uint256"
        }
      ],
      "name": "transferFrom",
      "outputs": [],
      "stateMutability": "nonpayable",
      "type": "function"
    },
    {
      "inputs": [
        {
          "internalType": "string",
          "name": "clearingFirm_",
          "type": "string"
        },
        {
          "internalType": "string",
          "name": "accountNumber_",
          "type": "string"
        },
        {
          "internalType": "uint256",
          "name": "accountValue_",
          "type": "uint256"
        },
        {
          "internalType": "uint256",
          "name": "initialMargin_",
          "type": "uint256"
        },
        {
          "internalType": "uint256",
          "name": "maintenanceMargin_",
          "type": "uint256"
        },
        {
          "internalType": "uint256",
          "name": "excessEquity_",
          "type": "uint256"
        },
        {
          "internalType": "uint256",
          "name": "timestamp",
          "type": "uint256"
        }
      ],
      "name": "updateValues",
      "outputs": [],
      "stateMutability": "nonpayable",
      "type": "function"
    }
  ],
  "bytecode": "0x608060405234620005065762003d07803803806200001d816200050b565b9283398101606082820312620005065781516001600160401b0391908281116200050657816200004f91850162000531565b90602093848101518481116200050657826200006d91830162000531565b916040820151858111620005065762000087920162000531565b825191848311620004f0576000908154936001958686811c96168015620004e5575b8987101462000403578190601f9687811162000492575b5089908783116001146200042e57859262000422575b5050600019600383901b1c191690861b1782555b8051908682116200032c5785548681811c9116801562000417575b898210146200040357908186849311620003b0575b5088908683116001146200034c57849262000340575b5050600019600383901b1c191690851b1784555b600680546001600160a01b03199081163317909155603854680100000000000000008110156200032c5785810180603855811015620003185760388352878320019033908254161790557fb532073b38c83145e3e5135377a08bf9aab55bc0fd7c1179cd4fb995d2a5159c604080518381523389820152a181519485116200030457603b548481811c91168015620002f9575b87821014620002e5578381116200029c575b50859285116001146200023357939450849291908362000227575b50501b916000199060031b1c191617603b555b6040516137639081620005a48239f35b01519250388062000204565b603b815285812093958591601f198316915b8883831062000281575050501062000267575b505050811b01603b5562000217565b015160001960f88460031b161c1916905538808062000258565b85870151885590960195948501948793509081019062000245565b603b82528682208480880160051c820192898910620002db575b0160051c019085905b828110620002cf575050620001e9565b838155018590620002bf565b92508192620002b6565b634e487b7160e01b82526022600452602482fd5b90607f1690620001d7565b634e487b7160e01b81526041600452602490fd5b634e487b7160e01b83526032600452602483fd5b634e487b7160e01b83526041600452602483fd5b01519050388062000130565b8785528985208894509190601f198416865b8c8282106200039957505084116200037f575b505050811b01845562000144565b015160001960f88460031b161c1916905538808062000371565b8385015186558b979095019493840193016200035e565b9091508684528884208680850160051c8201928b8610620003f9575b918991869594930160051c01915b828110620003ea5750506200011a565b868155859450899101620003da565b92508192620003cc565b634e487b7160e01b84526022600452602484fd5b90607f169062000105565b015190503880620000d6565b8580528a86208994509190601f198416875b8d8282106200047b575050841162000461575b505050811b018255620000ea565b015160001960f88460031b161c1916905538808062000453565b8385015186558c9790950194938401930162000440565b9091508480528985208780850160051c8201928c8610620004db575b918a91869594930160051c01915b828110620004cc575050620000c0565b8781558594508a9101620004bc565b92508192620004ae565b95607f1695620000a9565b634e487b7160e01b600052604160045260246000fd5b600080fd5b6040519190601f01601f191682016001600160401b03811183821017620004f057604052565b919080601f84011215620005065782516001600160401b038111620004f05760209062000567601f8201601f191683016200050b565b92818452828287010111620005065760005b8181106200058f57508260009394955001015290565b85810183015184820184015282016200057956fe608080604052600436101561001357600080fd5b60003560e01c90816301ffc9a714612b195750806306fdde0314612a76578063081812fc14612a42578063095ea7b31461295c578063162094c41461279c5780631627540c1461273057806318e6645c1461226d57806323228ecb1461224457806323b872dd1461207b5780632a0b261714611f8457806335b0013814611c4a578063428365be1461186f57806342842e0e1461161857806345aea9d71461134e57806346aa52ce1461133057806353a47bb7146113075780636352211e146112c857806370a08231146112545780637855e889146110c957806379ba5097146110325780637b679aa9146110075780638da5cb5b14610fde57806395d89b4114610f19578063a22cb46514610e95578063ab0ea3b514610c9d578063b0eb469d14610c0d578063b429afeb14610bdf578063b88d4fde14610884578063c646273e1461072e578063c87b56dd146105f5578063e22023ae146105c9578063e4c2d63f146103f2578063e94b0dd2146103b0578063e985e9c51461035a5763ffcb5186146101a057600080fd5b346103555760e0366003190112610355576001600160401b03600435818111610355576101d1903690600401612d30565b90602435908111610355576101ea903690600401612d30565b9060c435916101f8336135cb565b50156103365761022a90604051838180955161021a8160209889809601612ca1565b8101603d81520301902090612fde565b5480156102d257603954600052603c82528260066040600020015410156102815790603c91600052526006604060002060443560028201556064356003820155608435600482015560a43560058201550155600080f35b60405162461bcd60e51b815260048101839052602360248201527f53746174656d656e74206973206f6c646572207468616e2063757272656e74206044820152626f6e6560e81b6064820152608490fd5b60405162461bcd60e51b815260048101839052603660248201527f4e465420646f65736e2774206578697374207769746820636c656172696e674660448201527534b9369030b7321030b1b1b7bab73a10373ab6b132b960511b6064820152608490fd5b6040516205d51f60e61b815280610351333060048401612f05565b0390fd5b600080fd5b3461035557604036600319011261035557610373612ce9565b61037b612cff565b9060018060a01b03809116600052600560205260406000209116600052602052602060ff604060002054166040519015158152f35b3461035557602036600319011261035557600435603854811015610355576103d9602091612ebc565b905460405160039290921b1c6001600160a01b03168152f35b346103555760403660031901126103555760043561040e612cff565b908060005260206002815260018060a01b039161043383604060002054163314612f36565b80600052603f9081835283604060002095169485600052835260ff604060002054161561058e5780600052603c93848452600780604060002001549560005b87811061047b57005b84600052818752836104938285604060002001612eed565b919054600392831b1c168a146104b257506104ad90612f77565b610472565b949596978660009593949552838952846040600020019260001996878301928311610578576104e76105019361050796612eed565b9054911b1c169187600052848a5285604060002001612eed565b90612f9a565b836000528552604060002001908154801561056257019061054061052b8383612eed565b81549060018060a01b039060031b1b19169055565b55600052815260406000209160005252604060002060ff198154169055600080f35b634e487b7160e01b600052603160045260246000fd5b634e487b7160e01b600052601160045260246000fd5b60405162461bcd60e51b81526004810184905260136024820152722737ba1030b8383937bb32b2103a3930b232b960691b6044820152606490fd5b346103555760206105ec6105e66105df36612e5f565b9190612fb8565b90612fde565b54604051908152f35b3461035557602080600319360112610355576039548015908115610721575b50156106d15760405190600082603b549161062e83612b84565b928383526001908582821691826000146106b1575050600114610671575b5061065992500383612bda565b61066d604051928284938452830190612cc4565b0390f35b849150603b60005281600020906000915b85831061069957505061065993508201018561064c565b80548389018501528794508693909201918101610682565b60ff19168582015261065995151560051b850101925087915061064c9050565b6084906040519062461bcd60e51b82526004820152602360248201527f63616e2774206765742055524920666f72206e6f6e6578697374656e7420746f60448201526235b2b760e91b6064820152fd5b9050600435111582610614565b3461035557604036600319011261035557610747612ce9565b61074f612e50565b9061075861363f565b610761816135cb565b9092801515809415151461087257156107ea575060385490600160401b8210156107d4577f9c1e55b2ea976b1ce106746d9325847e838c89adca542764df43b80cadb59b04926107bd8261050185600160409701603855612ebc565b82516001600160a01b0390921682526020820152a1005b634e487b7160e01b600052604160045260246000fd5b6038546000199392918482019182116105785761081561080c61082e93612ebc565b91905492612ebc565b60039290921b9290921c6001600160a01b031691612f9a565b603854918215610562577f9c1e55b2ea976b1ce106746d9325847e838c89adca542764df43b80cadb59b04936040930161086a61052b82612ebc565b6038556107bd565b60405163ca231c2360e01b8152600490fd5b346103555760803660031901126103555761089d612ce9565b6108a5612cff565b906001600160401b038060643511610355573660236064350112156103555760643560040135116103555736602460643560040135606435010111610355576108ed336135cb565b5015610336576044356000908152600260205260409020546001600160a01b0390811682821603610bad576109258184161515613027565b818116600081815260036020908152604080832080546000190190558685168084528184208054600101905560443584526002835281842080546001600160a01b0319169091179055928252603e90529081205492905b838110610ad0575b50908092508316600052603e6020526109a36044356040600020613004565b60443560008181526004602052604080822080546001600160a01b031916905551949190848316908486169060008051602061370e8339815191529080a4803b159283156109f7575b6109f5846136ce565b005b602092935090846000838294630a85bd0160e11b978885523360048601521660248401526044356044840152608060648401526064356004013560848401526064356004013560246064350160a48501378160a4606435600401358501015260a483601f19601f6064356004013501168101030193165af18015610ac4576109f592600091610a95575b506001600160e01b031916148280806109ec565b610ab7915060203d602011610abd575b610aaf8183612bda565b8101906136ae565b83610a81565b503d610aa5565b6040513d6000823e3d90fd5b828216600052603e602052610ae9816040600020612eed565b90549060031b1c60443514610b005760010161097c565b828293949216600052603e60205260406000208260001981011161057857610b33610b5091610b69946000190190612eed565b90549060031b1c91858516600052603e6020526040600020612eed565b90919082549060031b91821b91600019901b1916179055565b818116600052603e602052604060002080548015610562576000190190610ba4610b938383612eed565b8154906000199060031b1b19169055565b55819084610984565b60405162461bcd60e51b815260206004820152600a60248201526957524f4e475f46524f4d60b01b6044820152606490fd5b34610355576020366003190112610355576020610c02610bfd612ce9565b6135cb565b506040519015158152f35b3461035557602036600319011261035557610c26612ce9565b610c2f336135cb565b5015610336576001600160a01b03168015610c5a57603a80546001600160a01b031916919091179055005b60405162461bcd60e51b815260206004820152601b60248201527a496e76616c696420506f736974696f6e4e4654204164647265737360281b6044820152606490fd5b34610355576020366003190112610355576001600160a01b03610cbe612ce9565b1680600052603e602052604060002054610cd781612ea5565b91610ce56040519384612bda565b818352601f19610cf483612ea5565b0160005b818110610e7e575050906000915b818310610d7557836040518091602082016020835281518091526040830190602060408260051b8601019301916000905b828210610d4657505050500390f35b91936001919395506020610d658192603f198a82030186528851612dac565b9601920192018594939192610d37565b80600052603e602052610d8c836040600020612eed565b939054600394851b1c600052603c6020526007604060002060405195610db187612bbe565b610dba82612bfb565b8752610dc860018301612bfb565b602088015260028201546040880152810154606087015260048101546080870152600581015460a0870152600681015460c0870152019360405180602087549182815201966000526020600020906000905b808210610e5c57505050610e3581610e559596970382612bda565b60e0820152610e448287612f86565b52610e4f8186612f86565b50612f77565b9190610d06565b82546001600160a01b0316895260209098019760019283019290910190610e1a565b602090610e896134df565b82828801015201610cf8565b3461035557604036600319011261035557610eae612ce9565b610eb6612e50565b33600052600560205260406000209160018060a01b0316918260005260205260406000209015159060ff1981541660ff83161790556040519081527f17307eab39ab6107e8899845ad3d59bd9653f200f220920489ca2b5937696c3160203392a3005b346103555760003660031901126103555760405160009060018054610f3d81612b84565b80845290828116908115610fb65750600114610f78575b61066d83610f6481870382612bda565b604051918291602083526020830190612cc4565b92508060005260209283600020916000925b828410610fa357505050810190910190610f6481610f54565b8054858501870152928501928101610f8a565b61066d9550610f6493506020915091849260ff191682840152151560051b8201019350610f54565b34610355576000366003190112610355576006546040516001600160a01b039091168152602090f35b3461035557602061102061101a36612e5f565b90613520565b6040516001600160a01b039091168152f35b34610355576000366003190112610355576007546001600160a01b0390818116338190036110aa577fb532073b38c83145e3e5135377a08bf9aab55bc0fd7c1179cd4fb995d2a5159c8160065494611091604051928392881683612f05565b0390a16001600160a01b03199283161760065516600755005b6040516312d9f3db60e31b81529081906103519033306004850161361c565b3461035557604036600319011261035557602480356004356001600160401b03821161035557366023830112156103555781600401359161110983612ea5565b906111176040519283612bda565b838252602093858584019160051b83010191368311610355578601905b82821061123557505050816000526002835260018060a01b039261116084604060002054163314612f36565b60005b82518110156109f55783600052603f908183526040600020866111868387612f86565b5116600052835260ff60406000205416156111ab575b6111a69150612f77565b611163565b84600052603c83526007604060002001866111c68387612f86565b5116928154600160401b811015611220576111a6946105016111ef926001958682018155612eed565b8660005284526040600020876112058488612f86565b5116600052845260406000209060ff1982541617905561119c565b89634e487b7160e01b60005260416004526000fd5b81356001600160a01b0381168103610355578152908501908501611134565b34610355576020366003190112610355576001600160a01b03611275612ce9565b1680156112945760005260036020526020604060002054604051908152f35b60405162461bcd60e51b815260206004820152600c60248201526b5a45524f5f4144445245535360a01b6044820152606490fd5b34610355576020366003190112610355576004356000526002602052602060018060a01b03604060002054166112ff811515613675565b604051908152f35b34610355576000366003190112610355576007546040516001600160a01b039091168152602090f35b34610355576000366003190112610355576020603954604051908152f35b346103555761135c36612e5f565b611365336135cb565b5015610336576040519082519261139960209384818185019761138981838b612ca1565b8101603d81520301902083612fde565b54603a5460009182526002855260408083205490516207335b60ed1b81526001600160a01b0391821660048201526024959392821692909190828781865afa918215610ac4576000926115f3575b5060005b82518110156114ed576113fe8184612f86565b5160405190634f6675af60e11b825260048201526000818981885afa908115610ac4576000916114ca575b5060c081015115908115916114b3575b811561149d575b501561144e576001016113eb565b60405162461bcd60e51b8152600481018990526022818901527f43616e27742064656c657465206163636f756e74207769746820706f7369746960448201526137b760f11b6064820152608490fd5b6114ac91506060015186613564565b158a611440565b90506114c3604082015188613564565b1590611439565b6114e791503d806000833e6114df8183612bda565b8101906133db565b8a611429565b506000878692826115228861021a858f61150f6115098b612fb8565b85612fde565b5499604051938492839251928391612ca1565b55838352603c825260076040842061153981613400565b61154560018201613400565b846002820155846003820155846004820155846005820155846006820155018054848255806115da575b5050838352600282526040832054169061158a821515613675565b818352600381526040808420805485190190558484526002825280842080546001600160a01b0319908116909155600490925283208054909116905560008051602061370e8339815191528280a4005b6115ec91855283852090810190612f1f565b848061156f565b6116119192503d806000833e6116098183612bda565b810190613067565b90886113e7565b346103555761162636612d77565b9091611631336135cb565b501561033657816000526020926002845260018060a01b03808060406000205416931692830361183d578116611668811515613027565b826000526003808652604060002060001990818154019055826000526040600020600190818154019055866000526002885260406000209260018060a01b031993858582541617905586600052603e92838a526040600020549160005b8381106117a4575b50505050508260005286526116e6856040600020613004565b846000526004865260406000209081541690556040519184828560008051602061370e833981519152600080a43b15938415611726575b6109f5856136ce565b8280949550600087949360a493630a85bd0160e11b9889855233600486015260248501526044840152608060648401528160848401525af1908115610ac4576109f593600092611787575b50506001600160e01b031916148280808061171d565b61179d9250803d10610abd57610aaf8183612bda565b8380611771565b89600052858c526117b9816040600020612eed565b905490831b1c8b146117cc5784016116c5565b9193509188600052848b52604060002092848201918211610578576117f7610b509261180e95612eed565b9054911b1c9189600052858c526040600020612eed565b8560005281885260406000209081548015610562570190611832610b938383612eed565b5587808080806116cd565b60405162461bcd60e51b815260048101869052600a60248201526957524f4e475f46524f4d60b01b6044820152606490fd5b34610355576060366003190112610355576004356001600160401b0381116103555761189f903690600401612d30565b6024356001600160401b038111610355576118be903690600401612d30565b90604435906001600160a01b0382168203610355576118dc336135cb565b5015610336576001600160a01b03821615156118f781613027565b61191f604051602081855161190f8183858a01612ca1565b8101603d81520301902085612fde565b549283600052600260205260018060a01b036040600020541691611942336135cb565b5015610336576000858152600260205260409020546001600160a01b03168303610bad5761196f90613027565b600082815260036020908152604080832080546000190190556001600160a01b038416808452818420805460010190558784526002835281842080546001600160a01b0319169091179055848352603e90915281205494905b858110611b9c575b50909192935060018060a01b038216600052603e6020526119f5816040600020613004565b60008181526004602052604080822080546001600160a01b03191690555191906001600160a01b03841690859060008051602061370e8339815191529080a4603a546207335b60ed1b825260048201849052600090829060249082906001600160a01b03165afa908115610ac457600091611b81575b5060005b81518110156109f557603a546001600160a01b031690611a8f8184612f86565b5160405190634f6675af60e11b82526004820152600081602481865afa908115610ac457600091611b66575b50611aca604082015188613564565b9081611b51575b50611ae1575b6001915001611a6f565b611aeb8184612f86565b51823b15610355576040516323b872dd60e01b8152600481018790526001600160a01b03861660248201526044810191909152916000908390606490829084905af18015610ac45715611ad7576001600160401b0382116107d457600191604052611ad7565b611b6091506060015188613564565b88611ad1565b611b7b91503d806000833e6114df8183612bda565b88611abb565b611b9691503d806000833e6116098183612bda565b85611a6b565b83600052603e602052611bb3816040600020612eed565b90549060031b1c8214611bc8576001016119c8565b83600096929394959652603e60205260406000208260001981011161057857611bfc610b5091611c17946000190190612eed565b90549060031b1c9186600052603e6020526040600020612eed565b82600052603e602052604060002080548015610562576000190190611c3f610b938383612eed565b5590839291866119d0565b3461035557600319604036820112610355576000611cbe91611c6a612e50565b6001808060a01b03603a5416916004358552603c602052604085209060405196879586948594632fe68e7b60e01b865260606004870152611cae6064870182613449565b9286840301602487015201613449565b901515604483015203915afa908115610ac457600091611ed7575b506040518091602082016020835281518091526040830190602060408260051b8601019301916000905b828210611d1257505050500390f35b919390929450603f19868203018252845190611d76611d64611d52611d408551610120808752860190612cc4565b60208601518582036020870152612cc4565b60408501518482036040860152612cc4565b60608401518382036060850152612cc4565b916080810151928281036080840152835180825260208201906020808260051b85010196019260005b828110611e6257505050505060a0808201519083015260c08082015115159083015260e08101519282810360e0840152835180825260208201906020808260051b85010196019260005b828110611e175750505050506001926020928392610100809101519101529601920192018594939192611d03565b9091929396602080611e55600193601f198782030189528b519083611e458351604084526040840190612cc4565b9201519084818403910152612cc4565b9901950193929101611de9565b9091929396602080600192601f198682030188528a5190611e9e611e8e835160c0808552840190612cc4565b8484015183820386850152612cc4565b91604081015115156040830152606081015160608301526080810151608083015260a08091015191015299019501910192919092611d9f565b90503d806000833e611ee98183612bda565b81016020828203126103555781516001600160401b039283821161035557019181601f8401121561035557825192611f2084612ea5565b93611f2e6040519586612bda565b80855260208086019160051b830101928484116103555760208301915b848310611f5e5750505050505081611cd9565b825182811161035557602091611f798884809489010161312f565b815201920191611f4b565b346103555760208060031936011261035557611f9e6134df565b50600435600052603c815260406000209060405191611fbc83612bbe565b611fc581612bfb565b83526007600191611fd7838201612bfb565b84860152600281015460408601526003810154606086015260048101546080860152600581015460a0860152600681015460c086015201906040519081928391858254948581520191600052856000209060005b8786821061205c575050505061204392500382612bda565b60e083015261066d604051928284938452830190612dac565b83546001600160a01b031685528795509093019291810191810161202b565b346103555761208936612d77565b91612093336135cb565b501561033657826000526020916002835260018060a01b039081806040600020541693169283036122125716916120cb831515613027565b81600052600390818152604060002060001990818154019055846000526040600020600190818154019055866000526002835260406000209360018060a01b031994878682541617905585600052603e928385526040600020549160005b838110612173575b50505050509060049185600052815261214e866040600020613004565b8560005252604060002090815416905560008051602061370e833981519152600080a4005b88600052858752612188816040600020612eed565b905490831b1c8b1461219b578401612129565b91959493509187600052838552604060002092868201918211610578576121c8610b50926121df95612eed565b9054911b1c91886000528486526040600020612eed565b8460005280825260406000208054938415610562576004940190612206610b938383612eed565b55909187808080612131565b60405162461bcd60e51b815260048101859052600a60248201526957524f4e475f46524f4d60b01b6044820152606490fd5b3461035557600036600319011261035557603a546040516001600160a01b039091168152602090f35b346103555761010036600319011261035557612287612ce9565b6024356001600160401b038111610355576122a6903690600401612d30565b6044356001600160401b038111610355576122c5903690600401612d30565b6122ce336135cb565b5015610336576001600160a01b036122e68284613520565b166126f757603954600181018091116105785780603955600052603c602052604060002082516001600160401b0381116107d4576123248254612b84565b601f81116126c5575b50806020601f821160011461265e57600091612653575b508160011b916000199060031b1c19161790555b603954600052603c602052600160406000200181516001600160401b0381116107d4576123858254612b84565b601f8111612616575b506020601f82116001146125a7579181602095949261243d9460009161259c575b508160011b916000199060031b1c19161790555b603954600052603c845260643560026040600020015560395460005260843560036040600020015560395460005260a43560046040600020015560395460005260c43560056040600020015560395460005260e43560066040600020015561021a6039549485948160405193828580945193849201612ca1565b556001600160a01b0382166000818152603e60205260409020909161246191613004565b60395461246f821515613027565b6000818152600260205260409020546001600160a01b03166125665781600052600360205260406000206001815401905580600052600260205260406000208260018060a01b0319825416179055604051928183600060008051602061370e8339815191528180a43b159182156124ea575b6109f5836136ce565b602091925060a48460008193630a85bd0160e11b968784523360048501528260248501526044840152608060648401528160848401525af18015610ac4576109f592600091612547575b506001600160e01b0319161482806124e1565b612560915060203d602011610abd57610aaf8183612bda565b83612534565b60405162461bcd60e51b815260206004820152600e60248201526d1053149150511657d3525395115160921b6044820152606490fd5b9050830151886123af565b8260005260206000209060005b601f19841681106125fe57508261243d94926001926020989795601f198116106125e5575b5050811b0190556123c3565b85015160001960f88460031b161c1916905588806125d9565b909160206001819285890151815501930191016125b4565b61264390836000526020600020601f840160051c81019160208510612649575b601f0160051c0190612f1f565b8561238e565b9091508190612636565b905084015186612344565b91508260005260206000206000925b601f19831684106126ad576001935082601f19811610612694575b5050811b019055612358565b86015160001960f88460031b161c191690558680612688565b8681015182556020938401936001909201910161266d565b6126f190836000526020600020601f840160051c8101916020851061264957601f0160051c0190612f1f565b8561232d565b60405162461bcd60e51b815260206004820152601160248201527013919508185b1c9958591e48195e1a5cdd607a1b6044820152606490fd5b34610355576020366003190112610355577f906a1c6bd7e3091ea86693dd029a831c19049ce77f1dce2ce0bab1cacbabce22602061276c612ce9565b61277461363f565b600780546001600160a01b0319166001600160a01b03929092169182179055604051908152a1005b34610355576040366003190112610355576001600160401b03602435818111610355576127cd903690600401612d30565b906127d7336135cb565b501561033657603954801590811561294f575b50156128fe5781519081116107d457612804603b54612b84565b601f81116128af575b50602080601f831160011461284b57508192600092612840575b5050600019600383901b1c191660019190911b17603b55005b015190508280612827565b90601f19831693603b60005282600020926000905b868210612897575050836001951061287e575b505050811b01603b55005b015160001960f88460031b161c19169055828080612873565b80600185968294968601518155019501930190612860565b603b6000526128f8907fbbe3212124853f8b0084a66a2d057c2966e251e132af3691db153ab65f0d1a4d601f840160051c8101916020851061264957601f0160051c0190612f1f565b8261280d565b60405162461bcd60e51b815260206004820152602360248201527f63616e2774207365742055524920666f72206e6f6e6578697374656e7420746f60448201526235b2b760e91b6064820152608490fd5b90506004351115836127ea565b3461035557604036600319011261035557612975612ce9565b6024359081600052600260205260018060a01b038060406000205416908133148015612a1e575b156129e85783600052600460205260406000209216918260018060a01b03198254161790557f8c5be1e5ebec7d5bd14f71427d1e84f3dd0314c0f7b2291e5b200ac8c7c3b925600080a4005b60405162461bcd60e51b815260206004820152600e60248201526d1393d517d055551213d49256915160921b6044820152606490fd5b5081600052600560205260406000203360005260205260ff6040600020541661299c565b34610355576020366003190112610355576004356000526004602052602060018060a01b0360406000205416604051908152f35b3461035557600036600319011261035557604051600090600054612a9981612b84565b808352600191808316908115610fb65750600114612ac15761066d83610f6481870382612bda565b600080805260209450917f290decd9548b62a8d60345a988386fc84ba6bc95484008f6362f93160ef3e5635b828410612b0657505050810190910190610f6481610f54565b8054858501870152928501928101612aed565b34610355576020366003190112610355576004359063ffffffff60e01b8216809203610355576020916301ffc9a760e01b8114908115612b73575b8115612b62575b5015158152f35b635b5e139f60e01b14905083612b5b565b6380ac58cd60e01b81149150612b54565b90600182811c92168015612bb4575b6020831014612b9e57565b634e487b7160e01b600052602260045260246000fd5b91607f1691612b93565b61010081019081106001600160401b038211176107d457604052565b90601f801991011681019081106001600160401b038211176107d457604052565b9060405191826000825492612c0f84612b84565b908184526001948581169081600014612c7e5750600114612c3b575b5050612c3992500383612bda565b565b9093915060005260209081600020936000915b818310612c66575050612c3993508201013880612c2b565b85548884018501529485019487945091830191612c4e565b915050612c3994506020925060ff191682840152151560051b8201013880612c2b565b60005b838110612cb45750506000910152565b8181015183820152602001612ca4565b90602091612cdd81518092818552858086019101612ca1565b601f01601f1916010190565b600435906001600160a01b038216820361035557565b602435906001600160a01b038216820361035557565b6001600160401b0381116107d457601f01601f191660200190565b81601f8201121561035557803590612d4782612d15565b92612d556040519485612bda565b8284526020838301011161035557816000926020809301838601378301015290565b6060906003190112610355576001600160a01b0390600435828116810361035557916024359081168103610355579060443590565b612dbf8151610100808552840190612cc4565b9060e0612dd86020938484015186820386880152612cc4565b9160408101516040860152606081015160608601526080810151608086015260a081015160a086015260c081015160c086015201519260e081830391015281808451928381520193019160005b828110612e33575050505090565b83516001600160a01b031685529381019392810192600101612e25565b60243590811515820361035557565b906040600319830112610355576001600160401b036004358181116103555783612e8b91600401612d30565b9260243591821161035557612ea291600401612d30565b90565b6001600160401b0381116107d45760051b60200190565b603854811015612ed757603860005260206000200190600090565b634e487b7160e01b600052603260045260246000fd5b8054821015612ed75760005260206000200190600090565b6001600160a01b0391821681529116602082015260400190565b818110612f2a575050565b60008155600101612f1f565b15612f3d57565b60405162461bcd60e51b81526020600482015260126024820152712737ba1037bbb732b91037b3103a37b5b2b760711b6044820152606490fd5b60001981146105785760010190565b8051821015612ed75760209160051b010190565b919082549060031b9160018060a01b03809116831b921b1916179055565b6020612fd1918160405193828580945193849201612ca1565b8101603d81520301902090565b602090612ff8928260405194838680955193849201612ca1565b82019081520301902090565b80549190600160401b8310156107d45782610b50916001612c3995018155612eed565b1561302e57565b60405162461bcd60e51b81526020600482015260116024820152701253959053125117d49150d25412515395607a1b6044820152606490fd5b6020908181840312610355578051906001600160401b03821161035557019180601f8401121561035557825161309c81612ea5565b936130aa6040519586612bda565b818552838086019260051b820101928311610355578301905b8282106130d1575050505090565b815181529083019083016130c3565b81601f820112156103555780516130f681612d15565b926131046040519485612bda565b8184526020828401011161035557612ea29160208085019101612ca1565b5190811515820361035557565b919091610120908181850312610355576040938451928301906001600160401b0391848110838211176107d45786528395835183811161035557826131759186016130e0565b85526020918285015184811161035557816131919187016130e0565b838701528185015184811161035557816131ac9187016130e0565b8287015260608086015185811161035557826131c99188016130e0565b8188015260808087015186811161035557870183601f820112156103555780516131f281612ea5565b936131ff87519586612bda565b818552878086019260051b8401019286841161035557888101925b84841061333a57505050505087015260a085015160a087015261323f60c08601613122565b60c087015260e08501518481116103555785019181601f840112156103555782519061326a82612ea5565b9561327782519788612bda565b828752858088019360051b8601019484861161035557868101935b8685106132b257505050505050505060e083015261010080910151910152565b84518381116103555782019084601f19838903011261035557845190858201828110868211176133255786528983015185811161035557888b6132f7928601016130e0565b8252858301519185831161035557613316898c809695819601016130e0565b83820152815201940193613292565b60246000634e487b7160e01b81526041600452fd5b83518b811161035557820160c09182601f19838c030112610355578a51838101928e841182851017613325578e938d528d810151938411610355576133858f948f8e918401016130e0565b82528c810151938411610355578d946133a38d8780978501016130e0565b858401528d6133b3898401613122565b908401528a8201518884015260a091828101518c85015201519082015281520193019261321a565b906020828203126103555781516001600160401b03811161035557612ea2920161312f565b61340a8154612b84565b9081613414575050565b81601f60009311600114613426575055565b908083918252613445601f60208420940160051c840160018501612f1f565b5555565b906000929180549161345a83612b84565b9182825260019384811690816000146134bc575060011461347c575b50505050565b90919394506000526020928360002092846000945b8386106134a8575050505001019038808080613476565b805485870183015294019385908201613491565b9294505050602093945060ff191683830152151560051b01019038808080613476565b604051906134ec82612bbe565b606060e0838281528260208201526000604082015260008382015260006080820152600060a0820152600060c08201520152565b9061021a602061353d938160405193828580945193849201612ca1565b54806135495750600090565b6000908152600260205260409020546001600160a01b031690565b908151815181036135c35761358f9261359c6040519182846020978896879485850198899101612ca1565b8101038084520182612bda565b519020916135bc60405191828161358f8183019687815193849201612ca1565b5190201490565b505050600090565b603854919060005b8381106135e65750509050600090600090565b6135ef81612ebc565b905460039190911b1c6001600160a01b0390811690831614613613576001016135d3565b92505060019190565b6001600160a01b0391821681529181166020830152909116604082015260600190565b6006546001600160a01b0316338190036136565750565b60405163035785f360e31b81529081906103519033306004850161361c565b1561367c57565b60405162461bcd60e51b815260206004820152600a6024820152691393d517d3525395115160b21b6044820152606490fd5b9081602091031261035557516001600160e01b0319811681036103555790565b156136d557565b60405162461bcd60e51b815260206004820152601060248201526f155394d0519157d49150d2541251539560821b6044820152606490fdfeddf252ad1be2c89b69c2b068fc378daa952ba7f163c4a11628f55a4df523b3efa2646970667358221220ac59f77cfaa3c9dbcbbcca0c46aace73b141674d54e5cdf5a510d4ba0514299764736f6c63430008140033",
  "linkReferences": {},
  "deployedLinkReferences": {}
}