{
  "_format": "hh-sol-artifact-1",
  "contractName": "RepositoryToken",
  "sourceName": "contracts/RepositoryToken.sol",
  "abi": [
    {
      "inputs": [
        {
          "internalType": "string",
          "name": "name_",
          "type": "string"
        },
        {
          "internalType": "string",
          "name": "symbol_",
          "type": "string"
        },
        {
          "internalType": "address",
          "name": "gateKeeper_",
          "type": "address"
        }
      ],
      "stateMutability": "nonpayable",
      "type": "constructor"
    },
    {
      "inputs": [
        {
          "internalType": "address",
          "name": "spender",
          "type": "address"
        },
        {
          "internalType": "uint256",
          "name": "allowance",
          "type": "uint256"
        },
        {
          "internalType": "uint256",
          "name": "needed",
          "type": "uint256"
        }
      ],
      "name": "ERC20InsufficientAllowance",
      "type": "error"
    },
    {
      "inputs": [
        {
          "internalType": "address",
          "name": "sender",
          "type": "address"
        },
        {
          "internalType": "uint256",
          "name": "balance",
          "type": "uint256"
        },
        {
          "internalType": "uint256",
          "name": "needed",
          "type": "uint256"
        }
      ],
      "name": "ERC20InsufficientBalance",
      "type": "error"
    },
    {
      "inputs": [
        {
          "internalType": "address",
          "name": "approver",
          "type": "address"
        }
      ],
      "name": "ERC20InvalidApprover",
      "type": "error"
    },
    {
      "inputs": [
        {
          "internalType": "address",
          "name": "receiver",
          "type": "address"
        }
      ],
      "name": "ERC20InvalidReceiver",
      "type": "error"
    },
    {
      "inputs": [
        {
          "internalType": "address",
          "name": "sender",
          "type": "address"
        }
      ],
      "name": "ERC20InvalidSender",
      "type": "error"
    },
    {
      "inputs": [
        {
          "internalType": "address",
          "name": "spender",
          "type": "address"
        }
      ],
      "name": "ERC20InvalidSpender",
      "type": "error"
    },
    {
      "inputs": [
        {
          "internalType": "address",
          "name": "thrower",
          "type": "address"
        },
        {
          "internalType": "address",
          "name": "caller",
          "type": "address"
        },
        {
          "internalType": "address",
          "name": "nominatedOwner",
          "type": "address"
        }
      ],
      "name": "OnlyNominatedOwner",
      "type": "error"
    },
    {
      "inputs": [
        {
          "internalType": "address",
          "name": "thrower",
          "type": "address"
        },
        {
          "internalType": "address",
          "name": "caller",
          "type": "address"
        },
        {
          "internalType": "address",
          "name": "owner",
          "type": "address"
        }
      ],
      "name": "OnlyOwner",
      "type": "error"
    },
    {
      "inputs": [
        {
          "internalType": "address",
          "name": "thrower",
          "type": "address"
        },
        {
          "internalType": "address",
          "name": "caller",
          "type": "address"
        },
        {
          "internalType": "address",
          "name": "repository",
          "type": "address"
        }
      ],
      "name": "OnlyRepository",
      "type": "error"
    },
    {
      "inputs": [
        {
          "internalType": "address",
          "name": "thrower",
          "type": "address"
        },
        {
          "internalType": "address",
          "name": "caller",
          "type": "address"
        }
      ],
      "name": "OnlyRepositoryOwner",
      "type": "error"
    },
    {
      "anonymous": false,
      "inputs": [
        {
          "indexed": true,
          "internalType": "address",
          "name": "owner",
          "type": "address"
        },
        {
          "indexed": true,
          "internalType": "address",
          "name": "spender",
          "type": "address"
        },
        {
          "indexed": false,
          "internalType": "uint256",
          "name": "value",
          "type": "uint256"
        }
      ],
      "name": "Approval",
      "type": "event"
    },
    {
      "anonymous": false,
      "inputs": [
        {
          "indexed": false,
          "internalType": "address",
          "name": "oldOwner",
          "type": "address"
        },
        {
          "indexed": false,
          "internalType": "address",
          "name": "newOwner",
          "type": "address"
        }
      ],
      "name": "OwnerChanged",
      "type": "event"
    },
    {
      "anonymous": false,
      "inputs": [
        {
          "indexed": false,
          "internalType": "address",
          "name": "newOwner",
          "type": "address"
        }
      ],
      "name": "OwnerNominated",
      "type": "event"
    },
    {
      "anonymous": false,
      "inputs": [
        {
          "indexed": true,
          "internalType": "address",
          "name": "from",
          "type": "address"
        },
        {
          "indexed": true,
          "internalType": "address",
          "name": "to",
          "type": "address"
        },
        {
          "indexed": false,
          "internalType": "uint256",
          "name": "value",
          "type": "uint256"
        }
      ],
      "name": "Transfer",
      "type": "event"
    },
    {
      "inputs": [],
      "name": "acceptOwnership",
      "outputs": [],
      "stateMutability": "nonpayable",
      "type": "function"
    },
    {
      "inputs": [
        {
          "internalType": "address",
          "name": "owner",
          "type": "address"
        },
        {
          "internalType": "address",
          "name": "spender",
          "type": "address"
        }
      ],
      "name": "allowance",
      "outputs": [
        {
          "internalType": "uint256",
          "name": "",
          "type": "uint256"
        }
      ],
      "stateMutability": "view",
      "type": "function"
    },
    {
      "inputs": [
        {
          "internalType": "address",
          "name": "spender",
          "type": "address"
        },
        {
          "internalType": "uint256",
          "name": "value",
          "type": "uint256"
        }
      ],
      "name": "approve",
      "outputs": [
        {
          "internalType": "bool",
          "name": "",
          "type": "bool"
        }
      ],
      "stateMutability": "nonpayable",
      "type": "function"
    },
    {
      "inputs": [
        {
          "internalType": "address",
          "name": "account",
          "type": "address"
        }
      ],
      "name": "balanceOf",
      "outputs": [
        {
          "internalType": "uint256",
          "name": "",
          "type": "uint256"
        }
      ],
      "stateMutability": "view",
      "type": "function"
    },
    {
      "inputs": [
        {
          "internalType": "address",
          "name": "account",
          "type": "address"
        },
        {
          "internalType": "uint256",
          "name": "tokenAmount",
          "type": "uint256"
        }
      ],
      "name": "burn",
      "outputs": [],
      "stateMutability": "nonpayable",
      "type": "function"
    },
    {
      "inputs": [],
      "name": "decimals",
      "outputs": [
        {
          "internalType": "uint8",
          "name": "",
          "type": "uint8"
        }
      ],
      "stateMutability": "view",
      "type": "function"
    },
    {
      "inputs": [],
      "name": "gateKeeper",
      "outputs": [
        {
          "internalType": "address",
          "name": "",
          "type": "address"
        }
      ],
      "stateMutability": "view",
      "type": "function"
    },
    {
      "inputs": [
        {
          "internalType": "address",
          "name": "account",
          "type": "address"
        },
        {
          "internalType": "uint256",
          "name": "tokenAmount",
          "type": "uint256"
        }
      ],
      "name": "mint",
      "outputs": [],
      "stateMutability": "nonpayable",
      "type": "function"
    },
    {
      "inputs": [],
      "name": "name",
      "outputs": [
        {
          "internalType": "string",
          "name": "",
          "type": "string"
        }
      ],
      "stateMutability": "view",
      "type": "function"
    },
    {
      "inputs": [
        {
          "internalType": "address",
          "name": "_owner",
          "type": "address"
        }
      ],
      "name": "nominateNewOwner",
      "outputs": [],
      "stateMutability": "nonpayable",
      "type": "function"
    },
    {
      "inputs": [],
      "name": "nominatedOwner",
      "outputs": [
        {
          "internalType": "address",
          "name": "",
          "type": "address"
        }
      ],
      "stateMutability": "view",
      "type": "function"
    },
    {
      "inputs": [],
      "name": "owner",
      "outputs": [
        {
          "internalType": "address",
          "name": "",
          "type": "address"
        }
      ],
      "stateMutability": "view",
      "type": "function"
    },
    {
      "inputs": [],
      "name": "renounceOwnerTransferability",
      "outputs": [],
      "stateMutability": "nonpayable",
      "type": "function"
    },
    {
      "inputs": [],
      "name": "repository",
      "outputs": [
        {
          "internalType": "address",
          "name": "",
          "type": "address"
        }
      ],
      "stateMutability": "view",
      "type": "function"
    },
    {
      "inputs": [],
      "name": "symbol",
      "outputs": [
        {
          "internalType": "string",
          "name": "",
          "type": "string"
        }
      ],
      "stateMutability": "view",
      "type": "function"
    },
    {
      "inputs": [],
      "name": "totalSupply",
      "outputs": [
        {
          "internalType": "uint256",
          "name": "",
          "type": "uint256"
        }
      ],
      "stateMutability": "view",
      "type": "function"
    },
    {
      "inputs": [
        {
          "internalType": "address",
          "name": "to",
          "type": "address"
        },
        {
          "internalType": "uint256",
          "name": "value",
          "type": "uint256"
        }
      ],
      "name": "transfer",
      "outputs": [
        {
          "internalType": "bool",
          "name": "",
          "type": "bool"
        }
      ],
      "stateMutability": "nonpayable",
      "type": "function"
    },
    {
      "inputs": [
        {
          "internalType": "address",
          "name": "from",
          "type": "address"
        },
        {
          "internalType": "address",
          "name": "to",
          "type": "address"
        },
        {
          "internalType": "uint256",
          "name": "value",
          "type": "uint256"
        }
      ],
      "name": "transferFrom",
      "outputs": [
        {
          "internalType": "bool",
          "name": "",
          "type": "bool"
        }
      ],
      "stateMutability": "nonpayable",
      "type": "function"
    },
    {
      "inputs": [
        {
          "internalType": "string",
          "name": "_newName",
          "type": "string"
        }
      ],
      "name": "updateTokenName",
      "outputs": [],
      "stateMutability": "nonpayable",
      "type": "function"
    },
    {
      "inputs": [
        {
          "internalType": "address",
          "name": "from",
          "type": "address"
        },
        {
          "internalType": "uint256",
          "name": "tokenAmount",
          "type": "uint256"
        }
      ],
      "name": "withdrawHold",
      "outputs": [],
      "stateMutability": "nonpayable",
      "type": "function"
    }
  ],
  "bytecode": "0x60a060405234620005145762001627803803806200001d8162000519565b928339810190606081830312620005145780516001600160401b039290838111620005145781620000509184016200053f565b92602091828401518281116200051457604091620000709186016200053f565b9301516001600160a01b0381169490859003620005145780519282841162000421576003918254916001958684811c9416801562000509575b82851014620004f357601f93848111620004a8575b508082858211600114620004435760009162000437575b5060001982871b1c191690871b1784555b8651858111620004215760049788548881811c9116801562000416575b848210146200040157908186849311620003ab575b508390868311600114620003445760009262000338575b505060001982871b1c191690871b1787555b60018060a01b031996338860055416176005557fb532073b38c83145e3e5135377a08bf9aab55bc0fd7c1179cd4fb995d2a5159c60408051600081523385820152a16038805460ff60a01b1916600160a01b1790553360805282519586116200032357603754908782811c9216801562000318575b83831014620003035750838111620002b7575b50809285116001146200024757509383949184926000956200023b575b50501b92600019911b1c1916176037555b60385416176038556040516110759081620005b2823960805181818161011401528181610239015281816103c501528181610662015281816107420152610cc80152f35b015193503880620001e6565b92919084601f198116603760005285600020956000905b898383106200029c575050501062000281575b50505050811b01603755620001f7565b01519060f884600019921b161c191690553880808062000271565b8587015189559097019694850194889350908101906200025e565b6037600052816000208480880160051c820192848910620002f9575b0160051c019087905b828110620002ec575050620001c9565b60008155018790620002dc565b92508192620002d3565b602290634e487b7160e01b6000525260246000fd5b91607f1691620001b6565b604190634e487b7160e01b6000525260246000fd5b0151905038806200012f565b90899350601f198316918b600052856000209260005b878282106200039457505084116200037b575b505050811b01875562000141565b015160001983891b60f8161c191690553880806200036d565b8385015186558d979095019493840193016200035a565b90915089600052836000208680850160051c820192868610620003f7575b918b91869594930160051c01915b828110620003e757505062000118565b600081558594508b9101620003d7565b92508192620003c9565b60228a634e487b7160e01b6000525260246000fd5b90607f169062000103565b634e487b7160e01b600052604160045260246000fd5b905083015138620000d5565b889250601f1982169087600052846000209160005b8682821062000491575050831162000478575b5050811b018455620000e6565b85015160001983891b60f8161c1916905538806200046b565b8389015185558c9690940193928301920162000458565b85600052826000208580840160051c820192858510620004e9575b0160051c019088905b828110620004dc575050620000be565b60008155018890620004cc565b92508192620004c3565b634e487b7160e01b600052602260045260246000fd5b93607f1693620000a9565b600080fd5b6040519190601f01601f191682016001600160401b038111838210176200042157604052565b919080601f84011215620005145782516001600160401b038111620004215760209062000575601f8201601f1916830162000519565b92818452828287010111620005145760005b8181106200059d57508260009394955001015290565b85810183015184820184015282016200058756fe608060408181526004918236101561001657600080fd5b600092833560e01c91826306fdde031461097c57508163095ea7b3146108d25781631627540c1461086357816318160ddd1461084457816323b872dd14610812578163313ce567146107f657816340c10f191461071757816345d61ded146106ee57816353a47bb7146106c557816357b322271461064557816370a082311461060e57816379ba5097146105765781638da5cb5b1461054d57816395d89b411461048c5781639dc29fac1461039b578163a38d9e3a146101ec57508063a5a877fb146101c0578063a9059cbb1461018f578063dd62ed3e146101475763e9176c601461010157600080fd5b34610143578160031936011261014357517f00000000000000000000000000000000000000000000000000000000000000006001600160a01b03168152602090f35b5080fd5b503461014357806003193601126101435780602092610164610a92565b61016c610aad565b6001600160a01b0391821683526001865283832091168252845220549051908152f35b50346101435780600319360112610143576020906101b76101ae610a92565b60243590610ed8565b90519015158152f35b82346101e957806003193601126101e9576101d9610fe9565b6038805460ff60a01b1916905580f35b80fd5b83833461014357602092836003193601126103975780356001600160401b039283821161039357366023830112156103935781830135938411610393576024923684868501011161038f577f0000000000000000000000000000000000000000000000000000000000000000916001600160a01b038316330361036d57505050610277603754610ac3565b601f8111610329575b508394601f84116001146102c057509383948394936102b3575b5050508160011b916000199060031b1c19161760375580f35b010135905083808061029a565b91601f19841695603786528386209386905b88821061030f5750508460019697106102f3575b50505050811b0160375580f35b60001960f88660031b161c1992010135169055838080806102e6565b8060018497868395968901013581550196019201906102d2565b60378552858520601f850160051c810191878610610363575b601f0160051c01905b8181106103585750610280565b85815560010161034b565b9091508190610342565b5163026ab1d560e51b815291829161038b9190339030908501610fc6565b0390fd5b8580fd5b8480fd5b8280fd5b839150346101435782600319360112610143576103b6610a92565b90602435906001600160a01b037f0000000000000000000000000000000000000000000000000000000000000000818116330361046f575083169283156104585783855284602052858520549183831061043d575050818495600080516020611020833981519152936020938688528785520381872055816002540360025551908152a380f35b61038b8484895194859463391434e360e21b86528501610eba565b8551634b637e8f60e11b8152808301869052602490fd5b865163026ab1d560e51b815290819061038b903330848801610fc6565b838334610143578160031936011261014357805191809380546104ae81610ac3565b8086529160019180831690811561052257506001146104e7575b6104e386866104d9828b0383610afd565b5191829182610a49565b0390f35b835260208084209096505b82841061050f57505050826104e3946104d99282010194866104c8565b80548685018801529286019281016104f2565b90506104e397506104d99450602092508693915060ff191682840152151560051b82010194866104c8565b50503461014357816003193601126101435760055490516001600160a01b039091168152602090f35b9050346103975782600319360112610397576006546001600160a01b039290918383169190338390036105ef57507fb532073b38c83145e3e5135377a08bf9aab55bc0fd7c1179cd4fb995d2a5159c906005549481519086168152836020820152a16001600160a01b0319928316176005551660065580f35b90516312d9f3db60e31b815291829161038b9190339030908501610fc6565b5050346101435760203660031901126101435760209181906001600160a01b03610636610a92565b16815280845220549051908152f35b83915034610143578260031936011261014357610660610a92565b7f0000000000000000000000000000000000000000000000000000000000000000939091906001600160a01b03851633036106a657836106a36024358786610e03565b80f35b5163026ab1d560e51b815290819061038b908690339030908501610fc6565b50503461014357816003193601126101435760065490516001600160a01b039091168152602090f35b50503461014357816003193601126101435760385490516001600160a01b039091168152602090f35b91905034610397578060031936011261039757610732610a92565b60243591906001600160a01b03907f000000000000000000000000000000000000000000000000000000000000000082811633036107d95750169283156107c457600254908382018092116107b1575084926000805160206110208339815191529260209260025585855284835280852082815401905551908152a380f35b634e487b7160e01b865260119052602485fd5b84602492519163ec442f0560e01b8352820152fd5b835163026ab1d560e51b815290819061038b903330848b01610fc6565b5050346101435781600319360112610143576020905160128152f35b505034610143576060366003190112610143576020906101b7610833610a92565b61083b610aad565b60443591610b86565b5050346101435781600319360112610143576020906002549051908152f35b5050346101435760203660031901126101435760207f906a1c6bd7e3091ea86693dd029a831c19049ce77f1dce2ce0bab1cacbabce22916108a2610a92565b6108aa610fe9565b600680546001600160a01b0319166001600160a01b039290921691821790559051908152a180f35b9050346103975781600319360112610397576108ec610a92565b602435903315610965576001600160a01b031691821561094e57508083602095338152600187528181208582528752205582519081527f8c5be1e5ebec7d5bd14f71427d1e84f3dd0314c0f7b2291e5b200ac8c7c3b925843392a35160018152f35b8351634a1406b160e11b8152908101859052602490fd5b835163e602df0560e01b8152808401869052602490fd5b849084346103975782600319360112610397578260375461099c81610ac3565b80855290600190818116908115610a2157506001146109c8575b5050506104d9826104e3940383610afd565b60378352602095507f42a7b7dd785cd69714a189dffb3fd7d7174edc9ece837694ce50f7078f7c31ae5b828410610a0e57505050826104e3946104d992820101946109b6565b80548685018801529286019281016109f2565b6104e397506104d99450602092508693915060ff191682840152151560051b820101946109b6565b6020808252825181830181905290939260005b828110610a7e57505060409293506000838284010152601f8019910116010190565b818101860151848201604001528501610a5c565b600435906001600160a01b0382168203610aa857565b600080fd5b602435906001600160a01b0382168203610aa857565b90600182811c92168015610af3575b6020831014610add57565b634e487b7160e01b600052602260045260246000fd5b91607f1691610ad2565b90601f801991011681019081106001600160401b03821117610b1e57604052565b634e487b7160e01b600052604160045260246000fd5b90816020910312610aa857518015158103610aa85790565b15610b5357565b60405162461bcd60e51b815260206004820152600b60248201526a109b1858dadb1a5cdd195960aa1b6044820152606490fd5b919060ff60385460a01c1680610ca9575b610c9b576038546001600160a01b039390841680610bbd5750610bba9350610d3d565b90565b6040516342c02d4160e11b80825233600483015290956020918288602481875afa978815610c7057600098610c7c575b5087610c09575b50505050610c04610bba94610b4c565b610d3d565b8293975060249060405198899384928352881660048301525afa8015610c7057610bba95610c0492600092610c43575b5050943880610bf4565b610c629250803d10610c69575b610c5a8183610afd565b810190610b34565b3880610c39565b503d610c50565b6040513d6000823e3d90fd5b610c94919850833d8511610c6957610c5a8183610afd565b9638610bed565b610ca492610e03565b600190565b50604051630c4f65bd60e01b81526001600160a01b03906020816004817f000000000000000000000000000000000000000000000000000000000000000086165afa908115610c7057600091610d03575b50163314610b97565b6020813d8211610d35575b81610d1b60209383610afd565b8101031261014357519082821682036101e9575038610cfa565b3d9150610d0e565b6001600160a01b03811660008181526001602081815260408084203385529091528083205490979695949390918201610d7f575b505050610ca4939450610e03565b858210610de7578015610dcf573315610db757610ca49697918691845260016020528284203385526020520391205584933880610d71565b8751634a1406b160e11b815260048101849052602490fd5b875163e602df0560e01b815260048101849052602490fd5b8751637dc7a0d960e11b81528061038b88853360048501610eba565b916001600160a01b03808416928315610ea15716928315610e885760009083825281602052604082205490838210610e6b57509160408282600080516020611020833981519152958760209652828652038282205586815220818154019055604051908152a3565b61038b8460405193849363391434e360e21b855260048501610eba565b60405163ec442f0560e01b815260006004820152602490fd5b604051634b637e8f60e11b815260006004820152602490fd5b604091949392606082019560018060a01b0316825260208201520152565b6038546000939291906001600160a01b0390811680610eff575050610ca492935033610e03565b6040516342c02d4160e11b808252336004830152909493926020918287602481875afa968715610c7057600097610fa7575b5086610f50575b50505050610f48610f4e93610b4c565b33610e03565b565b8293965060249060405197889384928352871660048301525afa8015610c7057610f4e94610f4892600092610f8a575b5050933880610f38565b610fa09250803d10610c6957610c5a8183610afd565b3880610f80565b610fbf919750833d8511610c6957610c5a8183610afd565b9538610f31565b6001600160a01b0391821681529181166020830152909116604082015260600190565b6005546001600160a01b0316338190036110005750565b60405163035785f360e31b815290819061038b90333060048501610fc656feddf252ad1be2c89b69c2b068fc378daa952ba7f163c4a11628f55a4df523b3efa26469706673582212208d1654658ac6364579f785519e61194ac5850aec2f576d1ee11f7c9848f8ed5764736f6c63430008140033",
  "linkReferences": {},
  "deployedLinkReferences": {}
}