{
  "_format": "hh-sol-artifact-1",
  "contractName": "StrandsPosition",
  "sourceName": "contracts/nft/StrandsPosition.sol",
  "abi": [
    {
      "inputs": [
        {
          "internalType": "string",
          "name": "_name",
          "type": "string"
        },
        {
          "internalType": "string",
          "name": "_symbol",
          "type": "string"
        },
        {
          "internalType": "string",
          "name": "_tURI",
          "type": "string"
        }
      ],
      "stateMutability": "nonpayable",
      "type": "constructor"
    },
    {
      "inputs": [],
      "name": "ControllerAlreadySet",
      "type": "error"
    },
    {
      "inputs": [
        {
          "internalType": "address",
          "name": "thrower",
          "type": "address"
        },
        {
          "internalType": "address",
          "name": "caller",
          "type": "address"
        }
      ],
      "name": "OnlyController",
      "type": "error"
    },
    {
      "inputs": [
        {
          "internalType": "address",
          "name": "thrower",
          "type": "address"
        },
        {
          "internalType": "address",
          "name": "caller",
          "type": "address"
        },
        {
          "internalType": "address",
          "name": "nominatedOwner",
          "type": "address"
        }
      ],
      "name": "OnlyNominatedOwner",
      "type": "error"
    },
    {
      "inputs": [
        {
          "internalType": "address",
          "name": "thrower",
          "type": "address"
        },
        {
          "internalType": "address",
          "name": "caller",
          "type": "address"
        },
        {
          "internalType": "address",
          "name": "owner",
          "type": "address"
        }
      ],
      "name": "OnlyOwner",
      "type": "error"
    },
    {
      "anonymous": false,
      "inputs": [
        {
          "indexed": true,
          "internalType": "address",
          "name": "owner",
          "type": "address"
        },
        {
          "indexed": true,
          "internalType": "address",
          "name": "spender",
          "type": "address"
        },
        {
          "indexed": true,
          "internalType": "uint256",
          "name": "id",
          "type": "uint256"
        }
      ],
      "name": "Approval",
      "type": "event"
    },
    {
      "anonymous": false,
      "inputs": [
        {
          "indexed": true,
          "internalType": "address",
          "name": "owner",
          "type": "address"
        },
        {
          "indexed": true,
          "internalType": "address",
          "name": "operator",
          "type": "address"
        },
        {
          "indexed": false,
          "internalType": "bool",
          "name": "approved",
          "type": "bool"
        }
      ],
      "name": "ApprovalForAll",
      "type": "event"
    },
    {
      "anonymous": false,
      "inputs": [
        {
          "indexed": false,
          "internalType": "address",
          "name": "controller",
          "type": "address"
        },
        {
          "indexed": false,
          "internalType": "bool",
          "name": "isController",
          "type": "bool"
        }
      ],
      "name": "ControllerSet",
      "type": "event"
    },
    {
      "anonymous": false,
      "inputs": [
        {
          "indexed": false,
          "internalType": "address",
          "name": "oldOwner",
          "type": "address"
        },
        {
          "indexed": false,
          "internalType": "address",
          "name": "newOwner",
          "type": "address"
        }
      ],
      "name": "OwnerChanged",
      "type": "event"
    },
    {
      "anonymous": false,
      "inputs": [
        {
          "indexed": false,
          "internalType": "address",
          "name": "newOwner",
          "type": "address"
        }
      ],
      "name": "OwnerNominated",
      "type": "event"
    },
    {
      "anonymous": false,
      "inputs": [
        {
          "indexed": true,
          "internalType": "uint256",
          "name": "tokenId",
          "type": "uint256"
        },
        {
          "indexed": true,
          "internalType": "address",
          "name": "owner",
          "type": "address"
        },
        {
          "indexed": false,
          "internalType": "string",
          "name": "symbol",
          "type": "string"
        },
        {
          "indexed": false,
          "internalType": "string",
          "name": "exchange",
          "type": "string"
        },
        {
          "indexed": false,
          "internalType": "string",
          "name": "clearingFirm",
          "type": "string"
        },
        {
          "indexed": false,
          "internalType": "string",
          "name": "accountNumber",
          "type": "string"
        },
        {
          "indexed": false,
          "internalType": "uint256",
          "name": "lastTradingDate",
          "type": "uint256"
        }
      ],
      "name": "PositionCreated",
      "type": "event"
    },
    {
      "anonymous": false,
      "inputs": [
        {
          "indexed": false,
          "internalType": "address",
          "name": "tokenOwner",
          "type": "address"
        },
        {
          "indexed": false,
          "internalType": "uint256",
          "name": "tokenId",
          "type": "uint256"
        },
        {
          "indexed": false,
          "internalType": "uint256",
          "name": "totalQuantity",
          "type": "uint256"
        },
        {
          "indexed": false,
          "internalType": "bool",
          "name": "isLong",
          "type": "bool"
        }
      ],
      "name": "PositionExpired",
      "type": "event"
    },
    {
      "anonymous": false,
      "inputs": [
        {
          "indexed": true,
          "internalType": "uint256",
          "name": "tokenId",
          "type": "uint256"
        },
        {
          "indexed": false,
          "internalType": "string",
          "name": "tradeId",
          "type": "string"
        },
        {
          "indexed": false,
          "internalType": "string",
          "name": "tag50",
          "type": "string"
        },
        {
          "indexed": false,
          "internalType": "uint256",
          "name": "quantity",
          "type": "uint256"
        },
        {
          "indexed": false,
          "internalType": "uint256",
          "name": "price",
          "type": "uint256"
        },
        {
          "indexed": false,
          "internalType": "uint256",
          "name": "executionTime",
          "type": "uint256"
        },
        {
          "indexed": false,
          "internalType": "bool",
          "name": "isLong",
          "type": "bool"
        }
      ],
      "name": "TradeAdded",
      "type": "event"
    },
    {
      "anonymous": false,
      "inputs": [
        {
          "indexed": true,
          "internalType": "uint256",
          "name": "tokenId",
          "type": "uint256"
        },
        {
          "indexed": false,
          "internalType": "string",
          "name": "tradeId",
          "type": "string"
        }
      ],
      "name": "TradeDeleted",
      "type": "event"
    },
    {
      "anonymous": false,
      "inputs": [
        {
          "indexed": true,
          "internalType": "address",
          "name": "from",
          "type": "address"
        },
        {
          "indexed": true,
          "internalType": "address",
          "name": "to",
          "type": "address"
        },
        {
          "indexed": true,
          "internalType": "uint256",
          "name": "id",
          "type": "uint256"
        }
      ],
      "name": "Transfer",
      "type": "event"
    },
    {
      "inputs": [],
      "name": "acceptOwnership",
      "outputs": [],
      "stateMutability": "nonpayable",
      "type": "function"
    },
    {
      "inputs": [
        {
          "internalType": "address",
          "name": "owner_",
          "type": "address"
        },
        {
          "internalType": "string",
          "name": "symbol_",
          "type": "string"
        },
        {
          "internalType": "string",
          "name": "exchange_",
          "type": "string"
        },
        {
          "internalType": "string",
          "name": "clearingFirm_",
          "type": "string"
        },
        {
          "internalType": "string",
          "name": "accountNumber_",
          "type": "string"
        },
        {
          "internalType": "uint256",
          "name": "lastTradingDate_",
          "type": "uint256"
        },
        {
          "components": [
            {
              "internalType": "string",
              "name": "tag50",
              "type": "string"
            },
            {
              "internalType": "string",
              "name": "tradeId",
              "type": "string"
            },
            {
              "internalType": "bool",
              "name": "isLong",
              "type": "bool"
            },
            {
              "internalType": "uint256",
              "name": "quantity",
              "type": "uint256"
            },
            {
              "internalType": "uint256",
              "name": "purchasePrice",
              "type": "uint256"
            },
            {
              "internalType": "uint256",
              "name": "executionTime",
              "type": "uint256"
            }
          ],
          "internalType": "struct IStrandsPosition.TradeDetails",
          "name": "tradeDetails_",
          "type": "tuple"
        },
        {
          "components": [
            {
              "internalType": "string",
              "name": "source",
              "type": "string"
            },
            {
              "internalType": "string",
              "name": "altSymbol",
              "type": "string"
            }
          ],
          "internalType": "struct IStrandsPosition.AltSymbolInfo[]",
          "name": "altSymbolInfo_",
          "type": "tuple[]"
        }
      ],
      "name": "addTrade",
      "outputs": [],
      "stateMutability": "nonpayable",
      "type": "function"
    },
    {
      "inputs": [
        {
          "internalType": "address",
          "name": "spender",
          "type": "address"
        },
        {
          "internalType": "uint256",
          "name": "id",
          "type": "uint256"
        }
      ],
      "name": "approve",
      "outputs": [],
      "stateMutability": "nonpayable",
      "type": "function"
    },
    {
      "inputs": [
        {
          "internalType": "address",
          "name": "owner",
          "type": "address"
        }
      ],
      "name": "balanceOf",
      "outputs": [
        {
          "internalType": "uint256",
          "name": "",
          "type": "uint256"
        }
      ],
      "stateMutability": "view",
      "type": "function"
    },
    {
      "inputs": [
        {
          "internalType": "uint256",
          "name": "",
          "type": "uint256"
        }
      ],
      "name": "controllers",
      "outputs": [
        {
          "internalType": "address",
          "name": "",
          "type": "address"
        }
      ],
      "stateMutability": "view",
      "type": "function"
    },
    {
      "inputs": [
        {
          "internalType": "address",
          "name": "owner_",
          "type": "address"
        },
        {
          "internalType": "string",
          "name": "tradeId_",
          "type": "string"
        },
        {
          "internalType": "string",
          "name": "symbol_",
          "type": "string"
        },
        {
          "internalType": "string",
          "name": "clearingFirm_",
          "type": "string"
        },
        {
          "internalType": "string",
          "name": "accountNumber_",
          "type": "string"
        }
      ],
      "name": "deleteTrade",
      "outputs": [],
      "stateMutability": "nonpayable",
      "type": "function"
    },
    {
      "inputs": [
        {
          "internalType": "uint256",
          "name": "tokenId_",
          "type": "uint256"
        }
      ],
      "name": "expirePosition",
      "outputs": [],
      "stateMutability": "nonpayable",
      "type": "function"
    },
    {
      "inputs": [],
      "name": "expirePositions",
      "outputs": [],
      "stateMutability": "nonpayable",
      "type": "function"
    },
    {
      "inputs": [
        {
          "internalType": "bool",
          "name": "includeExpiredPosition_",
          "type": "bool"
        }
      ],
      "name": "getAllPositions",
      "outputs": [
        {
          "components": [
            {
              "internalType": "string",
              "name": "symbol",
              "type": "string"
            },
            {
              "internalType": "string",
              "name": "exchange",
              "type": "string"
            },
            {
              "internalType": "string",
              "name": "clearingFirm",
              "type": "string"
            },
            {
              "internalType": "string",
              "name": "accountNumber",
              "type": "string"
            },
            {
              "components": [
                {
                  "internalType": "string",
                  "name": "tag50",
                  "type": "string"
                },
                {
                  "internalType": "string",
                  "name": "tradeId",
                  "type": "string"
                },
                {
                  "internalType": "bool",
                  "name": "isLong",
                  "type": "bool"
                },
                {
                  "internalType": "uint256",
                  "name": "quantity",
                  "type": "uint256"
                },
                {
                  "internalType": "uint256",
                  "name": "purchasePrice",
                  "type": "uint256"
                },
                {
                  "internalType": "uint256",
                  "name": "executionTime",
                  "type": "uint256"
                }
              ],
              "internalType": "struct IStrandsPosition.TradeDetails[]",
              "name": "trades",
              "type": "tuple[]"
            },
            {
              "internalType": "uint256",
              "name": "lastTradingDate",
              "type": "uint256"
            },
            {
              "internalType": "bool",
              "name": "expired",
              "type": "bool"
            },
            {
              "components": [
                {
                  "internalType": "string",
                  "name": "source",
                  "type": "string"
                },
                {
                  "internalType": "string",
                  "name": "altSymbol",
                  "type": "string"
                }
              ],
              "internalType": "struct IStrandsPosition.AltSymbolInfo[]",
              "name": "altSymbolInfos",
              "type": "tuple[]"
            },
            {
              "internalType": "uint256",
              "name": "tokenId",
              "type": "uint256"
            }
          ],
          "internalType": "struct IStrandsPosition.PositionDetails[]",
          "name": "",
          "type": "tuple[]"
        }
      ],
      "stateMutability": "view",
      "type": "function"
    },
    {
      "inputs": [
        {
          "internalType": "uint256",
          "name": "",
          "type": "uint256"
        }
      ],
      "name": "getApproved",
      "outputs": [
        {
          "internalType": "address",
          "name": "",
          "type": "address"
        }
      ],
      "stateMutability": "view",
      "type": "function"
    },
    {
      "inputs": [
        {
          "internalType": "address",
          "name": "target",
          "type": "address"
        }
      ],
      "name": "getOwnerPositions",
      "outputs": [
        {
          "components": [
            {
              "internalType": "string",
              "name": "symbol",
              "type": "string"
            },
            {
              "internalType": "string",
              "name": "exchange",
              "type": "string"
            },
            {
              "internalType": "string",
              "name": "clearingFirm",
              "type": "string"
            },
            {
              "internalType": "string",
              "name": "accountNumber",
              "type": "string"
            },
            {
              "components": [
                {
                  "internalType": "string",
                  "name": "tag50",
                  "type": "string"
                },
                {
                  "internalType": "string",
                  "name": "tradeId",
                  "type": "string"
                },
                {
                  "internalType": "bool",
                  "name": "isLong",
                  "type": "bool"
                },
                {
                  "internalType": "uint256",
                  "name": "quantity",
                  "type": "uint256"
                },
                {
                  "internalType": "uint256",
                  "name": "purchasePrice",
                  "type": "uint256"
                },
                {
                  "internalType": "uint256",
                  "name": "executionTime",
                  "type": "uint256"
                }
              ],
              "internalType": "struct IStrandsPosition.TradeDetails[]",
              "name": "trades",
              "type": "tuple[]"
            },
            {
              "internalType": "uint256",
              "name": "lastTradingDate",
              "type": "uint256"
            },
            {
              "internalType": "bool",
              "name": "expired",
              "type": "bool"
            },
            {
              "components": [
                {
                  "internalType": "string",
                  "name": "source",
                  "type": "string"
                },
                {
                  "internalType": "string",
                  "name": "altSymbol",
                  "type": "string"
                }
              ],
              "internalType": "struct IStrandsPosition.AltSymbolInfo[]",
              "name": "altSymbolInfos",
              "type": "tuple[]"
            },
            {
              "internalType": "uint256",
              "name": "tokenId",
              "type": "uint256"
            }
          ],
          "internalType": "struct IStrandsPosition.PositionDetails[]",
          "name": "",
          "type": "tuple[]"
        }
      ],
      "stateMutability": "view",
      "type": "function"
    },
    {
      "inputs": [
        {
          "internalType": "address",
          "name": "target",
          "type": "address"
        }
      ],
      "name": "getOwnerTokenIds",
      "outputs": [
        {
          "internalType": "uint256[]",
          "name": "",
          "type": "uint256[]"
        }
      ],
      "stateMutability": "view",
      "type": "function"
    },
    {
      "inputs": [
        {
          "internalType": "uint256",
          "name": "tokenId",
          "type": "uint256"
        }
      ],
      "name": "getPositionDetails",
      "outputs": [
        {
          "components": [
            {
              "internalType": "string",
              "name": "symbol",
              "type": "string"
            },
            {
              "internalType": "string",
              "name": "exchange",
              "type": "string"
            },
            {
              "internalType": "string",
              "name": "clearingFirm",
              "type": "string"
            },
            {
              "internalType": "string",
              "name": "accountNumber",
              "type": "string"
            },
            {
              "components": [
                {
                  "internalType": "string",
                  "name": "tag50",
                  "type": "string"
                },
                {
                  "internalType": "string",
                  "name": "tradeId",
                  "type": "string"
                },
                {
                  "internalType": "bool",
                  "name": "isLong",
                  "type": "bool"
                },
                {
                  "internalType": "uint256",
                  "name": "quantity",
                  "type": "uint256"
                },
                {
                  "internalType": "uint256",
                  "name": "purchasePrice",
                  "type": "uint256"
                },
                {
                  "internalType": "uint256",
                  "name": "executionTime",
                  "type": "uint256"
                }
              ],
              "internalType": "struct IStrandsPosition.TradeDetails[]",
              "name": "trades",
              "type": "tuple[]"
            },
            {
              "internalType": "uint256",
              "name": "lastTradingDate",
              "type": "uint256"
            },
            {
              "internalType": "bool",
              "name": "expired",
              "type": "bool"
            },
            {
              "components": [
                {
                  "internalType": "string",
                  "name": "source",
                  "type": "string"
                },
                {
                  "internalType": "string",
                  "name": "altSymbol",
                  "type": "string"
                }
              ],
              "internalType": "struct IStrandsPosition.AltSymbolInfo[]",
              "name": "altSymbolInfos",
              "type": "tuple[]"
            },
            {
              "internalType": "uint256",
              "name": "tokenId",
              "type": "uint256"
            }
          ],
          "internalType": "struct IStrandsPosition.PositionDetails",
          "name": "",
          "type": "tuple"
        }
      ],
      "stateMutability": "view",
      "type": "function"
    },
    {
      "inputs": [
        {
          "internalType": "string",
          "name": "clearingFirm_",
          "type": "string"
        },
        {
          "internalType": "string",
          "name": "accountNumber_",
          "type": "string"
        },
        {
          "internalType": "bool",
          "name": "includeExpiredPosition_",
          "type": "bool"
        }
      ],
      "name": "getPositionsByAccount",
      "outputs": [
        {
          "components": [
            {
              "internalType": "string",
              "name": "symbol",
              "type": "string"
            },
            {
              "internalType": "string",
              "name": "exchange",
              "type": "string"
            },
            {
              "internalType": "string",
              "name": "clearingFirm",
              "type": "string"
            },
            {
              "internalType": "string",
              "name": "accountNumber",
              "type": "string"
            },
            {
              "components": [
                {
                  "internalType": "string",
                  "name": "tag50",
                  "type": "string"
                },
                {
                  "internalType": "string",
                  "name": "tradeId",
                  "type": "string"
                },
                {
                  "internalType": "bool",
                  "name": "isLong",
                  "type": "bool"
                },
                {
                  "internalType": "uint256",
                  "name": "quantity",
                  "type": "uint256"
                },
                {
                  "internalType": "uint256",
                  "name": "purchasePrice",
                  "type": "uint256"
                },
                {
                  "internalType": "uint256",
                  "name": "executionTime",
                  "type": "uint256"
                }
              ],
              "internalType": "struct IStrandsPosition.TradeDetails[]",
              "name": "trades",
              "type": "tuple[]"
            },
            {
              "internalType": "uint256",
              "name": "lastTradingDate",
              "type": "uint256"
            },
            {
              "internalType": "bool",
              "name": "expired",
              "type": "bool"
            },
            {
              "components": [
                {
                  "internalType": "string",
                  "name": "source",
                  "type": "string"
                },
                {
                  "internalType": "string",
                  "name": "altSymbol",
                  "type": "string"
                }
              ],
              "internalType": "struct IStrandsPosition.AltSymbolInfo[]",
              "name": "altSymbolInfos",
              "type": "tuple[]"
            },
            {
              "internalType": "uint256",
              "name": "tokenId",
              "type": "uint256"
            }
          ],
          "internalType": "struct IStrandsPosition.PositionDetails[]",
          "name": "",
          "type": "tuple[]"
        }
      ],
      "stateMutability": "view",
      "type": "function"
    },
    {
      "inputs": [
        {
          "internalType": "string",
          "name": "clearingFirm_",
          "type": "string"
        },
        {
          "internalType": "string",
          "name": "accountNumber_",
          "type": "string"
        },
        {
          "internalType": "string",
          "name": "symbol_",
          "type": "string"
        }
      ],
      "name": "getTokenId",
      "outputs": [
        {
          "internalType": "uint256",
          "name": "",
          "type": "uint256"
        }
      ],
      "stateMutability": "view",
      "type": "function"
    },
    {
      "inputs": [
        {
          "internalType": "uint256",
          "name": "fromTime",
          "type": "uint256"
        },
        {
          "internalType": "uint256",
          "name": "toTime",
          "type": "uint256"
        }
      ],
      "name": "getTradesBetween",
      "outputs": [
        {
          "components": [
            {
              "internalType": "string",
              "name": "tag50",
              "type": "string"
            },
            {
              "internalType": "string",
              "name": "tradeId",
              "type": "string"
            },
            {
              "internalType": "bool",
              "name": "isLong",
              "type": "bool"
            },
            {
              "internalType": "uint256",
              "name": "quantity",
              "type": "uint256"
            },
            {
              "internalType": "uint256",
              "name": "purchasePrice",
              "type": "uint256"
            },
            {
              "internalType": "uint256",
              "name": "executionTime",
              "type": "uint256"
            }
          ],
          "internalType": "struct IStrandsPosition.TradeDetails[]",
          "name": "",
          "type": "tuple[]"
        }
      ],
      "stateMutability": "view",
      "type": "function"
    },
    {
      "inputs": [
        {
          "internalType": "address",
          "name": "",
          "type": "address"
        },
        {
          "internalType": "address",
          "name": "",
          "type": "address"
        }
      ],
      "name": "isApprovedForAll",
      "outputs": [
        {
          "internalType": "bool",
          "name": "",
          "type": "bool"
        }
      ],
      "stateMutability": "view",
      "type": "function"
    },
    {
      "inputs": [
        {
          "internalType": "address",
          "name": "_controller",
          "type": "address"
        }
      ],
      "name": "isController",
      "outputs": [
        {
          "internalType": "bool",
          "name": "",
          "type": "bool"
        }
      ],
      "stateMutability": "view",
      "type": "function"
    },
    {
      "inputs": [
        {
          "internalType": "address",
          "name": "to",
          "type": "address"
        },
        {
          "internalType": "string",
          "name": "symbol_",
          "type": "string"
        },
        {
          "internalType": "string",
          "name": "exchange_",
          "type": "string"
        },
        {
          "internalType": "string",
          "name": "clearingFirm_",
          "type": "string"
        },
        {
          "internalType": "string",
          "name": "accountNumber_",
          "type": "string"
        },
        {
          "internalType": "uint256",
          "name": "lastTradingDate_",
          "type": "uint256"
        },
        {
          "components": [
            {
              "internalType": "string",
              "name": "tag50",
              "type": "string"
            },
            {
              "internalType": "string",
              "name": "tradeId",
              "type": "string"
            },
            {
              "internalType": "bool",
              "name": "isLong",
              "type": "bool"
            },
            {
              "internalType": "uint256",
              "name": "quantity",
              "type": "uint256"
            },
            {
              "internalType": "uint256",
              "name": "purchasePrice",
              "type": "uint256"
            },
            {
              "internalType": "uint256",
              "name": "executionTime",
              "type": "uint256"
            }
          ],
          "internalType": "struct IStrandsPosition.TradeDetails",
          "name": "tradeDetails_",
          "type": "tuple"
        }
      ],
      "name": "mint",
      "outputs": [
        {
          "internalType": "uint256",
          "name": "",
          "type": "uint256"
        }
      ],
      "stateMutability": "nonpayable",
      "type": "function"
    },
    {
      "inputs": [],
      "name": "mintCounter",
      "outputs": [
        {
          "internalType": "uint256",
          "name": "",
          "type": "uint256"
        }
      ],
      "stateMutability": "view",
      "type": "function"
    },
    {
      "inputs": [],
      "name": "name",
      "outputs": [
        {
          "internalType": "string",
          "name": "",
          "type": "string"
        }
      ],
      "stateMutability": "view",
      "type": "function"
    },
    {
      "inputs": [
        {
          "internalType": "address",
          "name": "_owner",
          "type": "address"
        }
      ],
      "name": "nominateNewOwner",
      "outputs": [],
      "stateMutability": "nonpayable",
      "type": "function"
    },
    {
      "inputs": [],
      "name": "nominatedOwner",
      "outputs": [
        {
          "internalType": "address",
          "name": "",
          "type": "address"
        }
      ],
      "stateMutability": "view",
      "type": "function"
    },
    {
      "inputs": [],
      "name": "owner",
      "outputs": [
        {
          "internalType": "address",
          "name": "",
          "type": "address"
        }
      ],
      "stateMutability": "view",
      "type": "function"
    },
    {
      "inputs": [
        {
          "internalType": "uint256",
          "name": "id",
          "type": "uint256"
        }
      ],
      "name": "ownerOf",
      "outputs": [
        {
          "internalType": "address",
          "name": "owner",
          "type": "address"
        }
      ],
      "stateMutability": "view",
      "type": "function"
    },
    {
      "inputs": [
        {
          "internalType": "address",
          "name": "from",
          "type": "address"
        },
        {
          "internalType": "address",
          "name": "to",
          "type": "address"
        },
        {
          "internalType": "uint256",
          "name": "id",
          "type": "uint256"
        }
      ],
      "name": "safeTransferFrom",
      "outputs": [],
      "stateMutability": "nonpayable",
      "type": "function"
    },
    {
      "inputs": [
        {
          "internalType": "address",
          "name": "from",
          "type": "address"
        },
        {
          "internalType": "address",
          "name": "to",
          "type": "address"
        },
        {
          "internalType": "uint256",
          "name": "id",
          "type": "uint256"
        },
        {
          "internalType": "bytes",
          "name": "data",
          "type": "bytes"
        }
      ],
      "name": "safeTransferFrom",
      "outputs": [],
      "stateMutability": "nonpayable",
      "type": "function"
    },
    {
      "inputs": [
        {
          "internalType": "address",
          "name": "operator",
          "type": "address"
        },
        {
          "internalType": "bool",
          "name": "approved",
          "type": "bool"
        }
      ],
      "name": "setApprovalForAll",
      "outputs": [],
      "stateMutability": "nonpayable",
      "type": "function"
    },
    {
      "inputs": [
        {
          "internalType": "address",
          "name": "_controller",
          "type": "address"
        },
        {
          "internalType": "bool",
          "name": "isController_",
          "type": "bool"
        }
      ],
      "name": "setIsController",
      "outputs": [],
      "stateMutability": "nonpayable",
      "type": "function"
    },
    {
      "inputs": [
        {
          "internalType": "uint256",
          "name": "tokenId",
          "type": "uint256"
        },
        {
          "internalType": "string",
          "name": "_tURI",
          "type": "string"
        }
      ],
      "name": "setTokenURI",
      "outputs": [],
      "stateMutability": "nonpayable",
      "type": "function"
    },
    {
      "inputs": [
        {
          "internalType": "bytes4",
          "name": "interfaceId",
          "type": "bytes4"
        }
      ],
      "name": "supportsInterface",
      "outputs": [
        {
          "internalType": "bool",
          "name": "",
          "type": "bool"
        }
      ],
      "stateMutability": "view",
      "type": "function"
    },
    {
      "inputs": [],
      "name": "symbol",
      "outputs": [
        {
          "internalType": "string",
          "name": "",
          "type": "string"
        }
      ],
      "stateMutability": "view",
      "type": "function"
    },
    {
      "inputs": [
        {
          "internalType": "uint256",
          "name": "tokenId",
          "type": "uint256"
        }
      ],
      "name": "tokenURI",
      "outputs": [
        {
          "internalType": "string",
          "name": "",
          "type": "string"
        }
      ],
      "stateMutability": "view",
      "type": "function"
    },
    {
      "inputs": [
        {
          "internalType": "string",
          "name": "symbol_",
          "type": "string"
        },
        {
          "internalType": "string",
          "name": "clearingFirm_",
          "type": "string"
        },
        {
          "internalType": "string",
          "name": "accountNumber_",
          "type": "string"
        },
        {
          "internalType": "string",
          "name": "tradeId_",
          "type": "string"
        }
      ],
      "name": "tradeIdExists",
      "outputs": [
        {
          "internalType": "bool",
          "name": "",
          "type": "bool"
        },
        {
          "internalType": "bool",
          "name": "",
          "type": "bool"
        },
        {
          "internalType": "uint256",
          "name": "",
          "type": "uint256"
        },
        {
          "internalType": "address",
          "name": "",
          "type": "address"
        }
      ],
      "stateMutability": "view",
      "type": "function"
    },
    {
      "inputs": [
        {
          "internalType": "address",
          "name": "from",
          "type": "address"
        },
        {
          "internalType": "address",
          "name": "to",
          "type": "address"
        },
        {
          "internalType": "uint256",
          "name": "id",
          "type": "uint256"
        }
      ],
      "name": "transferFrom",
      "outputs": [],
      "stateMutability": "nonpayable",
      "type": "function"
    },
    {
      "inputs": [
        {
          "internalType": "uint256",
          "name": "tokenId",
          "type": "uint256"
        },
        {
          "internalType": "string",
          "name": "newSymbol",
          "type": "string"
        }
      ],
      "name": "updateSymbol",
      "outputs": [],
      "stateMutability": "nonpayable",
      "type": "function"
    }
  ],
  "bytecode": "0x6080604052346200050c57620052c1803803806200001d8162000511565b92833981016060828203126200050c5781516001600160401b0391908281116200050c57816200004f91850162000537565b602093848101518481116200050c57836200006c91830162000537565b9260408201518581116200050c5762000086920162000537565b815190848211620004f6576000938454926001948585811c95168015620004eb575b8986101462000409578190601f9586811162000498575b5089908683116001146200043457889262000428575b5050600019600383901b1c191690851b1785555b805190868211620003325784548581811c911680156200041d575b898210146200040957908185849311620003b6575b5088908583116001146200035257879262000346575b5050600019600383901b1c191690841b1783555b600680546001600160a01b03199081163317909155603854680100000000000000008110156200033257848101806038558110156200031e5760388652878620019033908254161790557fb532073b38c83145e3e5135377a08bf9aab55bc0fd7c1179cd4fb995d2a5159c604080518681523389820152a1600019938460395581519586116200030a57603b548481811c91168015620002ff575b88821014620002eb57838111620002a2575b5086928611600114620002365794955085929190836200022a575b50501b9260031b1c191617603b555b604051614d179081620005aa8239f35b0151935038806200020b565b603b815286812093969394938691601f198316915b898383106200028757505050106200026e575b50505050811b01603b556200021a565b01519060f88460031b161c19169055388080806200025e565b8587015189559097019694850194889350908101906200024b565b603b82528782208480890160051c8201928a8a10620002e1575b0160051c019085905b828110620002d5575050620001f0565b838155018590620002c5565b92508192620002bc565b634e487b7160e01b82526022600452602482fd5b90607f1690620001de565b634e487b7160e01b81526041600452602490fd5b634e487b7160e01b86526032600452602486fd5b634e487b7160e01b86526041600452602486fd5b0151905038806200012f565b8688528988208794509190601f198416895b8c8282106200039f575050841162000385575b505050811b01835562000143565b015160001960f88460031b161c1916905538808062000377565b8385015186558a9790950194938401930162000364565b9091508587528887208580850160051c8201928b8610620003ff575b918891869594930160051c01915b828110620003f057505062000119565b898155859450889101620003e0565b92508192620003d2565b634e487b7160e01b87526022600452602487fd5b90607f169062000104565b015190503880620000d5565b8880528a89208894509190601f1984168a5b8d82821062000481575050841162000467575b505050811b018555620000e9565b015160001960f88460031b161c1916905538808062000459565b8385015186558b9790950194938401930162000446565b9091508780528988208680850160051c8201928c8610620004e1575b918991869594930160051c01915b828110620004d2575050620000bf565b8a8155859450899101620004c2565b92508192620004b4565b94607f1694620000a8565b634e487b7160e01b600052604160045260246000fd5b600080fd5b6040519190601f01601f191682016001600160401b03811183821017620004f657604052565b919080601f840112156200050c5782516001600160401b038111620004f6576020906200056d601f8201601f1916830162000511565b928184528282870101116200050c5760005b8181106200059557508260009394955001015290565b85810183015184820184015282016200057f56fe608080604052600436101561001357600080fd5b60003560e01c90816301ffc9a71461392d5750806306fdde031461388a578063081812fc14613856578063095ea7b314613770578063162094c4146135c25780631627540c1461355657806316bbbe73146130db57806323b872dd14612f235780632fe68e7b14612d5957806342842e0e14612b1457806346aa52ce14612af6578063518d0d1d14611be257806353a47bb714611bb9578063559f8541146119ad5780636352211e1461197d5780636534d16c1461123857806370a08231146111c457806379ba50971461112d5780638389abf414611102578063845e125914610fad578063875c7eba14610f785780638da5cb5b14610f4f5780638eeda78f14610c7057806395d89b4114610bab5780639ecceb5e14610b62578063a22cb46514610ad8578063a497691e14610a2c578063b429afeb146109fe578063b75103c314610987578063b88d4fde14610652578063c646273e146104c1578063c87b56dd14610388578063e66b6000146102d4578063e780193c14610248578063e94b0dd2146102065763e985e9c5146101ab57600080fd5b34610201576040366003190112610201576101c4613b33565b6101cc613b49565b9060018060a01b03809116600052600560205260406000209116600052602052602060ff604060002054166040519015158152f35b600080fd5b34610201576020366003190112610201576004356038548110156102015761022f602091613ee5565b905460405160039290921b1c6001600160a01b03168152f35b346102015760003660031901126102015761026233614aef565b50156102b557600180805b61027357005b603a5481116102b3578061029f91600052603c60205260ff60066040600020015416156102a55761447b565b8161026d565b6102ae8161484d565b61447b565b005b6040516205d51f60e61b8152806102d0333060048401613f2e565b0390fd5b3461020157602080600319360112610201576001600160a01b036102f6613b33565b16600052603d8152604060002060405190818382549182815201908192600052846000209060005b8682821061037457868661033482880383613a24565b604051928392818401908285525180915260408401929160005b82811061035d57505050500390f35b83518552869550938101939281019260010161034e565b83548552909301926001928301920161031e565b346102015760208060031936011261020157603a5480159081156104b4575b50156104645760405190600082603b54916103c183613998565b92838352600190858282169182600014610444575050600114610404575b506103ec92500383613a24565b610400604051928284938452830190613b0e565b0390f35b849150603b60005281600020906000915b85831061042c5750506103ec9350820101856103df565b80548389018501528794508693909201918101610415565b60ff1916858201526103ec95151560051b85010192508791506103df9050565b6084906040519062461bcd60e51b82526004820152602360248201527f63616e2774206765742055524920666f72206e6f6e6578697374656e7420746f60448201526235b2b760e91b6064820152fd5b90506004351115826103a7565b34610201576040366003190112610201576104da613b33565b6104e2613c1c565b906104eb614b63565b6104f481614aef565b909280151580941515146106405715610583575060385490600160401b82101561056d577f9c1e55b2ea976b1ce106746d9325847e838c89adca542764df43b80cadb59b04926105568261055085600160409701603855613ee5565b90614695565b82516001600160a01b0390921682526020820152a1005b634e487b7160e01b600052604160045260246000fd5b90603854926000199384810190811161062a576105ae6105a56105c592613ee5565b91905495613ee5565b909160018060a01b0396879160031b1c1691614695565b603854928315610614577f9c1e55b2ea976b1ce106746d9325847e838c89adca542764df43b80cadb59b049460409401906105ff82613ee5565b909182549160031b1b19169055603855610556565b634e487b7160e01b600052603160045260246000fd5b634e487b7160e01b600052601160045260246000fd5b60405163ca231c2360e01b8152600490fd5b346102015760803660031901126102015761066b613b33565b610673613b49565b906001600160401b038060643511610201573660236064350112156102015760643560040135116102015736602460643560040135606435010111610201576106bb33614aef565b50156102b5576044356000908152600260205260409020546001600160a01b0390811682821603610955576106f3818416151561462b565b818116600081815260036020908152604080832080546000190190558685168084528184208054600101905560443584526002835281842080546001600160a01b0319169091179055928252603d90529081205492905b83811061089c575b50908092508316600052603d602052610771604435604060002061439e565b60443560008181526004602052604080822080546001600160a01b0319169055519491908483169084861690600080516020614ca28339815191529080a4803b159283156107c3575b6102b384614c42565b602092935090846000838294630a85bd0160e11b978885523360048601521660248401526044356044840152608060648401526064356004013560848401526064356004013560246064350160a48501378160a4606435600401358501015260a483601f19601f6064356004013501168101030193165af18015610890576102b392600091610861575b506001600160e01b031916148280806107ba565b610883915060203d602011610889575b61087b8183613a24565b810190614bf6565b8361084d565b503d610871565b6040513d6000823e3d90fd5b828216600052603d6020526108b5816040600020613f16565b90549060031b1c604435146108cc5760010161074a565b828293949216600052603d60205260406000208260001981011161062a576108ff61091c91610935946000190190613f16565b90549060031b1c91858516600052603d6020526040600020613f16565b90919082549060031b91821b91600019901b1916179055565b818116600052603d60205261094d604060002061466b565b819084610752565b60405162461bcd60e51b815260206004820152600a60248201526957524f4e475f46524f4d60b01b6044820152606490fd5b34610201576060366003190112610201576001600160401b03600435818111610201576109b8903690600401613b5f565b90602435818111610201576109d1903690600401613b5f565b91604435918211610201576020926109f06109f6933690600401613b5f565b91614818565b604051908152f35b34610201576020366003190112610201576020610a21610a1c613b33565b614aef565b506040519015158152f35b34610201576080366003190112610201576001600160401b0360043581811161020157610a5d903690600401613b5f565b9060243581811161020157610a76903690600401613b5f565b9160443582811161020157610a8f903690600401613b5f565b60643592831161020157608093610aad610ab3943690600401613b5f565b926146b3565b6040805194151585529215156020850152918301526001600160a01b03166060820152f35b3461020157604036600319011261020157610af1613b33565b610af9613c1c565b33600052600560205260406000209160018060a01b03169182600052602052610b328160406000209060ff801983541691151516179055565b60405190151581527f17307eab39ab6107e8899845ad3d59bd9653f200f220920489ca2b5937696c3160203392a3005b3461020157602036600319011261020157610b7b613f99565b50600435600052603c602052610400610b976040600020614009565b604051918291602083526020830190613ccf565b346102015760003660031901126102015760405160009060018054610bcf81613998565b80845290828116908115610c485750600114610c0a575b61040083610bf681870382613a24565b604051918291602083526020830190613b0e565b92508060005260209283600020916000925b828410610c3557505050810190910190610bf681610be6565b8054858501870152928501928101610c1c565b6104009550610bf693506020915091849260ff191682840152151560051b8201019350610be6565b3461020157604036600319011261020157603a546024359060043590600060015b82811115610f115750610ca3906145db565b90600060015b82811115610eb9575050506000906000935b8151851015610d635760005b608080610cd4888661448a565b51015151821015610d51578260a08381610cfb8286610cf38e8c61448a565b51015161448a565b51015189109384610d33575b50505050610d1e575b610d199061447b565b610cc7565b92610d2b610d199161447b565b939050610d10565b610d4492939450610cf38b8961448a565b5101511082888381610d07565b505093610d5d9061447b565b93610cbb565b929192610d6f84613ece565b93610d7d6040519586613a24565b808552610d8c601f1991613ece565b0160005b818110610e7a5750506000916000945b8151861015610e625760005b608080610db9898661448a565b51015151821015610e505760a08581610dd78585610cf38e8b61448a565b51015189109182610e33575b5050610df9575b50610df49061447b565b610dac565b8195610e10610df493610e2c93610cf38c8961448a565b51610e1b828661448a565b52610e26818561448a565b5061447b565b9490610dea565b909150610e458484610cf38d8a61448a565b51015110858a610de3565b505094610e5c9061447b565b94610da0565b61040090604051918291602083526020830190613c2b565b602090604051610e89816139ed565b606080825260008491808385015281604085015283015260006080830152600060a0830152828901015201610d90565b80600052603c602052604060002060ff60068201541615610ee4575b50610edf9061447b565b610ca9565b610edf9192610ef5610f0a92614009565b610eff828861448a565b52610e26818761448a565b9190610ed5565b80600052603c60205260ff6006604060002001541615610f3a575b610f359061447b565b610c91565b90610f47610f359161447b565b919050610f2c565b34610201576000366003190112610201576006546040516001600160a01b039091168152602090f35b3461020157602036600319011261020157600435801515810361020157610fa1610400916146f1565b60405191829182613de0565b3461020157602080600319360112610201576001600160a01b03610fcf613b33565b1680600052603d91828152604060002054916000805b8481106110ad5750610ff6906145db565b9360009160005b85811061101257604051806104008982613de0565b81600052828552611027816040600020613f16565b9054600391821b1c600052603c9081875260ff600660406000200154161561105a575b50506110559061447b565b610ffd565b946110a591611055939685600052868952611079886040600020613f16565b9054911b1c60005287526110906040600020614009565b61109a828b61448a565b52610e26818a61448a565b93908861104a565b826000528584526110c2816040600020613f16565b90549060031b1c600052603c845260ff60066040600020015416156110f0575b6110eb9061447b565b610fe5565b906001810180911161062a57906110e2565b346102015760203660031901126102015761111c33614aef565b50156102b5576102b360043561484d565b34610201576000366003190112610201576007546001600160a01b0390818116338190036111a5577fb532073b38c83145e3e5135377a08bf9aab55bc0fd7c1179cd4fb995d2a5159c816006549461118c604051928392881683613f2e565b0390a16001600160a01b03199283161760065516600755005b6040516312d9f3db60e31b81529081906102d090333060048501614b40565b34610201576020366003190112610201576001600160a01b036111e5613b33565b1680156112045760005260036020526020604060002054604051908152f35b60405162461bcd60e51b815260206004820152600c60248201526b5a45524f5f4144445245535360a01b6044820152606490fd5b346102015760e036600319011261020157611251613b33565b6024356001600160401b03811161020157611270903690600401613b5f565b6044356001600160401b0381116102015761128f903690600401613b5f565b906064356001600160401b038111610201576112af903690600401613b5f565b916084356001600160401b038111610201576112cf903690600401613b5f565b9060c4356001600160401b038111610201576112ef903690600401613e42565b926112f933614aef565b50156102b55760405160208101906113516020828161131e8b87815193849201613aeb565b810188519061133282858301868d01613aeb565b0186519061134582858301868b01613aeb565b01038084520182613a24565b5190209283600052603e60205260406000205461194357603a546001810180911161062a5780603a55600052603c6020526113938560046040600020016141af565b603a54600052603c602052604060002082516001600160401b03811161056d576113c7816113c18454613998565b84613f5f565b806020601f82116001146118dc576000916118d1575b508160011b916000199060031b1c19161790555b603a54600052603c602052600160406000200183516001600160401b03811161056d57611422816113c18454613998565b806020601f821160011461186a5760009161185f575b508160011b916000199060031b1c19161790555b603a54600052603c602052600260406000200186516001600160401b03811161056d5761147d816113c18454613998565b806020601f82116001146117f7576000916117ec575b508160011b916000199060031b1c19161790555b603a54600052603c602052600360406000200181516001600160401b03811161056d576114d8816113c18454613998565b806020601f82116001146117855760009161177a575b508160011b916000199060031b1c19161790555b603a54600052603c60205260a4359687600560406000200155603a54948560005285600860406000200155600052603e6020528460406000205560018060a01b039061155e8282169687600052603d602052604060002061439e565b603a549161156d87151561462b565b826000526002602052604060002054166117445785600052600360205260406000206001815401905581600052600260205260406000208660018060a01b03198254161790556040519082876000600080516020614ca28339815191528180a43b1591821561169c575b5050611630600080516020614c82833981519152959360209961165a61163e999795611611600080516020614cc283398151915296614c42565b61164c603a549c8d9c8d9960405198899860a08a5260a08a0190613b0e565b9088820360208a0152613b0e565b908682036040880152613b0e565b908482036060860152613b0e565b9060808301520390a3848101516116918251926060810151906080810151604060a0830151920151151592604051968796876143c1565b0390a2604051908152f35b909150602082806116c2630a85bd0160e19b99979a989b1b948583523360048401614c16565b03816000885af19687156108905760209961165a600080516020614c82833981519152986116116116309561163e9c600080516020614cc283398151915298600091611725575b5063ffffffff60e01b16149650509597995050995093956115d7565b602061173e92503d6020116108895761087b8183613a24565b38611709565b60405162461bcd60e51b815260206004820152600e60248201526d1053149150511657d3525395115160921b6044820152606490fd5b90508301518a6114ee565b91508260005260206000206000925b601f19831684106117d4576001935082601f198116106117bb575b5050811b019055611502565b85015160001960f88460031b161c191690558a806117af565b85810151825560209384019360019092019101611794565b90508801518a611493565b91508260005260206000206000925b8a601f198416851061184857506001935082601f1981161061182f575b5050811b0190556114a7565b8a015160001960f88460031b161c191690558a80611823565b810151825560209384019360019092019101611806565b90508501518a611438565b91508260005260206000206000925b601f19831684106118b9576001935082601f198116106118a0575b5050811b01905561144c565b87015160001960f88460031b161c191690558a80611894565b87810151825560209384019360019092019101611879565b90508401518a6113dd565b91508260005260206000206000925b601f198316841061192b576001935082601f19811610611912575b5050811b0190556113f1565b86015160001960f88460031b161c191690558a80611906565b868101518255602093840193600190920191016118eb565b60405162461bcd60e51b81526020600482015260126024820152714e465420616c72656164792065786973747360701b6044820152606490fd5b3461020157602036600319011261020157602061199b600435614bd2565b6040516001600160a01b039091168152f35b34610201576119bb36613bb5565b906119c533614aef565b50156102b557815115611b775780600052602090603c82526119ea6040600020614009565b604081019081516060820191611a4086845192519260405193849183611a198185019889815193849201613aeb565b8301611a2d82518093878085019101613aeb565b0161134582518093868085019101613aeb565b51902091519051611a8b85604051809382611a648184019788815193849201613aeb565b8201611a7882518093868085019101613aeb565b8a51910161134582858301868e01613aeb565b51902090600052603e83526000604081205560005280604060002055600052603c81526040600020908251906001600160401b03821161056d57611ad982611ad38554613998565b85613f5f565b80601f8311600114611b145750819293600092611b09575b5050600019600383901b1c191660019190911b179055005b015190508380611af1565b90601f198316948460005282600020926000905b878210611b5f575050836001959610611b46575b505050811b019055005b015160001960f88460031b161c19169055838080611b3c565b80600185968294968601518155019501930190611b28565b60405162461bcd60e51b815260206004820152601a60248201527953796d626f6c206e616d652063616e277420626520626c616e6b60301b6044820152606490fd5b34610201576000366003190112610201576007546040516001600160a01b039091168152602090f35b346102015761010036600319011261020157611bfc613b33565b6024356001600160401b03811161020157611c1b903690600401613b5f565b6044356001600160401b03811161020157611c3a903690600401613b5f565b906064356001600160401b03811161020157611c5a903690600401613b5f565b916084356001600160401b03811161020157611c7a903690600401613b5f565b9360c4356001600160401b03811161020157611c9a903690600401613e42565b916001600160401b0360e435116102015736602360e4350112156102015760e4356004013595611cc987613ece565b96611cd76040519889613a24565b80885260208801903660248260051b60e43501011161020157602460e43501915b60248260051b60e43501018310612a5457505050611d1533614aef565b50156102b557611d2f6001600160a01b03841615156143f7565b611d3f60208501518288886146b3565b90918293156000146129ad5750505050611d5833614aef565b50156102b5576040516020810190611da460208281611d7d8c87815193849201613aeb565b8101865190611d9182858301868b01613aeb565b8b51910161134582858301868f01613aeb565b51902080600052603e60205260406000205461194357603a5460018101811161062a57806001809201603a5501600052603c602052611dea8560046040600020016141af565b603a54600052603c602052604060002086516001600160401b03811161056d57611e18816113c18454613998565b806020601f82116001146129455760009161293a575b508160011b916000199060031b1c19161790555b603a54600052603c602052600160406000200183516001600160401b03811161056d57611e73816113c18454613998565b806020601f82116001146128d3576000916128c8575b508160011b916000199060031b1c19161790555b603a54600052603c602052600260406000200187516001600160401b03811161056d57611ece816113c18454613998565b806020601f821160011461286057600091612855575b508160011b916000199060031b1c19161790555b603a54600052603c602052600360406000200182516001600160401b03811161056d57611f29816113c18454613998565b6020601f82116001146127e9579080611fad9493926000916127de575b508160011b916000199060031b1c19161790555b603a54600052603c60205260a435600560406000200155603a54908160005281600860406000200155600052603e6020528060406000205560018060a01b038516600052603d602052604060002061439e565b603a54611fc46001600160a01b038516151561462b565b6000818152600260205260409020546001600160a01b0316611744576001600160a01b038416600081815260036020908152604080832080546001019055848352600290915280822080546001600160a01b0319168417905551918391600080516020614ca28339815191528180a4843b1591821561272c575b50506120946120a2966120be600080516020614c8283398151915297969594612075600080516020614cc283398151915295614c42565b6120b0603a549b8c9b8c9860405197889760a0895260a0890190613b0e565b908782036020890152613b0e565b908582036040870152613b0e565b908382036060850152613b0e565b60a43560808301526001600160a01b03909516940390a360208101516121048251926060810151906080810151604060a0830151920151151592604051968796876143c1565b0390a25b6000915b80518310156102b35781600052603f60205261215a61214b60206040600020612135878661448a565b5151908260405194838680955193849201613aeb565b82019081520301902054613998565b6124695781600052603c6020526007604060002001612179848361448a565b51908054600160401b81101561056d576121989160018201815561449e565b9190916124535780518051906001600160401b03821161056d576121c6826121c08654613998565b86613f5f565b602090601f83116001146123e6576020939291600091836123db575b50508160011b916000199060031b1c19161783555b01518051906001600160401b03821161056d576122248261221b6001860154613998565b60018601613f5f565b602090601f831160011461236b576001929160009183612360575b5050600019600383901b1c191690821b179101555b6020612260848361448a565b5101519282600052603f60205261228160206040600020612135848661448a565b8201908152030190208451946001600160401b03861161056d576122a9866113c18454613998565b602090601f87116001146122f3579580916122e19596976000926122e8575b50508160011b916000199060031b1c191617905561447b565b919061210c565b0151905087806122c8565b90601f198716918360005260206000209260005b81811061234857509160019391896122e198999a941061232f575b505050811b01905561447b565b015160001960f88460031b161c19169055878080612322565b92936020600181928786015181550195019301612307565b01519050878061223f565b906001840160005260206000209160005b601f19851681106123c35750918391600194938594601f198116106123aa575b505050811b01910155612254565b015160001960f88460031b161c1916905587808061239c565b8183015184556001909301926020928301920161237c565b0151905088806121e2565b908460005260206000209160005b601f198516811061243b575091839160019360209695601f19811610612422575b505050811b0183556121f7565b015160001960f88460031b161c19169055888080612415565b818301518455600190930192602092830192016123f4565b634e487b7160e01b600052600060045260246000fd5b909182600052603f6020526124b161248b60206040600020612135858761448a565b8201908152030190206124ac60206124a3858761448a565b51015191613a45565b614a88565b156124c0575b6122e19061447b565b60005b83600052603c80602052600780604060002001805484101561271f576124f56124ef856125099361449e565b50613fdd565b6124ff868861448a565b5151905190614a88565b61251d5750506125189061447b565b6124c3565b9161254891926020612532868897999861448a565b510151938660005260205260406000200161449e565b50908051906001600160401b03821161056d5761256c8261221b6001860154613998565b602090601f83116001146126af5760019291600091836126a4575b5050600019600383901b1c191690821b179101555b60206125a8848361448a565b5101519282600052603f6020526125c960206040600020612135848661448a565b8201908152030190208451946001600160401b03861161056d576125f1866113c18454613998565b602090601f8711600114612637579580916122e195969760009261262c575b50508160011b916000199060031b1c19161790555b90506124b7565b015190508780612610565b90601f198716918360005260206000209260005b81811061268c57509160019391896122e198999a9410612673575b505050811b019055612625565b015160001960f88460031b161c19169055878080612666565b9293602060018192878601518155019501930161264b565b015190508780612587565b906001840160005260206000209160005b601f19851681106127075750918391600194938594601f198116106126ee575b505050811b0191015561259c565b015160001960f88460031b161c191690558780806126e0565b818301518455600190930192602092830192016126c0565b505050506122e190612625565b818097969594935061274f60209392630a85bd0160e11b83523360048401614c16565b038160006001600160a01b0388165af1948515610890576120a2966120be600080516020614cc283398151915293612075600080516020614c8283398151915299612094956000916127bf575b50630a85bd0160e11b9063ffffffff60e01b16149550509495969750509661203e565b6127d8915060203d6020116108895761087b8183613a24565b8e61279c565b90508501518c611f46565b8260005260206000209060005b601f198416811061283d575091600191611fad95949382601f19811610612824575b5050811b019055611f5a565b87015160001960f88460031b161c191690558c80612818565b9091602060018192858a0151815501930191016127f6565b90508901518b611ee4565b91508260005260206000206000925b8b601f19841685106128b157506001935082601f19811610612898575b5050811b019055611ef8565b8b015160001960f88460031b161c191690558b8061288c565b81015182556020938401936001909201910161286f565b90508501518b611e89565b91508260005260206000206000925b601f1983168410612922576001935082601f19811610612909575b5050811b019055611e9d565b87015160001960f88460031b161c191690558b806128fd565b878101518255602093840193600190920191016128e2565b90508801518b611e2e565b91508260005260206000206000925b8a601f198416851061299657506001935082601f1981161061297d575b5050811b019055611e42565b8a015160001960f88460031b161c191690558b80612971565b810151825560209384019360019092019101612954565b9350935095509695509291921580612a4b575b6129cf575b5050505090612108565b600080516020614c82833981519152926129f6916001600160a01b0391821691161461443b565b82600052603c602052612a108160046040600020016141af565b6020810151612a3f8251926060810151906080810151604060a0830151920151151592604051968796876143c1565b0390a2828080806129c5565b508315156129c0565b6001600160401b0383351161020157604060e4358435013603602319011261020157604051612a82816139d2565b6001600160401b036024853560e4350101351161020157612ab0366024863560e43501818101350101613b5f565b81526044843560e4350101356001600160401b03811161020157602492602092612ae584938636918a3560e435010101613b5f565b838201528152019301929050611cf8565b34610201576000366003190112610201576020603a54604051908152f35b3461020157612b2236613be7565b9091612b2d33614aef565b50156102b557816000526020926002845260018060a01b038080604060002054169316928303612d27578116612b6481151561462b565b826000526003808652604060002060001990818154019055826000526040600020600190818154019055866000526002885260406000209260018060a01b031993858582541617905586600052603d92838a5260406000205460005b818110612c9f575b5050505050826000528652612be185604060002061439e565b8460005260048652604060002090815416905560405191848285600080516020614ca2833981519152600080a43b15938415612c21575b6102b385614c42565b8280949550600087949360a493630a85bd0160e11b9889855233600486015260248501526044840152608060648401528160848401525af1908115610890576102b393600092612c82575b50506001600160e01b0319161482808080612c18565b612c989250803d106108895761087b8183613a24565b8380612c6c565b89600052858c52612cb4816040600020613f16565b905490851b1c8b14612cc7578401612bc0565b929091935088600052848b52604060002093820191821161062a57612cf261091c92612d0995613f16565b9054911b1c9188600052848b526040600020613f16565b84600052808752612d1d604060002061466b565b8780808080612bc8565b60405162461bcd60e51b815260048101869052600a60248201526957524f4e475f46524f4d60b01b6044820152606490fd5b34610201576060366003190112610201576001600160401b0360043581811161020157612d8a903690600401613b5f565b9060243590811161020157612da3903690600401613b5f565b604435801515810361020157600090603a54916001948584019485851161062a578690612dcf87613ece565b96612ddd6040519889613a24565b808852612dec601f1991613ece565b019460209536878a0137825b87811115612e77575050505050612e0e906145db565b92600090855b84811115612e2a57604051806104008882613de0565b80612e3688928461448a565b51612e42575b01612e14565b92612e719084600052603c8652612e5c6040600020614009565b612e66828a61448a565b52610e26818961448a565b92612e3c565b80600052603c808852612e99612e936002604060002001613a45565b87614a88565b9081612efb575b81612ed2575b50612eb3575b8301612df8565b94612eca849182612ec4898d61448a565b5261447b565b959050612eac565b905081600052875260ff60066040600020015416158015612ef4575b8b612ea6565b5081612eee565b905081600052808852612f1d612f176003604060002001613a45565b85614a88565b90612ea0565b3461020157612f3136613be7565b91612f3b33614aef565b50156102b557826000526020916002835260018060a01b039081806040600020541693169283036130a9571691612f7383151561462b565b8160005260039081815260406000209160001992838154019055846000526040600020600190818154019055866000526002835260406000209360018060a01b031994878682541617905585600052603d928385526040600020549160005b83811061301c575b505050505090600491856000528152612ff786604060002061439e565b85600052526040600020908154169055600080516020614ca2833981519152600080a4005b88600052858752613031816040600020613f16565b905490841b1c8b14613044578401612fd2565b91959493509187600052838552604060002092810190811161062a5760049561307361091c9261308a95613f16565b9054911b1c91886000528486526040600020613f16565b8460005280825261309e604060002061466b565b909187808080612fda565b60405162461bcd60e51b815260048101859052600a60248201526957524f4e475f46524f4d60b01b6044820152606490fd5b346102015760a0366003190112610201576130f4613b33565b60246001600160401b03813581811161020157613115903690600401613b5f565b926044358281116102015761312e903690600401613b5f565b9360643583811161020157613147903690600401613b5f565b9260843590811161020157613160903690600401613b5f565b9161316a33614aef565b50156102b5576001600160a01b03908116906131878215156143f7565b6131938385878a6146b3565b91839195939161354e575b50156135155790826131b192161461443b565b81600052602095603c875260806131cb6040600020614009565b01515160019490858103613367575050826000526002875281604060002054169081600052603d92838952886040600020549186600052600282526040600020541692613219841515614b99565b8360005286600060039586855260026040832095831996878154019055848452528d6004604084209160018060a01b0319928381541690555260408320908154169055600080516020614ca28339815191528280a460005b8381106132b7575b505050505050505050926132a483603e9560405193849183611a198185019889815193849201613aeb565b5190206000525260006040812055600080f35b85600052868c526132cc816040600020613f16565b905490861b1c88146132df578801613271565b9597509091929380965060009b989b52868a5260406000209183019283116133535750603e999361091c6132a4979461331d8c989561333495613f16565b9054911b1c91846000528588526040600020613f16565b6000528252613346604060002061466b565b9295878080808080613279565b634e487b7160e01b60009081526011600452fd5b93979550955096505061337a8486614a21565b905085600052603c845260046040600020019160001992838201918211613500576133bf916133a891614193565b509187600052603c86526004604060002001614193565b9190916134eb5780820361348f575b505084600052603c83526004604060002001908154801561347a5701916133f58383614193565b97909761346657506005876134386000936134317f4104c6737d2889385c8a8ebae84cfb9ec8c073d1ae04c1503669f267c92e84b69a9b614592565b8201614592565b826002820155826003820155826004820155015555613461604051928284938452830190613b0e565b0390a2005b634e487b7160e01b60005260006004526000fd5b87634e487b7160e01b60005260316004526000fd5b60058161349d8293856144ba565b6134ab8682018786016144ba565b6134cb60ff600283015416600286019060ff801983541691151516179055565b6003810154600385015560048101546004850155015491015586806133ce565b87634e487b7160e01b60005260006004526000fd5b88634e487b7160e01b60005260116004526000fd5b60405162461bcd60e51b8152602060048201526012818a015271151c98591948191bd95cdb9d08195e1a5cdd60721b6044820152606490fd5b90508a61319e565b34610201576020366003190112610201577f906a1c6bd7e3091ea86693dd029a831c19049ce77f1dce2ce0bab1cacbabce226020613592613b33565b61359a614b63565b600780546001600160a01b0319166001600160a01b03929092169182179055604051908152a1005b34610201576135d036613bb5565b906135da33614aef565b50156102b557603a548015918215613765575b5050156137145780516001600160401b03811161056d5761360f603b54613998565b601f81116136ba575b50602080601f83116001146136565750819260009261364b575b5050600019600383901b1c191660019190911b17603b55005b015190508280613632565b90601f19831693603b60005282600020926000905b8682106136a25750508360019510613689575b505050811b01603b55005b015160001960f88460031b161c1916905582808061367e565b8060018596829496860151815501950193019061366b565b603b600052613704907fbbe3212124853f8b0084a66a2d057c2966e251e132af3691db153ab65f0d1a4d601f840160051c8101916020851061370a575b601f0160051c0190613f48565b82613618565b90915081906136f7565b60405162461bcd60e51b815260206004820152602360248201527f63616e2774207365742055524920666f72206e6f6e6578697374656e7420746f60448201526235b2b760e91b6064820152608490fd5b1115905082806135ed565b3461020157604036600319011261020157613789613b33565b6024359081600052600260205260018060a01b038060406000205416908133148015613832575b156137fc5783600052600460205260406000209216918260018060a01b03198254161790557f8c5be1e5ebec7d5bd14f71427d1e84f3dd0314c0f7b2291e5b200ac8c7c3b925600080a4005b60405162461bcd60e51b815260206004820152600e60248201526d1393d517d055551213d49256915160921b6044820152606490fd5b5081600052600560205260406000203360005260205260ff604060002054166137b0565b34610201576020366003190112610201576004356000526004602052602060018060a01b0360406000205416604051908152f35b34610201576000366003190112610201576040516000906000546138ad81613998565b808352600191808316908115610c4857506001146138d55761040083610bf681870382613a24565b600080805260209450917f290decd9548b62a8d60345a988386fc84ba6bc95484008f6362f93160ef3e5635b82841061391a57505050810190910190610bf681610be6565b8054858501870152928501928101613901565b34610201576020366003190112610201576004359063ffffffff60e01b8216809203610201576020916301ffc9a760e01b8114908115613987575b8115613976575b5015158152f35b635b5e139f60e01b1490508361396f565b6380ac58cd60e01b81149150613968565b90600182811c921680156139c8575b60208310146139b257565b634e487b7160e01b600052602260045260246000fd5b91607f16916139a7565b604081019081106001600160401b0382111761056d57604052565b60c081019081106001600160401b0382111761056d57604052565b61012081019081106001600160401b0382111761056d57604052565b90601f801991011681019081106001600160401b0382111761056d57604052565b9060405191826000825492613a5984613998565b908184526001948581169081600014613ac85750600114613a85575b5050613a8392500383613a24565b565b9093915060005260209081600020936000915b818310613ab0575050613a8393508201013880613a75565b85548884018501529485019487945091830191613a98565b915050613a8394506020925060ff191682840152151560051b8201013880613a75565b60005b838110613afe5750506000910152565b8181015183820152602001613aee565b90602091613b2781518092818552858086019101613aeb565b601f01601f1916010190565b600435906001600160a01b038216820361020157565b602435906001600160a01b038216820361020157565b81601f82011215610201578035906001600160401b03821161056d5760405192613b93601f8401601f191660200185613a24565b8284526020838301011161020157816000926020809301838601378301015290565b9060406003198301126102015760043591602435906001600160401b03821161020157613be491600401613b5f565b90565b6060906003190112610201576001600160a01b0390600435828116810361020157916024359081168103610201579060443590565b60243590811515820361020157565b908082519081815260208091019281808460051b8301019501936000915b848310613c595750505050505090565b9091929394958480600192601f19858203018652895190613c95613c85835160c0808552840190613b0e565b8484015183820386850152613b0e565b91604080820151151590830152606080820151908301526080808201519083015260a0809101519101529801930193019194939290613c49565b90613ce38251610120808452830190613b0e565b91613cfa6020938483015184820386860152613b0e565b613d3a613d28613d166040938486015187820386890152613b0e565b60608501518682036060880152613b0e565b60808401518582036080870152613c2b565b60a083015160a085015260c0830151151560c085015260e08301519484820360e086015285519182815281810182808560051b8401019801946000925b858410613d9257505050505050506101008091015191015290565b909192939495988580613dcf600193601f198682030188528d519083613dbf83518a84528a840190613b0e565b9201519084818403910152613b0e565b9b0194019401929594939190613d77565b602080820190808352835180925260408301928160408460051b8301019501936000915b848310613e145750505050505090565b9091929394958480613e32600193603f198682030187528a51613ccf565b9801930193019194939290613e04565b91909160c0818403126102015760405190613e5c826139ed565b81938135906001600160401b03918281116102015781613e7d918501613b5f565b8452602083013591821161020157613e96918301613b5f565b6020830152604081013580151581036102015760a0918291604085015260608101356060850152608081013560808501520135910152565b6001600160401b03811161056d5760051b60200190565b603854811015613f0057603860005260206000200190600090565b634e487b7160e01b600052603260045260246000fd5b8054821015613f005760005260206000200190600090565b6001600160a01b0391821681529116602082015260400190565b818110613f53575050565b60008155600101613f48565b9190601f8111613f6e57505050565b613a83926000526020600020906020601f840160051c8301931061370a57601f0160051c0190613f48565b60405190613fa682613a08565b600061010083606080825280602083015280604083015280808301528060808301528360a08301528360c083015260e08201520152565b90604051613fea816139d2565b602061400460018395613ffc81613a45565b855201613a45565b910152565b9060409182519061401982613a08565b819361402482613a45565b83526001614033818401613a45565b602090818601526002614047818601613a45565b84870152600391614059838701613a45565b92606093848901526004908188019485549161407483613ece565b936140818a519586613a24565b838552858501926000988952868920928a8a955b8d88881061412a575050505050505050506080880152600586015460a088015260ff600687015416151560c088015260078601908154936140e16140d886613ece565b97519788613a24565b8487529182528082208187015b85841061410f57505050505050506101009160089160e08501520154910152565b8483889261411c85613fdd565b8152019201930192906140ee565b996006918c8c839f9d60ff905192614141846139ed565b61414a8c613a45565b8452614157888d01613a45565b868501528b0154161515908201528589015487820152878901546080820152600589015460a08201528152019501950194938b909a989a614095565b8054821015613f00576000526006602060002091020190600090565b908154600160401b81101561056d576141cf906001938482018155614193565b92909261245357815180516001600160401b039182821161056d578190614200826141fa8954613998565b89613f5f565b602090601f831160011461433b57600092614330575b5050600019600383901b1c191690831b1784555b818401916020840151805192831161056d5761424a836121c08654613998565b602090601f84116001146142c357928060a095938193600598966000946142b8575b50501b916000199060031b1c19161790555b61429d60408201511515600286019060ff801983541691151516179055565b60608101516003850155608081015160048501550151910155565b01519250388061426c565b90601f9392931983169185600052816000209260005b81811061431a5750916005979593918560a098969410614301575b505050811b01905561427e565b015160001960f88460031b161c191690553880806142f4565b82840151855593860193602093840193016142d9565b015190503880614216565b90859350601f1983169188600052816000209260005b8181106143865750841161436d575b505050811b01845561422a565b015160001960f88460031b161c19169055388080614360565b82840151855588969094019360209384019301614351565b80549190600160401b83101561056d578261091c916001613a8395018155613f16565b94916143e09061209460a096939998959960c0895260c0890190613b0e565b966040860152606085015260808401521515910152565b156143fe57565b60405162461bcd60e51b8152602060048201526015602482015274496e76616c6964206f776e6572206164647265737360581b6044820152606490fd5b1561444257565b60405162461bcd60e51b81526020600482015260116024820152702737ba1031b7b93932b1ba1037bbb732b960791b6044820152606490fd5b600019811461062a5760010190565b8051821015613f005760209160051b010190565b8054821015613f005760005260206000209060011b0190600090565b9080821461458e576144cc8154613998565b906001600160401b03821161056d5781906144eb826121c08654613998565b600090601f831160011461452257600092614517575b50508160011b916000199060031b1c1916179055565b015490503880614501565b81526020808220858352818320935090601f1985169083905b82821061457557505090846001959493921061455c575b505050811b019055565b015460001960f88460031b161c19169055388080614552565b849581929585015481556001809101960194019061453b565b5050565b61459c8154613998565b90816145a6575050565b81601f600093116001146145b8575055565b9080839182526145d7601f60208420940160051c840160018501613f48565b5555565b906145e582613ece565b6145f26040519182613a24565b8281528092614603601f1991613ece565b019060005b82811061461457505050565b60209061461f613f99565b82828501015201614608565b1561463257565b60405162461bcd60e51b81526020600482015260116024820152701253959053125117d49150d25412515395607a1b6044820152606490fd5b805490811561061457600019918201916146858383613f16565b909182549160031b1b1916905555565b919082549060031b9160018060a01b03809116831b921b1916179055565b90916146be92614818565b9081156146e1576146cf9082614a21565b50916146da82614bd2565b6001939291565b5050600090600090600090600090565b6147a457603a54600060015b82811115614766575061470f906145db565b90600060015b828111156147235750505090565b80600052603c602052604060002060ff6006820154161561474e575b506147499061447b565b614715565b6147499192610ef561475f92614009565b919061473f565b80600052603c60205260ff600660406000200154161561478f575b61478a9061447b565b6146fd565b9061479c61478a9161447b565b919050614781565b603a546147b0816145db565b9060015b818111156147c157505090565b6000818152603c6020526040812060001983019183831161480457506147ff92916147ee610e2692614009565b6147f8828861448a565b528561448a565b6147b4565b634e487b7160e01b81526011600452602490fd5b603e929161483d6040519182602095869283611a198185019889815193849201613aeb565b5190206000525260406000205490565b6000918183526020603c81526040600581862001544211156149e55783859493929452603c845261487f818620614009565b83865260028552818620548694608090920193906001600160a01b0316855b85518051881015614933576148b488879261448a565b510151156149035760606148c988885161448a565b510151908982820192831291129080158216911516176148ef57600190965b019561489e565b634e487b7160e01b89526011600452602489fd5b606061491088885161448a565b510151908982820392128183128116918313901516176148ef57600190966148e8565b50838952603c8852848920600601805460ff19166001179055919790968183128015975090955061499d5750917f7dba56ccd98cbec1ed180696d405fbeebef14cd975e25cf9f3d6920c3b5bbfc195939160809593925b82519586528501528301526060820152a1565b60395491820391821161480457600182018092116148045750917f7dba56ccd98cbec1ed180696d405fbeebef14cd975e25cf9f3d6920c3b5bbfc1959391608095939261498a565b60649250519062461bcd60e51b8252600482015260166024820152756265666f7265206c61737454726164696e674461746560501b6044820152fd5b919091600052602091603c8352614a3b6040600020614009565b6080019260005b84518051821015614a7a578383614a5c84614a649461448a565b510151614a88565b614a7057600101614a42565b9350505060019190565b505050509050600090600090565b90815181518103614ae757614ab392614ac06040519182846020978896879485850198899101613aeb565b8101038084520182613a24565b51902091614ae0604051918281614ab38183019687815193849201613aeb565b5190201490565b505050600090565b603854919060005b838110614b0a5750509050600090600090565b614b1381613ee5565b905460039190911b1c6001600160a01b0390811690831614614b3757600101614af7565b92505060019190565b6001600160a01b0391821681529181166020830152909116604082015260600190565b6006546001600160a01b031633819003614b7a5750565b60405163035785f360e31b81529081906102d090333060048501614b40565b15614ba057565b60405162461bcd60e51b815260206004820152600a6024820152691393d517d3525395115160b21b6044820152606490fd5b6000908152600260205260409020546001600160a01b031690613a83821515614b99565b9081602091031261020157516001600160e01b0319811681036102015790565b909160a092600180851b0316825260006020830152604082015260806060820152600060808201520190565b15614c4957565b60405162461bcd60e51b815260206004820152601060248201526f155394d0519157d49150d2541251539560821b6044820152606490fdfe8e873b9b3a2f390a51539b86857444b70493ec691236929dd8446d03072c5760ddf252ad1be2c89b69c2b068fc378daa952ba7f163c4a11628f55a4df523b3ef6314c140930dec15c3ce9f59039164d1b90d900518543092c3e4a56f40abdde0a26469706673582212203b2940dca5b3a4f4de4e278a424930026ea94048ec4e7c5ce485eeb2d5e65cd664736f6c63430008140033",
  "linkReferences": {},
  "deployedLinkReferences": {}
}