{
  "_format": "hh-sol-artifact-1",
  "contractName": "StrandsAPI",
  "sourceName": "contracts/strands/StrandsAPI.sol",
  "abi": [
    {
      "inputs": [
        {
          "internalType": "address",
          "name": "_owner",
          "type": "address"
        },
        {
          "internalType": "address",
          "name": "_controller",
          "type": "address"
        }
      ],
      "stateMutability": "nonpayable",
      "type": "constructor"
    },
    {
      "inputs": [],
      "name": "ControllerAlreadySet",
      "type": "error"
    },
    {
      "inputs": [
        {
          "internalType": "address",
          "name": "spender",
          "type": "address"
        },
        {
          "internalType": "uint256",
          "name": "allowance",
          "type": "uint256"
        },
        {
          "internalType": "uint256",
          "name": "needed",
          "type": "uint256"
        }
      ],
      "name": "ERC20InsufficientAllowance",
      "type": "error"
    },
    {
      "inputs": [
        {
          "internalType": "address",
          "name": "sender",
          "type": "address"
        },
        {
          "internalType": "uint256",
          "name": "balance",
          "type": "uint256"
        },
        {
          "internalType": "uint256",
          "name": "needed",
          "type": "uint256"
        }
      ],
      "name": "ERC20InsufficientBalance",
      "type": "error"
    },
    {
      "inputs": [
        {
          "internalType": "address",
          "name": "approver",
          "type": "address"
        }
      ],
      "name": "ERC20InvalidApprover",
      "type": "error"
    },
    {
      "inputs": [
        {
          "internalType": "address",
          "name": "receiver",
          "type": "address"
        }
      ],
      "name": "ERC20InvalidReceiver",
      "type": "error"
    },
    {
      "inputs": [
        {
          "internalType": "address",
          "name": "sender",
          "type": "address"
        }
      ],
      "name": "ERC20InvalidSender",
      "type": "error"
    },
    {
      "inputs": [
        {
          "internalType": "address",
          "name": "spender",
          "type": "address"
        }
      ],
      "name": "ERC20InvalidSpender",
      "type": "error"
    },
    {
      "inputs": [
        {
          "internalType": "address",
          "name": "thrower",
          "type": "address"
        },
        {
          "internalType": "address",
          "name": "caller",
          "type": "address"
        }
      ],
      "name": "OnlyController",
      "type": "error"
    },
    {
      "inputs": [
        {
          "internalType": "address",
          "name": "thrower",
          "type": "address"
        },
        {
          "internalType": "address",
          "name": "caller",
          "type": "address"
        },
        {
          "internalType": "address",
          "name": "nominatedOwner",
          "type": "address"
        }
      ],
      "name": "OnlyNominatedOwner",
      "type": "error"
    },
    {
      "inputs": [
        {
          "internalType": "address",
          "name": "thrower",
          "type": "address"
        },
        {
          "internalType": "address",
          "name": "caller",
          "type": "address"
        },
        {
          "internalType": "address",
          "name": "owner",
          "type": "address"
        }
      ],
      "name": "OnlyOwner",
      "type": "error"
    },
    {
      "anonymous": false,
      "inputs": [
        {
          "indexed": true,
          "internalType": "address",
          "name": "owner",
          "type": "address"
        },
        {
          "indexed": true,
          "internalType": "address",
          "name": "spender",
          "type": "address"
        },
        {
          "indexed": false,
          "internalType": "uint256",
          "name": "value",
          "type": "uint256"
        }
      ],
      "name": "Approval",
      "type": "event"
    },
    {
      "anonymous": false,
      "inputs": [
        {
          "indexed": false,
          "internalType": "address",
          "name": "controller",
          "type": "address"
        },
        {
          "indexed": false,
          "internalType": "bool",
          "name": "isController",
          "type": "bool"
        }
      ],
      "name": "ControllerSet",
      "type": "event"
    },
    {
      "anonymous": false,
      "inputs": [
        {
          "indexed": false,
          "internalType": "address",
          "name": "oldOwner",
          "type": "address"
        },
        {
          "indexed": false,
          "internalType": "address",
          "name": "newOwner",
          "type": "address"
        }
      ],
      "name": "OwnerChanged",
      "type": "event"
    },
    {
      "anonymous": false,
      "inputs": [
        {
          "indexed": false,
          "internalType": "address",
          "name": "newOwner",
          "type": "address"
        }
      ],
      "name": "OwnerNominated",
      "type": "event"
    },
    {
      "anonymous": false,
      "inputs": [
        {
          "indexed": true,
          "internalType": "address",
          "name": "from",
          "type": "address"
        },
        {
          "indexed": true,
          "internalType": "address",
          "name": "to",
          "type": "address"
        },
        {
          "indexed": false,
          "internalType": "uint256",
          "name": "value",
          "type": "uint256"
        }
      ],
      "name": "Transfer",
      "type": "event"
    },
    {
      "inputs": [],
      "name": "acceptOwnership",
      "outputs": [],
      "stateMutability": "nonpayable",
      "type": "function"
    },
    {
      "inputs": [
        {
          "internalType": "address",
          "name": "owner",
          "type": "address"
        },
        {
          "internalType": "address",
          "name": "spender",
          "type": "address"
        }
      ],
      "name": "allowance",
      "outputs": [
        {
          "internalType": "uint256",
          "name": "",
          "type": "uint256"
        }
      ],
      "stateMutability": "view",
      "type": "function"
    },
    {
      "inputs": [
        {
          "internalType": "address",
          "name": "spender",
          "type": "address"
        },
        {
          "internalType": "uint256",
          "name": "value",
          "type": "uint256"
        }
      ],
      "name": "approve",
      "outputs": [
        {
          "internalType": "bool",
          "name": "",
          "type": "bool"
        }
      ],
      "stateMutability": "nonpayable",
      "type": "function"
    },
    {
      "inputs": [
        {
          "internalType": "address",
          "name": "account",
          "type": "address"
        }
      ],
      "name": "balanceOf",
      "outputs": [
        {
          "internalType": "uint256",
          "name": "",
          "type": "uint256"
        }
      ],
      "stateMutability": "view",
      "type": "function"
    },
    {
      "inputs": [
        {
          "internalType": "uint256",
          "name": "amount",
          "type": "uint256"
        }
      ],
      "name": "burn",
      "outputs": [],
      "stateMutability": "nonpayable",
      "type": "function"
    },
    {
      "inputs": [
        {
          "internalType": "uint256",
          "name": "",
          "type": "uint256"
        }
      ],
      "name": "controllers",
      "outputs": [
        {
          "internalType": "address",
          "name": "",
          "type": "address"
        }
      ],
      "stateMutability": "view",
      "type": "function"
    },
    {
      "inputs": [],
      "name": "decimals",
      "outputs": [
        {
          "internalType": "uint8",
          "name": "",
          "type": "uint8"
        }
      ],
      "stateMutability": "view",
      "type": "function"
    },
    {
      "inputs": [
        {
          "internalType": "address",
          "name": "_controller",
          "type": "address"
        }
      ],
      "name": "isController",
      "outputs": [
        {
          "internalType": "bool",
          "name": "",
          "type": "bool"
        }
      ],
      "stateMutability": "view",
      "type": "function"
    },
    {
      "inputs": [
        {
          "internalType": "address",
          "name": "to",
          "type": "address"
        },
        {
          "internalType": "uint256",
          "name": "amount",
          "type": "uint256"
        }
      ],
      "name": "mint",
      "outputs": [],
      "stateMutability": "nonpayable",
      "type": "function"
    },
    {
      "inputs": [],
      "name": "name",
      "outputs": [
        {
          "internalType": "string",
          "name": "",
          "type": "string"
        }
      ],
      "stateMutability": "view",
      "type": "function"
    },
    {
      "inputs": [
        {
          "internalType": "address",
          "name": "_owner",
          "type": "address"
        }
      ],
      "name": "nominateNewOwner",
      "outputs": [],
      "stateMutability": "nonpayable",
      "type": "function"
    },
    {
      "inputs": [],
      "name": "nominatedOwner",
      "outputs": [
        {
          "internalType": "address",
          "name": "",
          "type": "address"
        }
      ],
      "stateMutability": "view",
      "type": "function"
    },
    {
      "inputs": [],
      "name": "owner",
      "outputs": [
        {
          "internalType": "address",
          "name": "",
          "type": "address"
        }
      ],
      "stateMutability": "view",
      "type": "function"
    },
    {
      "inputs": [
        {
          "internalType": "address",
          "name": "from",
          "type": "address"
        },
        {
          "internalType": "uint256",
          "name": "amount",
          "type": "uint256"
        }
      ],
      "name": "ownerBurn",
      "outputs": [],
      "stateMutability": "nonpayable",
      "type": "function"
    },
    {
      "inputs": [
        {
          "internalType": "address",
          "name": "_controller",
          "type": "address"
        },
        {
          "internalType": "bool",
          "name": "isController_",
          "type": "bool"
        }
      ],
      "name": "setIsController",
      "outputs": [],
      "stateMutability": "nonpayable",
      "type": "function"
    },
    {
      "inputs": [],
      "name": "symbol",
      "outputs": [
        {
          "internalType": "string",
          "name": "",
          "type": "string"
        }
      ],
      "stateMutability": "view",
      "type": "function"
    },
    {
      "inputs": [],
      "name": "totalSupply",
      "outputs": [
        {
          "internalType": "uint256",
          "name": "",
          "type": "uint256"
        }
      ],
      "stateMutability": "view",
      "type": "function"
    },
    {
      "inputs": [
        {
          "internalType": "address",
          "name": "to",
          "type": "address"
        },
        {
          "internalType": "uint256",
          "name": "value",
          "type": "uint256"
        }
      ],
      "name": "transfer",
      "outputs": [
        {
          "internalType": "bool",
          "name": "",
          "type": "bool"
        }
      ],
      "stateMutability": "nonpayable",
      "type": "function"
    },
    {
      "inputs": [
        {
          "internalType": "address",
          "name": "from",
          "type": "address"
        },
        {
          "internalType": "address",
          "name": "to",
          "type": "address"
        },
        {
          "internalType": "uint256",
          "name": "value",
          "type": "uint256"
        }
      ],
      "name": "transferFrom",
      "outputs": [
        {
          "internalType": "bool",
          "name": "",
          "type": "bool"
        }
      ],
      "stateMutability": "nonpayable",
      "type": "function"
    }
  ],
  "bytecode": "0x6080346200041d57601f6001600160401b03601f196200116938819003848101831686019190848311878410176200031a5780879260409485528339810103126200041d576200004f8462000442565b6200005e602080960162000442565b926200006962000422565b94600b86526a537472616e64732041504960a81b878701526200008b62000422565b90600b82526a537472616e64732e61706960a81b888301528651918383116200031a5760039283546001998a82811c9216801562000412575b8c831014620003fc578b8286859411620003a3575b50508b908583116001146200033c5760009262000330575b505060001982861b1c191690891b1783555b80519384116200031a5760049586548981811c911680156200030f575b8b821014620002fa579081848796959493116200029e575b508a9285116001146200023657506000936200022a575b505082871b92600019911b1c19161782555b600580546001600160a01b039283166001600160a01b03199182168117909255603754919590939068010000000000000000831015620002155782018060375582101562000200577fb532073b38c83145e3e5135377a08bf9aab55bc0fd7c1179cd4fb995d2a5159c60408888888888886037600052856000200192169082541617905582519160008352820152a1604051610d119081620004588239f35b603290634e487b7160e01b6000525260246000fd5b604182634e487b7160e01b6000525260246000fd5b0151915038806200014f565b8995939291931692876000528a6000209360005b8c8282106200028757505085116200026c575b50505050811b01825562000161565b01519060f884600019921b161c19169055388080806200025d565b8385015187558c989096019593840193016200024a565b909192939450876000528a6000208480880160051c8201928d8910620002f0575b918c91899897969594930160051c01915b828110620002e057505062000138565b600081558897508c9101620002d0565b92508192620002bf565b602288634e487b7160e01b6000525260246000fd5b90607f169062000120565b634e487b7160e01b600052604160045260246000fd5b015190503880620000f1565b908c918a8d95168860005283600020936000905b82821062000389575050841162000370575b505050811b01835562000103565b015160001983881b60f8161c1916905538808062000362565b8484015186558f9790950194938401939081019062000350565b909192508660005285826000209181860160051c8301938610620003f2575b918d91869594930160051c01915b828110620003e257508d9150620000d9565b600081558594508d9101620003d0565b92508192620003c2565b634e487b7160e01b600052602260045260246000fd5b91607f1691620000c4565b600080fd5b60408051919082016001600160401b038111838210176200031a57604052565b51906001600160a01b03821682036200041d5756fe6080604081815260048036101561001557600080fd5b600092833560e01c90816306fdde031461090a57508063095ea7b3146108615780631627540c146107f257806318160ddd146107d357806323b872dd146106ee578063313ce567146106d257806340c10f191461061557806342966c68146105ca57806353a47bb7146105a157806370a082311461056a57806379ba5097146104cd5780638da5cb5b146104a457806395d89b41146103a2578063a9059cbb14610371578063b429afeb14610341578063c000178614610311578063c646273e14610187578063dd62ed3e1461013a5763e94b0dd2146100f457600080fd5b34610136576020366003190112610136573591603754831015610133575061011d602092610a5b565b905491519160018060a01b039160031b1c168152f35b80fd5b8280fd5b50503461018357806003193601126101835780602092610158610a2a565b610160610a45565b6001600160a01b0391821683526001865283832091168252845220549051908152f35b5080fd5b509190346101835780600319360112610183576101a2610a2a565b6024358015159081810361030d5781906101ba610c85565b6101c384610c11565b92901515146102fd571561024a5750603754600160401b811015610237577f9c1e55b2ea976b1ce106746d9325847e838c89adca542764df43b80cadb59b049495508261021982600161021f9401603755610a5b565b90610bf3565b82516001600160a01b0390921682526020820152a180f35b634e487b7160e01b855260418652602485fd5b603754600019908181019081116102ea5761027361026a61028a92610a5b565b91905494610a5b565b909160018060a01b0395869160031b1c1691610bf3565b60375480156102d7577f9c1e55b2ea976b1ce106746d9325847e838c89adca542764df43b80cadb59b0496975001906102c282610a5b565b909182549160031b1b1916905560375561021f565b634e487b7160e01b875260318852602487fd5b634e487b7160e01b875260118852602487fd5b845163ca231c2360e01b81528790fd5b8480fd5b505034610183573660031901126101335761033e61032d610a2a565b610335610c85565b60243590610b7b565b80f35b50503461018357602036600319011261018357602090610367610362610a2a565b610c11565b5090519015158152f35b50503461018357806003193601126101835760209061039b610391610a2a565b6024359033610a8c565b5160018152f35b50919034610183578160031936011261018357805190828454600181811c9080831692831561049a575b60209384841081146104875783885290811561046b5750600114610433575b505050829003601f01601f19168201926001600160401b03841183851017610420575082918261041c9252826109e1565b0390f35b634e487b7160e01b815260418552602490fd5b919250868652828620918387935b83851061045757505050508301013880806103eb565b805488860183015293019284908201610441565b60ff1916878501525050151560051b84010190503880806103eb565b634e487b7160e01b895260228a52602489fd5b91607f16916103cc565b50503461018357816003193601126101835760055490516001600160a01b039091168152602090f35b5034610136578260031936011261013657600654906001600160a01b0380831691338390036105475750817fb532073b38c83145e3e5135377a08bf9aab55bc0fd7c1179cd4fb995d2a5159c9161052d6005549651928392881683610b61565b0390a16001600160a01b0319928316176005551660065580f35b84516312d9f3db60e31b81529283925061056691339030908501610c62565b0390fd5b5050346101835760203660031901126101835760209181906001600160a01b03610592610a2a565b16815280845220549051908152f35b50503461018357816003193601126101835760065490516001600160a01b039091168152602090f35b509034610136576020366003190112610136576105e633610c11565b50156105f8575061033e903533610b7b565b516205d51f60e61b81529150819061056690339030908401610b61565b50903461013657806003193601126101365761062f610a2a565b906024359161063d33610c11565b50156106b9576001600160a01b03169283156106a4576002549083820180921161069157508492600080516020610cbc8339815191529260209260025585855284835280852082815401905551908152a380f35b634e487b7160e01b865260119052602485fd5b84602492519163ec442f0560e01b8352820152fd5b81516205d51f60e61b8152806105663330838901610b61565b5050346101835781600319360112610183576020905160068152f35b50823461013357606036600319011261013357610709610a2a565b610711610a45565b916044359360018060a01b03831680835260016020528683203384526020528683205491600019830361074d575b60208861039b898989610a8c565b8683106107b557811561079e5733156107875750825260016020908152868320338452815291869020908590039055829061039b8761073f565b8751634a1406b160e11b8152908101849052602490fd5b875163e602df0560e01b8152908101849052602490fd5b9050610566868851938493637dc7a0d960e11b855233908501610b43565b5050346101835781600319360112610183576020906002549051908152f35b5050346101835760203660031901126101835760207f906a1c6bd7e3091ea86693dd029a831c19049ce77f1dce2ce0bab1cacbabce2291610831610a2a565b610839610c85565b600680546001600160a01b0319166001600160a01b039290921691821790559051908152a180f35b503461013657816003193601126101365761087a610a2a565b6024359033156108f3576001600160a01b03169182156108dc57508083602095338152600187528181208582528752205582519081527f8c5be1e5ebec7d5bd14f71427d1e84f3dd0314c0f7b2291e5b200ac8c7c3b925843392a35160018152f35b8351634a1406b160e11b8152908101859052602490fd5b835163e602df0560e01b8152808401869052602490fd5b849150833461013657826003193601126101365782600354600181811c908083169283156109d7575b6020938484108114610487578388529081156109bb575060011461098257505050829003601f01601f19168201926001600160401b03841183851017610420575082918261041c9252826109e1565b91925060038652828620918387935b8385106109a757505050508301018580806103eb565b805488860183015293019284908201610991565b60ff1916878501525050151560051b84010190508580806103eb565b91607f1691610933565b6020808252825181830181905290939260005b828110610a1657505060409293506000838284010152601f8019910116010190565b8181018601518482016040015285016109f4565b600435906001600160a01b0382168203610a4057565b600080fd5b602435906001600160a01b0382168203610a4057565b603754811015610a7657603760005260206000200190600090565b634e487b7160e01b600052603260045260246000fd5b916001600160a01b03808416928315610b2a5716928315610b115760009083825281602052604082205490838210610af457509160408282600080516020610cbc833981519152958760209652828652038282205586815220818154019055604051908152a3565b6105668460405193849363391434e360e21b855260048501610b43565b60405163ec442f0560e01b815260006004820152602490fd5b604051634b637e8f60e11b815260006004820152602490fd5b604091949392606082019560018060a01b0316825260208201520152565b6001600160a01b0391821681529116602082015260400190565b906001600160a01b038216908115610b2a5760009282845283602052604084205490828210610bd6575081600080516020610cbc833981519152926020928587528684520360408620558060025403600255604051908152a3565b6105668360405193849363391434e360e21b855260048501610b43565b919082549060031b9160018060a01b03809116831b921b1916179055565b603754919060005b838110610c2c5750509050600090600090565b610c3581610a5b565b905460039190911b1c6001600160a01b0390811690831614610c5957600101610c19565b92505060019190565b6001600160a01b0391821681529181166020830152909116604082015260600190565b6005546001600160a01b031633819003610c9c5750565b60405163035785f360e31b815290819061056690333060048501610c6256feddf252ad1be2c89b69c2b068fc378daa952ba7f163c4a11628f55a4df523b3efa2646970667358221220c2d88b0ac806330de0225f5ee8e42965a92532dbb4789a693c1af522daf5e41c64736f6c63430008140033",
  "linkReferences": {},
  "deployedLinkReferences": {}
}