{
  "_format": "hh-sol-artifact-1",
  "contractName": "S1Position",
  "sourceName": "contracts/nft/S1Position.sol",
  "abi": [
    {
      "inputs": [
        {
          "internalType": "string",
          "name": "_name",
          "type": "string"
        },
        {
          "internalType": "string",
          "name": "_symbol",
          "type": "string"
        },
        {
          "internalType": "string",
          "name": "_tURI",
          "type": "string"
        }
      ],
      "stateMutability": "nonpayable",
      "type": "constructor"
    },
    {
      "inputs": [],
      "name": "ControllerAlreadySet",
      "type": "error"
    },
    {
      "inputs": [
        {
          "internalType": "address",
          "name": "thrower",
          "type": "address"
        },
        {
          "internalType": "address",
          "name": "caller",
          "type": "address"
        }
      ],
      "name": "OnlyController",
      "type": "error"
    },
    {
      "inputs": [
        {
          "internalType": "address",
          "name": "thrower",
          "type": "address"
        },
        {
          "internalType": "address",
          "name": "caller",
          "type": "address"
        },
        {
          "internalType": "address",
          "name": "nominatedOwner",
          "type": "address"
        }
      ],
      "name": "OnlyNominatedOwner",
      "type": "error"
    },
    {
      "inputs": [
        {
          "internalType": "address",
          "name": "thrower",
          "type": "address"
        },
        {
          "internalType": "address",
          "name": "caller",
          "type": "address"
        },
        {
          "internalType": "address",
          "name": "owner",
          "type": "address"
        }
      ],
      "name": "OnlyOwner",
      "type": "error"
    },
    {
      "anonymous": false,
      "inputs": [
        {
          "indexed": true,
          "internalType": "address",
          "name": "owner",
          "type": "address"
        },
        {
          "indexed": true,
          "internalType": "address",
          "name": "spender",
          "type": "address"
        },
        {
          "indexed": true,
          "internalType": "uint256",
          "name": "id",
          "type": "uint256"
        }
      ],
      "name": "Approval",
      "type": "event"
    },
    {
      "anonymous": false,
      "inputs": [
        {
          "indexed": true,
          "internalType": "address",
          "name": "owner",
          "type": "address"
        },
        {
          "indexed": true,
          "internalType": "address",
          "name": "operator",
          "type": "address"
        },
        {
          "indexed": false,
          "internalType": "bool",
          "name": "approved",
          "type": "bool"
        }
      ],
      "name": "ApprovalForAll",
      "type": "event"
    },
    {
      "anonymous": false,
      "inputs": [
        {
          "indexed": false,
          "internalType": "address",
          "name": "controller",
          "type": "address"
        },
        {
          "indexed": false,
          "internalType": "bool",
          "name": "isController",
          "type": "bool"
        }
      ],
      "name": "ControllerSet",
      "type": "event"
    },
    {
      "anonymous": false,
      "inputs": [
        {
          "indexed": false,
          "internalType": "address",
          "name": "oldOwner",
          "type": "address"
        },
        {
          "indexed": false,
          "internalType": "address",
          "name": "newOwner",
          "type": "address"
        }
      ],
      "name": "OwnerChanged",
      "type": "event"
    },
    {
      "anonymous": false,
      "inputs": [
        {
          "indexed": false,
          "internalType": "address",
          "name": "newOwner",
          "type": "address"
        }
      ],
      "name": "OwnerNominated",
      "type": "event"
    },
    {
      "anonymous": false,
      "inputs": [
        {
          "indexed": true,
          "internalType": "address",
          "name": "from",
          "type": "address"
        },
        {
          "indexed": true,
          "internalType": "address",
          "name": "to",
          "type": "address"
        },
        {
          "indexed": true,
          "internalType": "uint256",
          "name": "id",
          "type": "uint256"
        }
      ],
      "name": "Transfer",
      "type": "event"
    },
    {
      "inputs": [],
      "name": "acceptOwnership",
      "outputs": [],
      "stateMutability": "nonpayable",
      "type": "function"
    },
    {
      "inputs": [
        {
          "internalType": "address",
          "name": "spender",
          "type": "address"
        },
        {
          "internalType": "uint256",
          "name": "id",
          "type": "uint256"
        }
      ],
      "name": "approve",
      "outputs": [],
      "stateMutability": "nonpayable",
      "type": "function"
    },
    {
      "inputs": [
        {
          "internalType": "address",
          "name": "owner",
          "type": "address"
        }
      ],
      "name": "balanceOf",
      "outputs": [
        {
          "internalType": "uint256",
          "name": "",
          "type": "uint256"
        }
      ],
      "stateMutability": "view",
      "type": "function"
    },
    {
      "inputs": [
        {
          "internalType": "uint256",
          "name": "",
          "type": "uint256"
        }
      ],
      "name": "controllers",
      "outputs": [
        {
          "internalType": "address",
          "name": "",
          "type": "address"
        }
      ],
      "stateMutability": "view",
      "type": "function"
    },
    {
      "inputs": [
        {
          "internalType": "uint256",
          "name": "",
          "type": "uint256"
        }
      ],
      "name": "getApproved",
      "outputs": [
        {
          "internalType": "address",
          "name": "",
          "type": "address"
        }
      ],
      "stateMutability": "view",
      "type": "function"
    },
    {
      "inputs": [
        {
          "internalType": "address",
          "name": "target",
          "type": "address"
        }
      ],
      "name": "getOwnerPositions",
      "outputs": [
        {
          "internalType": "uint256[]",
          "name": "",
          "type": "uint256[]"
        }
      ],
      "stateMutability": "view",
      "type": "function"
    },
    {
      "inputs": [
        {
          "internalType": "uint256",
          "name": "tokenId",
          "type": "uint256"
        }
      ],
      "name": "getValue",
      "outputs": [
        {
          "internalType": "uint256",
          "name": "",
          "type": "uint256"
        }
      ],
      "stateMutability": "view",
      "type": "function"
    },
    {
      "inputs": [
        {
          "internalType": "address",
          "name": "",
          "type": "address"
        },
        {
          "internalType": "address",
          "name": "",
          "type": "address"
        }
      ],
      "name": "isApprovedForAll",
      "outputs": [
        {
          "internalType": "bool",
          "name": "",
          "type": "bool"
        }
      ],
      "stateMutability": "view",
      "type": "function"
    },
    {
      "inputs": [
        {
          "internalType": "address",
          "name": "_controller",
          "type": "address"
        }
      ],
      "name": "isController",
      "outputs": [
        {
          "internalType": "bool",
          "name": "",
          "type": "bool"
        }
      ],
      "stateMutability": "view",
      "type": "function"
    },
    {
      "inputs": [
        {
          "internalType": "address",
          "name": "to",
          "type": "address"
        },
        {
          "internalType": "uint256",
          "name": "_value",
          "type": "uint256"
        }
      ],
      "name": "mint",
      "outputs": [],
      "stateMutability": "nonpayable",
      "type": "function"
    },
    {
      "inputs": [],
      "name": "mintCounter",
      "outputs": [
        {
          "internalType": "uint256",
          "name": "",
          "type": "uint256"
        }
      ],
      "stateMutability": "view",
      "type": "function"
    },
    {
      "inputs": [],
      "name": "name",
      "outputs": [
        {
          "internalType": "string",
          "name": "",
          "type": "string"
        }
      ],
      "stateMutability": "view",
      "type": "function"
    },
    {
      "inputs": [
        {
          "internalType": "address",
          "name": "_owner",
          "type": "address"
        }
      ],
      "name": "nominateNewOwner",
      "outputs": [],
      "stateMutability": "nonpayable",
      "type": "function"
    },
    {
      "inputs": [],
      "name": "nominatedOwner",
      "outputs": [
        {
          "internalType": "address",
          "name": "",
          "type": "address"
        }
      ],
      "stateMutability": "view",
      "type": "function"
    },
    {
      "inputs": [],
      "name": "owner",
      "outputs": [
        {
          "internalType": "address",
          "name": "",
          "type": "address"
        }
      ],
      "stateMutability": "view",
      "type": "function"
    },
    {
      "inputs": [
        {
          "internalType": "uint256",
          "name": "id",
          "type": "uint256"
        }
      ],
      "name": "ownerOf",
      "outputs": [
        {
          "internalType": "address",
          "name": "owner",
          "type": "address"
        }
      ],
      "stateMutability": "view",
      "type": "function"
    },
    {
      "inputs": [
        {
          "internalType": "address",
          "name": "from",
          "type": "address"
        },
        {
          "internalType": "address",
          "name": "to",
          "type": "address"
        },
        {
          "internalType": "uint256",
          "name": "id",
          "type": "uint256"
        }
      ],
      "name": "safeTransferFrom",
      "outputs": [],
      "stateMutability": "nonpayable",
      "type": "function"
    },
    {
      "inputs": [
        {
          "internalType": "address",
          "name": "from",
          "type": "address"
        },
        {
          "internalType": "address",
          "name": "to",
          "type": "address"
        },
        {
          "internalType": "uint256",
          "name": "id",
          "type": "uint256"
        },
        {
          "internalType": "bytes",
          "name": "data",
          "type": "bytes"
        }
      ],
      "name": "safeTransferFrom",
      "outputs": [],
      "stateMutability": "nonpayable",
      "type": "function"
    },
    {
      "inputs": [
        {
          "internalType": "address",
          "name": "operator",
          "type": "address"
        },
        {
          "internalType": "bool",
          "name": "approved",
          "type": "bool"
        }
      ],
      "name": "setApprovalForAll",
      "outputs": [],
      "stateMutability": "nonpayable",
      "type": "function"
    },
    {
      "inputs": [
        {
          "internalType": "address",
          "name": "_controller",
          "type": "address"
        },
        {
          "internalType": "bool",
          "name": "isController_",
          "type": "bool"
        }
      ],
      "name": "setIsController",
      "outputs": [],
      "stateMutability": "nonpayable",
      "type": "function"
    },
    {
      "inputs": [
        {
          "internalType": "uint256",
          "name": "tokenId",
          "type": "uint256"
        },
        {
          "internalType": "string",
          "name": "_tURI",
          "type": "string"
        }
      ],
      "name": "setTokenURI",
      "outputs": [],
      "stateMutability": "nonpayable",
      "type": "function"
    },
    {
      "inputs": [
        {
          "internalType": "uint256",
          "name": "tokenId",
          "type": "uint256"
        },
        {
          "internalType": "uint256",
          "name": "_value",
          "type": "uint256"
        }
      ],
      "name": "setValue",
      "outputs": [],
      "stateMutability": "nonpayable",
      "type": "function"
    },
    {
      "inputs": [
        {
          "internalType": "bytes4",
          "name": "interfaceId",
          "type": "bytes4"
        }
      ],
      "name": "supportsInterface",
      "outputs": [
        {
          "internalType": "bool",
          "name": "",
          "type": "bool"
        }
      ],
      "stateMutability": "view",
      "type": "function"
    },
    {
      "inputs": [],
      "name": "symbol",
      "outputs": [
        {
          "internalType": "string",
          "name": "",
          "type": "string"
        }
      ],
      "stateMutability": "view",
      "type": "function"
    },
    {
      "inputs": [
        {
          "internalType": "uint256",
          "name": "tokenId",
          "type": "uint256"
        }
      ],
      "name": "tokenURI",
      "outputs": [
        {
          "internalType": "string",
          "name": "",
          "type": "string"
        }
      ],
      "stateMutability": "view",
      "type": "function"
    },
    {
      "inputs": [
        {
          "internalType": "address",
          "name": "from",
          "type": "address"
        },
        {
          "internalType": "address",
          "name": "to",
          "type": "address"
        },
        {
          "internalType": "uint256",
          "name": "id",
          "type": "uint256"
        }
      ],
      "name": "transferFrom",
      "outputs": [],
      "stateMutability": "nonpayable",
      "type": "function"
    }
  ],
  "bytecode": "0x60806040523480156200001157600080fd5b5060405162001e4b38038062001e4b8339810160408190526200003491620001d3565b338084846000620000468382620002f3565b506001620000558282620002f3565b5050600680546001600160a01b03199081166001600160a01b038681169182179093556038805460018101825560009182527f38395c5dceade9603479b177b68959049485df8aa97b39f3533039af5f456199018054909316938616939093179091556040805192835260208301919091527fb532073b38c83145e3e5135377a08bf9aab55bc0fd7c1179cd4fb995d2a5159c92500160405180910390a150603a9050620001048282620002f3565b50505050620003bf565b634e487b7160e01b600052604160045260246000fd5b600082601f8301126200013657600080fd5b81516001600160401b03808211156200015357620001536200010e565b604051601f8301601f19908116603f011681019082821181831017156200017e576200017e6200010e565b816040528381526020925086838588010111156200019b57600080fd5b600091505b83821015620001bf5785820183015181830184015290820190620001a0565b600093810190920192909252949350505050565b600080600060608486031215620001e957600080fd5b83516001600160401b03808211156200020157600080fd5b6200020f8783880162000124565b945060208601519150808211156200022657600080fd5b620002348783880162000124565b935060408601519150808211156200024b57600080fd5b506200025a8682870162000124565b9150509250925092565b600181811c908216806200027957607f821691505b6020821081036200029a57634e487b7160e01b600052602260045260246000fd5b50919050565b601f821115620002ee57600081815260208120601f850160051c81016020861015620002c95750805b601f850160051c820191505b81811015620002ea57828155600101620002d5565b5050505b505050565b81516001600160401b038111156200030f576200030f6200010e565b620003278162000320845462000264565b84620002a0565b602080601f8311600181146200035f5760008415620003465750858301515b600019600386901b1c1916600185901b178555620002ea565b600085815260208120601f198616915b8281101562000390578886015182559484019460019091019084016200036f565b5085821015620003af5787850151600019600388901b60f8161c191681555b5050505050600190811b01905550565b611a7c80620003cf6000396000f3fe608060405234801561001057600080fd5b50600436106101ae5760003560e01c806370a08231116100ee578063a22cb46511610097578063c646273e11610071578063c646273e146103a4578063c87b56dd146103b7578063e94b0dd2146103ca578063e985e9c5146103dd57600080fd5b8063a22cb4651461036b578063b429afeb1461037e578063b88d4fde1461039157600080fd5b8063845e1259116100c8578063845e1259146103305780638da5cb5b1461035057806395d89b411461036357600080fd5b806370a082311461030257806379ba5097146103155780637b8d56e31461031d57600080fd5b80631627540c1161015b57806342842e0e1161013557806342842e0e146102c057806346aa52ce146102d357806353a47bb7146102dc5780636352211e146102ef57600080fd5b80631627540c1461028757806323b872dd1461029a57806340c10f19146102ad57600080fd5b8063095ea7b31161018c578063095ea7b3146102315780630ff4c91614610246578063162094c41461027457600080fd5b806301ffc9a7146101b357806306fdde03146101db578063081812fc146101f0575b600080fd5b6101c66101c13660046114a8565b61040b565b60405190151581526020015b60405180910390f35b6101e36104a8565b6040516101d291906114cc565b6102196101fe36600461151a565b6004602052600090815260409020546001600160a01b031681565b6040516001600160a01b0390911681526020016101d2565b61024461023f36600461154a565b610536565b005b61026661025436600461151a565b6000908152603b602052604090205490565b6040519081526020016101d2565b61024461028236600461158a565b61062c565b610244610295366004611645565b6106da565b6102446102a8366004611660565b610736565b6102446102bb36600461154a565b61093b565b6102446102ce366004611660565b6109ac565b61026660395481565b600754610219906001600160a01b031681565b6102196102fd36600461151a565b610a9f565b610266610310366004611645565b610b09565b610244610b7d565b61024461032b36600461169c565b610c4e565b61034361033e366004611645565b610c94565b6040516101d291906116be565b600654610219906001600160a01b031681565b6101e3610d6f565b610244610379366004611702565b610d7c565b6101c661038c366004611645565b610de8565b61024461039f36600461173e565b610dfc565b6102446103b2366004611702565b610ee4565b6101e36103c536600461151a565b611086565b6102196103d836600461151a565b611185565b6101c66103eb3660046117d9565b600560209081526000928352604080842090915290825290205460ff1681565b60007f01ffc9a7000000000000000000000000000000000000000000000000000000006001600160e01b03198316148061046e57507f80ac58cd000000000000000000000000000000000000000000000000000000006001600160e01b03198316145b806104a257507f5b5e139f000000000000000000000000000000000000000000000000000000006001600160e01b03198316145b92915050565b600080546104b59061180c565b80601f01602080910402602001604051908101604052809291908181526020018280546104e19061180c565b801561052e5780601f106105035761010080835404028352916020019161052e565b820191906000526020600020905b81548152906001019060200180831161051157829003601f168201915b505050505081565b6000818152600260205260409020546001600160a01b03163381148061057f57506001600160a01b038116600090815260056020908152604080832033845290915290205460ff165b6105d05760405162461bcd60e51b815260206004820152600e60248201527f4e4f545f415554484f52495a454400000000000000000000000000000000000060448201526064015b60405180910390fd5b60008281526004602052604080822080546001600160a01b0319166001600160a01b0387811691821790925591518593918516917f8c5be1e5ebec7d5bd14f71427d1e84f3dd0314c0f7b2291e5b200ac8c7c3b92591a4505050565b6000610637336111af565b5090508061065f576040516205d51f60e61b81523060048201523360248201526044016105c7565b603954158061067057506039548311155b6106c85760405162461bcd60e51b815260206004820152602360248201527f63616e2774207365742055524920666f72206e6f6e6578697374656e7420746f60448201526235b2b760e91b60648201526084016105c7565b603a6106d48382611894565b50505050565b6106e2611215565b600780546001600160a01b0319166001600160a01b0383169081179091556040519081527f906a1c6bd7e3091ea86693dd029a831c19049ce77f1dce2ce0bab1cacbabce229060200160405180910390a150565b6000818152600260205260409020546001600160a01b0384811691161461079f5760405162461bcd60e51b815260206004820152600a60248201527f57524f4e475f46524f4d0000000000000000000000000000000000000000000060448201526064016105c7565b6001600160a01b0382166107f55760405162461bcd60e51b815260206004820152601160248201527f494e56414c49445f524543495049454e5400000000000000000000000000000060448201526064016105c7565b6107fe33610de8565b806108115750336001600160a01b038416145b8061083f57506001600160a01b038316600090815260056020908152604080832033845290915290205460ff165b8061086057506000818152600460205260409020546001600160a01b031633145b6108ac5760405162461bcd60e51b815260206004820152600e60248201527f4e4f5420415554484f52495a454400000000000000000000000000000000000060448201526064016105c7565b6001600160a01b0380841660008181526003602090815260408083208054600019019055938616808352848320805460010190558583526002825284832080546001600160a01b03199081168317909155600490925284832080549092169091559251849392917fddf252ad1be2c89b69c2b068fc378daa952ba7f163c4a11628f55a4df523b3ef91a4505050565b6000610946336111af565b5090508061096e576040516205d51f60e61b81523060048201523360248201526044016105c7565b600160396000828254610981919061196a565b9091555050603980546000908152603b60205260409020839055546109a7908490611276565b505050565b6109b7838383610736565b6001600160a01b0382163b1580610a605750604051630a85bd0160e11b8082523360048301526001600160a01b03858116602484015260448301849052608060648401526000608484015290919084169063150b7a029060a4016020604051808303816000875af1158015610a30573d6000803e3d6000fd5b505050506040513d601f19601f82011682018060405250810190610a54919061197d565b6001600160e01b031916145b6109a75760405162461bcd60e51b815260206004820152601060248201526f155394d0519157d49150d2541251539560821b60448201526064016105c7565b6000818152600260205260409020546001600160a01b031680610b045760405162461bcd60e51b815260206004820152600a60248201527f4e4f545f4d494e5445440000000000000000000000000000000000000000000060448201526064016105c7565b919050565b60006001600160a01b038216610b615760405162461bcd60e51b815260206004820152600c60248201527f5a45524f5f41444452455353000000000000000000000000000000000000000060448201526064016105c7565b506001600160a01b031660009081526003602052604090205490565b6007546001600160a01b03163314610bdc576007546040517f96cf9ed80000000000000000000000000000000000000000000000000000000081523060048201523360248201526001600160a01b0390911660448201526064016105c7565b600654600754604080516001600160a01b0393841681529290911660208301527fb532073b38c83145e3e5135377a08bf9aab55bc0fd7c1179cd4fb995d2a5159c910160405180910390a160078054600680546001600160a01b03199081166001600160a01b03841617909155169055565b6000610c59336111af565b50905080610c81576040516205d51f60e61b81523060048201523360248201526044016105c7565b506000918252603b602052604090912055565b60606000610ca183610b09565b905060008167ffffffffffffffff811115610cbe57610cbe611574565b604051908082528060200260200182016040528015610ce7578160200160208202803683370190505b509050600060015b6039548111610d65576000818152600260205260409020546001600160a01b03808816911603610d55576000818152603b60205260409020548351849084908110610d3c57610d3c61199a565b602090810291909101015281610d51816119b0565b9250505b610d5e816119b0565b9050610cef565b5090949350505050565b600180546104b59061180c565b3360008181526005602090815260408083206001600160a01b03871680855290835292819020805460ff191686151590811790915590519081529192917f17307eab39ab6107e8899845ad3d59bd9653f200f220920489ca2b5937696c31910160405180910390a35050565b600080610df4836111af565b509392505050565b610e07858585610736565b6001600160a01b0384163b1580610e9e5750604051630a85bd0160e11b808252906001600160a01b0386169063150b7a0290610e4f9033908a908990899089906004016119c9565b6020604051808303816000875af1158015610e6e573d6000803e3d6000fd5b505050506040513d601f19601f82011682018060405250810190610e92919061197d565b6001600160e01b031916145b610edd5760405162461bcd60e51b815260206004820152601060248201526f155394d0519157d49150d2541251539560821b60448201526064016105c7565b5050505050565b610eec611215565b600080610ef8846111af565b9150915082151582151503610f39576040517fca231c2300000000000000000000000000000000000000000000000000000000815260040160405180910390fd5b8215610f8f57603880546001810182556000919091527f38395c5dceade9603479b177b68959049485df8aa97b39f3533039af5f4561990180546001600160a01b0319166001600160a01b03861617905561103d565b60388054610f9f90600190611a1d565b81548110610faf57610faf61199a565b600091825260209091200154603880546001600160a01b039092169183908110610fdb57610fdb61199a565b9060005260206000200160006101000a8154816001600160a01b0302191690836001600160a01b03160217905550603880548061101a5761101a611a30565b600082815260209020810160001990810180546001600160a01b03191690550190555b604080516001600160a01b038616815284151560208201527f9c1e55b2ea976b1ce106746d9325847e838c89adca542764df43b80cadb59b04910160405180910390a150505050565b60606039546000148061109b57506039548211155b6110f35760405162461bcd60e51b815260206004820152602360248201527f63616e2774206765742055524920666f72206e6f6e6578697374656e7420746f60448201526235b2b760e91b60648201526084016105c7565b603a80546111009061180c565b80601f016020809104026020016040519081016040528092919081815260200182805461112c9061180c565b80156111795780601f1061114e57610100808354040283529160200191611179565b820191906000526020600020905b81548152906001019060200180831161115c57829003601f168201915b50505050509050919050565b6038818154811061119557600080fd5b6000918252602090912001546001600160a01b0316905081565b60008060005b60385481101561120957836001600160a01b0316603882815481106111dc576111dc61199a565b6000918252602090912001546001600160a01b03160361120157600194909350915050565b6001016111b5565b50600093849350915050565b6006546001600160a01b03163314611274576006546040517f1abc2f980000000000000000000000000000000000000000000000000000000081523060048201523360248201526001600160a01b0390911660448201526064016105c7565b565b6112808282611369565b6001600160a01b0382163b15806113265750604051630a85bd0160e11b80825233600483015260006024830181905260448301849052608060648401526084830152906001600160a01b0384169063150b7a029060a4016020604051808303816000875af11580156112f6573d6000803e3d6000fd5b505050506040513d601f19601f8201168201806040525081019061131a919061197d565b6001600160e01b031916145b6113655760405162461bcd60e51b815260206004820152601060248201526f155394d0519157d49150d2541251539560821b60448201526064016105c7565b5050565b6001600160a01b0382166113bf5760405162461bcd60e51b815260206004820152601160248201527f494e56414c49445f524543495049454e5400000000000000000000000000000060448201526064016105c7565b6000818152600260205260409020546001600160a01b0316156114245760405162461bcd60e51b815260206004820152600e60248201527f414c52454144595f4d494e54454400000000000000000000000000000000000060448201526064016105c7565b6001600160a01b038216600081815260036020908152604080832080546001019055848352600290915280822080546001600160a01b0319168417905551839291907fddf252ad1be2c89b69c2b068fc378daa952ba7f163c4a11628f55a4df523b3ef908290a45050565b6001600160e01b0319811681146114a557600080fd5b50565b6000602082840312156114ba57600080fd5b81356114c58161148f565b9392505050565b600060208083528351808285015260005b818110156114f9578581018301518582016040015282016114dd565b506000604082860101526040601f19601f8301168501019250505092915050565b60006020828403121561152c57600080fd5b5035919050565b80356001600160a01b0381168114610b0457600080fd5b6000806040838503121561155d57600080fd5b61156683611533565b946020939093013593505050565b634e487b7160e01b600052604160045260246000fd5b6000806040838503121561159d57600080fd5b82359150602083013567ffffffffffffffff808211156115bc57600080fd5b818501915085601f8301126115d057600080fd5b8135818111156115e2576115e2611574565b604051601f8201601f19908116603f0116810190838211818310171561160a5761160a611574565b8160405282815288602084870101111561162357600080fd5b8260208601602083013760006020848301015280955050505050509250929050565b60006020828403121561165757600080fd5b6114c582611533565b60008060006060848603121561167557600080fd5b61167e84611533565b925061168c60208501611533565b9150604084013590509250925092565b600080604083850312156116af57600080fd5b50508035926020909101359150565b6020808252825182820181905260009190848201906040850190845b818110156116f6578351835292840192918401916001016116da565b50909695505050505050565b6000806040838503121561171557600080fd5b61171e83611533565b91506020830135801515811461173357600080fd5b809150509250929050565b60008060008060006080868803121561175657600080fd5b61175f86611533565b945061176d60208701611533565b935060408601359250606086013567ffffffffffffffff8082111561179157600080fd5b818801915088601f8301126117a557600080fd5b8135818111156117b457600080fd5b8960208285010111156117c657600080fd5b9699959850939650602001949392505050565b600080604083850312156117ec57600080fd5b6117f583611533565b915061180360208401611533565b90509250929050565b600181811c9082168061182057607f821691505b60208210810361184057634e487b7160e01b600052602260045260246000fd5b50919050565b601f8211156109a757600081815260208120601f850160051c8101602086101561186d5750805b601f850160051c820191505b8181101561188c57828155600101611879565b505050505050565b815167ffffffffffffffff8111156118ae576118ae611574565b6118c2816118bc845461180c565b84611846565b602080601f8311600181146118f757600084156118df5750858301515b600019600386901b1c1916600185901b17855561188c565b600085815260208120601f198616915b8281101561192657888601518255948401946001909101908401611907565b50858210156119445787850151600019600388901b60f8161c191681555b5050505050600190811b01905550565b634e487b7160e01b600052601160045260246000fd5b808201808211156104a2576104a2611954565b60006020828403121561198f57600080fd5b81516114c58161148f565b634e487b7160e01b600052603260045260246000fd5b6000600182016119c2576119c2611954565b5060010190565b60006001600160a01b03808816835280871660208401525084604083015260806060830152826080830152828460a0840137600060a0848401015260a0601f19601f85011683010190509695505050505050565b818103818111156104a2576104a2611954565b634e487b7160e01b600052603160045260246000fdfea26469706673582212200d73416968837053eeb57d6d2eca63ee0f91cef7443d8b77cf26b0dd78f37fd364736f6c63430008140033",
  "linkReferences": {},
  "deployedLinkReferences": {}
}