{
  "_format": "hh-sol-artifact-1",
  "contractName": "DirectInputBookKeeper",
  "sourceName": "contracts/BookKeepers/DirectInputBookKeeper.sol",
  "abi": [
    {
      "inputs": [],
      "stateMutability": "nonpayable",
      "type": "constructor"
    },
    {
      "inputs": [
        {
          "internalType": "address",
          "name": "thrower",
          "type": "address"
        }
      ],
      "name": "AlreadyInitialised",
      "type": "error"
    },
    {
      "inputs": [
        {
          "internalType": "uint256",
          "name": "currentNAV",
          "type": "uint256"
        },
        {
          "internalType": "uint256",
          "name": "expectedNAV",
          "type": "uint256"
        }
      ],
      "name": "InconsistentNAV",
      "type": "error"
    },
    {
      "inputs": [
        {
          "internalType": "uint256",
          "name": "curBlockTimestamp",
          "type": "uint256"
        },
        {
          "internalType": "uint256",
          "name": "markedValueStaleTimestamp",
          "type": "uint256"
        }
      ],
      "name": "MarkedValueStale",
      "type": "error"
    },
    {
      "inputs": [
        {
          "internalType": "address",
          "name": "thrower",
          "type": "address"
        },
        {
          "internalType": "address",
          "name": "caller",
          "type": "address"
        },
        {
          "internalType": "address",
          "name": "nominatedOwner",
          "type": "address"
        }
      ],
      "name": "OnlyNominatedOwner",
      "type": "error"
    },
    {
      "inputs": [
        {
          "internalType": "address",
          "name": "thrower",
          "type": "address"
        },
        {
          "internalType": "address",
          "name": "caller",
          "type": "address"
        },
        {
          "internalType": "address",
          "name": "owner",
          "type": "address"
        }
      ],
      "name": "OnlyOwner",
      "type": "error"
    },
    {
      "inputs": [
        {
          "internalType": "address",
          "name": "repository",
          "type": "address"
        },
        {
          "internalType": "address",
          "name": "caller",
          "type": "address"
        }
      ],
      "name": "OnlyRepositoryController",
      "type": "error"
    },
    {
      "inputs": [],
      "name": "OnlyRepositoryOrController",
      "type": "error"
    },
    {
      "inputs": [],
      "name": "ValueOutsideRepositoryNotSettled",
      "type": "error"
    },
    {
      "inputs": [],
      "name": "repositoryCannotBeZeroAddress",
      "type": "error"
    },
    {
      "anonymous": false,
      "inputs": [
        {
          "indexed": false,
          "internalType": "uint256",
          "name": "value",
          "type": "uint256"
        },
        {
          "indexed": false,
          "internalType": "uint256",
          "name": "timestamp",
          "type": "uint256"
        },
        {
          "indexed": true,
          "internalType": "address",
          "name": "owner",
          "type": "address"
        }
      ],
      "name": "AUMUpdated",
      "type": "event"
    },
    {
      "anonymous": false,
      "inputs": [
        {
          "indexed": false,
          "internalType": "uint256",
          "name": "value",
          "type": "uint256"
        },
        {
          "indexed": false,
          "internalType": "uint256",
          "name": "timestamp",
          "type": "uint256"
        },
        {
          "indexed": true,
          "internalType": "address",
          "name": "owner",
          "type": "address"
        }
      ],
      "name": "NAVUpdated",
      "type": "event"
    },
    {
      "anonymous": false,
      "inputs": [
        {
          "indexed": false,
          "internalType": "address",
          "name": "oldOwner",
          "type": "address"
        },
        {
          "indexed": false,
          "internalType": "address",
          "name": "newOwner",
          "type": "address"
        }
      ],
      "name": "OwnerChanged",
      "type": "event"
    },
    {
      "anonymous": false,
      "inputs": [
        {
          "indexed": false,
          "internalType": "address",
          "name": "newOwner",
          "type": "address"
        }
      ],
      "name": "OwnerNominated",
      "type": "event"
    },
    {
      "anonymous": false,
      "inputs": [
        {
          "indexed": false,
          "internalType": "uint256",
          "name": "value",
          "type": "uint256"
        },
        {
          "indexed": false,
          "internalType": "uint256",
          "name": "timestamp",
          "type": "uint256"
        },
        {
          "indexed": true,
          "internalType": "address",
          "name": "owner",
          "type": "address"
        }
      ],
      "name": "valueOutsideRepositoryUpdated",
      "type": "event"
    },
    {
      "inputs": [
        {
          "internalType": "uint256",
          "name": "expectedNAV",
          "type": "uint256"
        }
      ],
      "name": "_checkExpectedNAV",
      "outputs": [],
      "stateMutability": "view",
      "type": "function"
    },
    {
      "inputs": [],
      "name": "acceptOwnership",
      "outputs": [],
      "stateMutability": "nonpayable",
      "type": "function"
    },
    {
      "inputs": [],
      "name": "acceptableMarginOfError",
      "outputs": [
        {
          "internalType": "uint256",
          "name": "",
          "type": "uint256"
        }
      ],
      "stateMutability": "view",
      "type": "function"
    },
    {
      "inputs": [
        {
          "internalType": "uint256",
          "name": "expectedNAV",
          "type": "uint256"
        }
      ],
      "name": "checkExpectedNAV",
      "outputs": [],
      "stateMutability": "nonpayable",
      "type": "function"
    },
    {
      "inputs": [],
      "name": "getAUM",
      "outputs": [
        {
          "internalType": "uint256",
          "name": "",
          "type": "uint256"
        }
      ],
      "stateMutability": "view",
      "type": "function"
    },
    {
      "inputs": [],
      "name": "getLastKnownAUM",
      "outputs": [
        {
          "internalType": "uint256",
          "name": "",
          "type": "uint256"
        },
        {
          "internalType": "uint256",
          "name": "",
          "type": "uint256"
        }
      ],
      "stateMutability": "view",
      "type": "function"
    },
    {
      "inputs": [],
      "name": "getLastKnownNAV",
      "outputs": [
        {
          "internalType": "uint256",
          "name": "",
          "type": "uint256"
        },
        {
          "internalType": "uint256",
          "name": "",
          "type": "uint256"
        }
      ],
      "stateMutability": "view",
      "type": "function"
    },
    {
      "inputs": [],
      "name": "getNAV",
      "outputs": [
        {
          "internalType": "uint256",
          "name": "",
          "type": "uint256"
        }
      ],
      "stateMutability": "view",
      "type": "function"
    },
    {
      "inputs": [
        {
          "internalType": "address",
          "name": "_repository",
          "type": "address"
        }
      ],
      "name": "init",
      "outputs": [],
      "stateMutability": "nonpayable",
      "type": "function"
    },
    {
      "inputs": [],
      "name": "isCapReached",
      "outputs": [
        {
          "internalType": "bool",
          "name": "",
          "type": "bool"
        }
      ],
      "stateMutability": "view",
      "type": "function"
    },
    {
      "inputs": [],
      "name": "lastKnownAUM",
      "outputs": [
        {
          "internalType": "uint256",
          "name": "",
          "type": "uint256"
        }
      ],
      "stateMutability": "view",
      "type": "function"
    },
    {
      "inputs": [],
      "name": "lastKnownNAV18",
      "outputs": [
        {
          "internalType": "uint256",
          "name": "",
          "type": "uint256"
        }
      ],
      "stateMutability": "view",
      "type": "function"
    },
    {
      "inputs": [],
      "name": "lastKnownTimestamp",
      "outputs": [
        {
          "internalType": "uint256",
          "name": "",
          "type": "uint256"
        }
      ],
      "stateMutability": "view",
      "type": "function"
    },
    {
      "inputs": [
        {
          "internalType": "uint256",
          "name": "value",
          "type": "uint256"
        },
        {
          "internalType": "uint256",
          "name": "validFor",
          "type": "uint256"
        },
        {
          "internalType": "uint256",
          "name": "expectedNAV",
          "type": "uint256"
        }
      ],
      "name": "markValueOutsideRepository18",
      "outputs": [],
      "stateMutability": "nonpayable",
      "type": "function"
    },
    {
      "inputs": [
        {
          "internalType": "bool",
          "name": "_valueOutsideRepositorySettled",
          "type": "bool"
        }
      ],
      "name": "markValueOutsideRepositorySettled",
      "outputs": [],
      "stateMutability": "nonpayable",
      "type": "function"
    },
    {
      "inputs": [
        {
          "internalType": "address",
          "name": "_owner",
          "type": "address"
        }
      ],
      "name": "nominateNewOwner",
      "outputs": [],
      "stateMutability": "nonpayable",
      "type": "function"
    },
    {
      "inputs": [],
      "name": "nominatedOwner",
      "outputs": [
        {
          "internalType": "address",
          "name": "",
          "type": "address"
        }
      ],
      "stateMutability": "view",
      "type": "function"
    },
    {
      "inputs": [],
      "name": "owner",
      "outputs": [
        {
          "internalType": "address",
          "name": "",
          "type": "address"
        }
      ],
      "stateMutability": "view",
      "type": "function"
    },
    {
      "inputs": [],
      "name": "repository",
      "outputs": [
        {
          "internalType": "contract Repository",
          "name": "",
          "type": "address"
        }
      ],
      "stateMutability": "view",
      "type": "function"
    },
    {
      "inputs": [
        {
          "internalType": "uint256",
          "name": "_marginOfError",
          "type": "uint256"
        }
      ],
      "name": "setAcceptableMarginOfError",
      "outputs": [],
      "stateMutability": "nonpayable",
      "type": "function"
    },
    {
      "inputs": [],
      "name": "valueOutsideRepository18",
      "outputs": [
        {
          "internalType": "uint256",
          "name": "",
          "type": "uint256"
        }
      ],
      "stateMutability": "view",
      "type": "function"
    },
    {
      "inputs": [],
      "name": "valueOutsideRepositorySettled",
      "outputs": [
        {
          "internalType": "bool",
          "name": "",
          "type": "bool"
        }
      ],
      "stateMutability": "view",
      "type": "function"
    },
    {
      "inputs": [],
      "name": "valueStaleTimestamp",
      "outputs": [
        {
          "internalType": "uint256",
          "name": "",
          "type": "uint256"
        }
      ],
      "stateMutability": "view",
      "type": "function"
    }
  ],
  "bytecode": "0x6080806040523461009a57600080546001600160a01b0319163390811782558183526020830152907fb532073b38c83145e3e5135377a08bf9aab55bc0fd7c1179cd4fb995d2a5159c90604090a175ff0000000000000000000000000000000000000000ff19603254166032558060335580603455670de0b6b3a76400006035558060365542603755603855604051610f3890816100a08239f35b600080fdfe608060408181526004918236101561001657600080fd5b600092833560e01c9182630126c606146108b8575081630f0bc306146106a65781631627540c1461063857816319ab453c146105ac5781631b2d61ad1461029057816353a47bb71461058357816356d4cb47146105645781636dc7b0a1146104ef57816379ba5097146104575781638da5cb5b1461042f5781639b4a117a14610362578163a887eda314610343578163adfcf2ce1461031e578163b82e7dae146102ff578163b9fe3a6d146102d8578163bc7b975a146102b0578163bd606e4314610290578163c55d2a5d14610271578163d7e25c361461024a578163d9fbe6c71461022b578163ddd64e571461020c578163df96868f14610151575063e9176c601461012257600080fd5b3461014d578160031936011261014d57603254905160089190911c6001600160a01b03168152602090f35b5080fd5b9190503461020857602036600319011261020857603254815163b429afeb60e01b8152338482015260089190911c6001600160a01b03169190602081602481865afa9081156101fe5785916101d0575b50156101b05750503560385580f35b51630feae1a160e31b81529182916101cc91339190840161096f565b0390fd5b6101f1915060203d81116101f7575b6101e9818361091a565b810190610952565b386101a1565b503d6101df565b82513d87823e3d90fd5b8280fd5b50503461014d578160031936011261014d576020906035549051908152f35b50503461014d578160031936011261014d576020906034549051908152f35b50503461014d578160031936011261014d5760209060ff60325460a81c1690519015158152f35b50503461014d578160031936011261014d576020906038549051908152f35b83903461014d57602036600319011261014d576102ad9035610adf565b80f35b8284346102d557806003193601126102d5575060365460375482519182526020820152f35b80fd5b50503461014d578160031936011261014d5760209060ff60325460b01c1690519015158152f35b50503461014d578160031936011261014d576020906033549051908152f35b8284346102d557806003193601126102d5575060355460375482519182526020820152f35b50503461014d578160031936011261014d576020906037549051908152f35b9050346102085760203660031901126102085780359081151580920361042b57603254835163b429afeb60e01b81523383820152909390600885901c6001600160a01b031690602081602481855afa908115610421578791610403575b501590816103f8575b506103eb57505060ff60b01b1990911660b09190911b60ff60b01b161760325580f35b51639e5ca49160e01b8152fd5b9050331415386103c8565b61041b915060203d81116101f7576101e9818361091a565b386103bf565b83513d89823e3d90fd5b8380fd5b50503461014d578160031936011261014d57905490516001600160a01b039091168152602090f35b905034610208578260031936011261020857600154906001600160a01b0380831691338390036104d05750817fb532073b38c83145e3e5135377a08bf9aab55bc0fd7c1179cd4fb995d2a5159c916104b78754965192839288168361096f565b0390a16001600160a01b03199283161783551660015580f35b84516312d9f3db60e31b8152928392506101cc91339030908501610e55565b8284346102d557806003193601126102d557506034548015158061055b575b61053f575060ff60325460b01c16156105335760209061052c610bcd565b9051908152f35b516295d9cf60e61b8152fd5b6044929151916305ff230360e21b835242908301526024820152fd5b5042811061050e565b50503461014d578160031936011261014d576020906036549051908152f35b50503461014d578160031936011261014d5760015490516001600160a01b039091168152602090f35b83833461014d57602036600319011261014d5782356001600160a01b0381169182820361042b576105db610e78565b6032549260ff8416610622571561061357506001600160a81b031990911660089190911b610100600160a81b03161760011760325580f35b5163afca4fa760e01b81528490fd5b815163161b906f60e01b81523081880152602490fd5b90503461020857602036600319011261020857356001600160a01b0381169190829003610208577f906a1c6bd7e3091ea86693dd029a831c19049ce77f1dce2ce0bab1cacbabce229160209161068c610e78565b600180546001600160a01b0319168317905551908152a180f35b90503461020857606036600319011261020857603254825163b429afeb60e01b81523381840152600882901c6001600160a01b0316939160209184359083816024818a5afa9081156108ae578891610891575b5015610877578060335561070f60243542610989565b603455426037558261071f610bcd565b9687603655855196878092636c15c89960e01b82525afa801561086d57879061081c575b60ff60a81b90871160a81b1660ff60a81b19831681176032557fbc45da491d98eaf9bc9a085c3ca384a04c4cd7cc1eeb027592aa5aa23a5d950c9550916107886109ac565b603581905561ffff60a81b19909116909217600160b01b176032556107ae604435610adf565b835190815242838201527f11313cc4a660bcb308bbdd96c2518d0375e3441dfce7f3982d9413409c0ad952843392a2825190815242828201527f1569f913abe6cb538b4f89a7ca4c16840115c00eb8dfdc41528da7eebc0031be833392a2815193845242908401523392a280f35b508285813d8311610866575b610832818361091a565b81010312610862577fbc45da491d98eaf9bc9a085c3ca384a04c4cd7cc1eeb027592aa5aa23a5d950c9451610743565b8680fd5b503d610828565b84513d89823e3d90fd5b8351630feae1a160e31b8152806101cc3389838a0161096f565b6108a89150843d86116101f7576101e9818361091a565b386106f9565b85513d8a823e3d90fd5b915092346102d557806003193601126102d5575060345480151580610911575b6108f757505060ff60325460b01c16156105335760209061052c6109ac565b6305ff230360e21b82524282850152602482015260449150fd5b504281106108d8565b90601f8019910116810190811067ffffffffffffffff82111761093c57604052565b634e487b7160e01b600052604160045260246000fd5b9081602091031261096a5751801515810361096a5790565b600080fd5b6001600160a01b0391821681529116602082015260400190565b9190820180921161099657565b634e487b7160e01b600052601160045260246000fd5b6109b4610bcd565b60325460405163173a986d60e31b81526001600160a01b03916020919082908290600490829060081c87165afa8015610a8d578291600091610a99575b506004604051809581936318160ddd60e01b8352165afa908115610a8d57600091610a61575b5090508115808015610a59575b610a4a57670de0b6b3a764000080840293840414171561099657610a4791610eae565b90565b505050670de0b6b3a764000090565b508115610a24565b82813d8311610a86575b610a75818361091a565b810103126102d55750518038610a17565b503d610a6b565b6040513d6000823e3d90fd5b909181813d8311610acb575b610aaf818361091a565b8101031261014d57519083821682036102d557508190386109f1565b503d610aa5565b9190820391821161099657565b600090610aea6109ac565b9181831115610b4c5750610afe8183610ad2565b670de0b6b3a7640000908181029181830414901517156109965782610b2291610eae565b60385410610b2e575050565b6044925060405191636337977360e01b835260048301526024820152fd5b610b568383610ad2565b90670de0b6b3a764000091828102928184041490151715610b81575082610b7c91610eae565b610b22565b634e487b7160e01b81526011600452602490fd5b9081602091031261096a57516001600160a01b038116810361096a5790565b9081602091031261096a575160ff8116810361096a5790565b6032546040805163333107c960e21b8082526001600160a01b0393909160209160081c85169060049083818381865afa908115610e2d5793809392918895600091610e38575b5060248851809a81936370a0823160e01b83528787840152165afa968715610e2d57600097610dfe575b5085519685885283888381865afa978815610d7b57600098610ddf575b50865190848284818963313ce56760e01b9d8e8352165afa918215610db55791610c9091610c9893600092610dc0575b50610ece565b603354610989565b968651956358f67c0b60e01b875284878481875afa968715610db557600097610d86575b5084908389518096819382525afa928315610d7b579084939291600093610d4c575b50875195869384928352165afa938415610d42575091610a47949391610d0d93600093610d13575b5050610ece565b90610ad2565b610d33929350803d10610d3b575b610d2b818361091a565b810190610bb4565b903880610d06565b503d610d21565b513d6000823e3d90fd5b610d6d919350843d8611610d74575b610d65818361091a565b810190610b95565b9138610cde565b503d610d5b565b87513d6000823e3d90fd5b90968582813d8311610dae575b610d9d818361091a565b810103126102d55750519584610cbc565b503d610d93565b88513d6000823e3d90fd5b610dd8919250873d8911610d3b57610d2b818361091a565b9038610c8a565b610df7919850843d8611610d7457610d65818361091a565b9638610c5a565b90968382813d8311610e26575b610e15818361091a565b810103126102d55750519538610c3d565b503d610e0b565b86513d6000823e3d90fd5b610e4f9150823d8411610d7457610d65818361091a565b38610c13565b6001600160a01b0391821681529181166020830152909116604082015260600190565b6000546001600160a01b031633819003610e8f5750565b60405163035785f360e31b81529081906101cc90333060048501610e55565b8115610eb8570490565b634e487b7160e01b600052601260045260246000fd5b90670de0b6b3a7640000918281029281840414901517156109965760ff1690604d821161099657610a4791600a0a90610eae56fea264697066735822122099c8804e9043c8ad043a0b5f34ef2d27c86bc0c95d1b7992e831c9dde4488b1f64736f6c63430008140033",
  "linkReferences": {},
  "deployedLinkReferences": {}
}