{
  "_format": "hh-sol-artifact-1",
  "contractName": "AccountNFTBookKeeper",
  "sourceName": "contracts/BookKeepers/AccountNFTBookKeeper.sol",
  "abi": [
    {
      "inputs": [],
      "stateMutability": "nonpayable",
      "type": "constructor"
    },
    {
      "inputs": [],
      "name": "AccountNFTNotSet",
      "type": "error"
    },
    {
      "inputs": [
        {
          "internalType": "uint256",
          "name": "curBlockTimestamp",
          "type": "uint256"
        },
        {
          "internalType": "uint256",
          "name": "accountStatementStaleTimestamp",
          "type": "uint256"
        }
      ],
      "name": "AccountStatementStale",
      "type": "error"
    },
    {
      "inputs": [
        {
          "internalType": "address",
          "name": "thrower",
          "type": "address"
        }
      ],
      "name": "AlreadyInitialised",
      "type": "error"
    },
    {
      "inputs": [
        {
          "internalType": "uint256",
          "name": "currentNAV",
          "type": "uint256"
        },
        {
          "internalType": "uint256",
          "name": "expectedNAV",
          "type": "uint256"
        }
      ],
      "name": "InconsistentNAV",
      "type": "error"
    },
    {
      "inputs": [
        {
          "internalType": "uint256",
          "name": "curBlockTimestamp",
          "type": "uint256"
        },
        {
          "internalType": "uint256",
          "name": "markedValueStaleTimestamp",
          "type": "uint256"
        }
      ],
      "name": "MarkedValueStale",
      "type": "error"
    },
    {
      "inputs": [
        {
          "internalType": "address",
          "name": "thrower",
          "type": "address"
        },
        {
          "internalType": "address",
          "name": "caller",
          "type": "address"
        },
        {
          "internalType": "address",
          "name": "nominatedOwner",
          "type": "address"
        }
      ],
      "name": "OnlyNominatedOwner",
      "type": "error"
    },
    {
      "inputs": [
        {
          "internalType": "address",
          "name": "thrower",
          "type": "address"
        },
        {
          "internalType": "address",
          "name": "caller",
          "type": "address"
        },
        {
          "internalType": "address",
          "name": "owner",
          "type": "address"
        }
      ],
      "name": "OnlyOwner",
      "type": "error"
    },
    {
      "inputs": [
        {
          "internalType": "address",
          "name": "repository",
          "type": "address"
        },
        {
          "internalType": "address",
          "name": "caller",
          "type": "address"
        }
      ],
      "name": "OnlyRepositoryController",
      "type": "error"
    },
    {
      "inputs": [],
      "name": "OnlyRepositoryOrController",
      "type": "error"
    },
    {
      "inputs": [],
      "name": "ValueOutsideRepositoryNotSettled",
      "type": "error"
    },
    {
      "inputs": [],
      "name": "repositoryCannotBeZeroAddress",
      "type": "error"
    },
    {
      "anonymous": false,
      "inputs": [
        {
          "indexed": false,
          "internalType": "uint256",
          "name": "value",
          "type": "uint256"
        },
        {
          "indexed": false,
          "internalType": "uint256",
          "name": "timestamp",
          "type": "uint256"
        },
        {
          "indexed": true,
          "internalType": "address",
          "name": "owner",
          "type": "address"
        }
      ],
      "name": "AUMUpdated",
      "type": "event"
    },
    {
      "anonymous": false,
      "inputs": [
        {
          "indexed": false,
          "internalType": "uint256",
          "name": "value",
          "type": "uint256"
        },
        {
          "indexed": false,
          "internalType": "uint256",
          "name": "timestamp",
          "type": "uint256"
        },
        {
          "indexed": true,
          "internalType": "address",
          "name": "owner",
          "type": "address"
        }
      ],
      "name": "NAVUpdated",
      "type": "event"
    },
    {
      "anonymous": false,
      "inputs": [
        {
          "indexed": false,
          "internalType": "address",
          "name": "oldOwner",
          "type": "address"
        },
        {
          "indexed": false,
          "internalType": "address",
          "name": "newOwner",
          "type": "address"
        }
      ],
      "name": "OwnerChanged",
      "type": "event"
    },
    {
      "anonymous": false,
      "inputs": [
        {
          "indexed": false,
          "internalType": "address",
          "name": "newOwner",
          "type": "address"
        }
      ],
      "name": "OwnerNominated",
      "type": "event"
    },
    {
      "anonymous": false,
      "inputs": [
        {
          "indexed": false,
          "internalType": "uint256",
          "name": "value",
          "type": "uint256"
        },
        {
          "indexed": false,
          "internalType": "uint256",
          "name": "timestamp",
          "type": "uint256"
        },
        {
          "indexed": true,
          "internalType": "address",
          "name": "owner",
          "type": "address"
        }
      ],
      "name": "valueOutsideRepositoryUpdated",
      "type": "event"
    },
    {
      "inputs": [
        {
          "internalType": "uint256",
          "name": "expectedNAV",
          "type": "uint256"
        }
      ],
      "name": "_checkExpectedNAV",
      "outputs": [],
      "stateMutability": "view",
      "type": "function"
    },
    {
      "inputs": [],
      "name": "acceptOwnership",
      "outputs": [],
      "stateMutability": "nonpayable",
      "type": "function"
    },
    {
      "inputs": [],
      "name": "acceptableMarginOfError",
      "outputs": [
        {
          "internalType": "uint256",
          "name": "",
          "type": "uint256"
        }
      ],
      "stateMutability": "view",
      "type": "function"
    },
    {
      "inputs": [],
      "name": "accountNFT",
      "outputs": [
        {
          "internalType": "address",
          "name": "",
          "type": "address"
        }
      ],
      "stateMutability": "view",
      "type": "function"
    },
    {
      "inputs": [],
      "name": "accountTokenId",
      "outputs": [
        {
          "internalType": "uint256",
          "name": "",
          "type": "uint256"
        }
      ],
      "stateMutability": "view",
      "type": "function"
    },
    {
      "inputs": [
        {
          "internalType": "uint256",
          "name": "expectedNAV",
          "type": "uint256"
        }
      ],
      "name": "checkExpectedNAV",
      "outputs": [],
      "stateMutability": "view",
      "type": "function"
    },
    {
      "inputs": [],
      "name": "getAUM",
      "outputs": [
        {
          "internalType": "uint256",
          "name": "",
          "type": "uint256"
        }
      ],
      "stateMutability": "view",
      "type": "function"
    },
    {
      "inputs": [],
      "name": "getLastKnownAUM",
      "outputs": [
        {
          "internalType": "uint256",
          "name": "",
          "type": "uint256"
        },
        {
          "internalType": "uint256",
          "name": "",
          "type": "uint256"
        }
      ],
      "stateMutability": "view",
      "type": "function"
    },
    {
      "inputs": [],
      "name": "getLastKnownNAV",
      "outputs": [
        {
          "internalType": "uint256",
          "name": "",
          "type": "uint256"
        },
        {
          "internalType": "uint256",
          "name": "",
          "type": "uint256"
        }
      ],
      "stateMutability": "view",
      "type": "function"
    },
    {
      "inputs": [],
      "name": "getNAV",
      "outputs": [
        {
          "internalType": "uint256",
          "name": "",
          "type": "uint256"
        }
      ],
      "stateMutability": "view",
      "type": "function"
    },
    {
      "inputs": [
        {
          "internalType": "uint256",
          "name": "validFor",
          "type": "uint256"
        },
        {
          "internalType": "uint256",
          "name": "expectedNAV",
          "type": "uint256"
        }
      ],
      "name": "updateValueOutsideRepository18",
      "outputs": [],
      "stateMutability": "nonpayable",
      "type": "function"
    },
    {
      "inputs": [
        {
          "internalType": "address",
          "name": "_repository",
          "type": "address"
        }
      ],
      "name": "init",
      "outputs": [],
      "stateMutability": "nonpayable",
      "type": "function"
    },
    {
      "inputs": [],
      "name": "isCapReached",
      "outputs": [
        {
          "internalType": "bool",
          "name": "",
          "type": "bool"
        }
      ],
      "stateMutability": "view",
      "type": "function"
    },
    {
      "inputs": [],
      "name": "lastKnownAUM",
      "outputs": [
        {
          "internalType": "uint256",
          "name": "",
          "type": "uint256"
        }
      ],
      "stateMutability": "view",
      "type": "function"
    },
    {
      "inputs": [],
      "name": "lastKnownNAV18",
      "outputs": [
        {
          "internalType": "uint256",
          "name": "",
          "type": "uint256"
        }
      ],
      "stateMutability": "view",
      "type": "function"
    },
    {
      "inputs": [],
      "name": "lastKnownTimestamp",
      "outputs": [
        {
          "internalType": "uint256",
          "name": "",
          "type": "uint256"
        }
      ],
      "stateMutability": "view",
      "type": "function"
    },
    {
      "inputs": [
        {
          "internalType": "bool",
          "name": "_valueOutsideRepositorySettled",
          "type": "bool"
        }
      ],
      "name": "markValueOutsideRepositorySettled",
      "outputs": [],
      "stateMutability": "nonpayable",
      "type": "function"
    },
    {
      "inputs": [
        {
          "internalType": "address",
          "name": "_owner",
          "type": "address"
        }
      ],
      "name": "nominateNewOwner",
      "outputs": [],
      "stateMutability": "nonpayable",
      "type": "function"
    },
    {
      "inputs": [],
      "name": "nominatedOwner",
      "outputs": [
        {
          "internalType": "address",
          "name": "",
          "type": "address"
        }
      ],
      "stateMutability": "view",
      "type": "function"
    },
    {
      "inputs": [],
      "name": "owner",
      "outputs": [
        {
          "internalType": "address",
          "name": "",
          "type": "address"
        }
      ],
      "stateMutability": "view",
      "type": "function"
    },
    {
      "inputs": [],
      "name": "repository",
      "outputs": [
        {
          "internalType": "contract Repository",
          "name": "",
          "type": "address"
        }
      ],
      "stateMutability": "view",
      "type": "function"
    },
    {
      "inputs": [
        {
          "internalType": "uint256",
          "name": "_marginOfError",
          "type": "uint256"
        }
      ],
      "name": "setAcceptableMarginOfError",
      "outputs": [],
      "stateMutability": "nonpayable",
      "type": "function"
    },
    {
      "inputs": [
        {
          "internalType": "address",
          "name": "_accountNFT",
          "type": "address"
        },
        {
          "internalType": "uint256",
          "name": "_tokenId",
          "type": "uint256"
        }
      ],
      "name": "setAccountNFT",
      "outputs": [],
      "stateMutability": "nonpayable",
      "type": "function"
    },
    {
      "inputs": [],
      "name": "valueOutsideRepository18",
      "outputs": [
        {
          "internalType": "uint256",
          "name": "",
          "type": "uint256"
        }
      ],
      "stateMutability": "view",
      "type": "function"
    },
    {
      "inputs": [],
      "name": "valueOutsideRepositorySettled",
      "outputs": [
        {
          "internalType": "bool",
          "name": "",
          "type": "bool"
        }
      ],
      "stateMutability": "view",
      "type": "function"
    },
    {
      "inputs": [],
      "name": "valueStaleTimestamp",
      "outputs": [
        {
          "internalType": "uint256",
          "name": "",
          "type": "uint256"
        }
      ],
      "stateMutability": "view",
      "type": "function"
    }
  ],
  "bytecode": "0x6080806040523461009a57600080546001600160a01b0319163390811782558183526020830152907fb532073b38c83145e3e5135377a08bf9aab55bc0fd7c1179cd4fb995d2a5159c90604090a175ff0000000000000000000000000000000000000000ff19603254166032558060335580603455670de0b6b3a76400006035558060365542603755603a5560405161126390816100a08239f35b600080fdfe608060408181526004918236101561001657600080fd5b600092833560e01c9182630126c60614610a38575081631627540c146109c957816319ab453c146109405781631b2d61ad146102da57816353a47bb714610917578163541dc7a21461066057816356d4cb471461064157816359e607fa146106225781635f599129146105cb5781636dc7b0a11461053957816379ba5097146104a15781638da5cb5b146104795781639b4a117a146103ac578163a887eda31461038d578163adfcf2ce14610368578163b82e7dae14610349578163b9fe3a6d14610322578163bc7b975a146102fa578163bd606e43146102da578163c55d2a5d146102bb578163d7e25c3614610294578163d9fbe6c714610275578163dae4bb7c1461024c578163ddd64e571461022d578163df96868f14610172575063e9176c601461014357600080fd5b3461016e578160031936011261016e57603254905160089190911c6001600160a01b03168152602090f35b5080fd5b9190503461022957602036600319011261022957603254815163b429afeb60e01b8152338482015260089190911c6001600160a01b03169190602081602481865afa90811561021f5785916101f1575b50156101d157505035603a5580f35b51630feae1a160e31b81529182916101ed913391908401610b08565b0390fd5b610212915060203d8111610218575b61020a8183610ab9565b810190610af0565b386101c2565b503d610200565b82513d87823e3d90fd5b8280fd5b50503461016e578160031936011261016e576020906035549051908152f35b50503461016e578160031936011261016e5760385490516001600160a01b039091168152602090f35b50503461016e578160031936011261016e576020906034549051908152f35b50503461016e578160031936011261016e5760209060ff60325460a81c1690519015158152f35b50503461016e578160031936011261016e57602090603a549051908152f35b83903461016e57602036600319011261016e576102f79035610e0a565b80f35b82843461031f578060031936011261031f575060365460375482519182526020820152f35b80fd5b50503461016e578160031936011261016e5760209060ff60325460b01c1690519015158152f35b50503461016e578160031936011261016e576020906033549051908152f35b82843461031f578060031936011261031f575060355460375482519182526020820152f35b50503461016e578160031936011261016e576020906037549051908152f35b9050346102295760203660031901126102295780359081151580920361047557603254835163b429afeb60e01b81523383820152909390600885901c6001600160a01b031690602081602481855afa90811561046b57879161044d575b50159081610442575b5061043557505060ff60b01b1990911660b09190911b60ff60b01b161760325580f35b51639e5ca49160e01b8152fd5b905033141538610412565b610465915060203d81116102185761020a8183610ab9565b38610409565b83513d89823e3d90fd5b8380fd5b50503461016e578160031936011261016e57905490516001600160a01b039091168152602090f35b905034610229578260031936011261022957600154906001600160a01b03808316913383900361051a5750817fb532073b38c83145e3e5135377a08bf9aab55bc0fd7c1179cd4fb995d2a5159c9161050187549651928392881683610b08565b0390a16001600160a01b03199283161783551660015580f35b84516312d9f3db60e31b8152928392506101ed91339030908501611180565b82843461031f578060031936011261031f57506038546001600160a01b0316156105bf57603454801515806105b6575b61059a575060ff60325460b01c161561058e57602090610587610ef8565b9051908152f35b516295d9cf60e61b8152fd5b6044929151916305ff230360e21b835242908301526024820152fd5b50428110610569565b5162c3826d60e01b8152fd5b50503461016e5736600319011261031f576105e4610a9e565b6105ec6111a3565b603880546001600160a01b0319166001600160a01b03929092169190911790556024356039556032805460ff60b01b1916905580f35b50503461016e578160031936011261016e576020906039549051908152f35b50503461016e578160031936011261016e576020906036549051908152f35b905034610229578160031936011261022957603254825163b429afeb60e01b815233838201526001600160a01b03600883901c8116949260209290919083816024818a5afa9081156108a35788916108fa575b50156108e057603854169081156108d1576039548451632a0b261760e01b808252878201839052939189918281602481875afa9081156108c757602491899185916108ad575b50015195866033558851948593849283528b8301525afa9081156108a35790610730918991610881575b5060c08735910151610cb4565b6034554260375582610740610ef8565b9687603655855196878092636c15c89960e01b82525afa8015610877578790610826575b60ff60a81b1990911690861160a81b60ff60a81b16176032557fbc45da491d98eaf9bc9a085c3ca384a04c4cd7cc1eeb027592aa5aa23a5d950c93506107a8610cd7565b90816035556107b8602435610e0a565b835190815242838201527f11313cc4a660bcb308bbdd96c2518d0375e3441dfce7f3982d9413409c0ad952843392a2825190815242828201527f1569f913abe6cb538b4f89a7ca4c16840115c00eb8dfdc41528da7eebc0031be833392a2815193845242908401523392a280f35b508285813d8311610870575b61083c8183610ab9565b8101031261086c577fbc45da491d98eaf9bc9a085c3ca384a04c4cd7cc1eeb027592aa5aa23a5d950c9451610764565b8680fd5b503d610832565b84513d89823e3d90fd5b61089d91503d808b833e6108958183610ab9565b810190610b92565b38610723565b85513d8a823e3d90fd5b6108c191503d8087833e6108958183610ab9565b386106f9565b88513d85823e3d90fd5b5050505162c3826d60e01b8152fd5b8351630feae1a160e31b8152806101ed3389838a01610b08565b6109119150843d86116102185761020a8183610ab9565b386106b3565b50503461016e578160031936011261016e5760015490516001600160a01b039091168152602090f35b83833461016e57602036600319011261016e5761095b610a9e565b6109636111a3565b6032549160ff83166109b4576001600160a01b038216156109a557506001600160a81b031990911660089190911b610100600160a81b03161760011760325580f35b5163afca4fa760e01b81528490fd5b5163161b906f60e01b81523081860152602490fd5b50503461016e57602036600319011261016e5760207f906a1c6bd7e3091ea86693dd029a831c19049ce77f1dce2ce0bab1cacbabce2291610a08610a9e565b610a106111a3565b600180546001600160a01b0319166001600160a01b039290921691821790559051908152a180f35b9150923461031f578060031936011261031f57506038546001600160a01b031615610a91575060345480151580610a88575b61059a575060ff60325460b01c161561058e57602090610587610cd7565b50428110610a6a565b62c3826d60e01b81529050fd5b600435906001600160a01b0382168203610ab457565b600080fd5b90601f801991011681019081106001600160401b03821117610ada57604052565b634e487b7160e01b600052604160045260246000fd5b90816020910312610ab457518015158103610ab45790565b6001600160a01b0391821681529116602082015260400190565b919080601f84011215610ab4578251906001600160401b038211610ada5760405191602091610b5a601f8301601f1916840185610ab9565b818452828287010111610ab45760005b818110610b7f57508260009394955001015290565b8581018301518482018401528201610b6a565b60208082840312610ab45781516001600160401b0392838211610ab4570192610100938481830312610ab45760405194850185811085821117610ada576040528051848111610ab45782610be7918301610b22565b855282810151848111610ab45782610c00918301610b22565b8386015260408101516040860152606081015160608601526080810151608086015260a081015160a086015260c081015160c086015260e081015190848211610ab4570181601f82011215610ab4578051938411610ada578360051b9060405194610c6d85840187610ab9565b85528380860192820101928311610ab4578301905b828210610c95575050505060e082015290565b81516001600160a01b0381168103610ab4578152908301908301610c82565b91908201809211610cc157565b634e487b7160e01b600052601160045260246000fd5b610cdf610ef8565b60325460405163173a986d60e31b81526001600160a01b03916020919082908290600490829060081c87165afa8015610db8578291600091610dc4575b506004604051809581936318160ddd60e01b8352165afa908115610db857600091610d8c575b5090508115808015610d84575b610d7557670de0b6b3a7640000808402938404141715610cc157610d72916111d9565b90565b505050670de0b6b3a764000090565b508115610d4f565b82813d8311610db1575b610da08183610ab9565b8101031261031f5750518038610d42565b503d610d96565b6040513d6000823e3d90fd5b909181813d8311610df6575b610dda8183610ab9565b8101031261016e575190838216820361031f5750819038610d1c565b503d610dd0565b91908203918211610cc157565b600090610e15610cd7565b9181831115610e775750610e298183610dfd565b670de0b6b3a764000090818102918183041490151715610cc15782610e4d916111d9565b603a5410610e59575050565b6044925060405191636337977360e01b835260048301526024820152fd5b610e818383610dfd565b90670de0b6b3a764000091828102928184041490151715610eac575082610ea7916111d9565b610e4d565b634e487b7160e01b81526011600452602490fd5b90816020910312610ab457516001600160a01b0381168103610ab45790565b90816020910312610ab4575160ff81168103610ab45790565b6032546040805163333107c960e21b8082526001600160a01b0393909160209160081c85169060049083818381865afa9081156111585793809392918895600091611163575b5060248851809a81936370a0823160e01b83528787840152165afa96871561115857600097611129575b5085519685885283888381865afa9788156110a65760009861110a575b50865190848284818963313ce56760e01b9d8e8352165afa9182156110e05791610fbb91610fc3936000926110eb575b506111f9565b603354610cb4565b968651956358f67c0b60e01b875284878481875afa9687156110e0576000976110b1575b5084908389518096819382525afa9283156110a6579084939291600093611077575b50875195869384928352165afa93841561106d575091610d729493916110389360009361103e575b50506111f9565b90610dfd565b61105e929350803d10611066575b6110568183610ab9565b810190610edf565b903880611031565b503d61104c565b513d6000823e3d90fd5b611098919350843d861161109f575b6110908183610ab9565b810190610ec0565b9138611009565b503d611086565b87513d6000823e3d90fd5b90968582813d83116110d9575b6110c88183610ab9565b8101031261031f5750519584610fe7565b503d6110be565b88513d6000823e3d90fd5b611103919250873d8911611066576110568183610ab9565b9038610fb5565b611122919850843d861161109f576110908183610ab9565b9638610f85565b90968382813d8311611151575b6111408183610ab9565b8101031261031f5750519538610f68565b503d611136565b86513d6000823e3d90fd5b61117a9150823d841161109f576110908183610ab9565b38610f3e565b6001600160a01b0391821681529181166020830152909116604082015260600190565b6000546001600160a01b0316338190036111ba5750565b60405163035785f360e31b81529081906101ed90333060048501611180565b81156111e3570490565b634e487b7160e01b600052601260045260246000fd5b90670de0b6b3a764000091828102928184041490151715610cc15760ff1690604d8211610cc157610d7291600a0a906111d956fea2646970667358221220772a7ee9f7575e100f4cccdd38e0c03efc510528bfc851d7faf0da0c79285f9264736f6c63430008140033",
  "linkReferences": {},
  "deployedLinkReferences": {}
}