{
  "_format": "hh-sol-artifact-1",
  "contractName": "StrandsTheme",
  "sourceName": "contracts/nft/StrandsTheme.sol",
  "abi": [
    {
      "inputs": [
        {
          "internalType": "string",
          "name": "_name",
          "type": "string"
        },
        {
          "internalType": "string",
          "name": "_symbol",
          "type": "string"
        },
        {
          "internalType": "string",
          "name": "_tURI",
          "type": "string"
        }
      ],
      "stateMutability": "nonpayable",
      "type": "constructor"
    },
    {
      "inputs": [],
      "name": "ControllerAlreadySet",
      "type": "error"
    },
    {
      "inputs": [
        {
          "internalType": "address",
          "name": "thrower",
          "type": "address"
        },
        {
          "internalType": "address",
          "name": "caller",
          "type": "address"
        }
      ],
      "name": "OnlyController",
      "type": "error"
    },
    {
      "inputs": [
        {
          "internalType": "address",
          "name": "thrower",
          "type": "address"
        },
        {
          "internalType": "address",
          "name": "caller",
          "type": "address"
        },
        {
          "internalType": "address",
          "name": "nominatedOwner",
          "type": "address"
        }
      ],
      "name": "OnlyNominatedOwner",
      "type": "error"
    },
    {
      "inputs": [
        {
          "internalType": "address",
          "name": "thrower",
          "type": "address"
        },
        {
          "internalType": "address",
          "name": "caller",
          "type": "address"
        },
        {
          "internalType": "address",
          "name": "owner",
          "type": "address"
        }
      ],
      "name": "OnlyOwner",
      "type": "error"
    },
    {
      "inputs": [
        {
          "internalType": "address",
          "name": "operator",
          "type": "address"
        }
      ],
      "name": "OperatorNotAllowed",
      "type": "error"
    },
    {
      "anonymous": false,
      "inputs": [
        {
          "indexed": true,
          "internalType": "address",
          "name": "owner",
          "type": "address"
        },
        {
          "indexed": true,
          "internalType": "address",
          "name": "spender",
          "type": "address"
        },
        {
          "indexed": true,
          "internalType": "uint256",
          "name": "id",
          "type": "uint256"
        }
      ],
      "name": "Approval",
      "type": "event"
    },
    {
      "anonymous": false,
      "inputs": [
        {
          "indexed": true,
          "internalType": "address",
          "name": "owner",
          "type": "address"
        },
        {
          "indexed": true,
          "internalType": "address",
          "name": "operator",
          "type": "address"
        },
        {
          "indexed": false,
          "internalType": "bool",
          "name": "approved",
          "type": "bool"
        }
      ],
      "name": "ApprovalForAll",
      "type": "event"
    },
    {
      "anonymous": false,
      "inputs": [
        {
          "indexed": false,
          "internalType": "address",
          "name": "controller",
          "type": "address"
        },
        {
          "indexed": false,
          "internalType": "bool",
          "name": "isController",
          "type": "bool"
        }
      ],
      "name": "ControllerSet",
      "type": "event"
    },
    {
      "anonymous": false,
      "inputs": [
        {
          "indexed": false,
          "internalType": "address",
          "name": "oldOwner",
          "type": "address"
        },
        {
          "indexed": false,
          "internalType": "address",
          "name": "newOwner",
          "type": "address"
        }
      ],
      "name": "OwnerChanged",
      "type": "event"
    },
    {
      "anonymous": false,
      "inputs": [
        {
          "indexed": false,
          "internalType": "address",
          "name": "newOwner",
          "type": "address"
        }
      ],
      "name": "OwnerNominated",
      "type": "event"
    },
    {
      "anonymous": false,
      "inputs": [
        {
          "indexed": true,
          "internalType": "address",
          "name": "from",
          "type": "address"
        },
        {
          "indexed": true,
          "internalType": "address",
          "name": "to",
          "type": "address"
        },
        {
          "indexed": true,
          "internalType": "uint256",
          "name": "id",
          "type": "uint256"
        }
      ],
      "name": "Transfer",
      "type": "event"
    },
    {
      "inputs": [],
      "name": "OPERATOR_FILTER_REGISTRY",
      "outputs": [
        {
          "internalType": "contract IOperatorFilterRegistry",
          "name": "",
          "type": "address"
        }
      ],
      "stateMutability": "view",
      "type": "function"
    },
    {
      "inputs": [],
      "name": "acceptOwnership",
      "outputs": [],
      "stateMutability": "nonpayable",
      "type": "function"
    },
    {
      "inputs": [
        {
          "internalType": "address",
          "name": "operator",
          "type": "address"
        },
        {
          "internalType": "uint256",
          "name": "tokenId",
          "type": "uint256"
        }
      ],
      "name": "approve",
      "outputs": [],
      "stateMutability": "nonpayable",
      "type": "function"
    },
    {
      "inputs": [
        {
          "internalType": "address",
          "name": "owner",
          "type": "address"
        }
      ],
      "name": "balanceOf",
      "outputs": [
        {
          "internalType": "uint256",
          "name": "",
          "type": "uint256"
        }
      ],
      "stateMutability": "view",
      "type": "function"
    },
    {
      "inputs": [
        {
          "internalType": "uint256",
          "name": "",
          "type": "uint256"
        }
      ],
      "name": "controllers",
      "outputs": [
        {
          "internalType": "address",
          "name": "",
          "type": "address"
        }
      ],
      "stateMutability": "view",
      "type": "function"
    },
    {
      "inputs": [
        {
          "internalType": "uint256",
          "name": "tokenId",
          "type": "uint256"
        },
        {
          "internalType": "bytes32",
          "name": "fieldName",
          "type": "bytes32"
        }
      ],
      "name": "get",
      "outputs": [
        {
          "internalType": "bytes32",
          "name": "",
          "type": "bytes32"
        }
      ],
      "stateMutability": "view",
      "type": "function"
    },
    {
      "inputs": [
        {
          "internalType": "uint256",
          "name": "tokenId",
          "type": "uint256"
        }
      ],
      "name": "getAllFieldNames",
      "outputs": [
        {
          "internalType": "bytes32[]",
          "name": "",
          "type": "bytes32[]"
        }
      ],
      "stateMutability": "view",
      "type": "function"
    },
    {
      "inputs": [
        {
          "internalType": "uint256",
          "name": "tokenId",
          "type": "uint256"
        }
      ],
      "name": "getAllFields",
      "outputs": [
        {
          "internalType": "bytes32[]",
          "name": "",
          "type": "bytes32[]"
        },
        {
          "internalType": "bytes32[]",
          "name": "",
          "type": "bytes32[]"
        }
      ],
      "stateMutability": "view",
      "type": "function"
    },
    {
      "inputs": [
        {
          "internalType": "uint256",
          "name": "",
          "type": "uint256"
        }
      ],
      "name": "getApproved",
      "outputs": [
        {
          "internalType": "address",
          "name": "",
          "type": "address"
        }
      ],
      "stateMutability": "view",
      "type": "function"
    },
    {
      "inputs": [
        {
          "internalType": "address",
          "name": "owner_",
          "type": "address"
        }
      ],
      "name": "getOwnerTokens",
      "outputs": [
        {
          "internalType": "uint256[]",
          "name": "",
          "type": "uint256[]"
        }
      ],
      "stateMutability": "view",
      "type": "function"
    },
    {
      "inputs": [
        {
          "internalType": "uint256",
          "name": "tokenId",
          "type": "uint256"
        }
      ],
      "name": "getPortfolioWallets",
      "outputs": [
        {
          "internalType": "address[]",
          "name": "",
          "type": "address[]"
        }
      ],
      "stateMutability": "view",
      "type": "function"
    },
    {
      "inputs": [
        {
          "internalType": "uint256",
          "name": "tokenId",
          "type": "uint256"
        }
      ],
      "name": "getThemeName",
      "outputs": [
        {
          "internalType": "string",
          "name": "",
          "type": "string"
        }
      ],
      "stateMutability": "view",
      "type": "function"
    },
    {
      "inputs": [
        {
          "internalType": "address",
          "name": "",
          "type": "address"
        },
        {
          "internalType": "address",
          "name": "",
          "type": "address"
        }
      ],
      "name": "isApprovedForAll",
      "outputs": [
        {
          "internalType": "bool",
          "name": "",
          "type": "bool"
        }
      ],
      "stateMutability": "view",
      "type": "function"
    },
    {
      "inputs": [
        {
          "internalType": "address",
          "name": "_controller",
          "type": "address"
        }
      ],
      "name": "isController",
      "outputs": [
        {
          "internalType": "bool",
          "name": "",
          "type": "bool"
        }
      ],
      "stateMutability": "view",
      "type": "function"
    },
    {
      "inputs": [
        {
          "internalType": "address",
          "name": "to",
          "type": "address"
        },
        {
          "internalType": "string",
          "name": "themeName_",
          "type": "string"
        }
      ],
      "name": "mint",
      "outputs": [],
      "stateMutability": "nonpayable",
      "type": "function"
    },
    {
      "inputs": [],
      "name": "mintCounter",
      "outputs": [
        {
          "internalType": "uint256",
          "name": "",
          "type": "uint256"
        }
      ],
      "stateMutability": "view",
      "type": "function"
    },
    {
      "inputs": [],
      "name": "name",
      "outputs": [
        {
          "internalType": "string",
          "name": "",
          "type": "string"
        }
      ],
      "stateMutability": "view",
      "type": "function"
    },
    {
      "inputs": [
        {
          "internalType": "address",
          "name": "_owner",
          "type": "address"
        }
      ],
      "name": "nominateNewOwner",
      "outputs": [],
      "stateMutability": "nonpayable",
      "type": "function"
    },
    {
      "inputs": [],
      "name": "nominatedOwner",
      "outputs": [
        {
          "internalType": "address",
          "name": "",
          "type": "address"
        }
      ],
      "stateMutability": "view",
      "type": "function"
    },
    {
      "inputs": [],
      "name": "owner",
      "outputs": [
        {
          "internalType": "address",
          "name": "",
          "type": "address"
        }
      ],
      "stateMutability": "view",
      "type": "function"
    },
    {
      "inputs": [
        {
          "internalType": "uint256",
          "name": "id",
          "type": "uint256"
        }
      ],
      "name": "ownerOf",
      "outputs": [
        {
          "internalType": "address",
          "name": "owner",
          "type": "address"
        }
      ],
      "stateMutability": "view",
      "type": "function"
    },
    {
      "inputs": [
        {
          "internalType": "address",
          "name": "from",
          "type": "address"
        },
        {
          "internalType": "address",
          "name": "to",
          "type": "address"
        },
        {
          "internalType": "uint256",
          "name": "id",
          "type": "uint256"
        }
      ],
      "name": "safeTransferFrom",
      "outputs": [],
      "stateMutability": "nonpayable",
      "type": "function"
    },
    {
      "inputs": [
        {
          "internalType": "address",
          "name": "from",
          "type": "address"
        },
        {
          "internalType": "address",
          "name": "to",
          "type": "address"
        },
        {
          "internalType": "uint256",
          "name": "id",
          "type": "uint256"
        },
        {
          "internalType": "bytes",
          "name": "data",
          "type": "bytes"
        }
      ],
      "name": "safeTransferFrom",
      "outputs": [],
      "stateMutability": "nonpayable",
      "type": "function"
    },
    {
      "inputs": [
        {
          "internalType": "uint256",
          "name": "tokenId",
          "type": "uint256"
        },
        {
          "internalType": "bytes32",
          "name": "fieldName",
          "type": "bytes32"
        },
        {
          "internalType": "bytes32",
          "name": "value",
          "type": "bytes32"
        }
      ],
      "name": "set",
      "outputs": [],
      "stateMutability": "nonpayable",
      "type": "function"
    },
    {
      "inputs": [
        {
          "internalType": "address",
          "name": "operator",
          "type": "address"
        },
        {
          "internalType": "bool",
          "name": "approved",
          "type": "bool"
        }
      ],
      "name": "setApprovalForAll",
      "outputs": [],
      "stateMutability": "nonpayable",
      "type": "function"
    },
    {
      "inputs": [
        {
          "internalType": "address",
          "name": "_controller",
          "type": "address"
        },
        {
          "internalType": "bool",
          "name": "isController_",
          "type": "bool"
        }
      ],
      "name": "setIsController",
      "outputs": [],
      "stateMutability": "nonpayable",
      "type": "function"
    },
    {
      "inputs": [
        {
          "internalType": "uint256",
          "name": "tokenId",
          "type": "uint256"
        },
        {
          "internalType": "address[]",
          "name": "wallets",
          "type": "address[]"
        }
      ],
      "name": "setPortfolioWallets",
      "outputs": [],
      "stateMutability": "nonpayable",
      "type": "function"
    },
    {
      "inputs": [
        {
          "internalType": "uint256",
          "name": "tokenId",
          "type": "uint256"
        },
        {
          "internalType": "string",
          "name": "themeName_",
          "type": "string"
        }
      ],
      "name": "setThemeName",
      "outputs": [],
      "stateMutability": "nonpayable",
      "type": "function"
    },
    {
      "inputs": [
        {
          "internalType": "uint256",
          "name": "tokenId",
          "type": "uint256"
        },
        {
          "internalType": "string",
          "name": "_tURI",
          "type": "string"
        }
      ],
      "name": "setTokenURI",
      "outputs": [],
      "stateMutability": "nonpayable",
      "type": "function"
    },
    {
      "inputs": [
        {
          "internalType": "bytes4",
          "name": "interfaceId",
          "type": "bytes4"
        }
      ],
      "name": "supportsInterface",
      "outputs": [
        {
          "internalType": "bool",
          "name": "",
          "type": "bool"
        }
      ],
      "stateMutability": "view",
      "type": "function"
    },
    {
      "inputs": [],
      "name": "symbol",
      "outputs": [
        {
          "internalType": "string",
          "name": "",
          "type": "string"
        }
      ],
      "stateMutability": "view",
      "type": "function"
    },
    {
      "inputs": [
        {
          "internalType": "uint256",
          "name": "tokenId",
          "type": "uint256"
        }
      ],
      "name": "tokenURI",
      "outputs": [
        {
          "internalType": "string",
          "name": "",
          "type": "string"
        }
      ],
      "stateMutability": "view",
      "type": "function"
    },
    {
      "inputs": [
        {
          "internalType": "address",
          "name": "from",
          "type": "address"
        },
        {
          "internalType": "address",
          "name": "to",
          "type": "address"
        },
        {
          "internalType": "uint256",
          "name": "id",
          "type": "uint256"
        }
      ],
      "name": "transferFrom",
      "outputs": [],
      "stateMutability": "nonpayable",
      "type": "function"
    }
  ],
  "bytecode": "0x60806040523480156200001157600080fd5b506040516200292338038062002923833981016040819052620000349162000331565b3380733cc6cdda760b79bafa08df41ecfa224f810dceb66001868660006200005d838262000451565b5060016200006c828262000451565b5050506daaeb6d7670e522a718067333cd4e3b15620001b45780156200010257604051633e9f1edf60e11b81523060048201526001600160a01b03831660248201526daaeb6d7670e522a718067333cd4e90637d3e3dbe906044015b600060405180830381600087803b158015620000e357600080fd5b505af1158015620000f8573d6000803e3d6000fd5b50505050620001b4565b6001600160a01b03821615620001535760405163a0af290360e01b81523060048201526001600160a01b03831660248201526daaeb6d7670e522a718067333cd4e9063a0af290390604401620000c8565b604051632210724360e11b81523060048201526daaeb6d7670e522a718067333cd4e90634420e48690602401600060405180830381600087803b1580156200019a57600080fd5b505af1158015620001af573d6000803e3d6000fd5b505050505b5050600680546001600160a01b03199081166001600160a01b038581169182179093556038805460018101825560009182527f38395c5dceade9603479b177b68959049485df8aa97b39f3533039af5f456199018054909316938516939093179091556040805192835260208301919091527fb532073b38c83145e3e5135377a08bf9aab55bc0fd7c1179cd4fb995d2a5159c910160405180910390a150603a905062000262828262000451565b505050506200051d565b634e487b7160e01b600052604160045260246000fd5b600082601f8301126200029457600080fd5b81516001600160401b0380821115620002b157620002b16200026c565b604051601f8301601f19908116603f01168101908282118183101715620002dc57620002dc6200026c565b81604052838152602092508683858801011115620002f957600080fd5b600091505b838210156200031d5785820183015181830184015290820190620002fe565b600093810190920192909252949350505050565b6000806000606084860312156200034757600080fd5b83516001600160401b03808211156200035f57600080fd5b6200036d8783880162000282565b945060208601519150808211156200038457600080fd5b620003928783880162000282565b93506040860151915080821115620003a957600080fd5b50620003b88682870162000282565b9150509250925092565b600181811c90821680620003d757607f821691505b602082108103620003f857634e487b7160e01b600052602260045260246000fd5b50919050565b601f8211156200044c57600081815260208120601f850160051c81016020861015620004275750805b601f850160051c820191505b81811015620004485782815560010162000433565b5050505b505050565b81516001600160401b038111156200046d576200046d6200026c565b62000485816200047e8454620003c2565b84620003fe565b602080601f831160018114620004bd5760008415620004a45750858301515b600019600386901b1c1916600185901b17855562000448565b600085815260208120601f198616915b82811015620004ee57888601518255948401946001909101908401620004cd565b50858210156200050d5787850151600019600388901b60f8161c191681555b5050505050600190811b01905550565b6123f6806200052d6000396000f3fe608060405234801561001057600080fd5b506004361061020b5760003560e01c8063618b121b1161012a578063b88d4fde116100bd578063d4acc6b01161008c578063e320f98011610071578063e320f980146104d2578063e94b0dd2146104e5578063e985e9c5146104f857600080fd5b8063d4acc6b01461049f578063d63d4af0146104b257600080fd5b8063b88d4fde14610453578063c646273e14610466578063c87b56dd14610479578063d0def5211461048c57600080fd5b80638da5cb5b116100f95780638da5cb5b1461041257806395d89b4114610425578063a22cb4651461042d578063b429afeb1461044057600080fd5b8063618b121b146103c45780636352211e146103e457806370a08231146103f757806379ba50971461040a57600080fd5b806323b872dd116101a2578063461b09c011610171578063461b09c01461037457806346aa52ce146103875780634d3d7b5e1461039057806353a47bb7146103b157600080fd5b806323b872dd146102fc578063295f36d71461030f57806341f434341461034c57806342842e0e1461036157600080fd5b8063095ea7b3116101de578063095ea7b3146102ae57806312538b1e146102c3578063162094c4146102d65780631627540c146102e957600080fd5b806301ffc9a714610210578063039f86661461023857806306fdde0314610258578063081812fc1461026d575b600080fd5b61022361021e366004611c64565b610526565b60405190151581526020015b60405180910390f35b61024b610246366004611c88565b610537565b60405161022f9190611cdc565b610260610599565b60405161022f9190611cef565b61029661027b366004611c88565b6004602052600090815260409020546001600160a01b031681565b6040516001600160a01b03909116815260200161022f565b6102c16102bc366004611d54565b610627565b005b6102c16102d1366004611e21565b610640565b6102c16102e4366004611e21565b6106c3565b6102c16102f7366004611e68565b610771565b6102c161030a366004611e83565b6107cd565b61033e61031d366004611ebf565b6000918252603b602090815260408084209284526001909201905290205490565b60405190815260200161022f565b6102966daaeb6d7670e522a718067333cd4e81565b6102c161036f366004611e83565b610b41565b6102c1610382366004611ee1565b610b66565b61033e60395481565b6103a361039e366004611c88565b610c0b565b60405161022f929190611f0d565b600754610296906001600160a01b031681565b6103d76103d2366004611c88565b610d52565b60405161022f9190611f3b565b6102966103f2366004611c88565b610dbd565b61033e610405366004611e68565b610e27565b6102c1610e9b565b600654610296906001600160a01b031681565b610260610f6c565b6102c161043b366004611f96565b610f79565b61022361044e366004611e68565b610f8d565b6102c1610461366004611fcd565b610fa1565b6102c1610474366004611f96565b610fd0565b610260610487366004611c88565b611172565b6102c161049a366004612068565b611267565b6102c16104ad3660046120a0565b611307565b6104c56104c0366004611e68565b611386565b60405161022f919061211f565b6102606104e0366004611c88565b6113f0565b6102966104f3366004611c88565b61140d565b610223610506366004612157565b600560209081526000928352604080842090915290825290205460ff1681565b600061053182611437565b92915050565b6000818152603c602090815260409182902080548351818402810184019094528084526060939283018282801561058d57602002820191906000526020600020905b815481526020019060010190808311610579575b50505050509050919050565b600080546105a69061218a565b80601f01602080910402602001604051908101604052809291908181526020018280546105d29061218a565b801561061f5780601f106105f45761010080835404028352916020019161061f565b820191906000526020600020905b81548152906001019060200180831161060257829003601f168201915b505050505081565b81610631816114d0565b61063b83836115be565b505050565b61064933610f8d565b8061066a57506000828152600260205260409020546001600160a01b031633145b6106ab5760405162461bcd60e51b815260206004820152600d60248201526c2737902832b936b4b9b9b4b7b760991b60448201526064015b60405180910390fd5b6000828152603e6020526040902061063b828261220a565b60006106ce336116af565b509050806106f6576040516205d51f60e61b81523060048201523360248201526044016106a2565b603954158061070757506039548311155b61075f5760405162461bcd60e51b815260206004820152602360248201527f63616e2774207365742055524920666f72206e6f6e6578697374656e7420746f60448201526235b2b760e91b60648201526084016106a2565b603a61076b838261220a565b50505050565b610779611715565b600780546001600160a01b0319166001600160a01b0383169081179091556040519081527f906a1c6bd7e3091ea86693dd029a831c19049ce77f1dce2ce0bab1cacbabce229060200160405180910390a150565b826001600160a01b03811633146107e7576107e7336114d0565b6000828152600260205260409020546001600160a01b038581169116146108505760405162461bcd60e51b815260206004820152600a60248201527f57524f4e475f46524f4d0000000000000000000000000000000000000000000060448201526064016106a2565b6001600160a01b0383166108a65760405162461bcd60e51b815260206004820152601160248201527f494e56414c49445f524543495049454e5400000000000000000000000000000060448201526064016106a2565b6108af33610f8d565b806108c25750336001600160a01b038516145b806108f057506001600160a01b038416600090815260056020908152604080832033845290915290205460ff165b8061091157506000828152600460205260409020546001600160a01b031633145b61095d5760405162461bcd60e51b815260206004820152600e60248201527f4e4f5420415554484f52495a454400000000000000000000000000000000000060448201526064016106a2565b6001600160a01b0380851660008181526003602090815260408083208054600019019055938716808352848320805460010190558683526002825284832080546001600160a01b0319169091179055918152603d90915290812054905b81811015610ac9576001600160a01b0386166000908152603d602052604090208054829081106109ec576109ec6122ca565b90600052602060002001548403610ac1576001600160a01b0386166000908152603d60205260409020610a206001846122f6565b81548110610a3057610a306122ca565b9060005260206000200154603d6000886001600160a01b03166001600160a01b031681526020019081526020016000208281548110610a7157610a716122ca565b60009182526020808320909101929092556001600160a01b0388168152603d90915260409020805480610aa657610aa6612309565b60019003818190600052602060002001600090559055610ac9565b6001016109ba565b506001600160a01b038085166000818152603d60209081526040808320805460018101825590845282842001889055878352600490915280822080546001600160a01b03191690555186938916917fddf252ad1be2c89b69c2b068fc378daa952ba7f163c4a11628f55a4df523b3ef91a45050505050565b826001600160a01b0381163314610b5b57610b5b336114d0565b61076b848484611776565b610b6f33610f8d565b80610b9057506000838152600260205260409020546001600160a01b031633145b610bcc5760405162461bcd60e51b815260206004820152600d60248201526c2737902832b936b4b9b9b4b7b760991b60448201526064016106a2565b6000838152603b602090815260408083208584526001908101835281842094909455948252603c81529381208054928301815581529290922090910155565b6000818152603c60205260408120546060918291908167ffffffffffffffff811115610c3957610c39611d7e565b604051908082528060200260200182016040528015610c62578160200160208202803683370190505b50905060005b82811015610ce0576000868152603b60209081526040808320603c909252822080546001909201929184908110610ca157610ca16122ca565b9060005260206000200154815260200190815260200160002054828281518110610ccd57610ccd6122ca565b6020908102919091010152600101610c68565b50603c60008681526020019081526020016000208181805480602002602001604051908101604052809291908181526020018280548015610d4057602002820191906000526020600020905b815481526020019060010190808311610d2c575b50505050509150935093505050915091565b6000818152603b602090815260409182902080548351818402810184019094528084526060939283018282801561058d57602002820191906000526020600020905b81546001600160a01b03168152600190910190602001808311610d945750505050509050919050565b6000818152600260205260409020546001600160a01b031680610e225760405162461bcd60e51b815260206004820152600a60248201527f4e4f545f4d494e5445440000000000000000000000000000000000000000000060448201526064016106a2565b919050565b60006001600160a01b038216610e7f5760405162461bcd60e51b815260206004820152600c60248201527f5a45524f5f41444452455353000000000000000000000000000000000000000060448201526064016106a2565b506001600160a01b031660009081526003602052604090205490565b6007546001600160a01b03163314610efa576007546040517f96cf9ed80000000000000000000000000000000000000000000000000000000081523060048201523360248201526001600160a01b0390911660448201526064016106a2565b600654600754604080516001600160a01b0393841681529290911660208301527fb532073b38c83145e3e5135377a08bf9aab55bc0fd7c1179cd4fb995d2a5159c910160405180910390a160078054600680546001600160a01b03199081166001600160a01b03841617909155169055565b600180546105a69061218a565b81610f83816114d0565b61063b8383611869565b600080610f99836116af565b509392505050565b846001600160a01b0381163314610fbb57610fbb336114d0565b610fc886868686866118d5565b505050505050565b610fd8611715565b600080610fe4846116af565b9150915082151582151503611025576040517fca231c2300000000000000000000000000000000000000000000000000000000815260040160405180910390fd5b821561107b57603880546001810182556000919091527f38395c5dceade9603479b177b68959049485df8aa97b39f3533039af5f4561990180546001600160a01b0319166001600160a01b038616179055611129565b6038805461108b906001906122f6565b8154811061109b5761109b6122ca565b600091825260209091200154603880546001600160a01b0390921691839081106110c7576110c76122ca565b9060005260206000200160006101000a8154816001600160a01b0302191690836001600160a01b03160217905550603880548061110657611106612309565b600082815260209020810160001990810180546001600160a01b03191690550190555b604080516001600160a01b038616815284151560208201527f9c1e55b2ea976b1ce106746d9325847e838c89adca542764df43b80cadb59b04910160405180910390a150505050565b60606039546000148061118757506039548211155b6111df5760405162461bcd60e51b815260206004820152602360248201527f63616e2774206765742055524920666f72206e6f6e6578697374656e7420746f60448201526235b2b760e91b60648201526084016106a2565b603a80546111ec9061218a565b80601f01602080910402602001604051908101604052809291908181526020018280546112189061218a565b801561058d5780601f1061123a5761010080835404028352916020019161058d565b820191906000526020600020905b8154815290600101906020018083116112485750939695505050505050565b6000611272336116af565b5090508061129a576040516205d51f60e61b81523060048201523360248201526044016106a2565b6001603960008282546112ad919061231f565b90915550506001600160a01b0383166000908152603d6020908152604080832060398054825460018101845592865284862090920191909155548352603e90915290206112fa838261220a565b5061063b836039546119bd565b61131033610f8d565b8061133157506000838152600260205260409020546001600160a01b031633145b61136d5760405162461bcd60e51b815260206004820152600d60248201526c2737902832b936b4b9b9b4b7b760991b60448201526064016106a2565b6000838152603b6020526040902061076b908383611bd6565b6001600160a01b0381166000908152603d602090815260409182902080548351818402810184019094528084526060939283018282801561058d57602002820191906000526020600020908154815260200190600101908083116105795750505050509050919050565b6000818152603e602052604090208054606091906111ec9061218a565b6038818154811061141d57600080fd5b6000918252602090912001546001600160a01b0316905081565b60007f01ffc9a7000000000000000000000000000000000000000000000000000000006001600160e01b03198316148061149a57507f80ac58cd000000000000000000000000000000000000000000000000000000006001600160e01b03198316145b806105315750506001600160e01b0319167f5b5e139f000000000000000000000000000000000000000000000000000000001490565b6daaeb6d7670e522a718067333cd4e3b156115bb576040517fc61711340000000000000000000000000000000000000000000000000000000081523060048201526001600160a01b03821660248201526daaeb6d7670e522a718067333cd4e9063c617113490604401602060405180830381865afa158015611556573d6000803e3d6000fd5b505050506040513d601f19601f8201168201806040525081019061157a9190612332565b6115bb576040517fede71dcc0000000000000000000000000000000000000000000000000000000081526001600160a01b03821660048201526024016106a2565b50565b6000818152600260205260409020546001600160a01b03163381148061160757506001600160a01b038116600090815260056020908152604080832033845290915290205460ff165b6116535760405162461bcd60e51b815260206004820152600e60248201527f4e4f545f415554484f52495a454400000000000000000000000000000000000060448201526064016106a2565b60008281526004602052604080822080546001600160a01b0319166001600160a01b0387811691821790925591518593918516917f8c5be1e5ebec7d5bd14f71427d1e84f3dd0314c0f7b2291e5b200ac8c7c3b92591a4505050565b60008060005b60385481101561170957836001600160a01b0316603882815481106116dc576116dc6122ca565b6000918252602090912001546001600160a01b03160361170157600194909350915050565b6001016116b5565b50600093849350915050565b6006546001600160a01b03163314611774576006546040517f1abc2f980000000000000000000000000000000000000000000000000000000081523060048201523360248201526001600160a01b0390911660448201526064016106a2565b565b6117818383836107cd565b6001600160a01b0382163b158061182a5750604051630a85bd0160e11b8082523360048301526001600160a01b03858116602484015260448301849052608060648401526000608484015290919084169063150b7a029060a4016020604051808303816000875af11580156117fa573d6000803e3d6000fd5b505050506040513d601f19601f8201168201806040525081019061181e919061234f565b6001600160e01b031916145b61063b5760405162461bcd60e51b815260206004820152601060248201526f155394d0519157d49150d2541251539560821b60448201526064016106a2565b3360008181526005602090815260408083206001600160a01b03871680855290835292819020805460ff191686151590811790915590519081529192917f17307eab39ab6107e8899845ad3d59bd9653f200f220920489ca2b5937696c31910160405180910390a35050565b6118e08585856107cd565b6001600160a01b0384163b15806119775750604051630a85bd0160e11b808252906001600160a01b0386169063150b7a02906119289033908a9089908990899060040161236c565b6020604051808303816000875af1158015611947573d6000803e3d6000fd5b505050506040513d601f19601f8201168201806040525081019061196b919061234f565b6001600160e01b031916145b6119b65760405162461bcd60e51b815260206004820152601060248201526f155394d0519157d49150d2541251539560821b60448201526064016106a2565b5050505050565b6119c78282611ab0565b6001600160a01b0382163b1580611a6d5750604051630a85bd0160e11b80825233600483015260006024830181905260448301849052608060648401526084830152906001600160a01b0384169063150b7a029060a4016020604051808303816000875af1158015611a3d573d6000803e3d6000fd5b505050506040513d601f19601f82011682018060405250810190611a61919061234f565b6001600160e01b031916145b611aac5760405162461bcd60e51b815260206004820152601060248201526f155394d0519157d49150d2541251539560821b60448201526064016106a2565b5050565b6001600160a01b038216611b065760405162461bcd60e51b815260206004820152601160248201527f494e56414c49445f524543495049454e5400000000000000000000000000000060448201526064016106a2565b6000818152600260205260409020546001600160a01b031615611b6b5760405162461bcd60e51b815260206004820152600e60248201527f414c52454144595f4d494e54454400000000000000000000000000000000000060448201526064016106a2565b6001600160a01b038216600081815260036020908152604080832080546001019055848352600290915280822080546001600160a01b0319168417905551839291907fddf252ad1be2c89b69c2b068fc378daa952ba7f163c4a11628f55a4df523b3ef908290a45050565b828054828255906000526020600020908101928215611c29579160200282015b82811115611c295781546001600160a01b0319166001600160a01b03843516178255602090920191600190910190611bf6565b50611c35929150611c39565b5090565b5b80821115611c355760008155600101611c3a565b6001600160e01b0319811681146115bb57600080fd5b600060208284031215611c7657600080fd5b8135611c8181611c4e565b9392505050565b600060208284031215611c9a57600080fd5b5035919050565b600081518084526020808501945080840160005b83811015611cd157815187529582019590820190600101611cb5565b509495945050505050565b602081526000611c816020830184611ca1565b600060208083528351808285015260005b81811015611d1c57858101830151858201604001528201611d00565b506000604082860101526040601f19601f8301168501019250505092915050565b80356001600160a01b0381168114610e2257600080fd5b60008060408385031215611d6757600080fd5b611d7083611d3d565b946020939093013593505050565b634e487b7160e01b600052604160045260246000fd5b600082601f830112611da557600080fd5b813567ffffffffffffffff80821115611dc057611dc0611d7e565b604051601f8301601f19908116603f01168101908282118183101715611de857611de8611d7e565b81604052838152866020858801011115611e0157600080fd5b836020870160208301376000602085830101528094505050505092915050565b60008060408385031215611e3457600080fd5b82359150602083013567ffffffffffffffff811115611e5257600080fd5b611e5e85828601611d94565b9150509250929050565b600060208284031215611e7a57600080fd5b611c8182611d3d565b600080600060608486031215611e9857600080fd5b611ea184611d3d565b9250611eaf60208501611d3d565b9150604084013590509250925092565b60008060408385031215611ed257600080fd5b50508035926020909101359150565b600080600060608486031215611ef657600080fd5b505081359360208301359350604090920135919050565b604081526000611f206040830185611ca1565b8281036020840152611f328185611ca1565b95945050505050565b6020808252825182820181905260009190848201906040850190845b81811015611f7c5783516001600160a01b031683529284019291840191600101611f57565b50909695505050505050565b80151581146115bb57600080fd5b60008060408385031215611fa957600080fd5b611fb283611d3d565b91506020830135611fc281611f88565b809150509250929050565b600080600080600060808688031215611fe557600080fd5b611fee86611d3d565b9450611ffc60208701611d3d565b935060408601359250606086013567ffffffffffffffff8082111561202057600080fd5b818801915088601f83011261203457600080fd5b81358181111561204357600080fd5b89602082850101111561205557600080fd5b9699959850939650602001949392505050565b6000806040838503121561207b57600080fd5b61208483611d3d565b9150602083013567ffffffffffffffff811115611e5257600080fd5b6000806000604084860312156120b557600080fd5b83359250602084013567ffffffffffffffff808211156120d457600080fd5b818601915086601f8301126120e857600080fd5b8135818111156120f757600080fd5b8760208260051b850101111561210c57600080fd5b6020830194508093505050509250925092565b6020808252825182820181905260009190848201906040850190845b81811015611f7c5783518352928401929184019160010161213b565b6000806040838503121561216a57600080fd5b61217383611d3d565b915061218160208401611d3d565b90509250929050565b600181811c9082168061219e57607f821691505b6020821081036121be57634e487b7160e01b600052602260045260246000fd5b50919050565b601f82111561063b57600081815260208120601f850160051c810160208610156121eb5750805b601f850160051c820191505b81811015610fc8578281556001016121f7565b815167ffffffffffffffff81111561222457612224611d7e565b61223881612232845461218a565b846121c4565b602080601f83116001811461226d57600084156122555750858301515b600019600386901b1c1916600185901b178555610fc8565b600085815260208120601f198616915b8281101561229c5788860151825594840194600190910190840161227d565b50858210156122ba5787850151600019600388901b60f8161c191681555b5050505050600190811b01905550565b634e487b7160e01b600052603260045260246000fd5b634e487b7160e01b600052601160045260246000fd5b81810381811115610531576105316122e0565b634e487b7160e01b600052603160045260246000fd5b80820180821115610531576105316122e0565b60006020828403121561234457600080fd5b8151611c8181611f88565b60006020828403121561236157600080fd5b8151611c8181611c4e565b60006001600160a01b03808816835280871660208401525084604083015260806060830152826080830152828460a0840137600060a0848401015260a0601f19601f8501168301019050969550505050505056fea26469706673582212207ae01a5509ec2af9bda513617175a2765c5cfcc19ca78f57ee9619db7feafed864736f6c63430008140033",
  "linkReferences": {},
  "deployedLinkReferences": {}
}