{
  "_format": "hh-sol-artifact-1",
  "contractName": "TestERC20SetDecimals",
  "sourceName": "contracts/test-helpers/TestERC20SetDecimals.sol",
  "abi": [
    {
      "inputs": [
        {
          "internalType": "string",
          "name": "name_",
          "type": "string"
        },
        {
          "internalType": "string",
          "name": "symbol_",
          "type": "string"
        },
        {
          "internalType": "uint8",
          "name": "decimals_",
          "type": "uint8"
        }
      ],
      "stateMutability": "nonpayable",
      "type": "constructor"
    },
    {
      "inputs": [
        {
          "internalType": "address",
          "name": "spender",
          "type": "address"
        },
        {
          "internalType": "uint256",
          "name": "allowance",
          "type": "uint256"
        },
        {
          "internalType": "uint256",
          "name": "needed",
          "type": "uint256"
        }
      ],
      "name": "ERC20InsufficientAllowance",
      "type": "error"
    },
    {
      "inputs": [
        {
          "internalType": "address",
          "name": "sender",
          "type": "address"
        },
        {
          "internalType": "uint256",
          "name": "balance",
          "type": "uint256"
        },
        {
          "internalType": "uint256",
          "name": "needed",
          "type": "uint256"
        }
      ],
      "name": "ERC20InsufficientBalance",
      "type": "error"
    },
    {
      "inputs": [
        {
          "internalType": "address",
          "name": "approver",
          "type": "address"
        }
      ],
      "name": "ERC20InvalidApprover",
      "type": "error"
    },
    {
      "inputs": [
        {
          "internalType": "address",
          "name": "receiver",
          "type": "address"
        }
      ],
      "name": "ERC20InvalidReceiver",
      "type": "error"
    },
    {
      "inputs": [
        {
          "internalType": "address",
          "name": "sender",
          "type": "address"
        }
      ],
      "name": "ERC20InvalidSender",
      "type": "error"
    },
    {
      "inputs": [
        {
          "internalType": "address",
          "name": "spender",
          "type": "address"
        }
      ],
      "name": "ERC20InvalidSpender",
      "type": "error"
    },
    {
      "anonymous": false,
      "inputs": [
        {
          "indexed": true,
          "internalType": "address",
          "name": "owner",
          "type": "address"
        },
        {
          "indexed": true,
          "internalType": "address",
          "name": "spender",
          "type": "address"
        },
        {
          "indexed": false,
          "internalType": "uint256",
          "name": "value",
          "type": "uint256"
        }
      ],
      "name": "Approval",
      "type": "event"
    },
    {
      "anonymous": false,
      "inputs": [
        {
          "indexed": true,
          "internalType": "address",
          "name": "dst",
          "type": "address"
        },
        {
          "indexed": false,
          "internalType": "uint256",
          "name": "wad",
          "type": "uint256"
        }
      ],
      "name": "Deposit",
      "type": "event"
    },
    {
      "anonymous": false,
      "inputs": [
        {
          "indexed": true,
          "internalType": "address",
          "name": "from",
          "type": "address"
        },
        {
          "indexed": true,
          "internalType": "address",
          "name": "to",
          "type": "address"
        },
        {
          "indexed": false,
          "internalType": "uint256",
          "name": "value",
          "type": "uint256"
        }
      ],
      "name": "Transfer",
      "type": "event"
    },
    {
      "anonymous": false,
      "inputs": [
        {
          "indexed": true,
          "internalType": "address",
          "name": "src",
          "type": "address"
        },
        {
          "indexed": false,
          "internalType": "uint256",
          "name": "wad",
          "type": "uint256"
        }
      ],
      "name": "Withdrawal",
      "type": "event"
    },
    {
      "inputs": [
        {
          "internalType": "address",
          "name": "owner",
          "type": "address"
        },
        {
          "internalType": "address",
          "name": "spender",
          "type": "address"
        }
      ],
      "name": "allowance",
      "outputs": [
        {
          "internalType": "uint256",
          "name": "",
          "type": "uint256"
        }
      ],
      "stateMutability": "view",
      "type": "function"
    },
    {
      "inputs": [
        {
          "internalType": "address",
          "name": "spender",
          "type": "address"
        },
        {
          "internalType": "uint256",
          "name": "value",
          "type": "uint256"
        }
      ],
      "name": "approve",
      "outputs": [
        {
          "internalType": "bool",
          "name": "",
          "type": "bool"
        }
      ],
      "stateMutability": "nonpayable",
      "type": "function"
    },
    {
      "inputs": [
        {
          "internalType": "address",
          "name": "account",
          "type": "address"
        }
      ],
      "name": "balanceOf",
      "outputs": [
        {
          "internalType": "uint256",
          "name": "",
          "type": "uint256"
        }
      ],
      "stateMutability": "view",
      "type": "function"
    },
    {
      "inputs": [
        {
          "internalType": "address",
          "name": "account",
          "type": "address"
        },
        {
          "internalType": "uint256",
          "name": "amount",
          "type": "uint256"
        }
      ],
      "name": "burn",
      "outputs": [],
      "stateMutability": "nonpayable",
      "type": "function"
    },
    {
      "inputs": [],
      "name": "decimals",
      "outputs": [
        {
          "internalType": "uint8",
          "name": "",
          "type": "uint8"
        }
      ],
      "stateMutability": "view",
      "type": "function"
    },
    {
      "inputs": [],
      "name": "deposit",
      "outputs": [],
      "stateMutability": "payable",
      "type": "function"
    },
    {
      "inputs": [
        {
          "internalType": "address",
          "name": "account",
          "type": "address"
        },
        {
          "internalType": "uint256",
          "name": "amount",
          "type": "uint256"
        }
      ],
      "name": "mint",
      "outputs": [],
      "stateMutability": "nonpayable",
      "type": "function"
    },
    {
      "inputs": [],
      "name": "name",
      "outputs": [
        {
          "internalType": "string",
          "name": "",
          "type": "string"
        }
      ],
      "stateMutability": "view",
      "type": "function"
    },
    {
      "inputs": [
        {
          "internalType": "address",
          "name": "user",
          "type": "address"
        },
        {
          "internalType": "bool",
          "name": "permit",
          "type": "bool"
        }
      ],
      "name": "permitMint",
      "outputs": [],
      "stateMutability": "nonpayable",
      "type": "function"
    },
    {
      "inputs": [
        {
          "internalType": "address",
          "name": "",
          "type": "address"
        }
      ],
      "name": "permitted",
      "outputs": [
        {
          "internalType": "bool",
          "name": "",
          "type": "bool"
        }
      ],
      "stateMutability": "view",
      "type": "function"
    },
    {
      "inputs": [
        {
          "internalType": "uint8",
          "name": "newDecimals",
          "type": "uint8"
        }
      ],
      "name": "setDecimals",
      "outputs": [],
      "stateMutability": "nonpayable",
      "type": "function"
    },
    {
      "inputs": [],
      "name": "symbol",
      "outputs": [
        {
          "internalType": "string",
          "name": "",
          "type": "string"
        }
      ],
      "stateMutability": "view",
      "type": "function"
    },
    {
      "inputs": [],
      "name": "totalSupply",
      "outputs": [
        {
          "internalType": "uint256",
          "name": "",
          "type": "uint256"
        }
      ],
      "stateMutability": "view",
      "type": "function"
    },
    {
      "inputs": [
        {
          "internalType": "address",
          "name": "to",
          "type": "address"
        },
        {
          "internalType": "uint256",
          "name": "value",
          "type": "uint256"
        }
      ],
      "name": "transfer",
      "outputs": [
        {
          "internalType": "bool",
          "name": "",
          "type": "bool"
        }
      ],
      "stateMutability": "nonpayable",
      "type": "function"
    },
    {
      "inputs": [
        {
          "internalType": "address",
          "name": "from",
          "type": "address"
        },
        {
          "internalType": "address",
          "name": "to",
          "type": "address"
        },
        {
          "internalType": "uint256",
          "name": "value",
          "type": "uint256"
        }
      ],
      "name": "transferFrom",
      "outputs": [
        {
          "internalType": "bool",
          "name": "",
          "type": "bool"
        }
      ],
      "stateMutability": "nonpayable",
      "type": "function"
    },
    {
      "inputs": [
        {
          "internalType": "uint256",
          "name": "amount",
          "type": "uint256"
        }
      ],
      "name": "withdraw",
      "outputs": [],
      "stateMutability": "nonpayable",
      "type": "function"
    }
  ],
  "bytecode": "0x6080604052346200034a5762000de1803803806200001d816200034f565b92833981016060828203126200034a5781516001600160401b03908181116200034a57826200004e91850162000375565b91602090818501518381116200034a576040916200006e91870162000375565b9401519360ff85168095036200034a578351928084116200024a5760038054946001968787811c971680156200033f575b8688101462000329578190601f97888111620002d3575b5086908883116001146200026c5760009262000260575b505060001982841b1c191690871b1781555b82519182116200024a5760049283548781811c911680156200023f575b868210146200022a57868111620001df575b50849583116001146200017457600595600092918462000168575b505082871b92600019911b1c19161790555b3360005252604060002060ff19918282541617905560065416176006556040516109f99081620003e88239f35b01519150388062000129565b869291601f1983169685600052866000209260005b898110620001c757508460059910620001ac575b50505050811b0190556200013b565b01519060f884600019921b161c19169055388080806200019d565b8183015185558a969094019391880191880162000189565b84600052856000208780860160051c82019288871062000220575b0160051c019088905b828110620002135750506200010e565b6000815501889062000203565b92508192620001fa565b602285634e487b7160e01b6000525260246000fd5b90607f1690620000fc565b634e487b7160e01b600052604160045260246000fd5b015190503880620000cd565b90899350601f1983169185600052886000209260005b8a828210620002bc5750508411620002a3575b505050811b018155620000df565b015160001983861b60f8161c1916905538808062000295565b8385015186558d9790950194938401930162000282565b90915083600052866000208880850160051c8201928986106200031f575b918b91869594930160051c01915b8281106200030f575050620000b6565b600081558594508b9101620002ff565b92508192620002f1565b634e487b7160e01b600052602260045260246000fd5b96607f16966200009f565b600080fd5b6040519190601f01601f191682016001600160401b038111838210176200024a57604052565b919080601f840112156200034a5782516001600160401b0381116200024a57602090620003ab601f8201601f191683016200034f565b928184528282870101116200034a5760005b818110620003d357508260009394955001015290565b8581018301518482018401528201620003bd56fe608060408181526004918236101561001657600080fd5b600092833560e01c91826306fdde031461066557508163095ea7b3146105bb57816318160ddd1461059c57816323b872dd146104b25781632e1a7d4d1461041a578163313ce567146103f857816340c10f19146103cc5781636cc301e31461038e57816370a08231146103575781637a1395aa1461030e57816395d89b411461020d575080639dc29fac146101d0578063a9059cbb146101a0578063c465a5d51461013c578063d0e30db0146101205763dd62ed3e146100d557600080fd5b3461011c578060031936011261011c57806020926100f1610768565b6100f9610783565b6001600160a01b0391821683526001865283832091168252845220549051908152f35b5080fd5b828060031936011261013957610136343361086e565b80f35b80fd5b503461011c578060031936011261011c57610155610768565b906024359182151580930361019c57338452600560205261017b60ff838620541661094b565b60018060a01b03168352600560205282209060ff8019835416911617905580f35b8380fd5b503461011c578060031936011261011c576020906101c96101bf610768565b6024359033610799565b5160018152f35b503461011c578060031936011261011c576101369061020460ff6101f2610768565b9233865260056020528520541661094b565b602435906108d3565b83833461011c578160031936011261011c57805190828454600181811c90808316928315610304575b60209384841081146102f1578388529081156102d5575060011461029d575b505050829003601f01601f19168201926001600160401b0384118385101761028a575082918261028692528261071f565b0390f35b634e487b7160e01b815260418552602490fd5b919250868652828620918387935b8385106102c15750505050830101858080610255565b8054888601830152930192849082016102ab565b60ff1916878501525050151560051b8401019050858080610255565b634e487b7160e01b895260228a52602489fd5b91607f1691610236565b90503461035357602036600319011261035357359060ff82168092036103535760ff6103459133855260056020528420541661094b565b60ff19600654161760065580f35b8280fd5b50503461011c57602036600319011261011c5760209181906001600160a01b0361037f610768565b16815280845220549051908152f35b50503461011c57602036600319011261011c5760209160ff9082906001600160a01b036103b9610768565b1681526005855220541690519015158152f35b50503461011c578060031936011261011c57610136906103ef60ff6101f2610768565b6024359061086e565b50503461011c578160031936011261011c5760209060ff600654169051908152f35b90503461035357602036600319011261035357803590338452836020528183852054106104785750828080836104518295336108d3565b81811561046f575b3390f115610465575080f35b51903d90823e3d90fd5b506108fc610459565b606490602084519162461bcd60e51b83528201526014602482015273496e73756666696369656e742062616c616e636560601b6044820152fd5b90508234610139576060366003190112610139576104ce610768565b6104d6610783565b916044359360018060a01b038316808352600160205286832033845260205286832054916000198303610512575b6020886101c9898989610799565b86831061057a57811561056357331561054c575082526001602090815286832033845281529186902090859003905582906101c987610504565b8751634a1406b160e11b8152908101849052602490fd5b875163e602df0560e01b8152908101849052602490fd5b9050610598868851938493637dc7a0d960e11b855233908501610850565b0390fd5b50503461011c578160031936011261011c576020906002549051908152f35b9050346103535781600319360112610353576105d5610768565b60243590331561064e576001600160a01b031691821561063757508083602095338152600187528181208582528752205582519081527f8c5be1e5ebec7d5bd14f71427d1e84f3dd0314c0f7b2291e5b200ac8c7c3b925843392a35160018152f35b8351634a1406b160e11b8152908101859052602490fd5b835163e602df0560e01b8152808401869052602490fd5b8490843461035357826003193601126103535782600354600181811c90808316928315610715575b60209384841081146102f1578388529081156102d557506001146106dc57505050829003601f01601f19168201926001600160401b0384118385101761028a575082918261028692528261071f565b91925060038652828620918387935b8385106107015750505050830101858080610255565b8054888601830152930192849082016106eb565b91607f169161068d565b6020808252825181830181905290939260005b82811061075457505060409293506000838284010152601f8019910116010190565b818101860151848201604001528501610732565b600435906001600160a01b038216820361077e57565b600080fd5b602435906001600160a01b038216820361077e57565b916001600160a01b03808416928315610837571692831561081e5760009083825281602052604082205490838210610801575091604082826000805160206109a4833981519152958760209652828652038282205586815220818154019055604051908152a3565b6105988460405193849363391434e360e21b855260048501610850565b60405163ec442f0560e01b815260006004820152602490fd5b604051634b637e8f60e11b815260006004820152602490fd5b604091949392606082019560018060a01b0316825260208201520152565b6001600160a01b031690811561081e57600254908082018092116108bd5760206000805160206109a48339815191529160009360025584845283825260408420818154019055604051908152a3565b634e487b7160e01b600052601160045260246000fd5b906001600160a01b038216908115610837576000928284528360205260408420549082821061092e5750816000805160206109a4833981519152926020928587528684520360408620558060025403600255604051908152a3565b6105988360405193849363391434e360e21b855260048501610850565b1561095257565b60405162461bcd60e51b8152602060048201526024808201527f546573744552433230536574446563696d616c733a206f6e6c79207065726d696044820152631d1d195960e21b6064820152608490fdfeddf252ad1be2c89b69c2b068fc378daa952ba7f163c4a11628f55a4df523b3efa26469706673582212202dc7d05b8328db3bb90b641e821e004cc1d34b106b2899188b9ce8adf357cab664736f6c63430008140033",
  "linkReferences": {},
  "deployedLinkReferences": {}
}