{
  "_format": "hh-sol-artifact-1",
  "contractName": "StrandsDev",
  "sourceName": "contracts/nft/StrandsDev.sol",
  "abi": [
    {
      "inputs": [
        {
          "internalType": "string",
          "name": "_name",
          "type": "string"
        },
        {
          "internalType": "string",
          "name": "_symbol",
          "type": "string"
        },
        {
          "internalType": "string",
          "name": "_tURI",
          "type": "string"
        }
      ],
      "stateMutability": "nonpayable",
      "type": "constructor"
    },
    {
      "inputs": [],
      "name": "ControllerAlreadySet",
      "type": "error"
    },
    {
      "inputs": [
        {
          "internalType": "address",
          "name": "thrower",
          "type": "address"
        },
        {
          "internalType": "address",
          "name": "caller",
          "type": "address"
        }
      ],
      "name": "OnlyController",
      "type": "error"
    },
    {
      "inputs": [
        {
          "internalType": "address",
          "name": "thrower",
          "type": "address"
        },
        {
          "internalType": "address",
          "name": "caller",
          "type": "address"
        },
        {
          "internalType": "address",
          "name": "nominatedOwner",
          "type": "address"
        }
      ],
      "name": "OnlyNominatedOwner",
      "type": "error"
    },
    {
      "inputs": [
        {
          "internalType": "address",
          "name": "thrower",
          "type": "address"
        },
        {
          "internalType": "address",
          "name": "caller",
          "type": "address"
        },
        {
          "internalType": "address",
          "name": "owner",
          "type": "address"
        }
      ],
      "name": "OnlyOwner",
      "type": "error"
    },
    {
      "inputs": [
        {
          "internalType": "address",
          "name": "operator",
          "type": "address"
        }
      ],
      "name": "OperatorNotAllowed",
      "type": "error"
    },
    {
      "anonymous": false,
      "inputs": [
        {
          "indexed": true,
          "internalType": "address",
          "name": "owner",
          "type": "address"
        },
        {
          "indexed": true,
          "internalType": "address",
          "name": "spender",
          "type": "address"
        },
        {
          "indexed": true,
          "internalType": "uint256",
          "name": "id",
          "type": "uint256"
        }
      ],
      "name": "Approval",
      "type": "event"
    },
    {
      "anonymous": false,
      "inputs": [
        {
          "indexed": true,
          "internalType": "address",
          "name": "owner",
          "type": "address"
        },
        {
          "indexed": true,
          "internalType": "address",
          "name": "operator",
          "type": "address"
        },
        {
          "indexed": false,
          "internalType": "bool",
          "name": "approved",
          "type": "bool"
        }
      ],
      "name": "ApprovalForAll",
      "type": "event"
    },
    {
      "anonymous": false,
      "inputs": [
        {
          "indexed": false,
          "internalType": "address",
          "name": "controller",
          "type": "address"
        },
        {
          "indexed": false,
          "internalType": "bool",
          "name": "isController",
          "type": "bool"
        }
      ],
      "name": "ControllerSet",
      "type": "event"
    },
    {
      "anonymous": false,
      "inputs": [
        {
          "indexed": false,
          "internalType": "address",
          "name": "oldOwner",
          "type": "address"
        },
        {
          "indexed": false,
          "internalType": "address",
          "name": "newOwner",
          "type": "address"
        }
      ],
      "name": "OwnerChanged",
      "type": "event"
    },
    {
      "anonymous": false,
      "inputs": [
        {
          "indexed": false,
          "internalType": "address",
          "name": "newOwner",
          "type": "address"
        }
      ],
      "name": "OwnerNominated",
      "type": "event"
    },
    {
      "anonymous": false,
      "inputs": [
        {
          "indexed": true,
          "internalType": "address",
          "name": "from",
          "type": "address"
        },
        {
          "indexed": true,
          "internalType": "address",
          "name": "to",
          "type": "address"
        },
        {
          "indexed": true,
          "internalType": "uint256",
          "name": "id",
          "type": "uint256"
        }
      ],
      "name": "Transfer",
      "type": "event"
    },
    {
      "inputs": [],
      "name": "OPERATOR_FILTER_REGISTRY",
      "outputs": [
        {
          "internalType": "contract IOperatorFilterRegistry",
          "name": "",
          "type": "address"
        }
      ],
      "stateMutability": "view",
      "type": "function"
    },
    {
      "inputs": [],
      "name": "acceptOwnership",
      "outputs": [],
      "stateMutability": "nonpayable",
      "type": "function"
    },
    {
      "inputs": [
        {
          "internalType": "address",
          "name": "operator",
          "type": "address"
        },
        {
          "internalType": "uint256",
          "name": "tokenId",
          "type": "uint256"
        }
      ],
      "name": "approve",
      "outputs": [],
      "stateMutability": "nonpayable",
      "type": "function"
    },
    {
      "inputs": [
        {
          "internalType": "address",
          "name": "owner",
          "type": "address"
        }
      ],
      "name": "balanceOf",
      "outputs": [
        {
          "internalType": "uint256",
          "name": "",
          "type": "uint256"
        }
      ],
      "stateMutability": "view",
      "type": "function"
    },
    {
      "inputs": [
        {
          "internalType": "uint256",
          "name": "",
          "type": "uint256"
        }
      ],
      "name": "controllers",
      "outputs": [
        {
          "internalType": "address",
          "name": "",
          "type": "address"
        }
      ],
      "stateMutability": "view",
      "type": "function"
    },
    {
      "inputs": [
        {
          "internalType": "uint256",
          "name": "",
          "type": "uint256"
        }
      ],
      "name": "getApproved",
      "outputs": [
        {
          "internalType": "address",
          "name": "",
          "type": "address"
        }
      ],
      "stateMutability": "view",
      "type": "function"
    },
    {
      "inputs": [
        {
          "internalType": "address",
          "name": "",
          "type": "address"
        },
        {
          "internalType": "address",
          "name": "",
          "type": "address"
        }
      ],
      "name": "isApprovedForAll",
      "outputs": [
        {
          "internalType": "bool",
          "name": "",
          "type": "bool"
        }
      ],
      "stateMutability": "view",
      "type": "function"
    },
    {
      "inputs": [
        {
          "internalType": "address",
          "name": "_controller",
          "type": "address"
        }
      ],
      "name": "isController",
      "outputs": [
        {
          "internalType": "bool",
          "name": "",
          "type": "bool"
        }
      ],
      "stateMutability": "view",
      "type": "function"
    },
    {
      "inputs": [
        {
          "internalType": "address",
          "name": "to",
          "type": "address"
        }
      ],
      "name": "mint",
      "outputs": [],
      "stateMutability": "nonpayable",
      "type": "function"
    },
    {
      "inputs": [],
      "name": "mintCounter",
      "outputs": [
        {
          "internalType": "uint256",
          "name": "",
          "type": "uint256"
        }
      ],
      "stateMutability": "view",
      "type": "function"
    },
    {
      "inputs": [],
      "name": "name",
      "outputs": [
        {
          "internalType": "string",
          "name": "",
          "type": "string"
        }
      ],
      "stateMutability": "view",
      "type": "function"
    },
    {
      "inputs": [
        {
          "internalType": "address",
          "name": "_owner",
          "type": "address"
        }
      ],
      "name": "nominateNewOwner",
      "outputs": [],
      "stateMutability": "nonpayable",
      "type": "function"
    },
    {
      "inputs": [],
      "name": "nominatedOwner",
      "outputs": [
        {
          "internalType": "address",
          "name": "",
          "type": "address"
        }
      ],
      "stateMutability": "view",
      "type": "function"
    },
    {
      "inputs": [],
      "name": "owner",
      "outputs": [
        {
          "internalType": "address",
          "name": "",
          "type": "address"
        }
      ],
      "stateMutability": "view",
      "type": "function"
    },
    {
      "inputs": [
        {
          "internalType": "uint256",
          "name": "id",
          "type": "uint256"
        }
      ],
      "name": "ownerOf",
      "outputs": [
        {
          "internalType": "address",
          "name": "owner",
          "type": "address"
        }
      ],
      "stateMutability": "view",
      "type": "function"
    },
    {
      "inputs": [
        {
          "internalType": "address",
          "name": "from",
          "type": "address"
        },
        {
          "internalType": "address",
          "name": "to",
          "type": "address"
        },
        {
          "internalType": "uint256",
          "name": "id",
          "type": "uint256"
        }
      ],
      "name": "safeTransferFrom",
      "outputs": [],
      "stateMutability": "nonpayable",
      "type": "function"
    },
    {
      "inputs": [
        {
          "internalType": "address",
          "name": "from",
          "type": "address"
        },
        {
          "internalType": "address",
          "name": "to",
          "type": "address"
        },
        {
          "internalType": "uint256",
          "name": "id",
          "type": "uint256"
        },
        {
          "internalType": "bytes",
          "name": "data",
          "type": "bytes"
        }
      ],
      "name": "safeTransferFrom",
      "outputs": [],
      "stateMutability": "nonpayable",
      "type": "function"
    },
    {
      "inputs": [
        {
          "internalType": "address",
          "name": "operator",
          "type": "address"
        },
        {
          "internalType": "bool",
          "name": "approved",
          "type": "bool"
        }
      ],
      "name": "setApprovalForAll",
      "outputs": [],
      "stateMutability": "nonpayable",
      "type": "function"
    },
    {
      "inputs": [
        {
          "internalType": "address",
          "name": "_controller",
          "type": "address"
        },
        {
          "internalType": "bool",
          "name": "isController_",
          "type": "bool"
        }
      ],
      "name": "setIsController",
      "outputs": [],
      "stateMutability": "nonpayable",
      "type": "function"
    },
    {
      "inputs": [
        {
          "internalType": "uint256",
          "name": "tokenId",
          "type": "uint256"
        },
        {
          "internalType": "string",
          "name": "_tURI",
          "type": "string"
        }
      ],
      "name": "setTokenURI",
      "outputs": [],
      "stateMutability": "nonpayable",
      "type": "function"
    },
    {
      "inputs": [
        {
          "internalType": "bytes4",
          "name": "interfaceId",
          "type": "bytes4"
        }
      ],
      "name": "supportsInterface",
      "outputs": [
        {
          "internalType": "bool",
          "name": "",
          "type": "bool"
        }
      ],
      "stateMutability": "view",
      "type": "function"
    },
    {
      "inputs": [],
      "name": "symbol",
      "outputs": [
        {
          "internalType": "string",
          "name": "",
          "type": "string"
        }
      ],
      "stateMutability": "view",
      "type": "function"
    },
    {
      "inputs": [
        {
          "internalType": "uint256",
          "name": "tokenId",
          "type": "uint256"
        }
      ],
      "name": "tokenURI",
      "outputs": [
        {
          "internalType": "string",
          "name": "",
          "type": "string"
        }
      ],
      "stateMutability": "view",
      "type": "function"
    },
    {
      "inputs": [
        {
          "internalType": "address",
          "name": "from",
          "type": "address"
        },
        {
          "internalType": "address",
          "name": "to",
          "type": "address"
        },
        {
          "internalType": "uint256",
          "name": "id",
          "type": "uint256"
        }
      ],
      "name": "transferFrom",
      "outputs": [],
      "stateMutability": "nonpayable",
      "type": "function"
    }
  ],
  "bytecode": "0x60806040523480156200001157600080fd5b5060405162001f4f38038062001f4f833981016040819052620000349162000331565b3380733cc6cdda760b79bafa08df41ecfa224f810dceb66001868660006200005d838262000451565b5060016200006c828262000451565b5050506daaeb6d7670e522a718067333cd4e3b15620001b45780156200010257604051633e9f1edf60e11b81523060048201526001600160a01b03831660248201526daaeb6d7670e522a718067333cd4e90637d3e3dbe906044015b600060405180830381600087803b158015620000e357600080fd5b505af1158015620000f8573d6000803e3d6000fd5b50505050620001b4565b6001600160a01b03821615620001535760405163a0af290360e01b81523060048201526001600160a01b03831660248201526daaeb6d7670e522a718067333cd4e9063a0af290390604401620000c8565b604051632210724360e11b81523060048201526daaeb6d7670e522a718067333cd4e90634420e48690602401600060405180830381600087803b1580156200019a57600080fd5b505af1158015620001af573d6000803e3d6000fd5b505050505b5050600680546001600160a01b03199081166001600160a01b038581169182179093556038805460018101825560009182527f38395c5dceade9603479b177b68959049485df8aa97b39f3533039af5f456199018054909316938516939093179091556040805192835260208301919091527fb532073b38c83145e3e5135377a08bf9aab55bc0fd7c1179cd4fb995d2a5159c910160405180910390a150603a905062000262828262000451565b505050506200051d565b634e487b7160e01b600052604160045260246000fd5b600082601f8301126200029457600080fd5b81516001600160401b0380821115620002b157620002b16200026c565b604051601f8301601f19908116603f01168101908282118183101715620002dc57620002dc6200026c565b81604052838152602092508683858801011115620002f957600080fd5b600091505b838210156200031d5785820183015181830184015290820190620002fe565b600093810190920192909252949350505050565b6000806000606084860312156200034757600080fd5b83516001600160401b03808211156200035f57600080fd5b6200036d8783880162000282565b945060208601519150808211156200038457600080fd5b620003928783880162000282565b93506040860151915080821115620003a957600080fd5b50620003b88682870162000282565b9150509250925092565b600181811c90821680620003d757607f821691505b602082108103620003f857634e487b7160e01b600052602260045260246000fd5b50919050565b601f8211156200044c57600081815260208120601f850160051c81016020861015620004275750805b601f850160051c820191505b81811015620004485782815560010162000433565b5050505b505050565b81516001600160401b038111156200046d576200046d6200026c565b62000485816200047e8454620003c2565b84620003fe565b602080601f831160018114620004bd5760008415620004a45750858301515b600019600386901b1c1916600185901b17855562000448565b600085815260208120601f198616915b82811015620004ee57888601518255948401946001909101908401620004cd565b50858210156200050d5787850151600019600388901b60f8161c191681555b5050505050600190811b01905550565b611a22806200052d6000396000f3fe608060405234801561001057600080fd5b50600436106101985760003560e01c80636a627842116100e3578063b429afeb1161008c578063c87b56dd11610066578063c87b56dd14610363578063e94b0dd214610376578063e985e9c51461038957600080fd5b8063b429afeb1461032a578063b88d4fde1461033d578063c646273e1461035057600080fd5b80638da5cb5b116100bd5780638da5cb5b146102fc57806395d89b411461030f578063a22cb4651461031757600080fd5b80636a627842146102ce57806370a08231146102e157806379ba5097146102f457600080fd5b806323b872dd1161014557806346aa52ce1161011f57806346aa52ce1461029157806353a47bb7146102a85780636352211e146102bb57600080fd5b806323b872dd1461025657806341f434341461026957806342842e0e1461027e57600080fd5b8063095ea7b311610176578063095ea7b31461021b578063162094c4146102305780631627540c1461024357600080fd5b806301ffc9a71461019d57806306fdde03146101c5578063081812fc146101da575b600080fd5b6101b06101ab3660046114af565b6103b7565b60405190151581526020015b60405180910390f35b6101cd6103c8565b6040516101bc91906114d3565b6102036101e8366004611521565b6004602052600090815260409020546001600160a01b031681565b6040516001600160a01b0390911681526020016101bc565b61022e610229366004611551565b610456565b005b61022e61023e366004611591565b61046f565b61022e61025136600461164c565b610522565b61022e610264366004611667565b61057e565b6102036daaeb6d7670e522a718067333cd4e81565b61022e61028c366004611667565b61079e565b61029a60395481565b6040519081526020016101bc565b600754610203906001600160a01b031681565b6102036102c9366004611521565b6107c3565b61022e6102dc36600461164c565b61082d565b61029a6102ef36600461164c565b61088a565b61022e6108fe565b600654610203906001600160a01b031681565b6101cd6109cf565b61022e6103253660046116b1565b6109dc565b6101b061033836600461164c565b6109f0565b61022e61034b3660046116e8565b610a04565b61022e61035e3660046116b1565b610a33565b6101cd610371366004611521565b610bd5565b610203610384366004611521565b610cd4565b6101b0610397366004611783565b600560209081526000928352604080842090915290825290205460ff1681565b60006103c282610cfe565b92915050565b600080546103d5906117b6565b80601f0160208091040260200160405190810160405280929190818152602001828054610401906117b6565b801561044e5780601f106104235761010080835404028352916020019161044e565b820191906000526020600020905b81548152906001019060200180831161043157829003601f168201915b505050505081565b8161046081610d97565b61046a8383610e85565b505050565b600061047a33610f76565b509050806104a7576040516205d51f60e61b81523060048201523360248201526044015b60405180910390fd5b60395415806104b857506039548311155b6105105760405162461bcd60e51b815260206004820152602360248201527f63616e2774207365742055524920666f72206e6f6e6578697374656e7420746f60448201526235b2b760e91b606482015260840161049e565b603a61051c8382611836565b50505050565b61052a610fdc565b600780546001600160a01b0319166001600160a01b0383169081179091556040519081527f906a1c6bd7e3091ea86693dd029a831c19049ce77f1dce2ce0bab1cacbabce229060200160405180910390a150565b826001600160a01b03811633146105985761059833610d97565b6000828152600260205260409020546001600160a01b038581169116146106015760405162461bcd60e51b815260206004820152600a60248201527f57524f4e475f46524f4d00000000000000000000000000000000000000000000604482015260640161049e565b6001600160a01b0383166106575760405162461bcd60e51b815260206004820152601160248201527f494e56414c49445f524543495049454e54000000000000000000000000000000604482015260640161049e565b610660336109f0565b806106735750336001600160a01b038516145b806106a157506001600160a01b038416600090815260056020908152604080832033845290915290205460ff165b806106c257506000828152600460205260409020546001600160a01b031633145b61070e5760405162461bcd60e51b815260206004820152600e60248201527f4e4f545f415554484f52495a4544000000000000000000000000000000000000604482015260640161049e565b6001600160a01b0380851660008181526003602090815260408083208054600019019055938716808352848320805460010190558683526002825284832080546001600160a01b03199081168317909155600490925284832080549092169091559251859392917fddf252ad1be2c89b69c2b068fc378daa952ba7f163c4a11628f55a4df523b3ef91a450505050565b826001600160a01b03811633146107b8576107b833610d97565b61051c84848461103d565b6000818152600260205260409020546001600160a01b0316806108285760405162461bcd60e51b815260206004820152600a60248201527f4e4f545f4d494e54454400000000000000000000000000000000000000000000604482015260640161049e565b919050565b600061083833610f76565b50905080610860576040516205d51f60e61b815230600482015233602482015260440161049e565b600160396000828254610873919061190c565b9250508190555061088682603954611130565b5050565b60006001600160a01b0382166108e25760405162461bcd60e51b815260206004820152600c60248201527f5a45524f5f414444524553530000000000000000000000000000000000000000604482015260640161049e565b506001600160a01b031660009081526003602052604090205490565b6007546001600160a01b0316331461095d576007546040517f96cf9ed80000000000000000000000000000000000000000000000000000000081523060048201523360248201526001600160a01b03909116604482015260640161049e565b600654600754604080516001600160a01b0393841681529290911660208301527fb532073b38c83145e3e5135377a08bf9aab55bc0fd7c1179cd4fb995d2a5159c910160405180910390a160078054600680546001600160a01b03199081166001600160a01b03841617909155169055565b600180546103d5906117b6565b816109e681610d97565b61046a838361121f565b6000806109fc83610f76565b509392505050565b846001600160a01b0381163314610a1e57610a1e33610d97565b610a2b868686868661128b565b505050505050565b610a3b610fdc565b600080610a4784610f76565b9150915082151582151503610a88576040517fca231c2300000000000000000000000000000000000000000000000000000000815260040160405180910390fd5b8215610ade57603880546001810182556000919091527f38395c5dceade9603479b177b68959049485df8aa97b39f3533039af5f4561990180546001600160a01b0319166001600160a01b038616179055610b8c565b60388054610aee9060019061191f565b81548110610afe57610afe611932565b600091825260209091200154603880546001600160a01b039092169183908110610b2a57610b2a611932565b9060005260206000200160006101000a8154816001600160a01b0302191690836001600160a01b031602179055506038805480610b6957610b69611948565b600082815260209020810160001990810180546001600160a01b03191690550190555b604080516001600160a01b038616815284151560208201527f9c1e55b2ea976b1ce106746d9325847e838c89adca542764df43b80cadb59b04910160405180910390a150505050565b606060395460001480610bea57506039548211155b610c425760405162461bcd60e51b815260206004820152602360248201527f63616e2774206765742055524920666f72206e6f6e6578697374656e7420746f60448201526235b2b760e91b606482015260840161049e565b603a8054610c4f906117b6565b80601f0160208091040260200160405190810160405280929190818152602001828054610c7b906117b6565b8015610cc85780601f10610c9d57610100808354040283529160200191610cc8565b820191906000526020600020905b815481529060010190602001808311610cab57829003601f168201915b50505050509050919050565b60388181548110610ce457600080fd5b6000918252602090912001546001600160a01b0316905081565b60007f01ffc9a7000000000000000000000000000000000000000000000000000000006001600160e01b031983161480610d6157507f80ac58cd000000000000000000000000000000000000000000000000000000006001600160e01b03198316145b806103c25750506001600160e01b0319167f5b5e139f000000000000000000000000000000000000000000000000000000001490565b6daaeb6d7670e522a718067333cd4e3b15610e82576040517fc61711340000000000000000000000000000000000000000000000000000000081523060048201526001600160a01b03821660248201526daaeb6d7670e522a718067333cd4e9063c617113490604401602060405180830381865afa158015610e1d573d6000803e3d6000fd5b505050506040513d601f19601f82011682018060405250810190610e41919061195e565b610e82576040517fede71dcc0000000000000000000000000000000000000000000000000000000081526001600160a01b038216600482015260240161049e565b50565b6000818152600260205260409020546001600160a01b031633811480610ece57506001600160a01b038116600090815260056020908152604080832033845290915290205460ff165b610f1a5760405162461bcd60e51b815260206004820152600e60248201527f4e4f545f415554484f52495a4544000000000000000000000000000000000000604482015260640161049e565b60008281526004602052604080822080546001600160a01b0319166001600160a01b0387811691821790925591518593918516917f8c5be1e5ebec7d5bd14f71427d1e84f3dd0314c0f7b2291e5b200ac8c7c3b92591a4505050565b60008060005b603854811015610fd057836001600160a01b031660388281548110610fa357610fa3611932565b6000918252602090912001546001600160a01b031603610fc857600194909350915050565b600101610f7c565b50600093849350915050565b6006546001600160a01b0316331461103b576006546040517f1abc2f980000000000000000000000000000000000000000000000000000000081523060048201523360248201526001600160a01b03909116604482015260640161049e565b565b61104883838361057e565b6001600160a01b0382163b15806110f15750604051630a85bd0160e11b8082523360048301526001600160a01b03858116602484015260448301849052608060648401526000608484015290919084169063150b7a029060a4016020604051808303816000875af11580156110c1573d6000803e3d6000fd5b505050506040513d601f19601f820116820180604052508101906110e5919061197b565b6001600160e01b031916145b61046a5760405162461bcd60e51b815260206004820152601060248201526f155394d0519157d49150d2541251539560821b604482015260640161049e565b61113a8282611373565b6001600160a01b0382163b15806111e05750604051630a85bd0160e11b80825233600483015260006024830181905260448301849052608060648401526084830152906001600160a01b0384169063150b7a029060a4016020604051808303816000875af11580156111b0573d6000803e3d6000fd5b505050506040513d601f19601f820116820180604052508101906111d4919061197b565b6001600160e01b031916145b6108865760405162461bcd60e51b815260206004820152601060248201526f155394d0519157d49150d2541251539560821b604482015260640161049e565b3360008181526005602090815260408083206001600160a01b03871680855290835292819020805460ff191686151590811790915590519081529192917f17307eab39ab6107e8899845ad3d59bd9653f200f220920489ca2b5937696c31910160405180910390a35050565b61129685858561057e565b6001600160a01b0384163b158061132d5750604051630a85bd0160e11b808252906001600160a01b0386169063150b7a02906112de9033908a90899089908990600401611998565b6020604051808303816000875af11580156112fd573d6000803e3d6000fd5b505050506040513d601f19601f82011682018060405250810190611321919061197b565b6001600160e01b031916145b61136c5760405162461bcd60e51b815260206004820152601060248201526f155394d0519157d49150d2541251539560821b604482015260640161049e565b5050505050565b6001600160a01b0382166113c95760405162461bcd60e51b815260206004820152601160248201527f494e56414c49445f524543495049454e54000000000000000000000000000000604482015260640161049e565b6000818152600260205260409020546001600160a01b03161561142e5760405162461bcd60e51b815260206004820152600e60248201527f414c52454144595f4d494e544544000000000000000000000000000000000000604482015260640161049e565b6001600160a01b038216600081815260036020908152604080832080546001019055848352600290915280822080546001600160a01b0319168417905551839291907fddf252ad1be2c89b69c2b068fc378daa952ba7f163c4a11628f55a4df523b3ef908290a45050565b6001600160e01b031981168114610e8257600080fd5b6000602082840312156114c157600080fd5b81356114cc81611499565b9392505050565b600060208083528351808285015260005b81811015611500578581018301518582016040015282016114e4565b506000604082860101526040601f19601f8301168501019250505092915050565b60006020828403121561153357600080fd5b5035919050565b80356001600160a01b038116811461082857600080fd5b6000806040838503121561156457600080fd5b61156d8361153a565b946020939093013593505050565b634e487b7160e01b600052604160045260246000fd5b600080604083850312156115a457600080fd5b82359150602083013567ffffffffffffffff808211156115c357600080fd5b818501915085601f8301126115d757600080fd5b8135818111156115e9576115e961157b565b604051601f8201601f19908116603f011681019083821181831017156116115761161161157b565b8160405282815288602084870101111561162a57600080fd5b8260208601602083013760006020848301015280955050505050509250929050565b60006020828403121561165e57600080fd5b6114cc8261153a565b60008060006060848603121561167c57600080fd5b6116858461153a565b92506116936020850161153a565b9150604084013590509250925092565b8015158114610e8257600080fd5b600080604083850312156116c457600080fd5b6116cd8361153a565b915060208301356116dd816116a3565b809150509250929050565b60008060008060006080868803121561170057600080fd5b6117098661153a565b94506117176020870161153a565b935060408601359250606086013567ffffffffffffffff8082111561173b57600080fd5b818801915088601f83011261174f57600080fd5b81358181111561175e57600080fd5b89602082850101111561177057600080fd5b9699959850939650602001949392505050565b6000806040838503121561179657600080fd5b61179f8361153a565b91506117ad6020840161153a565b90509250929050565b600181811c908216806117ca57607f821691505b6020821081036117ea57634e487b7160e01b600052602260045260246000fd5b50919050565b601f82111561046a57600081815260208120601f850160051c810160208610156118175750805b601f850160051c820191505b81811015610a2b57828155600101611823565b815167ffffffffffffffff8111156118505761185061157b565b6118648161185e84546117b6565b846117f0565b602080601f83116001811461189957600084156118815750858301515b600019600386901b1c1916600185901b178555610a2b565b600085815260208120601f198616915b828110156118c8578886015182559484019460019091019084016118a9565b50858210156118e65787850151600019600388901b60f8161c191681555b5050505050600190811b01905550565b634e487b7160e01b600052601160045260246000fd5b808201808211156103c2576103c26118f6565b818103818111156103c2576103c26118f6565b634e487b7160e01b600052603260045260246000fd5b634e487b7160e01b600052603160045260246000fd5b60006020828403121561197057600080fd5b81516114cc816116a3565b60006020828403121561198d57600080fd5b81516114cc81611499565b60006001600160a01b03808816835280871660208401525084604083015260806060830152826080830152828460a0840137600060a0848401015260a0601f19601f8501168301019050969550505050505056fea26469706673582212205ea648dcfcd700a8c451c776b8692f7ad4b8e46b6b4181d2c27a3e025648e5da64736f6c63430008140033",
  "linkReferences": {},
  "deployedLinkReferences": {}
}