{
  "_format": "hh-sol-artifact-1",
  "contractName": "FundManager",
  "sourceName": "contracts/nft/FundManager.sol",
  "abi": [
    {
      "inputs": [
        {
          "internalType": "string",
          "name": "_name",
          "type": "string"
        },
        {
          "internalType": "string",
          "name": "_symbol",
          "type": "string"
        },
        {
          "internalType": "uint8",
          "name": "_cap",
          "type": "uint8"
        },
        {
          "internalType": "string",
          "name": "_tURI",
          "type": "string"
        }
      ],
      "stateMutability": "nonpayable",
      "type": "constructor"
    },
    {
      "inputs": [],
      "name": "ControllerAlreadySet",
      "type": "error"
    },
    {
      "inputs": [
        {
          "internalType": "uint256",
          "name": "mintLimit",
          "type": "uint256"
        }
      ],
      "name": "MintLimitReached",
      "type": "error"
    },
    {
      "inputs": [
        {
          "internalType": "address",
          "name": "thrower",
          "type": "address"
        },
        {
          "internalType": "address",
          "name": "caller",
          "type": "address"
        }
      ],
      "name": "OnlyController",
      "type": "error"
    },
    {
      "inputs": [
        {
          "internalType": "address",
          "name": "thrower",
          "type": "address"
        },
        {
          "internalType": "address",
          "name": "caller",
          "type": "address"
        },
        {
          "internalType": "address",
          "name": "nominatedOwner",
          "type": "address"
        }
      ],
      "name": "OnlyNominatedOwner",
      "type": "error"
    },
    {
      "inputs": [
        {
          "internalType": "address",
          "name": "thrower",
          "type": "address"
        },
        {
          "internalType": "address",
          "name": "caller",
          "type": "address"
        },
        {
          "internalType": "address",
          "name": "owner",
          "type": "address"
        }
      ],
      "name": "OnlyOwner",
      "type": "error"
    },
    {
      "anonymous": false,
      "inputs": [
        {
          "indexed": true,
          "internalType": "address",
          "name": "owner",
          "type": "address"
        },
        {
          "indexed": true,
          "internalType": "address",
          "name": "spender",
          "type": "address"
        },
        {
          "indexed": true,
          "internalType": "uint256",
          "name": "id",
          "type": "uint256"
        }
      ],
      "name": "Approval",
      "type": "event"
    },
    {
      "anonymous": false,
      "inputs": [
        {
          "indexed": true,
          "internalType": "address",
          "name": "owner",
          "type": "address"
        },
        {
          "indexed": true,
          "internalType": "address",
          "name": "operator",
          "type": "address"
        },
        {
          "indexed": false,
          "internalType": "bool",
          "name": "approved",
          "type": "bool"
        }
      ],
      "name": "ApprovalForAll",
      "type": "event"
    },
    {
      "anonymous": false,
      "inputs": [
        {
          "indexed": false,
          "internalType": "address",
          "name": "controller",
          "type": "address"
        },
        {
          "indexed": false,
          "internalType": "bool",
          "name": "isController",
          "type": "bool"
        }
      ],
      "name": "ControllerSet",
      "type": "event"
    },
    {
      "anonymous": false,
      "inputs": [
        {
          "indexed": false,
          "internalType": "address",
          "name": "oldOwner",
          "type": "address"
        },
        {
          "indexed": false,
          "internalType": "address",
          "name": "newOwner",
          "type": "address"
        }
      ],
      "name": "OwnerChanged",
      "type": "event"
    },
    {
      "anonymous": false,
      "inputs": [
        {
          "indexed": false,
          "internalType": "address",
          "name": "newOwner",
          "type": "address"
        }
      ],
      "name": "OwnerNominated",
      "type": "event"
    },
    {
      "anonymous": false,
      "inputs": [
        {
          "indexed": true,
          "internalType": "address",
          "name": "from",
          "type": "address"
        },
        {
          "indexed": true,
          "internalType": "address",
          "name": "to",
          "type": "address"
        },
        {
          "indexed": true,
          "internalType": "uint256",
          "name": "id",
          "type": "uint256"
        }
      ],
      "name": "Transfer",
      "type": "event"
    },
    {
      "inputs": [],
      "name": "NAV",
      "outputs": [
        {
          "internalType": "uint256",
          "name": "",
          "type": "uint256"
        }
      ],
      "stateMutability": "view",
      "type": "function"
    },
    {
      "inputs": [],
      "name": "acceptOwnership",
      "outputs": [],
      "stateMutability": "nonpayable",
      "type": "function"
    },
    {
      "inputs": [
        {
          "internalType": "address",
          "name": "spender",
          "type": "address"
        },
        {
          "internalType": "uint256",
          "name": "id",
          "type": "uint256"
        }
      ],
      "name": "approve",
      "outputs": [],
      "stateMutability": "nonpayable",
      "type": "function"
    },
    {
      "inputs": [
        {
          "internalType": "address",
          "name": "owner",
          "type": "address"
        }
      ],
      "name": "balanceOf",
      "outputs": [
        {
          "internalType": "uint256",
          "name": "",
          "type": "uint256"
        }
      ],
      "stateMutability": "view",
      "type": "function"
    },
    {
      "inputs": [],
      "name": "cap",
      "outputs": [
        {
          "internalType": "uint256",
          "name": "",
          "type": "uint256"
        }
      ],
      "stateMutability": "view",
      "type": "function"
    },
    {
      "inputs": [
        {
          "internalType": "uint256",
          "name": "",
          "type": "uint256"
        }
      ],
      "name": "controllers",
      "outputs": [
        {
          "internalType": "address",
          "name": "",
          "type": "address"
        }
      ],
      "stateMutability": "view",
      "type": "function"
    },
    {
      "inputs": [],
      "name": "cumulativeUserBase",
      "outputs": [
        {
          "internalType": "uint256",
          "name": "",
          "type": "uint256"
        }
      ],
      "stateMutability": "view",
      "type": "function"
    },
    {
      "inputs": [
        {
          "internalType": "uint256",
          "name": "",
          "type": "uint256"
        }
      ],
      "name": "getApproved",
      "outputs": [
        {
          "internalType": "address",
          "name": "",
          "type": "address"
        }
      ],
      "stateMutability": "view",
      "type": "function"
    },
    {
      "inputs": [
        {
          "internalType": "address",
          "name": "",
          "type": "address"
        },
        {
          "internalType": "address",
          "name": "",
          "type": "address"
        }
      ],
      "name": "isApprovedForAll",
      "outputs": [
        {
          "internalType": "bool",
          "name": "",
          "type": "bool"
        }
      ],
      "stateMutability": "view",
      "type": "function"
    },
    {
      "inputs": [
        {
          "internalType": "address",
          "name": "_controller",
          "type": "address"
        }
      ],
      "name": "isController",
      "outputs": [
        {
          "internalType": "bool",
          "name": "",
          "type": "bool"
        }
      ],
      "stateMutability": "view",
      "type": "function"
    },
    {
      "inputs": [
        {
          "internalType": "address",
          "name": "to",
          "type": "address"
        }
      ],
      "name": "mint",
      "outputs": [],
      "stateMutability": "nonpayable",
      "type": "function"
    },
    {
      "inputs": [],
      "name": "mintCounter",
      "outputs": [
        {
          "internalType": "uint256",
          "name": "",
          "type": "uint256"
        }
      ],
      "stateMutability": "view",
      "type": "function"
    },
    {
      "inputs": [],
      "name": "name",
      "outputs": [
        {
          "internalType": "string",
          "name": "",
          "type": "string"
        }
      ],
      "stateMutability": "view",
      "type": "function"
    },
    {
      "inputs": [
        {
          "internalType": "address",
          "name": "_owner",
          "type": "address"
        }
      ],
      "name": "nominateNewOwner",
      "outputs": [],
      "stateMutability": "nonpayable",
      "type": "function"
    },
    {
      "inputs": [],
      "name": "nominatedOwner",
      "outputs": [
        {
          "internalType": "address",
          "name": "",
          "type": "address"
        }
      ],
      "stateMutability": "view",
      "type": "function"
    },
    {
      "inputs": [],
      "name": "numOfShares",
      "outputs": [
        {
          "internalType": "uint256",
          "name": "",
          "type": "uint256"
        }
      ],
      "stateMutability": "view",
      "type": "function"
    },
    {
      "inputs": [],
      "name": "owner",
      "outputs": [
        {
          "internalType": "address",
          "name": "",
          "type": "address"
        }
      ],
      "stateMutability": "view",
      "type": "function"
    },
    {
      "inputs": [
        {
          "internalType": "uint256",
          "name": "id",
          "type": "uint256"
        }
      ],
      "name": "ownerOf",
      "outputs": [
        {
          "internalType": "address",
          "name": "owner",
          "type": "address"
        }
      ],
      "stateMutability": "view",
      "type": "function"
    },
    {
      "inputs": [
        {
          "internalType": "address",
          "name": "from",
          "type": "address"
        },
        {
          "internalType": "address",
          "name": "to",
          "type": "address"
        },
        {
          "internalType": "uint256",
          "name": "id",
          "type": "uint256"
        }
      ],
      "name": "safeTransferFrom",
      "outputs": [],
      "stateMutability": "nonpayable",
      "type": "function"
    },
    {
      "inputs": [
        {
          "internalType": "address",
          "name": "from",
          "type": "address"
        },
        {
          "internalType": "address",
          "name": "to",
          "type": "address"
        },
        {
          "internalType": "uint256",
          "name": "id",
          "type": "uint256"
        },
        {
          "internalType": "bytes",
          "name": "data",
          "type": "bytes"
        }
      ],
      "name": "safeTransferFrom",
      "outputs": [],
      "stateMutability": "nonpayable",
      "type": "function"
    },
    {
      "inputs": [
        {
          "internalType": "address",
          "name": "operator",
          "type": "address"
        },
        {
          "internalType": "bool",
          "name": "approved",
          "type": "bool"
        }
      ],
      "name": "setApprovalForAll",
      "outputs": [],
      "stateMutability": "nonpayable",
      "type": "function"
    },
    {
      "inputs": [
        {
          "internalType": "uint256",
          "name": "_cub",
          "type": "uint256"
        }
      ],
      "name": "setCumulativeUserBase",
      "outputs": [],
      "stateMutability": "nonpayable",
      "type": "function"
    },
    {
      "inputs": [
        {
          "internalType": "address",
          "name": "_controller",
          "type": "address"
        },
        {
          "internalType": "bool",
          "name": "isController_",
          "type": "bool"
        }
      ],
      "name": "setIsController",
      "outputs": [],
      "stateMutability": "nonpayable",
      "type": "function"
    },
    {
      "inputs": [
        {
          "internalType": "uint256",
          "name": "_nav",
          "type": "uint256"
        }
      ],
      "name": "setNAV",
      "outputs": [],
      "stateMutability": "nonpayable",
      "type": "function"
    },
    {
      "inputs": [
        {
          "internalType": "uint256",
          "name": "_name",
          "type": "uint256"
        }
      ],
      "name": "setName",
      "outputs": [],
      "stateMutability": "nonpayable",
      "type": "function"
    },
    {
      "inputs": [
        {
          "internalType": "uint256",
          "name": "_shares",
          "type": "uint256"
        }
      ],
      "name": "setNumOfShares",
      "outputs": [],
      "stateMutability": "nonpayable",
      "type": "function"
    },
    {
      "inputs": [
        {
          "internalType": "uint256",
          "name": "tokenId",
          "type": "uint256"
        },
        {
          "internalType": "string",
          "name": "_tURI",
          "type": "string"
        }
      ],
      "name": "setTokenURI",
      "outputs": [],
      "stateMutability": "nonpayable",
      "type": "function"
    },
    {
      "inputs": [
        {
          "internalType": "bytes4",
          "name": "interfaceId",
          "type": "bytes4"
        }
      ],
      "name": "supportsInterface",
      "outputs": [
        {
          "internalType": "bool",
          "name": "",
          "type": "bool"
        }
      ],
      "stateMutability": "view",
      "type": "function"
    },
    {
      "inputs": [],
      "name": "symbol",
      "outputs": [
        {
          "internalType": "string",
          "name": "",
          "type": "string"
        }
      ],
      "stateMutability": "view",
      "type": "function"
    },
    {
      "inputs": [
        {
          "internalType": "uint256",
          "name": "tokenId",
          "type": "uint256"
        }
      ],
      "name": "tokenURI",
      "outputs": [
        {
          "internalType": "string",
          "name": "",
          "type": "string"
        }
      ],
      "stateMutability": "view",
      "type": "function"
    },
    {
      "inputs": [
        {
          "internalType": "address",
          "name": "from",
          "type": "address"
        },
        {
          "internalType": "address",
          "name": "to",
          "type": "address"
        },
        {
          "internalType": "uint256",
          "name": "id",
          "type": "uint256"
        }
      ],
      "name": "transferFrom",
      "outputs": [],
      "stateMutability": "nonpayable",
      "type": "function"
    }
  ],
  "bytecode": "0x60806040523480156200001157600080fd5b5060405162001e3738038062001e378339810160408190526200003491620001da565b33808585600062000046838262000315565b50600162000055828262000315565b5050600680546001600160a01b03199081166001600160a01b038681169182179093556038805460018101825560009182527f38395c5dceade9603479b177b68959049485df8aa97b39f3533039af5f456199018054909316938616939093179091556040805192835260208301919091527fb532073b38c83145e3e5135377a08bf9aab55bc0fd7c1179cd4fb995d2a5159c92500160405180910390a1505060ff8216603955603f6200010a828262000315565b5050505050620003e1565b634e487b7160e01b600052604160045260246000fd5b600082601f8301126200013d57600080fd5b81516001600160401b03808211156200015a576200015a62000115565b604051601f8301601f19908116603f0116810190828211818310171562000185576200018562000115565b81604052838152602092508683858801011115620001a257600080fd5b600091505b83821015620001c65785820183015181830184015290820190620001a7565b600093810190920192909252949350505050565b60008060008060808587031215620001f157600080fd5b84516001600160401b03808211156200020957600080fd5b62000217888389016200012b565b955060208701519150808211156200022e57600080fd5b6200023c888389016200012b565b94506040870151915060ff821682146200025557600080fd5b6060870151919350808211156200026b57600080fd5b506200027a878288016200012b565b91505092959194509250565b600181811c908216806200029b57607f821691505b602082108103620002bc57634e487b7160e01b600052602260045260246000fd5b50919050565b601f8211156200031057600081815260208120601f850160051c81016020861015620002eb5750805b601f850160051c820191505b818110156200030c57828155600101620002f7565b5050505b505050565b81516001600160401b0381111562000331576200033162000115565b620003498162000342845462000286565b84620002c2565b602080601f831160018114620003815760008415620003685750858301515b600019600386901b1c1916600185901b1785556200030c565b600085815260208120601f198616915b82811015620003b25788860151825594840194600190910190840162000391565b5085821015620003d15787850151600019600388901b60f8161c191681555b5050505050600190811b01905550565b611a4680620003f16000396000f3fe608060405234801561001057600080fd5b50600436106101e55760003560e01c80636352211e1161010f578063b429afeb116100a2578063c87b56dd11610071578063c87b56dd146103e5578063e94b0dd2146103f8578063e985e9c51461040b578063f4389de61461043957600080fd5b8063b429afeb146103a3578063b88d4fde146103b6578063c50ff9b3146103c9578063c646273e146103d257600080fd5b80638da5cb5b116100de5780638da5cb5b14610375578063950319ac146102e957806395d89b4114610388578063a22cb4651461039057600080fd5b80636352211e146103345780636a6278421461034757806370a082311461035a57806379ba50971461036d57600080fd5b8063282f52211161018757806342842e0e1161015657806342842e0e146102fc57806346aa52ce1461030f57806352fd856b1461031857806353a47bb71461032157600080fd5b8063282f5221146102b65780633409038c146102c9578063355274ea146102e0578063390b46fe146102e957600080fd5b8063095ea7b3116101c3578063095ea7b314610268578063162094c41461027d5780631627540c1461029057806323b872dd146102a357600080fd5b806301ffc9a7146101ea57806306fdde0314610212578063081812fc14610227575b600080fd5b6101fd6101f83660046114f1565b61044c565b60405190151581526020015b60405180910390f35b61021a6104e9565b6040516102099190611515565b610250610235366004611563565b6004602052600090815260409020546001600160a01b031681565b6040516001600160a01b039091168152602001610209565b61027b610276366004611593565b610577565b005b61027b61028b3660046115d3565b61066d565b61027b61029e36600461168e565b61071b565b61027b6102b13660046116a9565b610777565b61027b6102c4366004611563565b61098b565b6102d2603d5481565b604051908152602001610209565b6102d260395481565b61027b6102f7366004611563565b6109d9565b61027b61030a3660046116a9565b610a27565b6102d2603a5481565b6102d2603c5481565b600754610250906001600160a01b031681565b610250610342366004611563565b610b1f565b61027b61035536600461168e565b610b89565b6102d261036836600461168e565b610c29565b61027b610c9d565b600654610250906001600160a01b031681565b61021a610d6e565b61027b61039e3660046116e5565b610d7b565b6101fd6103b136600461168e565b610de7565b61027b6103c4366004611721565b610dfb565b6102d2603b5481565b61027b6103e03660046116e5565b610ee3565b61021a6103f3366004611563565b611085565b610250610406366004611563565b611184565b6101fd6104193660046117bc565b600560209081526000928352604080842090915290825290205460ff1681565b61027b610447366004611563565b6111ae565b60007f01ffc9a7000000000000000000000000000000000000000000000000000000006001600160e01b0319831614806104af57507f80ac58cd000000000000000000000000000000000000000000000000000000006001600160e01b03198316145b806104e357507f5b5e139f000000000000000000000000000000000000000000000000000000006001600160e01b03198316145b92915050565b600080546104f6906117ef565b80601f0160208091040260200160405190810160405280929190818152602001828054610522906117ef565b801561056f5780601f106105445761010080835404028352916020019161056f565b820191906000526020600020905b81548152906001019060200180831161055257829003601f168201915b505050505081565b6000818152600260205260409020546001600160a01b0316338114806105c057506001600160a01b038116600090815260056020908152604080832033845290915290205460ff165b6106115760405162461bcd60e51b815260206004820152600e60248201527f4e4f545f415554484f52495a454400000000000000000000000000000000000060448201526064015b60405180910390fd5b60008281526004602052604080822080546001600160a01b0319166001600160a01b0387811691821790925591518593918516917f8c5be1e5ebec7d5bd14f71427d1e84f3dd0314c0f7b2291e5b200ac8c7c3b92591a4505050565b6000610678336111fc565b509050806106a0576040516205d51f60e61b8152306004820152336024820152604401610608565b603a5415806106b15750603a548311155b6107095760405162461bcd60e51b815260206004820152602360248201527f63616e2774207365742055524920666f72206e6f6e6578697374656e7420746f60448201526235b2b760e91b6064820152608401610608565b603f6107158382611877565b50505050565b610723611262565b600780546001600160a01b0319166001600160a01b0383169081179091556040519081527f906a1c6bd7e3091ea86693dd029a831c19049ce77f1dce2ce0bab1cacbabce229060200160405180910390a150565b6000818152600260205260409020546001600160a01b038481169116146107e05760405162461bcd60e51b815260206004820152600a60248201527f57524f4e475f46524f4d000000000000000000000000000000000000000000006044820152606401610608565b6001600160a01b0382166108365760405162461bcd60e51b815260206004820152601160248201527f494e56414c49445f524543495049454e540000000000000000000000000000006044820152606401610608565b6000818152600260205260409020546001600160a01b031633146108fc5761085d33610de7565b806108705750336001600160a01b038416145b8061089e57506001600160a01b038316600090815260056020908152604080832033845290915290205460ff165b806108bf57506000818152600460205260409020546001600160a01b031633145b6108fc5760405162461bcd60e51b815260206004820152600e60248201526d1393d5081055551213d49256915160921b6044820152606401610608565b6001600160a01b0380841660008181526003602090815260408083208054600019019055938616808352848320805460010190558583526002825284832080546001600160a01b03199081168317909155600490925284832080549092169091559251849392917fddf252ad1be2c89b69c2b068fc378daa952ba7f163c4a11628f55a4df523b3ef91a4505050565b600061099633610c29565b116109d45760405162461bcd60e51b815260206004820152600e60248201526d1393d5081055551213d49256915160921b6044820152606401610608565b603d55565b60006109e433610c29565b11610a225760405162461bcd60e51b815260206004820152600e60248201526d1393d5081055551213d49256915160921b6044820152606401610608565b603c55565b610a32838383610777565b6001600160a01b0382163b1580610adb5750604051630a85bd0160e11b8082523360048301526001600160a01b03858116602484015260448301849052608060648401526000608484015290919084169063150b7a029060a4016020604051808303816000875af1158015610aab573d6000803e3d6000fd5b505050506040513d601f19601f82011682018060405250810190610acf9190611937565b6001600160e01b031916145b610b1a5760405162461bcd60e51b815260206004820152601060248201526f155394d0519157d49150d2541251539560821b6044820152606401610608565b505050565b6000818152600260205260409020546001600160a01b031680610b845760405162461bcd60e51b815260206004820152600a60248201527f4e4f545f4d494e544544000000000000000000000000000000000000000000006044820152606401610608565b919050565b6000610b94336111fc565b50905080610bbc576040516205d51f60e61b8152306004820152336024820152604401610608565b603954603a5410610bff57603a546040517fb3293ea000000000000000000000000000000000000000000000000000000000815260040161060891815260200190565b6001603a6000828254610c12919061196a565b92505081905550610c2582603a546112c3565b5050565b60006001600160a01b038216610c815760405162461bcd60e51b815260206004820152600c60248201527f5a45524f5f4144445245535300000000000000000000000000000000000000006044820152606401610608565b506001600160a01b031660009081526003602052604090205490565b6007546001600160a01b03163314610cfc576007546040517f96cf9ed80000000000000000000000000000000000000000000000000000000081523060048201523360248201526001600160a01b039091166044820152606401610608565b600654600754604080516001600160a01b0393841681529290911660208301527fb532073b38c83145e3e5135377a08bf9aab55bc0fd7c1179cd4fb995d2a5159c910160405180910390a160078054600680546001600160a01b03199081166001600160a01b03841617909155169055565b600180546104f6906117ef565b3360008181526005602090815260408083206001600160a01b03871680855290835292819020805460ff191686151590811790915590519081529192917f17307eab39ab6107e8899845ad3d59bd9653f200f220920489ca2b5937696c31910160405180910390a35050565b600080610df3836111fc565b509392505050565b610e06858585610777565b6001600160a01b0384163b1580610e9d5750604051630a85bd0160e11b808252906001600160a01b0386169063150b7a0290610e4e9033908a9089908990899060040161197d565b6020604051808303816000875af1158015610e6d573d6000803e3d6000fd5b505050506040513d601f19601f82011682018060405250810190610e919190611937565b6001600160e01b031916145b610edc5760405162461bcd60e51b815260206004820152601060248201526f155394d0519157d49150d2541251539560821b6044820152606401610608565b5050505050565b610eeb611262565b600080610ef7846111fc565b9150915082151582151503610f38576040517fca231c2300000000000000000000000000000000000000000000000000000000815260040160405180910390fd5b8215610f8e57603880546001810182556000919091527f38395c5dceade9603479b177b68959049485df8aa97b39f3533039af5f4561990180546001600160a01b0319166001600160a01b03861617905561103c565b60388054610f9e906001906119d1565b81548110610fae57610fae6119e4565b600091825260209091200154603880546001600160a01b039092169183908110610fda57610fda6119e4565b9060005260206000200160006101000a8154816001600160a01b0302191690836001600160a01b031602179055506038805480611019576110196119fa565b600082815260209020810160001990810180546001600160a01b03191690550190555b604080516001600160a01b038616815284151560208201527f9c1e55b2ea976b1ce106746d9325847e838c89adca542764df43b80cadb59b04910160405180910390a150505050565b6060603a546000148061109a5750603a548211155b6110f25760405162461bcd60e51b815260206004820152602360248201527f63616e2774206765742055524920666f72206e6f6e6578697374656e7420746f60448201526235b2b760e91b6064820152608401610608565b603f80546110ff906117ef565b80601f016020809104026020016040519081016040528092919081815260200182805461112b906117ef565b80156111785780601f1061114d57610100808354040283529160200191611178565b820191906000526020600020905b81548152906001019060200180831161115b57829003601f168201915b50505050509050919050565b6038818154811061119457600080fd5b6000918252602090912001546001600160a01b0316905081565b60006111b933610c29565b116111f75760405162461bcd60e51b815260206004820152600e60248201526d1393d5081055551213d49256915160921b6044820152606401610608565b603b55565b60008060005b60385481101561125657836001600160a01b031660388281548110611229576112296119e4565b6000918252602090912001546001600160a01b03160361124e57600194909350915050565b600101611202565b50600093849350915050565b6006546001600160a01b031633146112c1576006546040517f1abc2f980000000000000000000000000000000000000000000000000000000081523060048201523360248201526001600160a01b039091166044820152606401610608565b565b6112cd82826113b2565b6001600160a01b0382163b15806113735750604051630a85bd0160e11b80825233600483015260006024830181905260448301849052608060648401526084830152906001600160a01b0384169063150b7a029060a4016020604051808303816000875af1158015611343573d6000803e3d6000fd5b505050506040513d601f19601f820116820180604052508101906113679190611937565b6001600160e01b031916145b610c255760405162461bcd60e51b815260206004820152601060248201526f155394d0519157d49150d2541251539560821b6044820152606401610608565b6001600160a01b0382166114085760405162461bcd60e51b815260206004820152601160248201527f494e56414c49445f524543495049454e540000000000000000000000000000006044820152606401610608565b6000818152600260205260409020546001600160a01b03161561146d5760405162461bcd60e51b815260206004820152600e60248201527f414c52454144595f4d494e5445440000000000000000000000000000000000006044820152606401610608565b6001600160a01b038216600081815260036020908152604080832080546001019055848352600290915280822080546001600160a01b0319168417905551839291907fddf252ad1be2c89b69c2b068fc378daa952ba7f163c4a11628f55a4df523b3ef908290a45050565b6001600160e01b0319811681146114ee57600080fd5b50565b60006020828403121561150357600080fd5b813561150e816114d8565b9392505050565b600060208083528351808285015260005b8181101561154257858101830151858201604001528201611526565b506000604082860101526040601f19601f8301168501019250505092915050565b60006020828403121561157557600080fd5b5035919050565b80356001600160a01b0381168114610b8457600080fd5b600080604083850312156115a657600080fd5b6115af8361157c565b946020939093013593505050565b634e487b7160e01b600052604160045260246000fd5b600080604083850312156115e657600080fd5b82359150602083013567ffffffffffffffff8082111561160557600080fd5b818501915085601f83011261161957600080fd5b81358181111561162b5761162b6115bd565b604051601f8201601f19908116603f01168101908382118183101715611653576116536115bd565b8160405282815288602084870101111561166c57600080fd5b8260208601602083013760006020848301015280955050505050509250929050565b6000602082840312156116a057600080fd5b61150e8261157c565b6000806000606084860312156116be57600080fd5b6116c78461157c565b92506116d56020850161157c565b9150604084013590509250925092565b600080604083850312156116f857600080fd5b6117018361157c565b91506020830135801515811461171657600080fd5b809150509250929050565b60008060008060006080868803121561173957600080fd5b6117428661157c565b94506117506020870161157c565b935060408601359250606086013567ffffffffffffffff8082111561177457600080fd5b818801915088601f83011261178857600080fd5b81358181111561179757600080fd5b8960208285010111156117a957600080fd5b9699959850939650602001949392505050565b600080604083850312156117cf57600080fd5b6117d88361157c565b91506117e66020840161157c565b90509250929050565b600181811c9082168061180357607f821691505b60208210810361182357634e487b7160e01b600052602260045260246000fd5b50919050565b601f821115610b1a57600081815260208120601f850160051c810160208610156118505750805b601f850160051c820191505b8181101561186f5782815560010161185c565b505050505050565b815167ffffffffffffffff811115611891576118916115bd565b6118a58161189f84546117ef565b84611829565b602080601f8311600181146118da57600084156118c25750858301515b600019600386901b1c1916600185901b17855561186f565b600085815260208120601f198616915b82811015611909578886015182559484019460019091019084016118ea565b50858210156119275787850151600019600388901b60f8161c191681555b5050505050600190811b01905550565b60006020828403121561194957600080fd5b815161150e816114d8565b634e487b7160e01b600052601160045260246000fd5b808201808211156104e3576104e3611954565b60006001600160a01b03808816835280871660208401525084604083015260806060830152826080830152828460a0840137600060a0848401015260a0601f19601f85011683010190509695505050505050565b818103818111156104e3576104e3611954565b634e487b7160e01b600052603260045260246000fd5b634e487b7160e01b600052603160045260246000fdfea264697066735822122093cf7638fa3dee5ecaad87c060f2c5a2faf7ca6f9bc0acc459abfbea1ed3c84564736f6c63430008140033",
  "linkReferences": {},
  "deployedLinkReferences": {}
}