{
  "_format": "hh-sol-artifact-1",
  "contractName": "RepositoryFactory",
  "sourceName": "contracts/RepositoryFactory.sol",
  "abi": [
    {
      "inputs": [
        {
          "internalType": "address",
          "name": "_owner",
          "type": "address"
        },
        {
          "internalType": "address",
          "name": "_controller",
          "type": "address"
        }
      ],
      "stateMutability": "nonpayable",
      "type": "constructor"
    },
    {
      "inputs": [],
      "name": "ControllerAlreadySet",
      "type": "error"
    },
    {
      "inputs": [
        {
          "internalType": "address",
          "name": "thrower",
          "type": "address"
        },
        {
          "internalType": "address",
          "name": "caller",
          "type": "address"
        }
      ],
      "name": "OnlyController",
      "type": "error"
    },
    {
      "inputs": [
        {
          "internalType": "address",
          "name": "thrower",
          "type": "address"
        },
        {
          "internalType": "address",
          "name": "caller",
          "type": "address"
        },
        {
          "internalType": "address",
          "name": "nominatedOwner",
          "type": "address"
        }
      ],
      "name": "OnlyNominatedOwner",
      "type": "error"
    },
    {
      "inputs": [
        {
          "internalType": "address",
          "name": "thrower",
          "type": "address"
        },
        {
          "internalType": "address",
          "name": "caller",
          "type": "address"
        },
        {
          "internalType": "address",
          "name": "owner",
          "type": "address"
        }
      ],
      "name": "OnlyOwner",
      "type": "error"
    },
    {
      "anonymous": false,
      "inputs": [
        {
          "indexed": false,
          "internalType": "address",
          "name": "controller",
          "type": "address"
        },
        {
          "indexed": false,
          "internalType": "bool",
          "name": "isController",
          "type": "bool"
        }
      ],
      "name": "ControllerSet",
      "type": "event"
    },
    {
      "anonymous": false,
      "inputs": [
        {
          "indexed": false,
          "internalType": "address",
          "name": "recipient",
          "type": "address"
        }
      ],
      "name": "FeeRecipientSet",
      "type": "event"
    },
    {
      "anonymous": false,
      "inputs": [
        {
          "indexed": false,
          "internalType": "address",
          "name": "oldOwner",
          "type": "address"
        },
        {
          "indexed": false,
          "internalType": "address",
          "name": "newOwner",
          "type": "address"
        }
      ],
      "name": "OwnerChanged",
      "type": "event"
    },
    {
      "anonymous": false,
      "inputs": [
        {
          "indexed": false,
          "internalType": "address",
          "name": "newOwner",
          "type": "address"
        }
      ],
      "name": "OwnerNominated",
      "type": "event"
    },
    {
      "anonymous": false,
      "inputs": [
        {
          "indexed": true,
          "internalType": "address",
          "name": "repository",
          "type": "address"
        },
        {
          "indexed": true,
          "internalType": "address",
          "name": "owner",
          "type": "address"
        },
        {
          "indexed": true,
          "internalType": "uint256",
          "name": "index",
          "type": "uint256"
        }
      ],
      "name": "RepositoryCreated",
      "type": "event"
    },
    {
      "anonymous": false,
      "inputs": [
        {
          "indexed": true,
          "internalType": "address",
          "name": "repository",
          "type": "address"
        },
        {
          "indexed": true,
          "internalType": "uint256",
          "name": "index",
          "type": "uint256"
        },
        {
          "indexed": true,
          "internalType": "address",
          "name": "newRepositoryAtIndex",
          "type": "address"
        }
      ],
      "name": "RepositoryRemoved",
      "type": "event"
    },
    {
      "inputs": [],
      "name": "acceptOwnership",
      "outputs": [],
      "stateMutability": "nonpayable",
      "type": "function"
    },
    {
      "inputs": [
        {
          "internalType": "uint256[]",
          "name": "indexes",
          "type": "uint256[]"
        }
      ],
      "name": "collectFeeFromParticularRepositories",
      "outputs": [],
      "stateMutability": "nonpayable",
      "type": "function"
    },
    {
      "inputs": [
        {
          "internalType": "uint256",
          "name": "index",
          "type": "uint256"
        }
      ],
      "name": "collectFeeFromRepository",
      "outputs": [],
      "stateMutability": "nonpayable",
      "type": "function"
    },
    {
      "inputs": [
        {
          "internalType": "uint256",
          "name": "index",
          "type": "uint256"
        },
        {
          "internalType": "uint256",
          "name": "limit",
          "type": "uint256"
        }
      ],
      "name": "collectFeesFromRepositories",
      "outputs": [],
      "stateMutability": "nonpayable",
      "type": "function"
    },
    {
      "inputs": [
        {
          "internalType": "uint256",
          "name": "",
          "type": "uint256"
        }
      ],
      "name": "controllers",
      "outputs": [
        {
          "internalType": "address",
          "name": "",
          "type": "address"
        }
      ],
      "stateMutability": "view",
      "type": "function"
    },
    {
      "inputs": [
        {
          "internalType": "address",
          "name": "_owner",
          "type": "address"
        },
        {
          "internalType": "address",
          "name": "_controller",
          "type": "address"
        },
        {
          "internalType": "address",
          "name": "_executor",
          "type": "address"
        },
        {
          "internalType": "address",
          "name": "_bookKeeper",
          "type": "address"
        },
        {
          "internalType": "address",
          "name": "_gateKeeper",
          "type": "address"
        },
        {
          "internalType": "address",
          "name": "_depositToken",
          "type": "address"
        },
        {
          "internalType": "uint256",
          "name": "_totalValueCap",
          "type": "uint256"
        },
        {
          "internalType": "uint256",
          "name": "_licensingFeeRate",
          "type": "uint256"
        },
        {
          "internalType": "string",
          "name": "_repositoryTokenName",
          "type": "string"
        },
        {
          "internalType": "string",
          "name": "_repositoryTokenSymbol",
          "type": "string"
        }
      ],
      "name": "createRepository",
      "outputs": [
        {
          "internalType": "contract Repository",
          "name": "",
          "type": "address"
        }
      ],
      "stateMutability": "nonpayable",
      "type": "function"
    },
    {
      "inputs": [
        {
          "internalType": "uint256",
          "name": "",
          "type": "uint256"
        }
      ],
      "name": "deployedRepositories",
      "outputs": [
        {
          "internalType": "contract Repository",
          "name": "repository",
          "type": "address"
        },
        {
          "internalType": "address",
          "name": "owner",
          "type": "address"
        },
        {
          "internalType": "address",
          "name": "controller",
          "type": "address"
        },
        {
          "internalType": "address",
          "name": "executor",
          "type": "address"
        },
        {
          "internalType": "address",
          "name": "bookKeeper",
          "type": "address"
        },
        {
          "internalType": "address",
          "name": "gateKeeper",
          "type": "address"
        },
        {
          "internalType": "address",
          "name": "repositoryToken",
          "type": "address"
        },
        {
          "internalType": "address",
          "name": "depositToken",
          "type": "address"
        }
      ],
      "stateMutability": "view",
      "type": "function"
    },
    {
      "inputs": [],
      "name": "feeRecipient",
      "outputs": [
        {
          "internalType": "address",
          "name": "",
          "type": "address"
        }
      ],
      "stateMutability": "view",
      "type": "function"
    },
    {
      "inputs": [
        {
          "internalType": "address",
          "name": "_controller",
          "type": "address"
        }
      ],
      "name": "isController",
      "outputs": [
        {
          "internalType": "bool",
          "name": "",
          "type": "bool"
        }
      ],
      "stateMutability": "view",
      "type": "function"
    },
    {
      "inputs": [
        {
          "internalType": "address",
          "name": "_owner",
          "type": "address"
        }
      ],
      "name": "nominateNewOwner",
      "outputs": [],
      "stateMutability": "nonpayable",
      "type": "function"
    },
    {
      "inputs": [],
      "name": "nominatedOwner",
      "outputs": [
        {
          "internalType": "address",
          "name": "",
          "type": "address"
        }
      ],
      "stateMutability": "view",
      "type": "function"
    },
    {
      "inputs": [],
      "name": "owner",
      "outputs": [
        {
          "internalType": "address",
          "name": "",
          "type": "address"
        }
      ],
      "stateMutability": "view",
      "type": "function"
    },
    {
      "inputs": [
        {
          "internalType": "uint256",
          "name": "index",
          "type": "uint256"
        }
      ],
      "name": "removeRepository",
      "outputs": [],
      "stateMutability": "nonpayable",
      "type": "function"
    },
    {
      "inputs": [
        {
          "internalType": "address",
          "name": "_feeRecipient",
          "type": "address"
        }
      ],
      "name": "setFeeRecipient",
      "outputs": [],
      "stateMutability": "nonpayable",
      "type": "function"
    },
    {
      "inputs": [
        {
          "internalType": "address",
          "name": "_controller",
          "type": "address"
        },
        {
          "internalType": "bool",
          "name": "isController_",
          "type": "bool"
        }
      ],
      "name": "setIsController",
      "outputs": [],
      "stateMutability": "nonpayable",
      "type": "function"
    }
  ],
  "bytecode": "0x60803461011857601f62005da938819003918201601f19168301916001600160401b0383118484101761011d57808492604094855283398101031261011857610053602061004c83610133565b9201610133565b600080546001600160a01b039384166001600160a01b0319918216811783556032549294909392680100000000000000008110156101045760018101806032558110156100f057918593916040959360327fb532073b38c83145e3e5135377a08bf9aab55bc0fd7c1179cd4fb995d2a5159c9852602086200192169082541617905582519182526020820152a1604051615c619081620001488239f35b634e487b7160e01b86526032600452602486fd5b634e487b7160e01b86526041600452602486fd5b600080fd5b634e487b7160e01b600052604160045260246000fd5b51906001600160a01b03821682036101185756fe6040608081526004803610156200001557600080fd5b6000803560e01c80631627540c1462000d6e57806330333e6c1462000c3a578063469048401462000c0f57806353a47bb71462000be45780635ab4c6bf1462000b4057806379ba50971462000aa05780638da5cb5b1462000a76578063a70e1b761462000962578063aea00e7914620008c7578063b17d372414620006f8578063b429afeb14620006c2578063c646273e1462000531578063e74b981b146200041a578063e94b0dd214620003cf5763feaa24a914620000d457600080fd5b34620003cc57610140366003190112620003cc57620000f262000de3565b926001600160a01b039060243582811690819003620003c85760443592808416809403620003c45760643591818316809303620003c057608435828116809103620003bc5760a43593838516809503620003b8576001600160401b0399610104358b8111620003b4576200016a9036908c0162000eba565b610124358c81116200035c57620001859036908d0162000eba565b906200019133620010ef565b50156200039157885192614a8a8085019e8f908682109111176200037d57926200020c8c9d9e9f938c9d8b6200021c958998620011a28a39169d8e87528b60208801528601528760608601528860808601528b60a086015260c43560c086015260e43560e08601526101608061010087015285019062000f2f565b9083820361012085015262000f2f565b906101403091015203908af08015620003735784169787519363173a986d60e31b85526020858d818d5afa94851562000369578b9562000321575b50885197620002668962000e29565b8a89526020890152888801526060870152608086015260a08501521660c083015260e0820152603354600160401b8110156200030e5790620002b3826001620002ba940160335562000e68565b9062000f71565b603354600019810191908211620002fb57602094505192827ffc5b38ca9a26266d60d2657ce1b6167ebf09707d0105c99c2c5d401d71e6734e339280a48152f35b634e487b7160e01b845260118552602484fd5b634e487b7160e01b855260418652602485fd5b9094506020813d60201162000360575b81620003406020938362000e46565b810103126200035c575185811681036200035c57933862000257565b8a80fd5b3d915062000331565b89513d8d823e3d90fd5b87513d8b823e3d90fd5b50634e487b7160e01b8c5260418d5260248cfd5b620003b08c8a519182916205d51f60e61b835233903090840162000f15565b0390fd5b8980fd5b8780fd5b8680fd5b8580fd5b8480fd5b8380fd5b80fd5b509190346200041657602036600319011262000416573591603254831015620003cc57506200040060209262000e9e565b905491519160018060a01b039160031b1c168152f35b8280fd5b5091346200041657602036600319011262000416576200043962000de3565b6200044362001168565b6001600160a01b03908116928315620004e3578360345492831614620004a057506001600160a01b0319168217603455519081527fbf9a9534339a9d6b81696e05dcfb614b7dc518a31d48be3cfb757988381fb32390602090a180f35b606490602084519162461bcd60e51b8352820152601d60248201527f526563697069656e74206164647265737320616c7265616479207365740000006044820152fd5b608490602084519162461bcd60e51b8352820152602260248201527f4e657720726563697069656e742061646472657373206973206e6f742076616c6044820152611a5960f21b6064820152fd5b508234620006be5780600319360112620006be576200054f62000de3565b60243580151590818103620003c45781906200056a62001168565b6200057584620010ef565b9290151514620006ae5715620005f05750603254600160401b8110156200030e577f9c1e55b2ea976b1ce106746d9325847e838c89adca542764df43b80cadb59b0494955082620005d1826001620005d8940160325562000e9e565b90620010d1565b82516001600160a01b0390921682526020820152a180f35b603254600019908181019081116200069b576200061f62000615620006379262000e9e565b9190549462000e9e565b909160018060a01b0395869160031b1c1691620010d1565b603254801562000688577f9c1e55b2ea976b1ce106746d9325847e838c89adca542764df43b80cadb59b049697500190620006728262000e9e565b909182549160031b1b19169055603255620005d8565b634e487b7160e01b875260318852602487fd5b634e487b7160e01b875260118852602487fd5b845163ca231c2360e01b81528790fd5b5080fd5b508234620006be576020366003190112620006be57602090620006ee620006e862000de3565b620010ef565b5090519015158152f35b50913462000416576020366003190112620004165781356200071a33620010ef565b5015620008ac576033549182821015620008745750620007456200073e8262000e68565b506200105b565b90600019928381019081116200086157858282146200082a57506200073e6200076e9162000e68565b916200077f83620002b38462000e68565b5191516001600160a01b0390811692167ffb696c62b7ad0038088ba9e1594c1f36c9029cc7d3c066b8cdb2b10f1d8123298680a45b603354801562000817570190620007cb8262000e68565b9190916200080557818460079281809555816001840155816002840155816003840155820155826005820155826006820155015560335580f35b634e487b7160e01b8452839052602483fd5b634e487b7160e01b845260318352602484fd5b92516001600160a01b031690507ffb696c62b7ad0038088ba9e1594c1f36c9029cc7d3c066b8cdb2b10f1d8123298380a4620007b4565b634e487b7160e01b865260118552602486fd5b5162461bcd60e51b81526020818501526013602482015272496e646578206f7574206f6620626f756e647360681b6044820152606490fd5b81516205d51f60e61b815280620003b0333083880162000f15565b50919034620004165760203660031901126200041657803592603354841015620003cc5750620008fa6101009362000e68565b5060018060a01b038082541693816001840154169382600285015416838060038701541692860154169284600587015416946007816006890154169701541696815198895260208901528701526060860152608085015260a084015260c083015260e0820152f35b509134620004165780600319360112620004165781359160248035936200098933620010ef565b501562000a5b5760335485620009a0838362001027565b1062000a44575b50855b858110620009b6578680f35b81810180821162000a3257620009cd889162000e68565b50546001600160a01b0316803b15620006be578190868851809481936373ca7c7b60e01b83525af1801562000a28579062000a10929162000a16575b506200104b565b620009aa565b62000a219062000dff565b3862000a09565b86513d8a823e3d90fd5b634e487b7160e01b8852601185528388fd5b8195509062000a539162001027565b9338620009a7565b83516205d51f60e61b815280620003b0333083880162000f15565b508234620006be5781600319360112620006be57905490516001600160a01b039091168152602090f35b509190346200041657826003193601126200041657600154906001600160a01b03808316913383900362000b1f5750817fb532073b38c83145e3e5135377a08bf9aab55bc0fd7c1179cd4fb995d2a5159c9162000b068754965192839288168362000f15565b0390a16001600160a01b03199283161783551660015580f35b84516312d9f3db60e31b815292839250620003b09133903090850162001145565b508234620006be576020366003190112620006be5762000b6033620010ef565b501562000bca578262000b7583943562000e68565b50546001600160a01b0316803b1562000bc55783918351809581936373ca7c7b60e01b83525af190811562000bbc575062000bae575080f35b62000bb99062000dff565b80f35b513d84823e3d90fd5b505050fd5b516205d51f60e61b815280620003b0333083870162000f15565b508234620006be5781600319360112620006be5760015490516001600160a01b039091168152602090f35b508234620006be5781600319360112620006be5760345490516001600160a01b039091168152602090f35b509134620004165760209182600319360112620003c85780356001600160401b0393848211620003c05736602383011215620003c0578183013594851162000d5b5760059185831b85519662000c938483018962000e46565b87526024838801918301019136831162000d57576024849101915b83831062000d46575050505062000cc533620010ef565b501562000a5b579085939291845b865181101562000d425762000cef8282851b8901015162000e68565b50546001600160a01b0316803b15620003bc57868091868851809481936373ca7c7b60e01b83525af1801562000d38579062000d32929162000a1657506200104b565b62000cd3565b86513d89823e3d90fd5b8580f35b823581529181019184910162000cae565b8880fd5b634e487b7160e01b865260418352602486fd5b508234620006be576020366003190112620006be5760207f906a1c6bd7e3091ea86693dd029a831c19049ce77f1dce2ce0bab1cacbabce229162000db162000de3565b62000dbb62001168565b600180546001600160a01b0319166001600160a01b039290921691821790559051908152a180f35b600435906001600160a01b038216820362000dfa57565b600080fd5b6001600160401b03811162000e1357604052565b634e487b7160e01b600052604160045260246000fd5b61010081019081106001600160401b0382111762000e1357604052565b90601f801991011681019081106001600160401b0382111762000e1357604052565b60335481101562000e8857603360005260206000209060031b0190600090565b634e487b7160e01b600052603260045260246000fd5b60325481101562000e8857603260005260206000200190600090565b81601f8201121562000dfa578035906001600160401b03821162000e13576040519262000ef2601f8401601f19166020018562000e46565b8284526020838301011162000dfa57816000926020809301838601378301015290565b6001600160a01b0391821681529116602082015260400190565b919082519283825260005b84811062000f5c575050826000602080949584010152601f8019910116010190565b60208183018101518483018201520162000f3a565b90620010115760018060a01b0360e06007828551169360018060a01b03199485825416178155600181018460208801511686825416179055600281018460408801511686825416179055600381018460608801511686825416179055600481018460808801511686825416179055600581018460a08801511686825416179055600681018460c08801511686825416179055019301511690825416179055565b634e487b7160e01b600052600060045260246000fd5b919082039182116200103557565b634e487b7160e01b600052601160045260246000fd5b6000198114620010355760010190565b906040516200106a8162000e29565b82546001600160a01b0390811682526001840154811660208301526002840154811660408301526003840154811660608301526004840154811660808301526005840154811660a08301526006840154811660c083015260079093015490921660e0830152565b919082549060031b9160018060a01b03809116831b921b1916179055565b603254919060005b8381106200110b5750509050600090600090565b620011168162000e9e565b905460039190911b1c6001600160a01b03908116908316146200113c57600101620010f7565b92505060019190565b6001600160a01b0391821681529181166020830152909116604082015260600190565b6000546001600160a01b031633819003620011805750565b60405163035785f360e31b8152908190620003b0903330600485016200114556fe60e06040815261010060405234620003575762004a8a908138038062000025816200035c565b9384398201610160838203126200035757620000418362000398565b90620000506020850162000398565b916200005f8451860162000398565b926200006e6060870162000398565b906200007d6080880162000398565b936200008c60a0890162000398565b9260c089015196888a0151996101008101519260018060401b0393848111620003575785620000bd918401620003d2565b94610120830151858111620003575761014091620000dd918501620003d2565b920151986001600160a01b0398898b168b03620003575789169160018060a01b03199260009881858b5416178a5560325468010000000000000000811015620003435760018101806032558110156200032f578f937fb532073b38c83145e3e5135377a08bf9aab55bc0fd7c1179cd4fb995d2a5159c8e9586958e99989587809660328d5260208d200191168a825416179055815151998a5260208a0152518098a18b6039558b603a558b603b558b603c558b603d558b603e558b603f551684603454161760345516948583603554161760355516906033541617603355519361162780860194868610908611176200031b5791620001f362000202928796959462003463883960608652606086019062000429565b90848203602086015262000429565b918a510152039082f09081156200030f57506080521660a05260c0526039555190428255604155516130129081620004518239608051818181610c1401528181610fa601528181611803015281816119c501528181611e4a01528181611e9d015281816121e9015281816123dd0152818161256501528181612808015281816129d40152612c32015260a0518181816103a801528181610600015281816106c301528181610a1801528181610c380152818161104d015281816111f601528181611b1501528181611d5701528181611da501528181611f0701528181611fec0152818161205901528181612b120152612c7b015260c0518181816105bb015281816115950152612d220152f35b865151903d90823e3d90fd5b634e487b7160e01b87526041600452602487fd5b634e487b7160e01b8b52603260045260248bfd5b634e487b7160e01b8b52604160045260248bfd5b600080fd5b6040519190601f01601f191682016001600160401b038111838210176200038257604052565b634e487b7160e01b600052604160045260246000fd5b51906001600160a01b03821682036200035757565b60005b838110620003c15750506000910152565b8181015183820152602001620003b0565b81601f82011215620003575780516001600160401b038111620003825762000404601f8201601f19166020016200035c565b92818452602082840101116200035757620004269160208085019101620003ad565b90565b906020916200044481518092818552858086019101620003ad565b601f01601f191601019056fe6080604052600436101561001257600080fd5b6000803560e01c80630126c60614612465578063015c6d411461238b578063029e638c1461236d57806305aae21c1461232a57806307d8bd88146122e45780630b8bc4b91461215a5780630c4f65bd146113e7578063152fcb0c14611cb95780631627540c14611c4b5780631c3c0ea814611bc25780632287e96a14611b9c5780632eebe78e14611b76578063394d5f3114611a715780633ed790c814611a535780633ef1e0531461194f57806345d61ded14611926578063481bf0b81461190857806349d0e0e61461177057806353a47bb71461174757806358f67c0b146117295780635b17d04b146116e057806362518ddf1461168d5780636c15c8991461166f5780636dc7b0a1146115ed57806373ca7c7b1461158257806379ba5097146114ec5780637d6318be146114c25780637e108d52146114845780637e8bcedc1461146557806383290a3c1461140e5780638da5cb5b146113e75780638de3934b146111a557806397cc6c9c146111825780639ec004a2146111395780639f50d8c914610f23578063adfcf2ce14610ed1578063b04a10ad14610e7b578063b0b1f9e914610bd4578063b429afeb14610ba5578063b9d4c36814610388578063bc7b975a14610b16578063bfad102d146109af578063c34c08e514610986578063c646273e14610806578063cb8274741461062f578063ccc41f24146105ea578063ddea3bc6146105a5578063e0e72ad71461038d578063e112316614610388578063e1956f6a1461036a578063e3b3932a14610341578063e94b0dd2146102fd578063f0e7eef3146102df578063f4887f151461029a5763fae6f77b1461027a57600080fd5b346102975780600319360112610297576020603e54604051908152f35b80fd5b5034610297576020366003190112610297576102b4612480565b6102bc612f66565b603580546001600160a01b0319166001600160a01b039290921691909117905580f35b50346102975780600319360112610297576020604154604051908152f35b5034610297576020366003190112610297576004359060325482101561029757602061032883612594565b905460405160039290921b1c6001600160a01b03168152f35b50346102975780600319360112610297576034546040516001600160a01b039091168152602090f35b50346102975780600319360112610297576020603c54604051908152f35b61254f565b5080600319360112610297576040516395d89b4160e01b81527f00000000000000000000000000000000000000000000000000000000000000006001600160a01b031691908181600481865afa9081156104a2578291610503575b5060405161041360208281610406818301968781519384920161263c565b81010380845201826124c4565b51902091604051926020840190630ae8aa8960e31b82526004855260408501918583106001600160401b038411176104ed578260405285519020036104b057508082913b156104ad578160049160405192838092630d0e30db60e41b825234905af180156104a25761048e575b5061048b33346128f8565b80f35b61049790612496565b610297578082610480565b6040513d84823e3d90fd5b50fd5b60649078088cae0dee6d2e840c2e6e6cae840d2e640dcdee840ae8aa89603b1b60848662461bcd60e51b8452602060448201526019858201520152fd5b634e487b7160e01b600052604160045260246000fd5b90503d8083833e61051481836124c4565b8101906020818303126105a15780516001600160401b039182821161059d570182601f820112156105855780519182116105895760405192610560601f8401601f1916602001856124c4565b82845260208383010111610585579061057f916020808501910161263c565b386103e8565b8380fd5b634e487b7160e01b84526041600452602484fd5b8480fd5b8280fd5b50346102975780600319360112610297576040517f00000000000000000000000000000000000000000000000000000000000000006001600160a01b03168152602090f35b50346102975780600319360112610297576040517f00000000000000000000000000000000000000000000000000000000000000006001600160a01b03168152602090f35b503461029757602080600319360112610802576004356035549160ff8360a01c16156107f0576001600160a01b039283168181610783575b603454604051636bf12e1b60e11b815292508290600490829088165afa90811561077857859161075b575b50610749578115610737578060405180946323b872dd60e01b82528187816106bf8830336004850161261a565b03927f0000000000000000000000000000000000000000000000000000000000000000165af192831561072c5761048b936106fe575b505033906128f8565b8161071d92903d10610725575b61071581836124c4565b810190612602565b5038806106f5565b503d61070b565b6040513d86823e3d90fd5b60405163162908e360e11b8152600490fd5b604051635160caeb60e01b8152600490fd5b6107729150823d84116107255761071581836124c4565b38610692565b6040513d87823e3d90fd5b604051634bf0d33160e01b815233600482015291829060249082905afa9081156107785785916107d3575b50156107bb573881610667565b604051636f8bf18b60e11b8152336004820152602490fd5b6107ea9150823d84116107255761071581836124c4565b386107ae565b60405163bb60b89360e01b8152600490fd5b5080fd5b503461029757604036600319011261029757610820612480565b60243580151590818103610981578190610838612f66565b61084184612f15565b929015151461096f57156108b65750603254600160401b811015610589579160409161089e826108988660017f9c1e55b2ea976b1ce106746d9325847e838c89adca542764df43b80cadb59b049801603255612594565b90612ef7565b82516001600160a01b0390921682526020820152a180f35b6032546000199081810190811161095b576108df6108d66108f692612594565b91905494612594565b909160018060a01b0395869160031b1c1691612ef7565b60325480156109475791604093917f9c1e55b2ea976b1ce106746d9325847e838c89adca542764df43b80cadb59b049593019061093282612594565b909182549160031b1b1916905560325561089e565b634e487b7160e01b86526031600452602486fd5b634e487b7160e01b86526011600452602486fd5b60405163ca231c2360e01b8152600490fd5b600080fd5b50346102975780600319360112610297576033546040516001600160a01b039091168152602090f35b5034610297576020366003190112610297576004356109cd33612f15565b501580610b01575b610aef578015610737576033546040516323b872dd60e01b81526001600160a01b039160209082908190610a12908790309088166004850161261a565b038187867f0000000000000000000000000000000000000000000000000000000000000000165af1801561072c57610ad1575b50828160345416803b1561080257818091602460405180948193634da508bd60e11b83528160048401525af180156104a257610abd575b5050610ab77f5f5461337a7b592dbc9b320ef757852119268371159951a00838a45be16725c991603354166040519182913395429184612700565b0390a280f35b610ac690612496565b6105a1578238610a7c565b610ae89060203d81116107255761071581836124c4565b5038610a45565b60405163c678078760e01b8152600490fd5b506033546001600160a01b03163314156109d5565b503461029757806003193601126102975760345460408051635e3dcbad60e11b81529291839060049082906001600160a01b03165afa8015610b98576040928291610b69575b5082519182526020820152f35b9050610b8b9150823d8411610b91575b610b8381836124c4565b81019061278f565b38610b5c565b503d610b79565b50604051903d90823e3d90fd5b5034610297576020366003190112610297576020610bc9610bc4612480565b612f15565b506040519015158152f35b50346102975760208060031936011261080257600435610bf333612f15565b5015610e5c5790610c02612c0e565b610c0a61271e565b6001600160a01b037f00000000000000000000000000000000000000000000000000000000000000008116927f000000000000000000000000000000000000000000000000000000000000000082169291865b868110610c68578780f35b603c90815491828a526037855260408a209260ff6004850154168015610e50575b610e33575060028301805460405163313ce56760e01b81528c9188826004818e5afa918215610e2857610cc29392610df9575b50612fad565b670de0b6b3a764000090818102918183041490151715610de357610ce8886001926127b8565b940185815416908c8b3b1561029757868c610d1a94836040518097819582946340c10f1960e01b84526004840161265f565b03925af18d8115610dd75788938a92610db8575b50610da4938593610db39993610d7960407f8484d0d048aacc79aad8446b51b2b1bd7c4f0caac29807111dad9940137cf4e1956038610dac9b549487875416835252209182546126be565b90558454610d8a603a9182546126be565b90555416918b87549586955460405193849342928561267a565b0390a36126af565b90556126af565b610c5d565b819450610dc9919250949294612496565b610802579187879238610d2e565b604051903d90823e3d90fd5b634e487b7160e01b600052601160045260246000fd5b610e1a919250893d8b11610e21575b610e1281836124c4565b810190612696565b9038610cbc565b503d610e08565b6040513d85823e3d90fd5b9250603f548314610e4a57610dac610db3936126af565b50508780f35b50600284015415610c89565b6040516205d51f60e61b815280610e773330600484016125c5565b0390fd5b503461029757602036600319011261029757600435610e9933612f15565b5015610e5c576020817f95a0243c316589285f95e5fb8405ae246849d50ac6c243a137fa837bc9c4737292604155604051908152a180f35b5034610297578060031936011261029757603454604080516356fe796760e11b81529291839060049082906001600160a01b03165afa8015610b98576040928291610b69575082519182526020820152f35b503461029757610f32366124e5565b610f3b33612f15565b5015610e5c57610f49612c0e565b6034546001600160a01b039085908216803b156108025781809160246040518094819363bd606e4360e01b83528a60048401525af180156104a257611125575b5050670de0b6b3a76400009182610fa085876127a5565b049286837f000000000000000000000000000000000000000000000000000000000000000016803b1561080257604051632770a7eb60e21b81529082908290818381610ff08e8b6004840161265f565b03925af180156104a257611111575b508360345416803b1561080257818091602460405180948193634da508bd60e11b83528160048401525af180156104a2576110f9575b505060405163313ce56760e01b8152906020826004817f000000000000000000000000000000000000000000000000000000000000000088165afa80156110ee577fc05eeea5e1bd078cc02ff7df688ac51818dead23c486fe0c73c983fcde8f615c956110b06110b6926110ca958c916110d0575b50612f9c565b906127a5565b04956040519384931696339642928561267a565b0390a380f35b6110e8915060203d8111610e2157610e1281836124c4565b386110aa565b6040513d8a823e3d90fd5b61110290612496565b61110d578638611035565b8680fd5b61111a90612496565b61110d578638610fff565b61112e90612496565b61059d578438610f89565b50346102975760203660031901126102975761115361250f565b61115c33612f15565b5015610e5c576035805460ff60a81b191691151560a81b60ff60a81b1691909117905580f35b5034610297578060031936011261029757602061119d6127d8565b604051908152f35b50346102975760208060031936011261080257600435906111c533612f15565b5015806113d2575b610aef578115610737576040516370a0823160e01b8082523060048301526001600160a01b03927f00000000000000000000000000000000000000000000000000000000000000008416929091908281602481875afa9081156113c757879161139a575b508511611327575090816004928460335416926040519485809263313ce56760e01b82525afa801561131c5761127a936112749288926112ff575b505085612fad565b90612b03565b828160345416803b1561080257818091602460405180948193634da508bd60e11b83528160048401525af180156104a2576112eb575b5050610ab77fa0c9539f771d811a9bde1fd380f707644ed3705981d0bfc2176fbba03acc9e5a91603354166040519182913395429184612700565b6112f490612496565b6105a15782386112b0565b6113159250803d10610e2157610e1281836124c4565b388061126c565b6040513d88823e3d90fd5b859350819060246040518095819382523060048301525afa928315610dd7579261136c575b5050610e776040519283926301baa75760e21b84523391600485016126df565b90809250813d8311611393575b61138381836124c4565b810103126109815751828061134c565b503d611379565b90508281813d83116113c0575b6113b181836124c4565b81010312610981575138611231565b503d6113a7565b6040513d89823e3d90fd5b506033546001600160a01b03163314156111cd565b5034610297578060031936011261029757546040516001600160a01b039091168152602090f35b5034610297576020366003190112610297576040906004358152603760205220805461146160018060a01b036001840154169260028101549060ff6004600383015492015416916040519586958661251e565b0390f35b503461029757806003193601126102975760206040516301e133808152f35b50346102975760203660031901126102975760ff60355460a81c16156114b05761048b336004356129b2565b6040516384340c6960e01b8152600490fd5b5034610297576020366003190112610297576114dd33612f15565b5015610e5c5760043560395580f35b50346102975780600319360112610297576001546001600160a01b039081811633819003611563577fb532073b38c83145e3e5135377a08bf9aab55bc0fd7c1179cd4fb995d2a5159c8185549461154a6040519283928816836125c5565b0390a16001600160a01b03199283161783551660015580f35b6040516312d9f3db60e31b8152908190610e77903330600485016125df565b50346102975780600319360112610297577f00000000000000000000000000000000000000000000000000000000000000006001600160a01b0316338190036115ce575061048b612c0e565b60405163292332c560e21b8152908190610e77903330600485016125df565b5034610297578060031936011261029757603454604051636dc7b0a160e01b81529190602090839060049082906001600160a01b03165afa908115610dd7579061163d575b602090604051908152f35b506020813d8211611667575b81611656602093836124c4565b810103126109815760209051611632565b3d9150611649565b50346102975780600319360112610297576020603954604051908152f35b5034610297576020366003190112610297576040906004358152603660205220805461146160018060a01b036001840154169260028101549060ff6004600383015492015416916040519586958661251e565b5034610297576020366003190112610297576116fa61250f565b61170333612f15565b5015610e5c576035805460ff60a01b191691151560a01b60ff60a01b1691909117905580f35b50346102975780600319360112610297576020603a54604051908152f35b50346102975780600319360112610297576001546040516001600160a01b039091168152602090f35b50346102975761177f366124e5565b61178b92919233612f15565b5015610e5c57611799612c0e565b6034546001600160a01b03919085908316803b156108025781809160246040518094819363bd606e4360e01b83528b60048401525af180156104a2576118f4575b5050670de0b6b3a7640000808402908482041484151715610de357846117ff916127b8565b85837f000000000000000000000000000000000000000000000000000000000000000016803b15610802578160405180926340c10f1960e01b825281838161184b898b6004840161265f565b03925af180156104a2576118e0575b508360345416803b1561080257818091602460405180948193634da508bd60e11b83528160048401525af180156104a2576118c8575b50507fb12af7862b7ebb13c789eb245c14957862a713c5a52151024d063e57b0e9fcc293610ab791604051948594169642928561267a565b6118d190612496565b6118dc578538611890565b8580fd5b6118e990612496565b6118dc57853861185a565b6118fd90612496565b61059d5784386117da565b50346102975780600319360112610297576020603b54604051908152f35b50346102975780600319360112610297576035546040516001600160a01b039091168152602090f35b5034610297576020806003193601126108025761196b33612f15565b5015610e5c57600435825260368152604082206002810180549081156107375760018301805460405163a9059cbb60e01b81529587946001600160a01b03928291899182916119bf9187166004840161265f565b038188867f0000000000000000000000000000000000000000000000000000000000000000165af191821561077857600497603893611a36575b508454935416855252611a14600160408520019182546126be565b9055611a238154603b546126be565b603b555501805460ff1916600117905580f35b611a4c90833d85116107255761071581836124c4565b50386119f9565b50346102975780600319360112610297576020603d54604051908152f35b50346102975760208060031936011261080257611a8d33612f15565b5015610e5c57600435825260378152604082206002810180549081156107375783611b11948693600186019060018060a01b0391829182825416885260388552611adc604089209182546126be565b9055611aeb8654603a546126be565b603a5554169084549186604051809a8195829463a9059cbb60e01b84526004840161265f565b03927f0000000000000000000000000000000000000000000000000000000000000000165af1948515610e2857600495611b58575b50505501805460ff1916600117905580f35b81611b6e92903d106107255761071581836124c4565b503880611b46565b5034610297578060031936011261029757602060ff60355460a01c166040519015158152f35b5034610297578060031936011261029757602060ff60355460a81c166040519015158152f35b503461029757602036600319011261029757611bdc612480565b611be4612f66565b6033546001600160a01b039182169181168214611c39576001600160a01b03191681176033556040519081527f408d9e356c18d649d8224da0d79ce6ee4aa98ecd1b418caa86cc110341dcfcd690602090a180f35b60405163a1002dd160e01b8152600490fd5b5034610297576020366003190112610297577f906a1c6bd7e3091ea86693dd029a831c19049ce77f1dce2ce0bab1cacbabce226020611c88612480565b611c90612f66565b600180546001600160a01b0319166001600160a01b03929092169182179055604051908152a180f35b503461029757602036600319011261029757611cd433612f15565b5015610e5c57611ce2612c0e565b611cea61271e565b815b6004358110611cf9578280f35b603d54908184526036602052604084209160ff600484015416801561214e575b6121325750600282015491670de0b6b3a7640000611d3785856127a5565b6040516370a0823160e01b815230600482015291900493906020816024817f00000000000000000000000000000000000000000000000000000000000000006001600160a01b03165afa9081156113c7578791612100575b5060405163313ce56760e01b81526020816004817f00000000000000000000000000000000000000000000000000000000000000006001600160a01b03165afa80156110ee578692611de7928a926120e65750612fad565b10611fcf5760019060018060a01b03828401541687526038602052611e138260408920019182546126be565b90556002820154611e27603b9182546126be565b905581810154611e419085906001600160a01b0316612b03565b600282015486907f00000000000000000000000000000000000000000000000000000000000000006001600160a01b03163b156108025781611e989160405180938192632770a7eb60e21b8352306004840161265f565b0381837f00000000000000000000000000000000000000000000000000000000000000006001600160a01b03165af180156104a257611fbb575b5050810154815460029092015460405163313ce56760e01b8152946001600160a01b03928316928890602090889060049082907f0000000000000000000000000000000000000000000000000000000000000000165afa8015610b9857611f747fdee2938b47618950fbc852cb8789fcab05248ad4544067b2c5d7903bca46ced1936110b0670de0b6b3a764000093611f9d9b611f879691611fa25750612f9c565b049260405191829133958b42928561267a565b0390a4611f95603d546126af565b603d556126af565b611cec565b6110e8915060203d602011610e2157610e1281836124c4565b611fc490612496565b6118dc578538611ed2565b60405163313ce56760e01b815290945092915060209050826004817f00000000000000000000000000000000000000000000000000000000000000006001600160a01b03165afa90811561072c576110b061203a92670de0b6b3a7640000948791611fa25750612f9c565b6040516370a0823160e01b8152306004820152919004926020826024817f00000000000000000000000000000000000000000000000000000000000000006001600160a01b03165afa908115610dd757906120b2575b610e779150603d54906040519485946374b3335760e11b86526004860161267a565b506020813d6020116120de575b816120cc602093836124c4565b8101031261098157610e779051612090565b3d91506120bf565b610e1a91925060203d602011610e2157610e1281836124c4565b90506020813d60201161212a575b8161211b602093836124c4565b81010312610981575138611d8f565b3d915061210e565b9150603e54821461214957611f95611f9d926126af565b508280f35b50600283015415611d19565b5034610297576020908160031936011261029757600435906001600160401b0380831161080257366023840112156108025782600401359081116122d0578060051b92604051916121ad868601846124c4565b8252848201602480958301019136831161059d578501905b8282106122b1575050506121d833612f15565b5015610e5c576001600160a01b03937f0000000000000000000000000000000000000000000000000000000000000000851690835b83518110156122ad578661222182866126cb565b516040516370a0823160e01b8152911660048201529082828881875afa801561131c57869061227e575b61225c925080612261575b506126af565b61220d565b612278908961227084896126cb565b5116906129b2565b38612256565b508282813d83116122a6575b61229481836124c4565b810103126109815761225c915161224b565b503d61228a565b8480f35b81356001600160a01b03811681036109815781529086019086016121c5565b634e487b7160e01b82526041600452602482fd5b5034610297576020366003190112610297576004356001600160a01b0381169081900361080257612313612f66565b603480546001600160a01b03191691909117905580f35b50346102975760203660031901126102975760409081906001600160a01b03612351612480565b1681526038602052206001815491015482519182526020820152f35b50346102975780600319360112610297576020603f54604051908152f35b5034610297576020366003190112610297576001600160401b03816004358281116108025736602382011215610802578060040135928311610802573660248483010111610802576123db612f66565b7f00000000000000000000000000000000000000000000000000000000000000006001600160a01b0316803b156105a15760248360448694604051978896879586936351c6cf1d60e11b855260206004860152828286015201848401378181018301849052601f01601f191681010301925af180156104a25761245c575080f35b61048b90612496565b5034610297578060031936011261029757602061119d61271e565b600435906001600160a01b038216820361098157565b6001600160401b0381116104ed57604052565b60a081019081106001600160401b038211176104ed57604052565b90601f801991011681019081106001600160401b038211176104ed57604052565b60609060031901126109815760043590602435906044356001600160a01b03811681036109815790565b60043590811515820361098157565b9081526001600160a01b03909116602082015260408101919091526060810191909152901515608082015260a00190565b34610981576000366003190112610981576040517f00000000000000000000000000000000000000000000000000000000000000006001600160a01b03168152602090f35b6032548110156125af57603260005260206000200190600090565b634e487b7160e01b600052603260045260246000fd5b6001600160a01b0391821681529116602082015260400190565b6001600160a01b0391821681529181166020830152909116604082015260600190565b90816020910312610981575180151581036109815790565b6001600160a01b03918216815291166020820152604081019190915260600190565b60005b83811061264f5750506000910152565b818101518382015260200161263f565b6001600160a01b039091168152602081019190915260400190565b9094939260609260808301968352602083015260408201520152565b90816020910312610981575160ff811681036109815790565b6000198114610de35760010190565b91908203918211610de357565b80518210156125af5760209160051b010190565b90815260208101919091526001600160a01b03909116604082015260600190565b604091949392606082019560018060a01b0316825260208201520152565b6034546040516293630360e11b815290602090829060049082906001600160a01b03165afa90811561278357600091612755575090565b906020823d821161277b575b8161276e602093836124c4565b8101031261029757505190565b3d9150612761565b6040513d6000823e3d90fd5b9190826040910312610981576020825192015190565b81810292918115918404141715610de357565b81156127c2570490565b634e487b7160e01b600052601260045260246000fd5b6301e133806127ef6041546110b0604054426126be565b6040516318160ddd60e01b8152919004906020816004817f00000000000000000000000000000000000000000000000000000000000000006001600160a01b03165afa90811561278357600091612868575b5061285e9161286491670de0b6b3a76400009384916110b061271e565b046127a5565b0490565b906020823d8211612893575b81612881602093836124c4565b8101031261029757505161285e612841565b3d9150612874565b6004608091835181556001810160018060a01b0360208601511660018060a01b0319825416179055604084015160028201556060840151600382015501910151151560ff80198354169116179055565b91908201809211610de357565b907fff465791f48805b0254fc0e26cc605e27ef7706d8ee0cf018f8696f58db8367991612964603f546040519061292e826124a9565b80825260018060a01b0385166020830152836040830152426060830152600060808301526000526037602052604060002061289b565b336000526038602052604060002061297d8282546128eb565b905561298b81603a546128eb565b603a5561299f604051928392429184612700565b0390a16129ad603f546126af565b603f55565b6035549060ff60009260a81c16156114b0578015610737576001600160a01b037f0000000000000000000000000000000000000000000000000000000000000000811693909290843b156108025760409482865180926357b3222760e01b8252818381612a238a896004840161265f565b03925af18015612af957957f75ee80b83988612a71be7d746fa5dedc774846d78635fb4b9b595c720af517e79593819593600193612adf99612ae4575b50612aa090603e5496845191612a75836124a9565b888352169687602083015286858301524260608301528360808301528352603660205283832061289b565b84815260386020522001612ab58282546128eb565b9055612ac381603b546128eb565b603b55603e5493838594519283524260208401523392a46126af565b603e55565b91612af2612aa09293612496565b9190612a60565b86513d85823e3d90fd5b60405163313ce56760e01b81527f00000000000000000000000000000000000000000000000000000000000000006001600160a01b031692602091908282600481885afa908115612783576110b0612b6c92670de0b6b3a764000094600091612bf75750612f9c565b049283612b7a575b50505050565b81604051809263a9059cbb60e01b825281600081612b9c8a8a6004840161265f565b03925af191821561278357600092612bda575b505015612bbd578080612b74565b610e7760405192839263343c068360e01b8452306004850161261a565b612bf09250803d106107255761071581836124c4565b3880612baf565b6110e89150863d8811610e2157610e1281836124c4565b604080516318160ddd60e01b81526001600160a01b039190602090600490828183817f000000000000000000000000000000000000000000000000000000000000000089165afa908115612eec57600091612ebf575b50612c6f5750505050565b612c776127d8565b90847f00000000000000000000000000000000000000000000000000000000000000001694845163313ce56760e01b8152848184818a5afa908115612eb457612cd4670de0b6b3a764000092612cda92600091612e9d5750612f9c565b856127a5565b049585516370a0823160e01b9081815230858201528681602481865afa908115612e9257600091612e65575b508811612de1575050838551809363011a412160e61b825281847f0000000000000000000000000000000000000000000000000000000000000000165afa918215612dd657600092612d9b575b50507fd1e263b1899b63613dcd5bce8c17b6355e61ef90d0fb1a21639efc5416413b41939291612d8291612b03565b428255815193845242908401523392a238808080612b74565b8481819493943d8311612dcf575b612db381836124c4565b8101031261080257519182168203610297575081612d82612d53565b503d612da9565b85513d6000823e3d90fd5b83878793848b946024845180948193825230888301525afa948515612e5a57600095612e27575b5050516301baa75760e21b8152928392610e77923092919085016126df565b8181969293963d8311612e53575b612e3f81836124c4565b8101031261029757505192610e7785612e08565b503d612e35565b82513d6000823e3d90fd5b908782813d8311612e8b575b612e7b81836124c4565b8101031261029757505138612d06565b503d612e71565b88513d6000823e3d90fd5b6110e89150883d8a11610e2157610e1281836124c4565b86513d6000823e3d90fd5b908382813d8311612ee5575b612ed581836124c4565b8101031261029757505138612c64565b503d612ecb565b84513d6000823e3d90fd5b919082549060031b9160018060a01b03809116831b921b1916179055565b603254919060005b838110612f305750509050600090600090565b612f3981612594565b905460039190911b1c6001600160a01b0390811690831614612f5d57600101612f1d565b92505060019190565b6000546001600160a01b031633819003612f7d5750565b60405163035785f360e31b8152908190610e77903330600485016125df565b60ff16604d8111610de357600a0a90565b670de0b6b3a764000090818102918183041490151715610de357612fd3612fd992612f9c565b906127b8565b9056fea2646970667358221220ddf4bf48fb12553fb39b1f88a7178d8815ce11e0e25cf704ce510800d8ec4ad464736f6c6343000814003360a060405234620005145762001627803803806200001d8162000519565b928339810190606081830312620005145780516001600160401b039290838111620005145781620000509184016200053f565b92602091828401518281116200051457604091620000709186016200053f565b9301516001600160a01b0381169490859003620005145780519282841162000421576003918254916001958684811c9416801562000509575b82851014620004f357601f93848111620004a8575b508082858211600114620004435760009162000437575b5060001982871b1c191690871b1784555b8651858111620004215760049788548881811c9116801562000416575b848210146200040157908186849311620003ab575b508390868311600114620003445760009262000338575b505060001982871b1c191690871b1787555b60018060a01b031996338860055416176005557fb532073b38c83145e3e5135377a08bf9aab55bc0fd7c1179cd4fb995d2a5159c60408051600081523385820152a16038805460ff60a01b1916600160a01b1790553360805282519586116200032357603754908782811c9216801562000318575b83831014620003035750838111620002b7575b50809285116001146200024757509383949184926000956200023b575b50501b92600019911b1c1916176037555b60385416176038556040516110759081620005b2823960805181818161011401528181610239015281816103c501528181610662015281816107420152610cc80152f35b015193503880620001e6565b92919084601f198116603760005285600020956000905b898383106200029c575050501062000281575b50505050811b01603755620001f7565b01519060f884600019921b161c191690553880808062000271565b8587015189559097019694850194889350908101906200025e565b6037600052816000208480880160051c820192848910620002f9575b0160051c019087905b828110620002ec575050620001c9565b60008155018790620002dc565b92508192620002d3565b602290634e487b7160e01b6000525260246000fd5b91607f1691620001b6565b604190634e487b7160e01b6000525260246000fd5b0151905038806200012f565b90899350601f198316918b600052856000209260005b878282106200039457505084116200037b575b505050811b01875562000141565b015160001983891b60f8161c191690553880806200036d565b8385015186558d979095019493840193016200035a565b90915089600052836000208680850160051c820192868610620003f7575b918b91869594930160051c01915b828110620003e757505062000118565b600081558594508b9101620003d7565b92508192620003c9565b60228a634e487b7160e01b6000525260246000fd5b90607f169062000103565b634e487b7160e01b600052604160045260246000fd5b905083015138620000d5565b889250601f1982169087600052846000209160005b8682821062000491575050831162000478575b5050811b018455620000e6565b85015160001983891b60f8161c1916905538806200046b565b8389015185558c9690940193928301920162000458565b85600052826000208580840160051c820192858510620004e9575b0160051c019088905b828110620004dc575050620000be565b60008155018890620004cc565b92508192620004c3565b634e487b7160e01b600052602260045260246000fd5b93607f1693620000a9565b600080fd5b6040519190601f01601f191682016001600160401b038111838210176200042157604052565b919080601f84011215620005145782516001600160401b038111620004215760209062000575601f8201601f1916830162000519565b92818452828287010111620005145760005b8181106200059d57508260009394955001015290565b85810183015184820184015282016200058756fe608060408181526004918236101561001657600080fd5b600092833560e01c91826306fdde031461097c57508163095ea7b3146108d25781631627540c1461086357816318160ddd1461084457816323b872dd14610812578163313ce567146107f657816340c10f191461071757816345d61ded146106ee57816353a47bb7146106c557816357b322271461064557816370a082311461060e57816379ba5097146105765781638da5cb5b1461054d57816395d89b411461048c5781639dc29fac1461039b578163a38d9e3a146101ec57508063a5a877fb146101c0578063a9059cbb1461018f578063dd62ed3e146101475763e9176c601461010157600080fd5b34610143578160031936011261014357517f00000000000000000000000000000000000000000000000000000000000000006001600160a01b03168152602090f35b5080fd5b503461014357806003193601126101435780602092610164610a92565b61016c610aad565b6001600160a01b0391821683526001865283832091168252845220549051908152f35b50346101435780600319360112610143576020906101b76101ae610a92565b60243590610ed8565b90519015158152f35b82346101e957806003193601126101e9576101d9610fe9565b6038805460ff60a01b1916905580f35b80fd5b83833461014357602092836003193601126103975780356001600160401b039283821161039357366023830112156103935781830135938411610393576024923684868501011161038f577f0000000000000000000000000000000000000000000000000000000000000000916001600160a01b038316330361036d57505050610277603754610ac3565b601f8111610329575b508394601f84116001146102c057509383948394936102b3575b5050508160011b916000199060031b1c19161760375580f35b010135905083808061029a565b91601f19841695603786528386209386905b88821061030f5750508460019697106102f3575b50505050811b0160375580f35b60001960f88660031b161c1992010135169055838080806102e6565b8060018497868395968901013581550196019201906102d2565b60378552858520601f850160051c810191878610610363575b601f0160051c01905b8181106103585750610280565b85815560010161034b565b9091508190610342565b5163026ab1d560e51b815291829161038b9190339030908501610fc6565b0390fd5b8580fd5b8480fd5b8280fd5b839150346101435782600319360112610143576103b6610a92565b90602435906001600160a01b037f0000000000000000000000000000000000000000000000000000000000000000818116330361046f575083169283156104585783855284602052858520549183831061043d575050818495600080516020611020833981519152936020938688528785520381872055816002540360025551908152a380f35b61038b8484895194859463391434e360e21b86528501610eba565b8551634b637e8f60e11b8152808301869052602490fd5b865163026ab1d560e51b815290819061038b903330848801610fc6565b838334610143578160031936011261014357805191809380546104ae81610ac3565b8086529160019180831690811561052257506001146104e7575b6104e386866104d9828b0383610afd565b5191829182610a49565b0390f35b835260208084209096505b82841061050f57505050826104e3946104d99282010194866104c8565b80548685018801529286019281016104f2565b90506104e397506104d99450602092508693915060ff191682840152151560051b82010194866104c8565b50503461014357816003193601126101435760055490516001600160a01b039091168152602090f35b9050346103975782600319360112610397576006546001600160a01b039290918383169190338390036105ef57507fb532073b38c83145e3e5135377a08bf9aab55bc0fd7c1179cd4fb995d2a5159c906005549481519086168152836020820152a16001600160a01b0319928316176005551660065580f35b90516312d9f3db60e31b815291829161038b9190339030908501610fc6565b5050346101435760203660031901126101435760209181906001600160a01b03610636610a92565b16815280845220549051908152f35b83915034610143578260031936011261014357610660610a92565b7f0000000000000000000000000000000000000000000000000000000000000000939091906001600160a01b03851633036106a657836106a36024358786610e03565b80f35b5163026ab1d560e51b815290819061038b908690339030908501610fc6565b50503461014357816003193601126101435760065490516001600160a01b039091168152602090f35b50503461014357816003193601126101435760385490516001600160a01b039091168152602090f35b91905034610397578060031936011261039757610732610a92565b60243591906001600160a01b03907f000000000000000000000000000000000000000000000000000000000000000082811633036107d95750169283156107c457600254908382018092116107b1575084926000805160206110208339815191529260209260025585855284835280852082815401905551908152a380f35b634e487b7160e01b865260119052602485fd5b84602492519163ec442f0560e01b8352820152fd5b835163026ab1d560e51b815290819061038b903330848b01610fc6565b5050346101435781600319360112610143576020905160128152f35b505034610143576060366003190112610143576020906101b7610833610a92565b61083b610aad565b60443591610b86565b5050346101435781600319360112610143576020906002549051908152f35b5050346101435760203660031901126101435760207f906a1c6bd7e3091ea86693dd029a831c19049ce77f1dce2ce0bab1cacbabce22916108a2610a92565b6108aa610fe9565b600680546001600160a01b0319166001600160a01b039290921691821790559051908152a180f35b9050346103975781600319360112610397576108ec610a92565b602435903315610965576001600160a01b031691821561094e57508083602095338152600187528181208582528752205582519081527f8c5be1e5ebec7d5bd14f71427d1e84f3dd0314c0f7b2291e5b200ac8c7c3b925843392a35160018152f35b8351634a1406b160e11b8152908101859052602490fd5b835163e602df0560e01b8152808401869052602490fd5b849084346103975782600319360112610397578260375461099c81610ac3565b80855290600190818116908115610a2157506001146109c8575b5050506104d9826104e3940383610afd565b60378352602095507f42a7b7dd785cd69714a189dffb3fd7d7174edc9ece837694ce50f7078f7c31ae5b828410610a0e57505050826104e3946104d992820101946109b6565b80548685018801529286019281016109f2565b6104e397506104d99450602092508693915060ff191682840152151560051b820101946109b6565b6020808252825181830181905290939260005b828110610a7e57505060409293506000838284010152601f8019910116010190565b818101860151848201604001528501610a5c565b600435906001600160a01b0382168203610aa857565b600080fd5b602435906001600160a01b0382168203610aa857565b90600182811c92168015610af3575b6020831014610add57565b634e487b7160e01b600052602260045260246000fd5b91607f1691610ad2565b90601f801991011681019081106001600160401b03821117610b1e57604052565b634e487b7160e01b600052604160045260246000fd5b90816020910312610aa857518015158103610aa85790565b15610b5357565b60405162461bcd60e51b815260206004820152600b60248201526a109b1858dadb1a5cdd195960aa1b6044820152606490fd5b919060ff60385460a01c1680610ca9575b610c9b576038546001600160a01b039390841680610bbd5750610bba9350610d3d565b90565b6040516342c02d4160e11b80825233600483015290956020918288602481875afa978815610c7057600098610c7c575b5087610c09575b50505050610c04610bba94610b4c565b610d3d565b8293975060249060405198899384928352881660048301525afa8015610c7057610bba95610c0492600092610c43575b5050943880610bf4565b610c629250803d10610c69575b610c5a8183610afd565b810190610b34565b3880610c39565b503d610c50565b6040513d6000823e3d90fd5b610c94919850833d8511610c6957610c5a8183610afd565b9638610bed565b610ca492610e03565b600190565b50604051630c4f65bd60e01b81526001600160a01b03906020816004817f000000000000000000000000000000000000000000000000000000000000000086165afa908115610c7057600091610d03575b50163314610b97565b6020813d8211610d35575b81610d1b60209383610afd565b8101031261014357519082821682036101e9575038610cfa565b3d9150610d0e565b6001600160a01b03811660008181526001602081815260408084203385529091528083205490979695949390918201610d7f575b505050610ca4939450610e03565b858210610de7578015610dcf573315610db757610ca49697918691845260016020528284203385526020520391205584933880610d71565b8751634a1406b160e11b815260048101849052602490fd5b875163e602df0560e01b815260048101849052602490fd5b8751637dc7a0d960e11b81528061038b88853360048501610eba565b916001600160a01b03808416928315610ea15716928315610e885760009083825281602052604082205490838210610e6b57509160408282600080516020611020833981519152958760209652828652038282205586815220818154019055604051908152a3565b61038b8460405193849363391434e360e21b855260048501610eba565b60405163ec442f0560e01b815260006004820152602490fd5b604051634b637e8f60e11b815260006004820152602490fd5b604091949392606082019560018060a01b0316825260208201520152565b6038546000939291906001600160a01b0390811680610eff575050610ca492935033610e03565b6040516342c02d4160e11b808252336004830152909493926020918287602481875afa968715610c7057600097610fa7575b5086610f50575b50505050610f48610f4e93610b4c565b33610e03565b565b8293965060249060405197889384928352871660048301525afa8015610c7057610f4e94610f4892600092610f8a575b5050933880610f38565b610fa09250803d10610c6957610c5a8183610afd565b3880610f80565b610fbf919750833d8511610c6957610c5a8183610afd565b9538610f31565b6001600160a01b0391821681529181166020830152909116604082015260600190565b6005546001600160a01b0316338190036110005750565b60405163035785f360e31b815290819061038b90333060048501610fc656feddf252ad1be2c89b69c2b068fc378daa952ba7f163c4a11628f55a4df523b3efa26469706673582212208d1654658ac6364579f785519e61194ac5850aec2f576d1ee11f7c9848f8ed5764736f6c63430008140033a2646970667358221220f41612f312020942a674e04e29ddc9ceff3918600776dd5ed0187f0774c91e5364736f6c63430008140033",
  "linkReferences": {},
  "deployedLinkReferences": {}
}